{
	"SimpleSwap.sol": {
		"SimpleSwap": {
			"abi": [
				{
					"inputs": [
						{
							"internalType": "address",
							"name": "token",
							"type": "address"
						}
					],
					"name": "SafeERC20FailedOperation",
					"type": "error"
				},
				{
					"anonymous": false,
					"inputs": [
						{
							"indexed": true,
							"internalType": "address",
							"name": "provider",
							"type": "address"
						},
						{
							"indexed": false,
							"internalType": "address",
							"name": "tokenA",
							"type": "address"
						},
						{
							"indexed": false,
							"internalType": "address",
							"name": "tokenB",
							"type": "address"
						},
						{
							"indexed": false,
							"internalType": "uint256",
							"name": "amountA",
							"type": "uint256"
						},
						{
							"indexed": false,
							"internalType": "uint256",
							"name": "amountB",
							"type": "uint256"
						},
						{
							"indexed": false,
							"internalType": "uint256",
							"name": "liquidity",
							"type": "uint256"
						}
					],
					"name": "LiquidityAdded",
					"type": "event"
				},
				{
					"anonymous": false,
					"inputs": [
						{
							"indexed": true,
							"internalType": "address",
							"name": "provider",
							"type": "address"
						},
						{
							"indexed": false,
							"internalType": "address",
							"name": "tokenA",
							"type": "address"
						},
						{
							"indexed": false,
							"internalType": "address",
							"name": "tokenB",
							"type": "address"
						},
						{
							"indexed": false,
							"internalType": "uint256",
							"name": "amountA",
							"type": "uint256"
						},
						{
							"indexed": false,
							"internalType": "uint256",
							"name": "amountB",
							"type": "uint256"
						},
						{
							"indexed": false,
							"internalType": "uint256",
							"name": "liquidity",
							"type": "uint256"
						}
					],
					"name": "LiquidityRemoved",
					"type": "event"
				},
				{
					"anonymous": false,
					"inputs": [
						{
							"indexed": true,
							"internalType": "address",
							"name": "sender",
							"type": "address"
						},
						{
							"indexed": false,
							"internalType": "address",
							"name": "tokenIn",
							"type": "address"
						},
						{
							"indexed": false,
							"internalType": "address",
							"name": "tokenOut",
							"type": "address"
						},
						{
							"indexed": false,
							"internalType": "uint256",
							"name": "amountIn",
							"type": "uint256"
						},
						{
							"indexed": false,
							"internalType": "uint256",
							"name": "amountOut",
							"type": "uint256"
						}
					],
					"name": "Swap",
					"type": "event"
				},
				{
					"inputs": [
						{
							"internalType": "address",
							"name": "tokenA",
							"type": "address"
						},
						{
							"internalType": "address",
							"name": "tokenB",
							"type": "address"
						},
						{
							"internalType": "uint256",
							"name": "amountADesired",
							"type": "uint256"
						},
						{
							"internalType": "uint256",
							"name": "amountBDesired",
							"type": "uint256"
						},
						{
							"internalType": "uint256",
							"name": "amountAMin",
							"type": "uint256"
						},
						{
							"internalType": "uint256",
							"name": "amountBMin",
							"type": "uint256"
						},
						{
							"internalType": "address",
							"name": "to",
							"type": "address"
						},
						{
							"internalType": "uint256",
							"name": "deadline",
							"type": "uint256"
						}
					],
					"name": "addLiquidity",
					"outputs": [
						{
							"internalType": "uint256",
							"name": "amountA",
							"type": "uint256"
						},
						{
							"internalType": "uint256",
							"name": "amountB",
							"type": "uint256"
						},
						{
							"internalType": "uint256",
							"name": "liquidity",
							"type": "uint256"
						}
					],
					"stateMutability": "nonpayable",
					"type": "function"
				},
				{
					"inputs": [
						{
							"internalType": "uint256",
							"name": "amountIn",
							"type": "uint256"
						},
						{
							"internalType": "uint256",
							"name": "reserveIn",
							"type": "uint256"
						},
						{
							"internalType": "uint256",
							"name": "reserveOut",
							"type": "uint256"
						}
					],
					"name": "getAmountOut",
					"outputs": [
						{
							"internalType": "uint256",
							"name": "amountOut",
							"type": "uint256"
						}
					],
					"stateMutability": "pure",
					"type": "function"
				},
				{
					"inputs": [
						{
							"internalType": "address",
							"name": "tokenA",
							"type": "address"
						},
						{
							"internalType": "address",
							"name": "tokenB",
							"type": "address"
						}
					],
					"name": "getPrice",
					"outputs": [
						{
							"internalType": "uint256",
							"name": "price",
							"type": "uint256"
						}
					],
					"stateMutability": "view",
					"type": "function"
				},
				{
					"inputs": [
						{
							"internalType": "address",
							"name": "tokenA",
							"type": "address"
						},
						{
							"internalType": "address",
							"name": "tokenB",
							"type": "address"
						},
						{
							"internalType": "uint256",
							"name": "liquidity",
							"type": "uint256"
						},
						{
							"internalType": "uint256",
							"name": "amountAMin",
							"type": "uint256"
						},
						{
							"internalType": "uint256",
							"name": "amountBMin",
							"type": "uint256"
						},
						{
							"internalType": "address",
							"name": "to",
							"type": "address"
						},
						{
							"internalType": "uint256",
							"name": "deadline",
							"type": "uint256"
						}
					],
					"name": "removeLiquidity",
					"outputs": [
						{
							"internalType": "uint256",
							"name": "amountA",
							"type": "uint256"
						},
						{
							"internalType": "uint256",
							"name": "amountB",
							"type": "uint256"
						}
					],
					"stateMutability": "nonpayable",
					"type": "function"
				},
				{
					"inputs": [
						{
							"internalType": "uint256",
							"name": "amountIn",
							"type": "uint256"
						},
						{
							"internalType": "uint256",
							"name": "amountOutMin",
							"type": "uint256"
						},
						{
							"internalType": "address[]",
							"name": "path",
							"type": "address[]"
						},
						{
							"internalType": "address",
							"name": "to",
							"type": "address"
						},
						{
							"internalType": "uint256",
							"name": "deadline",
							"type": "uint256"
						}
					],
					"name": "swapExactTokensForTokens",
					"outputs": [
						{
							"internalType": "uint256[]",
							"name": "amounts",
							"type": "uint256[]"
						}
					],
					"stateMutability": "nonpayable",
					"type": "function"
				}
			],
			"devdoc": {
				"errors": {
					"SafeERC20FailedOperation(address)": [
						{
							"details": "An operation with an ERC-20 token failed."
						}
					]
				},
				"kind": "dev",
				"methods": {
					"addLiquidity(address,address,uint256,uint256,uint256,uint256,address,uint256)": {
						"params": {
							"amountADesired": "Amount of tokenA to deposit",
							"amountAMin": "Minimum amount of tokenA to accept",
							"amountBDesired": "Amount of tokenB to deposit",
							"amountBMin": "Minimum amount of tokenB to accept",
							"deadline": "Unix timestamp after which the tx is invalid",
							"to": "Recipient of the liquidity tokens",
							"tokenA": "Address of the first token",
							"tokenB": "Address of the second token"
						},
						"returns": {
							"amountA": "Final amount of tokenA used",
							"amountB": "Final amount of tokenB used",
							"liquidity": "Amount of liquidity tokens minted"
						}
					},
					"getAmountOut(uint256,uint256,uint256)": {
						"params": {
							"amountIn": "Input token amount",
							"reserveIn": "Reserve of input token",
							"reserveOut": "Reserve of output token"
						},
						"returns": {
							"amountOut": "Resulting amount of output token"
						}
					},
					"getPrice(address,address)": {
						"params": {
							"tokenA": "Base token",
							"tokenB": "Quote token"
						},
						"returns": {
							"price": "Price with 18 decimals"
						}
					},
					"removeLiquidity(address,address,uint256,uint256,uint256,address,uint256)": {
						"params": {
							"amountAMin": "Minimum amount of tokenA expected",
							"amountBMin": "Minimum amount of tokenB expected",
							"deadline": "Expiration timestamp",
							"liquidity": "Amount of liquidity tokens to burn",
							"to": "Recipient of withdrawn tokens",
							"tokenA": "Address of the first token",
							"tokenB": "Address of the second token"
						},
						"returns": {
							"amountA": "Amount of tokenA received",
							"amountB": "Amount of tokenB received"
						}
					},
					"swapExactTokensForTokens(uint256,uint256,address[],address,uint256)": {
						"params": {
							"amountIn": "Amount of input tokens to swap",
							"amountOutMin": "Minimum output expected",
							"deadline": "Expiration timestamp",
							"path": "Array with [tokenIn, tokenOut]",
							"to": "Recipient of output tokens"
						},
						"returns": {
							"amounts": "Array [amountIn, amountOut]"
						}
					}
				},
				"title": "SimpleSwap - A simplified Uniswap-like DEX",
				"version": 1
			},
			"evm": {
				"assembly": "    /* \"SimpleSwap.sol\":371:10122  contract SimpleSwap {... */\n  mstore(0x40, 0x80)\n  callvalue\n  dup1\n  iszero\n  tag_1\n  jumpi\n  revert(0x00, 0x00)\ntag_1:\n  pop\n  dataSize(sub_0)\n  dup1\n  dataOffset(sub_0)\n  0x00\n  codecopy\n  0x00\n  return\nstop\n\nsub_0: assembly {\n        /* \"SimpleSwap.sol\":371:10122  contract SimpleSwap {... */\n      mstore(0x40, 0x80)\n      callvalue\n      dup1\n      iszero\n      tag_1\n      jumpi\n      revert(0x00, 0x00)\n    tag_1:\n      pop\n      jumpi(tag_2, lt(calldatasize, 0x04))\n      shr(0xe0, calldataload(0x00))\n      dup1\n      0x054d50d4\n      eq\n      tag_3\n      jumpi\n      dup1\n      0x38ed1739\n      eq\n      tag_4\n      jumpi\n      dup1\n      0xac41865a\n      eq\n      tag_5\n      jumpi\n      dup1\n      0xbaa2abde\n      eq\n      tag_6\n      jumpi\n      dup1\n      0xe8e33700\n      eq\n      tag_7\n      jumpi\n    tag_2:\n      revert(0x00, 0x00)\n        /* \"SimpleSwap.sol\":9664:10119  function getAmountOut(uint amountIn, uint reserveIn, uint reserveOut) public pure returns (uint amountOut) {... */\n    tag_3:\n      tag_8\n      0x04\n      dup1\n      calldatasize\n      sub\n      dup2\n      add\n      swap1\n      tag_9\n      swap2\n      swap1\n      tag_10\n      jump\t// in\n    tag_9:\n      tag_11\n      jump\t// in\n    tag_8:\n      mload(0x40)\n      tag_12\n      swap2\n      swap1\n      tag_13\n      jump\t// in\n    tag_12:\n      mload(0x40)\n      dup1\n      swap2\n      sub\n      swap1\n      return\n        /* \"SimpleSwap.sol\":7481:8779  function swapExactTokensForTokens(... */\n    tag_4:\n      tag_14\n      0x04\n      dup1\n      calldatasize\n      sub\n      dup2\n      add\n      swap1\n      tag_15\n      swap2\n      swap1\n      tag_16\n      jump\t// in\n    tag_15:\n      tag_17\n      jump\t// in\n    tag_14:\n      mload(0x40)\n      tag_18\n      swap2\n      swap1\n      tag_19\n      jump\t// in\n    tag_18:\n      mload(0x40)\n      dup1\n      swap2\n      sub\n      swap1\n      return\n        /* \"SimpleSwap.sol\":8966:9385  function getPrice(address tokenA, address tokenB) external view returns (uint price) {... */\n    tag_5:\n      tag_20\n      0x04\n      dup1\n      calldatasize\n      sub\n      dup2\n      add\n      swap1\n      tag_21\n      swap2\n      swap1\n      tag_22\n      jump\t// in\n    tag_21:\n      tag_23\n      jump\t// in\n    tag_20:\n      mload(0x40)\n      tag_24\n      swap2\n      swap1\n      tag_13\n      jump\t// in\n    tag_24:\n      mload(0x40)\n      dup1\n      swap2\n      sub\n      swap1\n      return\n        /* \"SimpleSwap.sol\":6036:7097  function removeLiquidity(... */\n    tag_6:\n      tag_25\n      0x04\n      dup1\n      calldatasize\n      sub\n      dup2\n      add\n      swap1\n      tag_26\n      swap2\n      swap1\n      tag_27\n      jump\t// in\n    tag_26:\n      tag_28\n      jump\t// in\n    tag_25:\n      mload(0x40)\n      tag_29\n      swap3\n      swap2\n      swap1\n      tag_30\n      jump\t// in\n    tag_29:\n      mload(0x40)\n      dup1\n      swap2\n      sub\n      swap1\n      return\n        /* \"SimpleSwap.sol\":2371:3545  function addLiquidity(... */\n    tag_7:\n      tag_31\n      0x04\n      dup1\n      calldatasize\n      sub\n      dup2\n      add\n      swap1\n      tag_32\n      swap2\n      swap1\n      tag_33\n      jump\t// in\n    tag_32:\n      tag_34\n      jump\t// in\n    tag_31:\n      mload(0x40)\n      tag_35\n      swap4\n      swap3\n      swap2\n      swap1\n      tag_36\n      jump\t// in\n    tag_35:\n      mload(0x40)\n      dup1\n      swap2\n      sub\n      swap1\n      return\n        /* \"SimpleSwap.sol\":9664:10119  function getAmountOut(uint amountIn, uint reserveIn, uint reserveOut) public pure returns (uint amountOut) {... */\n    tag_11:\n        /* \"SimpleSwap.sol\":9755:9769  uint amountOut */\n      0x00\n        /* \"SimpleSwap.sol\":9801:9802  0 */\n      0x00\n        /* \"SimpleSwap.sol\":9790:9798  amountIn */\n      dup5\n        /* \"SimpleSwap.sol\":9790:9802  amountIn > 0 */\n      gt\n        /* \"SimpleSwap.sol\":9782:9825  require(amountIn > 0, \"Insufficient input\") */\n      tag_38\n      jumpi\n      mload(0x40)\n      0x08c379a000000000000000000000000000000000000000000000000000000000\n      dup2\n      mstore\n      0x04\n      add\n      tag_39\n      swap1\n      tag_40\n      jump\t// in\n    tag_39:\n      mload(0x40)\n      dup1\n      swap2\n      sub\n      swap1\n      revert\n    tag_38:\n        /* \"SimpleSwap.sol\":9856:9857  0 */\n      0x00\n        /* \"SimpleSwap.sol\":9844:9853  reserveIn */\n      dup4\n        /* \"SimpleSwap.sol\":9844:9857  reserveIn > 0 */\n      gt\n        /* \"SimpleSwap.sol\":9844:9875  reserveIn > 0 && reserveOut > 0 */\n      dup1\n      iszero\n      tag_41\n      jumpi\n      pop\n        /* \"SimpleSwap.sol\":9874:9875  0 */\n      0x00\n        /* \"SimpleSwap.sol\":9861:9871  reserveOut */\n      dup3\n        /* \"SimpleSwap.sol\":9861:9875  reserveOut > 0 */\n      gt\n        /* \"SimpleSwap.sol\":9844:9875  reserveIn > 0 && reserveOut > 0 */\n    tag_41:\n        /* \"SimpleSwap.sol\":9836:9902  require(reserveIn > 0 && reserveOut > 0, \"Insufficient liquidity\") */\n      tag_42\n      jumpi\n      mload(0x40)\n      0x08c379a000000000000000000000000000000000000000000000000000000000\n      dup2\n      mstore\n      0x04\n      add\n      tag_43\n      swap1\n      tag_44\n      jump\t// in\n    tag_43:\n      mload(0x40)\n      dup1\n      swap2\n      sub\n      swap1\n      revert\n    tag_42:\n        /* \"SimpleSwap.sol\":9913:9933  uint amountInWithFee */\n      0x00\n        /* \"SimpleSwap.sol\":9947:9950  997 */\n      0x03e5\n        /* \"SimpleSwap.sol\":9936:9944  amountIn */\n      dup6\n        /* \"SimpleSwap.sol\":9936:9950  amountIn * 997 */\n      tag_45\n      swap2\n      swap1\n      tag_46\n      jump\t// in\n    tag_45:\n        /* \"SimpleSwap.sol\":9913:9950  uint amountInWithFee = amountIn * 997 */\n      swap1\n      pop\n        /* \"SimpleSwap.sol\":9961:9975  uint numerator */\n      0x00\n        /* \"SimpleSwap.sol\":9996:10006  reserveOut */\n      dup4\n        /* \"SimpleSwap.sol\":9978:9993  amountInWithFee */\n      dup3\n        /* \"SimpleSwap.sol\":9978:10006  amountInWithFee * reserveOut */\n      tag_47\n      swap2\n      swap1\n      tag_46\n      jump\t// in\n    tag_47:\n        /* \"SimpleSwap.sol\":9961:10006  uint numerator = amountInWithFee * reserveOut */\n      swap1\n      pop\n        /* \"SimpleSwap.sol\":10017:10033  uint denominator */\n      0x00\n        /* \"SimpleSwap.sol\":10055:10070  amountInWithFee */\n      dup3\n        /* \"SimpleSwap.sol\":10048:10052  1000 */\n      0x03e8\n        /* \"SimpleSwap.sol\":10036:10045  reserveIn */\n      dup8\n        /* \"SimpleSwap.sol\":10036:10052  reserveIn * 1000 */\n      tag_48\n      swap2\n      swap1\n      tag_46\n      jump\t// in\n    tag_48:\n        /* \"SimpleSwap.sol\":10036:10070  reserveIn * 1000 + amountInWithFee */\n      tag_49\n      swap2\n      swap1\n      tag_50\n      jump\t// in\n    tag_49:\n        /* \"SimpleSwap.sol\":10017:10070  uint denominator = reserveIn * 1000 + amountInWithFee */\n      swap1\n      pop\n        /* \"SimpleSwap.sol\":10100:10111  denominator */\n      dup1\n        /* \"SimpleSwap.sol\":10088:10097  numerator */\n      dup3\n        /* \"SimpleSwap.sol\":10088:10111  numerator / denominator */\n      tag_51\n      swap2\n      swap1\n      tag_52\n      jump\t// in\n    tag_51:\n        /* \"SimpleSwap.sol\":10081:10111  return numerator / denominator */\n      swap4\n      pop\n      pop\n      pop\n      pop\n        /* \"SimpleSwap.sol\":9664:10119  function getAmountOut(uint amountIn, uint reserveIn, uint reserveOut) public pure returns (uint amountOut) {... */\n      swap4\n      swap3\n      pop\n      pop\n      pop\n      jump\t// out\n        /* \"SimpleSwap.sol\":7481:8779  function swapExactTokensForTokens(... */\n    tag_17:\n        /* \"SimpleSwap.sol\":7688:7709  uint[] memory amounts */\n      0x60\n        /* \"SimpleSwap.sol\":7669:7677  deadline */\n      dup2\n        /* \"SimpleSwap.sol\":1114:1122  deadline */\n      dup1\n        /* \"SimpleSwap.sol\":1095:1110  block.timestamp */\n      timestamp\n        /* \"SimpleSwap.sol\":1095:1122  block.timestamp <= deadline */\n      gt\n      iszero\n        /* \"SimpleSwap.sol\":1087:1146  require(block.timestamp <= deadline, \"Transaction expired\") */\n      tag_54\n      jumpi\n      mload(0x40)\n      0x08c379a000000000000000000000000000000000000000000000000000000000\n      dup2\n      mstore\n      0x04\n      add\n      tag_55\n      swap1\n      tag_56\n      jump\t// in\n    tag_55:\n      mload(0x40)\n      dup1\n      swap2\n      sub\n      swap1\n      revert\n    tag_54:\n        /* \"SimpleSwap.sol\":7745:7746  2 */\n      0x02\n        /* \"SimpleSwap.sol\":7730:7734  path */\n      dup7\n      dup7\n        /* \"SimpleSwap.sol\":7730:7741  path.length */\n      swap1\n      pop\n        /* \"SimpleSwap.sol\":7730:7746  path.length == 2 */\n      eq\n        /* \"SimpleSwap.sol\":7722:7763  require(path.length == 2, \"Only 2-token\") */\n      tag_58\n      jumpi\n      mload(0x40)\n      0x08c379a000000000000000000000000000000000000000000000000000000000\n      dup2\n      mstore\n      0x04\n      add\n      tag_59\n      swap1\n      tag_60\n      jump\t// in\n    tag_59:\n      mload(0x40)\n      dup1\n      swap2\n      sub\n      swap1\n      revert\n    tag_58:\n        /* \"SimpleSwap.sol\":7776:7791  address tokenIn */\n      0x00\n        /* \"SimpleSwap.sol\":7794:7798  path */\n      dup7\n      dup7\n        /* \"SimpleSwap.sol\":7799:7800  0 */\n      0x00\n        /* \"SimpleSwap.sol\":7794:7801  path[0] */\n      dup2\n      dup2\n      lt\n      tag_61\n      jumpi\n      tag_62\n      tag_63\n      jump\t// in\n    tag_62:\n    tag_61:\n      swap1\n      pop\n      0x20\n      mul\n      add\n      0x20\n      dup2\n      add\n      swap1\n      tag_64\n      swap2\n      swap1\n      tag_65\n      jump\t// in\n    tag_64:\n        /* \"SimpleSwap.sol\":7776:7801  address tokenIn = path[0] */\n      swap1\n      pop\n        /* \"SimpleSwap.sol\":7812:7828  address tokenOut */\n      0x00\n        /* \"SimpleSwap.sol\":7831:7835  path */\n      dup8\n      dup8\n        /* \"SimpleSwap.sol\":7836:7837  1 */\n      0x01\n        /* \"SimpleSwap.sol\":7831:7838  path[1] */\n      dup2\n      dup2\n      lt\n      tag_66\n      jumpi\n      tag_67\n      tag_63\n      jump\t// in\n    tag_67:\n    tag_66:\n      swap1\n      pop\n      0x20\n      mul\n      add\n      0x20\n      dup2\n      add\n      swap1\n      tag_68\n      swap2\n      swap1\n      tag_65\n      jump\t// in\n    tag_68:\n        /* \"SimpleSwap.sol\":7812:7838  address tokenOut = path[1] */\n      swap1\n      pop\n        /* \"SimpleSwap.sol\":7851:7866  bytes32 pairKey */\n      0x00\n        /* \"SimpleSwap.sol\":7869:7899  _getPairKey(tokenIn, tokenOut) */\n      tag_69\n        /* \"SimpleSwap.sol\":7881:7888  tokenIn */\n      dup4\n        /* \"SimpleSwap.sol\":7890:7898  tokenOut */\n      dup4\n        /* \"SimpleSwap.sol\":7869:7880  _getPairKey */\n      tag_70\n        /* \"SimpleSwap.sol\":7869:7899  _getPairKey(tokenIn, tokenOut) */\n      jump\t// in\n    tag_69:\n        /* \"SimpleSwap.sol\":7851:7899  bytes32 pairKey = _getPairKey(tokenIn, tokenOut) */\n      swap1\n      pop\n        /* \"SimpleSwap.sol\":7910:7927  Reserve storage r */\n      0x00\n        /* \"SimpleSwap.sol\":7930:7938  reserves */\n      0x00\n        /* \"SimpleSwap.sol\":7930:7947  reserves[pairKey] */\n      0x00\n        /* \"SimpleSwap.sol\":7939:7946  pairKey */\n      dup4\n        /* \"SimpleSwap.sol\":7930:7947  reserves[pairKey] */\n      dup2\n      mstore\n      0x20\n      add\n      swap1\n      dup2\n      mstore\n      0x20\n      add\n      0x00\n      keccak256\n        /* \"SimpleSwap.sol\":7910:7947  Reserve storage r = reserves[pairKey] */\n      swap1\n      pop\n        /* \"SimpleSwap.sol\":7960:8029  IERC20(tokenIn).safeTransferFrom(msg.sender, address(this), amountIn) */\n      tag_71\n        /* \"SimpleSwap.sol\":7993:8003  msg.sender */\n      caller\n        /* \"SimpleSwap.sol\":8013:8017  this */\n      address\n        /* \"SimpleSwap.sol\":8020:8028  amountIn */\n      dup15\n        /* \"SimpleSwap.sol\":7967:7974  tokenIn */\n      dup8\n        /* \"SimpleSwap.sol\":7960:7992  IERC20(tokenIn).safeTransferFrom */\n      0xffffffffffffffffffffffffffffffffffffffff\n      and\n      tag_72\n      swap1\n        /* \"SimpleSwap.sol\":7960:8029  IERC20(tokenIn).safeTransferFrom(msg.sender, address(this), amountIn) */\n      swap4\n      swap3\n      swap2\n      swap1\n      0xffffffff\n      and\n      jump\t// in\n    tag_71:\n        /* \"SimpleSwap.sol\":8043:8057  uint reserveIn */\n      0x00\n        /* \"SimpleSwap.sol\":8059:8074  uint reserveOut */\n      0x00\n        /* \"SimpleSwap.sol\":8088:8096  tokenOut */\n      dup5\n        /* \"SimpleSwap.sol\":8078:8096  tokenIn < tokenOut */\n      0xffffffffffffffffffffffffffffffffffffffff\n      and\n        /* \"SimpleSwap.sol\":8078:8085  tokenIn */\n      dup7\n        /* \"SimpleSwap.sol\":8078:8096  tokenIn < tokenOut */\n      0xffffffffffffffffffffffffffffffffffffffff\n      and\n      lt\n        /* \"SimpleSwap.sol\":8078:8176  tokenIn < tokenOut... */\n      tag_73\n      jumpi\n        /* \"SimpleSwap.sol\":8153:8154  r */\n      dup3\n        /* \"SimpleSwap.sol\":8153:8163  r.reserveB */\n      0x01\n      add\n      sload\n        /* \"SimpleSwap.sol\":8165:8166  r */\n      dup4\n        /* \"SimpleSwap.sol\":8165:8175  r.reserveA */\n      0x00\n      add\n      sload\n        /* \"SimpleSwap.sol\":8078:8176  tokenIn < tokenOut... */\n      jump(tag_74)\n    tag_73:\n        /* \"SimpleSwap.sol\":8113:8114  r */\n      dup3\n        /* \"SimpleSwap.sol\":8113:8123  r.reserveA */\n      0x00\n      add\n      sload\n        /* \"SimpleSwap.sol\":8125:8126  r */\n      dup4\n        /* \"SimpleSwap.sol\":8125:8135  r.reserveB */\n      0x01\n      add\n      sload\n        /* \"SimpleSwap.sol\":8078:8176  tokenIn < tokenOut... */\n    tag_74:\n        /* \"SimpleSwap.sol\":8042:8176  (uint reserveIn, uint reserveOut) = tokenIn < tokenOut... */\n      swap2\n      pop\n      swap2\n      pop\n        /* \"SimpleSwap.sol\":8189:8203  uint amountOut */\n      0x00\n        /* \"SimpleSwap.sol\":8206:8251  getAmountOut(amountIn, reserveIn, reserveOut) */\n      tag_75\n        /* \"SimpleSwap.sol\":8219:8227  amountIn */\n      dup16\n        /* \"SimpleSwap.sol\":8229:8238  reserveIn */\n      dup5\n        /* \"SimpleSwap.sol\":8240:8250  reserveOut */\n      dup5\n        /* \"SimpleSwap.sol\":8206:8218  getAmountOut */\n      tag_11\n        /* \"SimpleSwap.sol\":8206:8251  getAmountOut(amountIn, reserveIn, reserveOut) */\n      jump\t// in\n    tag_75:\n        /* \"SimpleSwap.sol\":8189:8251  uint amountOut = getAmountOut(amountIn, reserveIn, reserveOut) */\n      swap1\n      pop\n        /* \"SimpleSwap.sol\":8283:8295  amountOutMin */\n      dup14\n        /* \"SimpleSwap.sol\":8270:8279  amountOut */\n      dup2\n        /* \"SimpleSwap.sol\":8270:8295  amountOut >= amountOutMin */\n      lt\n      iszero\n        /* \"SimpleSwap.sol\":8262:8319  require(amountOut >= amountOutMin, \"Insufficient output\") */\n      tag_76\n      jumpi\n      mload(0x40)\n      0x08c379a000000000000000000000000000000000000000000000000000000000\n      dup2\n      mstore\n      0x04\n      add\n      tag_77\n      swap1\n      tag_78\n      jump\t// in\n    tag_77:\n      mload(0x40)\n      dup1\n      swap2\n      sub\n      swap1\n      revert\n    tag_76:\n        /* \"SimpleSwap.sol\":8346:8354  tokenOut */\n      dup6\n        /* \"SimpleSwap.sol\":8336:8354  tokenIn < tokenOut */\n      0xffffffffffffffffffffffffffffffffffffffff\n      and\n        /* \"SimpleSwap.sol\":8336:8343  tokenIn */\n      dup8\n        /* \"SimpleSwap.sol\":8336:8354  tokenIn < tokenOut */\n      0xffffffffffffffffffffffffffffffffffffffff\n      and\n      lt\n        /* \"SimpleSwap.sol\":8332:8536  if (tokenIn < tokenOut) {... */\n      iszero\n      tag_79\n      jumpi\n        /* \"SimpleSwap.sol\":8385:8393  amountIn */\n      dup15\n        /* \"SimpleSwap.sol\":8371:8372  r */\n      dup5\n        /* \"SimpleSwap.sol\":8371:8381  r.reserveA */\n      0x00\n      add\n      0x00\n        /* \"SimpleSwap.sol\":8371:8393  r.reserveA += amountIn */\n      dup3\n      dup3\n      sload\n      tag_80\n      swap2\n      swap1\n      tag_50\n      jump\t// in\n    tag_80:\n      swap3\n      pop\n      pop\n      dup2\n      swap1\n      sstore\n      pop\n        /* \"SimpleSwap.sol\":8422:8431  amountOut */\n      dup1\n        /* \"SimpleSwap.sol\":8408:8409  r */\n      dup5\n        /* \"SimpleSwap.sol\":8408:8418  r.reserveB */\n      0x01\n      add\n      0x00\n        /* \"SimpleSwap.sol\":8408:8431  r.reserveB -= amountOut */\n      dup3\n      dup3\n      sload\n      tag_81\n      swap2\n      swap1\n      tag_82\n      jump\t// in\n    tag_81:\n      swap3\n      pop\n      pop\n      dup2\n      swap1\n      sstore\n      pop\n        /* \"SimpleSwap.sol\":8332:8536  if (tokenIn < tokenOut) {... */\n      jump(tag_83)\n    tag_79:\n        /* \"SimpleSwap.sol\":8478:8486  amountIn */\n      dup15\n        /* \"SimpleSwap.sol\":8464:8465  r */\n      dup5\n        /* \"SimpleSwap.sol\":8464:8474  r.reserveB */\n      0x01\n      add\n      0x00\n        /* \"SimpleSwap.sol\":8464:8486  r.reserveB += amountIn */\n      dup3\n      dup3\n      sload\n      tag_84\n      swap2\n      swap1\n      tag_50\n      jump\t// in\n    tag_84:\n      swap3\n      pop\n      pop\n      dup2\n      swap1\n      sstore\n      pop\n        /* \"SimpleSwap.sol\":8515:8524  amountOut */\n      dup1\n        /* \"SimpleSwap.sol\":8501:8502  r */\n      dup5\n        /* \"SimpleSwap.sol\":8501:8511  r.reserveA */\n      0x00\n      add\n      0x00\n        /* \"SimpleSwap.sol\":8501:8524  r.reserveA -= amountOut */\n      dup3\n      dup3\n      sload\n      tag_85\n      swap2\n      swap1\n      tag_82\n      jump\t// in\n    tag_85:\n      swap3\n      pop\n      pop\n      dup2\n      swap1\n      sstore\n      pop\n        /* \"SimpleSwap.sol\":8332:8536  if (tokenIn < tokenOut) {... */\n    tag_83:\n        /* \"SimpleSwap.sol\":8548:8592  IERC20(tokenOut).safeTransfer(to, amountOut) */\n      tag_86\n        /* \"SimpleSwap.sol\":8578:8580  to */\n      dup12\n        /* \"SimpleSwap.sol\":8582:8591  amountOut */\n      dup3\n        /* \"SimpleSwap.sol\":8555:8563  tokenOut */\n      dup9\n        /* \"SimpleSwap.sol\":8548:8577  IERC20(tokenOut).safeTransfer */\n      0xffffffffffffffffffffffffffffffffffffffff\n      and\n      tag_87\n      swap1\n        /* \"SimpleSwap.sol\":8548:8592  IERC20(tokenOut).safeTransfer(to, amountOut) */\n      swap3\n      swap2\n      swap1\n      0xffffffff\n      and\n      jump\t// in\n    tag_86:\n        /* \"SimpleSwap.sol\":8626:8627  2 */\n      0x02\n        /* \"SimpleSwap.sol\":8615:8628  new uint[](2) */\n      0xffffffffffffffff\n      dup2\n      gt\n      iszero\n      tag_88\n      jumpi\n      tag_89\n      tag_90\n      jump\t// in\n    tag_89:\n    tag_88:\n      mload(0x40)\n      swap1\n      dup1\n      dup3\n      mstore\n      dup1\n      0x20\n      mul\n      0x20\n      add\n      dup3\n      add\n      0x40\n      mstore\n      dup1\n      iszero\n      tag_91\n      jumpi\n      dup2\n      0x20\n      add\n      0x20\n      dup3\n      mul\n      dup1\n      calldatasize\n      dup4\n      calldatacopy\n      dup1\n      dup3\n      add\n      swap2\n      pop\n      pop\n      swap1\n      pop\n    tag_91:\n      pop\n        /* \"SimpleSwap.sol\":8605:8628  amounts = new uint[](2) */\n      swap9\n      pop\n        /* \"SimpleSwap.sol\":8653:8661  amountIn */\n      dup15\n        /* \"SimpleSwap.sol\":8640:8647  amounts */\n      dup10\n        /* \"SimpleSwap.sol\":8648:8649  0 */\n      0x00\n        /* \"SimpleSwap.sol\":8640:8650  amounts[0] */\n      dup2\n      mload\n      dup2\n      lt\n      tag_92\n      jumpi\n      tag_93\n      tag_63\n      jump\t// in\n    tag_93:\n    tag_92:\n      0x20\n      mul\n      0x20\n      add\n      add\n        /* \"SimpleSwap.sol\":8640:8661  amounts[0] = amountIn */\n      dup2\n      dup2\n      mstore\n      pop\n      pop\n        /* \"SimpleSwap.sol\":8685:8694  amountOut */\n      dup1\n        /* \"SimpleSwap.sol\":8672:8679  amounts */\n      dup10\n        /* \"SimpleSwap.sol\":8680:8681  1 */\n      0x01\n        /* \"SimpleSwap.sol\":8672:8682  amounts[1] */\n      dup2\n      mload\n      dup2\n      lt\n      tag_94\n      jumpi\n      tag_95\n      tag_63\n      jump\t// in\n    tag_95:\n    tag_94:\n      0x20\n      mul\n      0x20\n      add\n      add\n        /* \"SimpleSwap.sol\":8672:8694  amounts[1] = amountOut */\n      dup2\n      dup2\n      mstore\n      pop\n      pop\n        /* \"SimpleSwap.sol\":8717:8727  msg.sender */\n      caller\n        /* \"SimpleSwap.sol\":8712:8771  Swap(msg.sender, tokenIn, tokenOut, amounts[0], amounts[1]) */\n      0xffffffffffffffffffffffffffffffffffffffff\n      and\n      0xcd3829a3813dc3cdd188fd3d01dcf3268c16be2fdd2dd21d0665418816e46062\n        /* \"SimpleSwap.sol\":8729:8736  tokenIn */\n      dup9\n        /* \"SimpleSwap.sol\":8738:8746  tokenOut */\n      dup9\n        /* \"SimpleSwap.sol\":8748:8755  amounts */\n      dup13\n        /* \"SimpleSwap.sol\":8756:8757  0 */\n      0x00\n        /* \"SimpleSwap.sol\":8748:8758  amounts[0] */\n      dup2\n      mload\n      dup2\n      lt\n      tag_96\n      jumpi\n      tag_97\n      tag_63\n      jump\t// in\n    tag_97:\n    tag_96:\n      0x20\n      mul\n      0x20\n      add\n      add\n      mload\n        /* \"SimpleSwap.sol\":8760:8767  amounts */\n      dup14\n        /* \"SimpleSwap.sol\":8768:8769  1 */\n      0x01\n        /* \"SimpleSwap.sol\":8760:8770  amounts[1] */\n      dup2\n      mload\n      dup2\n      lt\n      tag_98\n      jumpi\n      tag_99\n      tag_63\n      jump\t// in\n    tag_99:\n    tag_98:\n      0x20\n      mul\n      0x20\n      add\n      add\n      mload\n        /* \"SimpleSwap.sol\":8712:8771  Swap(msg.sender, tokenIn, tokenOut, amounts[0], amounts[1]) */\n      mload(0x40)\n      tag_100\n      swap5\n      swap4\n      swap3\n      swap2\n      swap1\n      tag_101\n      jump\t// in\n    tag_100:\n      mload(0x40)\n      dup1\n      swap2\n      sub\n      swap1\n      log2\n        /* \"SimpleSwap.sol\":7711:8779  {... */\n      pop\n      pop\n      pop\n      pop\n      pop\n      pop\n      pop\n        /* \"SimpleSwap.sol\":7481:8779  function swapExactTokensForTokens(... */\n      pop\n      swap7\n      swap6\n      pop\n      pop\n      pop\n      pop\n      pop\n      pop\n      jump\t// out\n        /* \"SimpleSwap.sol\":8966:9385  function getPrice(address tokenA, address tokenB) external view returns (uint price) {... */\n    tag_23:\n        /* \"SimpleSwap.sol\":9039:9049  uint price */\n      0x00\n        /* \"SimpleSwap.sol\":9062:9077  bytes32 pairKey */\n      0x00\n        /* \"SimpleSwap.sol\":9080:9107  _getPairKey(tokenA, tokenB) */\n      tag_103\n        /* \"SimpleSwap.sol\":9092:9098  tokenA */\n      dup5\n        /* \"SimpleSwap.sol\":9100:9106  tokenB */\n      dup5\n        /* \"SimpleSwap.sol\":9080:9091  _getPairKey */\n      tag_70\n        /* \"SimpleSwap.sol\":9080:9107  _getPairKey(tokenA, tokenB) */\n      jump\t// in\n    tag_103:\n        /* \"SimpleSwap.sol\":9062:9107  bytes32 pairKey = _getPairKey(tokenA, tokenB) */\n      swap1\n      pop\n        /* \"SimpleSwap.sol\":9118:9135  Reserve storage r */\n      0x00\n        /* \"SimpleSwap.sol\":9138:9146  reserves */\n      0x00\n        /* \"SimpleSwap.sol\":9138:9155  reserves[pairKey] */\n      0x00\n        /* \"SimpleSwap.sol\":9147:9154  pairKey */\n      dup4\n        /* \"SimpleSwap.sol\":9138:9155  reserves[pairKey] */\n      dup2\n      mstore\n      0x20\n      add\n      swap1\n      dup2\n      mstore\n      0x20\n      add\n      0x00\n      keccak256\n        /* \"SimpleSwap.sol\":9118:9155  Reserve storage r = reserves[pairKey] */\n      swap1\n      pop\n        /* \"SimpleSwap.sol\":9167:9180  uint reserveA */\n      0x00\n        /* \"SimpleSwap.sol\":9182:9195  uint reserveB */\n      0x00\n        /* \"SimpleSwap.sol\":9208:9214  tokenB */\n      dup6\n        /* \"SimpleSwap.sol\":9199:9214  tokenA < tokenB */\n      0xffffffffffffffffffffffffffffffffffffffff\n      and\n        /* \"SimpleSwap.sol\":9199:9205  tokenA */\n      dup8\n        /* \"SimpleSwap.sol\":9199:9214  tokenA < tokenB */\n      0xffffffffffffffffffffffffffffffffffffffff\n      and\n      lt\n        /* \"SimpleSwap.sol\":9199:9268  tokenA < tokenB ? (r.reserveA, r.reserveB) : (r.reserveB, r.reserveA) */\n      tag_104\n      jumpi\n        /* \"SimpleSwap.sol\":9245:9246  r */\n      dup3\n        /* \"SimpleSwap.sol\":9245:9255  r.reserveB */\n      0x01\n      add\n      sload\n        /* \"SimpleSwap.sol\":9257:9258  r */\n      dup4\n        /* \"SimpleSwap.sol\":9257:9267  r.reserveA */\n      0x00\n      add\n      sload\n        /* \"SimpleSwap.sol\":9199:9268  tokenA < tokenB ? (r.reserveA, r.reserveB) : (r.reserveB, r.reserveA) */\n      jump(tag_105)\n    tag_104:\n        /* \"SimpleSwap.sol\":9218:9219  r */\n      dup3\n        /* \"SimpleSwap.sol\":9218:9228  r.reserveA */\n      0x00\n      add\n      sload\n        /* \"SimpleSwap.sol\":9230:9231  r */\n      dup4\n        /* \"SimpleSwap.sol\":9230:9240  r.reserveB */\n      0x01\n      add\n      sload\n        /* \"SimpleSwap.sol\":9199:9268  tokenA < tokenB ? (r.reserveA, r.reserveB) : (r.reserveB, r.reserveA) */\n    tag_105:\n        /* \"SimpleSwap.sol\":9166:9268  (uint reserveA, uint reserveB) = tokenA < tokenB ? (r.reserveA, r.reserveB) : (r.reserveB, r.reserveA) */\n      swap2\n      pop\n      swap2\n      pop\n        /* \"SimpleSwap.sol\":9298:9299  0 */\n      0x00\n        /* \"SimpleSwap.sol\":9287:9295  reserveA */\n      dup3\n        /* \"SimpleSwap.sol\":9287:9299  reserveA > 0 */\n      gt\n        /* \"SimpleSwap.sol\":9287:9315  reserveA > 0 && reserveB > 0 */\n      dup1\n      iszero\n      tag_106\n      jumpi\n      pop\n        /* \"SimpleSwap.sol\":9314:9315  0 */\n      0x00\n        /* \"SimpleSwap.sol\":9303:9311  reserveB */\n      dup2\n        /* \"SimpleSwap.sol\":9303:9315  reserveB > 0 */\n      gt\n        /* \"SimpleSwap.sol\":9287:9315  reserveA > 0 && reserveB > 0 */\n    tag_106:\n        /* \"SimpleSwap.sol\":9279:9331  require(reserveA > 0 && reserveB > 0, \"No reserves\") */\n      tag_107\n      jumpi\n      mload(0x40)\n      0x08c379a000000000000000000000000000000000000000000000000000000000\n      dup2\n      mstore\n      0x04\n      add\n      tag_108\n      swap1\n      tag_109\n      jump\t// in\n    tag_108:\n      mload(0x40)\n      dup1\n      swap2\n      sub\n      swap1\n      revert\n    tag_107:\n        /* \"SimpleSwap.sol\":9369:9377  reserveA */\n      dup2\n        /* \"SimpleSwap.sol\":9361:9365  1e18 */\n      0x0de0b6b3a7640000\n        /* \"SimpleSwap.sol\":9350:9358  reserveB */\n      dup3\n        /* \"SimpleSwap.sol\":9350:9365  reserveB * 1e18 */\n      tag_110\n      swap2\n      swap1\n      tag_46\n      jump\t// in\n    tag_110:\n        /* \"SimpleSwap.sol\":9349:9377  (reserveB * 1e18) / reserveA */\n      tag_111\n      swap2\n      swap1\n      tag_52\n      jump\t// in\n    tag_111:\n        /* \"SimpleSwap.sol\":9342:9377  return (reserveB * 1e18) / reserveA */\n      swap5\n      pop\n      pop\n      pop\n      pop\n      pop\n        /* \"SimpleSwap.sol\":8966:9385  function getPrice(address tokenA, address tokenB) external view returns (uint price) {... */\n      swap3\n      swap2\n      pop\n      pop\n      jump\t// out\n        /* \"SimpleSwap.sol\":6036:7097  function removeLiquidity(... */\n    tag_28:\n        /* \"SimpleSwap.sol\":6275:6287  uint amountA */\n      0x00\n        /* \"SimpleSwap.sol\":6289:6301  uint amountB */\n      0x00\n        /* \"SimpleSwap.sol\":6256:6264  deadline */\n      dup3\n        /* \"SimpleSwap.sol\":1114:1122  deadline */\n      dup1\n        /* \"SimpleSwap.sol\":1095:1110  block.timestamp */\n      timestamp\n        /* \"SimpleSwap.sol\":1095:1122  block.timestamp <= deadline */\n      gt\n      iszero\n        /* \"SimpleSwap.sol\":1087:1146  require(block.timestamp <= deadline, \"Transaction expired\") */\n      tag_113\n      jumpi\n      mload(0x40)\n      0x08c379a000000000000000000000000000000000000000000000000000000000\n      dup2\n      mstore\n      0x04\n      add\n      tag_114\n      swap1\n      tag_56\n      jump\t// in\n    tag_114:\n      mload(0x40)\n      dup1\n      swap2\n      sub\n      swap1\n      revert\n    tag_113:\n        /* \"SimpleSwap.sol\":6314:6329  bytes32 pairKey */\n      0x00\n        /* \"SimpleSwap.sol\":6332:6359  _getPairKey(tokenA, tokenB) */\n      tag_116\n        /* \"SimpleSwap.sol\":6344:6350  tokenA */\n      dup12\n        /* \"SimpleSwap.sol\":6352:6358  tokenB */\n      dup12\n        /* \"SimpleSwap.sol\":6332:6343  _getPairKey */\n      tag_70\n        /* \"SimpleSwap.sol\":6332:6359  _getPairKey(tokenA, tokenB) */\n      jump\t// in\n    tag_116:\n        /* \"SimpleSwap.sol\":6314:6359  bytes32 pairKey = _getPairKey(tokenA, tokenB) */\n      swap1\n      pop\n        /* \"SimpleSwap.sol\":6370:6387  Reserve storage r */\n      0x00\n        /* \"SimpleSwap.sol\":6390:6398  reserves */\n      0x00\n        /* \"SimpleSwap.sol\":6390:6407  reserves[pairKey] */\n      0x00\n        /* \"SimpleSwap.sol\":6399:6406  pairKey */\n      dup4\n        /* \"SimpleSwap.sol\":6390:6407  reserves[pairKey] */\n      dup2\n      mstore\n      0x20\n      add\n      swap1\n      dup2\n      mstore\n      0x20\n      add\n      0x00\n      keccak256\n        /* \"SimpleSwap.sol\":6370:6407  Reserve storage r = reserves[pairKey] */\n      swap1\n      pop\n        /* \"SimpleSwap.sol\":6455:6464  liquidity */\n      dup10\n        /* \"SimpleSwap.sol\":6428:6429  r */\n      dup2\n        /* \"SimpleSwap.sol\":6428:6439  r.liquidity */\n      0x03\n      add\n        /* \"SimpleSwap.sol\":6428:6451  r.liquidity[msg.sender] */\n      0x00\n        /* \"SimpleSwap.sol\":6440:6450  msg.sender */\n      caller\n        /* \"SimpleSwap.sol\":6428:6451  r.liquidity[msg.sender] */\n      0xffffffffffffffffffffffffffffffffffffffff\n      and\n      0xffffffffffffffffffffffffffffffffffffffff\n      and\n      dup2\n      mstore\n      0x20\n      add\n      swap1\n      dup2\n      mstore\n      0x20\n      add\n      0x00\n      keccak256\n      sload\n        /* \"SimpleSwap.sol\":6428:6464  r.liquidity[msg.sender] >= liquidity */\n      lt\n      iszero\n        /* \"SimpleSwap.sol\":6420:6491  require(r.liquidity[msg.sender] >= liquidity, \"Insufficient liquidity\") */\n      tag_117\n      jumpi\n      mload(0x40)\n      0x08c379a000000000000000000000000000000000000000000000000000000000\n      dup2\n      mstore\n      0x04\n      add\n      tag_118\n      swap1\n      tag_44\n      jump\t// in\n    tag_118:\n      mload(0x40)\n      dup1\n      swap2\n      sub\n      swap1\n      revert\n    tag_117:\n        /* \"SimpleSwap.sol\":6541:6542  r */\n      dup1\n        /* \"SimpleSwap.sol\":6541:6557  r.totalLiquidity */\n      0x02\n      add\n      sload\n        /* \"SimpleSwap.sol\":6527:6528  r */\n      dup2\n        /* \"SimpleSwap.sol\":6527:6537  r.reserveA */\n      0x00\n      add\n      sload\n        /* \"SimpleSwap.sol\":6515:6524  liquidity */\n      dup12\n        /* \"SimpleSwap.sol\":6515:6537  liquidity * r.reserveA */\n      tag_119\n      swap2\n      swap1\n      tag_46\n      jump\t// in\n    tag_119:\n        /* \"SimpleSwap.sol\":6514:6557  (liquidity * r.reserveA) / r.totalLiquidity */\n      tag_120\n      swap2\n      swap1\n      tag_52\n      jump\t// in\n    tag_120:\n        /* \"SimpleSwap.sol\":6504:6557  amountA = (liquidity * r.reserveA) / r.totalLiquidity */\n      swap5\n      pop\n        /* \"SimpleSwap.sol\":6605:6606  r */\n      dup1\n        /* \"SimpleSwap.sol\":6605:6621  r.totalLiquidity */\n      0x02\n      add\n      sload\n        /* \"SimpleSwap.sol\":6591:6592  r */\n      dup2\n        /* \"SimpleSwap.sol\":6591:6601  r.reserveB */\n      0x01\n      add\n      sload\n        /* \"SimpleSwap.sol\":6579:6588  liquidity */\n      dup12\n        /* \"SimpleSwap.sol\":6579:6601  liquidity * r.reserveB */\n      tag_121\n      swap2\n      swap1\n      tag_46\n      jump\t// in\n    tag_121:\n        /* \"SimpleSwap.sol\":6578:6621  (liquidity * r.reserveB) / r.totalLiquidity */\n      tag_122\n      swap2\n      swap1\n      tag_52\n      jump\t// in\n    tag_122:\n        /* \"SimpleSwap.sol\":6568:6621  amountB = (liquidity * r.reserveB) / r.totalLiquidity */\n      swap4\n      pop\n        /* \"SimpleSwap.sol\":6653:6663  amountAMin */\n      dup9\n        /* \"SimpleSwap.sol\":6642:6649  amountA */\n      dup6\n        /* \"SimpleSwap.sol\":6642:6663  amountA >= amountAMin */\n      lt\n      iszero\n        /* \"SimpleSwap.sol\":6634:6682  require(amountA >= amountAMin, \"Insufficient A\") */\n      tag_123\n      jumpi\n      mload(0x40)\n      0x08c379a000000000000000000000000000000000000000000000000000000000\n      dup2\n      mstore\n      0x04\n      add\n      tag_124\n      swap1\n      tag_125\n      jump\t// in\n    tag_124:\n      mload(0x40)\n      dup1\n      swap2\n      sub\n      swap1\n      revert\n    tag_123:\n        /* \"SimpleSwap.sol\":6712:6722  amountBMin */\n      dup8\n        /* \"SimpleSwap.sol\":6701:6708  amountB */\n      dup5\n        /* \"SimpleSwap.sol\":6701:6722  amountB >= amountBMin */\n      lt\n      iszero\n        /* \"SimpleSwap.sol\":6693:6741  require(amountB >= amountBMin, \"Insufficient B\") */\n      tag_126\n      jumpi\n      mload(0x40)\n      0x08c379a000000000000000000000000000000000000000000000000000000000\n      dup2\n      mstore\n      0x04\n      add\n      tag_127\n      swap1\n      tag_128\n      jump\t// in\n    tag_127:\n      mload(0x40)\n      dup1\n      swap2\n      sub\n      swap1\n      revert\n    tag_126:\n        /* \"SimpleSwap.sol\":6768:6775  amountA */\n      dup5\n        /* \"SimpleSwap.sol\":6754:6755  r */\n      dup2\n        /* \"SimpleSwap.sol\":6754:6764  r.reserveA */\n      0x00\n      add\n      0x00\n        /* \"SimpleSwap.sol\":6754:6775  r.reserveA -= amountA */\n      dup3\n      dup3\n      sload\n      tag_129\n      swap2\n      swap1\n      tag_82\n      jump\t// in\n    tag_129:\n      swap3\n      pop\n      pop\n      dup2\n      swap1\n      sstore\n      pop\n        /* \"SimpleSwap.sol\":6800:6807  amountB */\n      dup4\n        /* \"SimpleSwap.sol\":6786:6787  r */\n      dup2\n        /* \"SimpleSwap.sol\":6786:6796  r.reserveB */\n      0x01\n      add\n      0x00\n        /* \"SimpleSwap.sol\":6786:6807  r.reserveB -= amountB */\n      dup3\n      dup3\n      sload\n      tag_130\n      swap2\n      swap1\n      tag_82\n      jump\t// in\n    tag_130:\n      swap3\n      pop\n      pop\n      dup2\n      swap1\n      sstore\n      pop\n        /* \"SimpleSwap.sol\":6838:6847  liquidity */\n      dup10\n        /* \"SimpleSwap.sol\":6818:6819  r */\n      dup2\n        /* \"SimpleSwap.sol\":6818:6834  r.totalLiquidity */\n      0x02\n      add\n      0x00\n        /* \"SimpleSwap.sol\":6818:6847  r.totalLiquidity -= liquidity */\n      dup3\n      dup3\n      sload\n      tag_131\n      swap2\n      swap1\n      tag_82\n      jump\t// in\n    tag_131:\n      swap3\n      pop\n      pop\n      dup2\n      swap1\n      sstore\n      pop\n        /* \"SimpleSwap.sol\":6885:6894  liquidity */\n      dup10\n        /* \"SimpleSwap.sol\":6858:6859  r */\n      dup2\n        /* \"SimpleSwap.sol\":6858:6869  r.liquidity */\n      0x03\n      add\n        /* \"SimpleSwap.sol\":6858:6881  r.liquidity[msg.sender] */\n      0x00\n        /* \"SimpleSwap.sol\":6870:6880  msg.sender */\n      caller\n        /* \"SimpleSwap.sol\":6858:6881  r.liquidity[msg.sender] */\n      0xffffffffffffffffffffffffffffffffffffffff\n      and\n      0xffffffffffffffffffffffffffffffffffffffff\n      and\n      dup2\n      mstore\n      0x20\n      add\n      swap1\n      dup2\n      mstore\n      0x20\n      add\n      0x00\n      keccak256\n      0x00\n        /* \"SimpleSwap.sol\":6858:6894  r.liquidity[msg.sender] -= liquidity */\n      dup3\n      dup3\n      sload\n      tag_132\n      swap2\n      swap1\n      tag_82\n      jump\t// in\n    tag_132:\n      swap3\n      pop\n      pop\n      dup2\n      swap1\n      sstore\n      pop\n        /* \"SimpleSwap.sol\":6907:6947  IERC20(tokenA).safeTransfer(to, amountA) */\n      tag_133\n        /* \"SimpleSwap.sol\":6935:6937  to */\n      dup8\n        /* \"SimpleSwap.sol\":6939:6946  amountA */\n      dup7\n        /* \"SimpleSwap.sol\":6914:6920  tokenA */\n      dup15\n        /* \"SimpleSwap.sol\":6907:6934  IERC20(tokenA).safeTransfer */\n      0xffffffffffffffffffffffffffffffffffffffff\n      and\n      tag_87\n      swap1\n        /* \"SimpleSwap.sol\":6907:6947  IERC20(tokenA).safeTransfer(to, amountA) */\n      swap3\n      swap2\n      swap1\n      0xffffffff\n      and\n      jump\t// in\n    tag_133:\n        /* \"SimpleSwap.sol\":6958:6998  IERC20(tokenB).safeTransfer(to, amountB) */\n      tag_134\n        /* \"SimpleSwap.sol\":6986:6988  to */\n      dup8\n        /* \"SimpleSwap.sol\":6990:6997  amountB */\n      dup6\n        /* \"SimpleSwap.sol\":6965:6971  tokenB */\n      dup14\n        /* \"SimpleSwap.sol\":6958:6985  IERC20(tokenB).safeTransfer */\n      0xffffffffffffffffffffffffffffffffffffffff\n      and\n      tag_87\n      swap1\n        /* \"SimpleSwap.sol\":6958:6998  IERC20(tokenB).safeTransfer(to, amountB) */\n      swap3\n      swap2\n      swap1\n      0xffffffff\n      and\n      jump\t// in\n    tag_134:\n        /* \"SimpleSwap.sol\":7033:7043  msg.sender */\n      caller\n        /* \"SimpleSwap.sol\":7016:7089  LiquidityRemoved(msg.sender, tokenA, tokenB, amountA, amountB, liquidity) */\n      0xffffffffffffffffffffffffffffffffffffffff\n      and\n      0xd765e08eef31c0983ecca03ecd166297ac485ecd5dd69e291c848f0a020333c1\n        /* \"SimpleSwap.sol\":7045:7051  tokenA */\n      dup14\n        /* \"SimpleSwap.sol\":7053:7059  tokenB */\n      dup14\n        /* \"SimpleSwap.sol\":7061:7068  amountA */\n      dup9\n        /* \"SimpleSwap.sol\":7070:7077  amountB */\n      dup9\n        /* \"SimpleSwap.sol\":7079:7088  liquidity */\n      dup16\n        /* \"SimpleSwap.sol\":7016:7089  LiquidityRemoved(msg.sender, tokenA, tokenB, amountA, amountB, liquidity) */\n      mload(0x40)\n      tag_135\n      swap6\n      swap5\n      swap4\n      swap3\n      swap2\n      swap1\n      tag_136\n      jump\t// in\n    tag_135:\n      mload(0x40)\n      dup1\n      swap2\n      sub\n      swap1\n      log2\n        /* \"SimpleSwap.sol\":6303:7097  {... */\n      pop\n      pop\n        /* \"SimpleSwap.sol\":6036:7097  function removeLiquidity(... */\n      pop\n      swap8\n      pop\n      swap8\n      swap6\n      pop\n      pop\n      pop\n      pop\n      pop\n      pop\n      jump\t// out\n        /* \"SimpleSwap.sol\":2371:3545  function addLiquidity(... */\n    tag_34:\n        /* \"SimpleSwap.sol\":2642:2654  uint amountA */\n      0x00\n        /* \"SimpleSwap.sol\":2656:2668  uint amountB */\n      0x00\n        /* \"SimpleSwap.sol\":2670:2684  uint liquidity */\n      0x00\n        /* \"SimpleSwap.sol\":2623:2631  deadline */\n      dup4\n        /* \"SimpleSwap.sol\":1114:1122  deadline */\n      dup1\n        /* \"SimpleSwap.sol\":1095:1110  block.timestamp */\n      timestamp\n        /* \"SimpleSwap.sol\":1095:1122  block.timestamp <= deadline */\n      gt\n      iszero\n        /* \"SimpleSwap.sol\":1087:1146  require(block.timestamp <= deadline, \"Transaction expired\") */\n      tag_138\n      jumpi\n      mload(0x40)\n      0x08c379a000000000000000000000000000000000000000000000000000000000\n      dup2\n      mstore\n      0x04\n      add\n      tag_139\n      swap1\n      tag_56\n      jump\t// in\n    tag_139:\n      mload(0x40)\n      dup1\n      swap2\n      sub\n      swap1\n      revert\n    tag_138:\n        /* \"SimpleSwap.sol\":2715:2721  tokenB */\n      dup11\n        /* \"SimpleSwap.sol\":2705:2721  tokenA != tokenB */\n      0xffffffffffffffffffffffffffffffffffffffff\n      and\n        /* \"SimpleSwap.sol\":2705:2711  tokenA */\n      dup13\n        /* \"SimpleSwap.sol\":2705:2721  tokenA != tokenB */\n      0xffffffffffffffffffffffffffffffffffffffff\n      and\n      sub\n        /* \"SimpleSwap.sol\":2697:2742  require(tokenA != tokenB, \"Identical tokens\") */\n      tag_141\n      jumpi\n      mload(0x40)\n      0x08c379a000000000000000000000000000000000000000000000000000000000\n      dup2\n      mstore\n      0x04\n      add\n      tag_142\n      swap1\n      tag_143\n      jump\t// in\n    tag_142:\n      mload(0x40)\n      dup1\n      swap2\n      sub\n      swap1\n      revert\n    tag_141:\n        /* \"SimpleSwap.sol\":2755:2770  bytes32 pairKey */\n      0x00\n        /* \"SimpleSwap.sol\":2773:2800  _getPairKey(tokenA, tokenB) */\n      tag_144\n        /* \"SimpleSwap.sol\":2785:2791  tokenA */\n      dup14\n        /* \"SimpleSwap.sol\":2793:2799  tokenB */\n      dup14\n        /* \"SimpleSwap.sol\":2773:2784  _getPairKey */\n      tag_70\n        /* \"SimpleSwap.sol\":2773:2800  _getPairKey(tokenA, tokenB) */\n      jump\t// in\n    tag_144:\n        /* \"SimpleSwap.sol\":2755:2800  bytes32 pairKey = _getPairKey(tokenA, tokenB) */\n      swap1\n      pop\n        /* \"SimpleSwap.sol\":2811:2828  Reserve storage r */\n      0x00\n        /* \"SimpleSwap.sol\":2831:2839  reserves */\n      0x00\n        /* \"SimpleSwap.sol\":2831:2848  reserves[pairKey] */\n      0x00\n        /* \"SimpleSwap.sol\":2840:2847  pairKey */\n      dup4\n        /* \"SimpleSwap.sol\":2831:2848  reserves[pairKey] */\n      dup2\n      mstore\n      0x20\n      add\n      swap1\n      dup2\n      mstore\n      0x20\n      add\n      0x00\n      keccak256\n        /* \"SimpleSwap.sol\":2811:2848  Reserve storage r = reserves[pairKey] */\n      swap1\n      pop\n        /* \"SimpleSwap.sol\":2882:3090  _quoteAddLiquidity(... */\n      tag_145\n        /* \"SimpleSwap.sol\":2915:2921  tokenA */\n      dup15\n        /* \"SimpleSwap.sol\":2923:2929  tokenB */\n      dup15\n        /* \"SimpleSwap.sol\":2944:2958  amountADesired */\n      dup15\n        /* \"SimpleSwap.sol\":2960:2974  amountBDesired */\n      dup15\n        /* \"SimpleSwap.sol\":2989:2999  amountAMin */\n      dup15\n        /* \"SimpleSwap.sol\":3001:3011  amountBMin */\n      dup15\n        /* \"SimpleSwap.sol\":3026:3027  r */\n      dup8\n        /* \"SimpleSwap.sol\":3026:3036  r.reserveA */\n      0x00\n      add\n      sload\n        /* \"SimpleSwap.sol\":3038:3039  r */\n      dup9\n        /* \"SimpleSwap.sol\":3038:3048  r.reserveB */\n      0x01\n      add\n      sload\n        /* \"SimpleSwap.sol\":3063:3064  r */\n      dup10\n        /* \"SimpleSwap.sol\":3063:3079  r.totalLiquidity */\n      0x02\n      add\n      sload\n        /* \"SimpleSwap.sol\":2882:2900  _quoteAddLiquidity */\n      tag_146\n        /* \"SimpleSwap.sol\":2882:3090  _quoteAddLiquidity(... */\n      jump\t// in\n    tag_145:\n        /* \"SimpleSwap.sol\":2861:3090  (amountA, amountB) = _quoteAddLiquidity(... */\n      dup1\n      swap7\n      pop\n      dup2\n      swap8\n      pop\n      pop\n      pop\n        /* \"SimpleSwap.sol\":3103:3152  _transferTokens(tokenA, tokenB, amountA, amountB) */\n      tag_147\n        /* \"SimpleSwap.sol\":3119:3125  tokenA */\n      dup15\n        /* \"SimpleSwap.sol\":3127:3133  tokenB */\n      dup15\n        /* \"SimpleSwap.sol\":3135:3142  amountA */\n      dup9\n        /* \"SimpleSwap.sol\":3144:3151  amountB */\n      dup9\n        /* \"SimpleSwap.sol\":3103:3118  _transferTokens */\n      tag_148\n        /* \"SimpleSwap.sol\":3103:3152  _transferTokens(tokenA, tokenB, amountA, amountB) */\n      jump\t// in\n    tag_147:\n        /* \"SimpleSwap.sol\":3175:3254  _calculateLiquidity(amountA, amountB, r.reserveA, r.reserveB, r.totalLiquidity) */\n      tag_149\n        /* \"SimpleSwap.sol\":3195:3202  amountA */\n      dup7\n        /* \"SimpleSwap.sol\":3204:3211  amountB */\n      dup7\n        /* \"SimpleSwap.sol\":3213:3214  r */\n      dup4\n        /* \"SimpleSwap.sol\":3213:3223  r.reserveA */\n      0x00\n      add\n      sload\n        /* \"SimpleSwap.sol\":3225:3226  r */\n      dup5\n        /* \"SimpleSwap.sol\":3225:3235  r.reserveB */\n      0x01\n      add\n      sload\n        /* \"SimpleSwap.sol\":3237:3238  r */\n      dup6\n        /* \"SimpleSwap.sol\":3237:3253  r.totalLiquidity */\n      0x02\n      add\n      sload\n        /* \"SimpleSwap.sol\":3175:3194  _calculateLiquidity */\n      tag_150\n        /* \"SimpleSwap.sol\":3175:3254  _calculateLiquidity(amountA, amountB, r.reserveA, r.reserveB, r.totalLiquidity) */\n      jump\t// in\n    tag_149:\n        /* \"SimpleSwap.sol\":3163:3254  liquidity = _calculateLiquidity(amountA, amountB, r.reserveA, r.reserveB, r.totalLiquidity) */\n      swap4\n      pop\n        /* \"SimpleSwap.sol\":3285:3286  0 */\n      0x00\n        /* \"SimpleSwap.sol\":3273:3282  liquidity */\n      dup5\n        /* \"SimpleSwap.sol\":3273:3286  liquidity > 0 */\n      gt\n        /* \"SimpleSwap.sol\":3265:3303  require(liquidity > 0, \"Insufficient\") */\n      tag_151\n      jumpi\n      mload(0x40)\n      0x08c379a000000000000000000000000000000000000000000000000000000000\n      dup2\n      mstore\n      0x04\n      add\n      tag_152\n      swap1\n      tag_153\n      jump\t// in\n    tag_152:\n      mload(0x40)\n      dup1\n      swap2\n      sub\n      swap1\n      revert\n    tag_151:\n        /* \"SimpleSwap.sol\":3330:3337  amountA */\n      dup6\n        /* \"SimpleSwap.sol\":3316:3317  r */\n      dup2\n        /* \"SimpleSwap.sol\":3316:3326  r.reserveA */\n      0x00\n      add\n      0x00\n        /* \"SimpleSwap.sol\":3316:3337  r.reserveA += amountA */\n      dup3\n      dup3\n      sload\n      tag_154\n      swap2\n      swap1\n      tag_50\n      jump\t// in\n    tag_154:\n      swap3\n      pop\n      pop\n      dup2\n      swap1\n      sstore\n      pop\n        /* \"SimpleSwap.sol\":3362:3369  amountB */\n      dup5\n        /* \"SimpleSwap.sol\":3348:3349  r */\n      dup2\n        /* \"SimpleSwap.sol\":3348:3358  r.reserveB */\n      0x01\n      add\n      0x00\n        /* \"SimpleSwap.sol\":3348:3369  r.reserveB += amountB */\n      dup3\n      dup3\n      sload\n      tag_155\n      swap2\n      swap1\n      tag_50\n      jump\t// in\n    tag_155:\n      swap3\n      pop\n      pop\n      dup2\n      swap1\n      sstore\n      pop\n        /* \"SimpleSwap.sol\":3400:3409  liquidity */\n      dup4\n        /* \"SimpleSwap.sol\":3380:3381  r */\n      dup2\n        /* \"SimpleSwap.sol\":3380:3396  r.totalLiquidity */\n      0x02\n      add\n      0x00\n        /* \"SimpleSwap.sol\":3380:3409  r.totalLiquidity += liquidity */\n      dup3\n      dup3\n      sload\n      tag_156\n      swap2\n      swap1\n      tag_50\n      jump\t// in\n    tag_156:\n      swap3\n      pop\n      pop\n      dup2\n      swap1\n      sstore\n      pop\n        /* \"SimpleSwap.sol\":3439:3448  liquidity */\n      dup4\n        /* \"SimpleSwap.sol\":3420:3421  r */\n      dup2\n        /* \"SimpleSwap.sol\":3420:3431  r.liquidity */\n      0x03\n      add\n        /* \"SimpleSwap.sol\":3420:3435  r.liquidity[to] */\n      0x00\n        /* \"SimpleSwap.sol\":3432:3434  to */\n      dup11\n        /* \"SimpleSwap.sol\":3420:3435  r.liquidity[to] */\n      0xffffffffffffffffffffffffffffffffffffffff\n      and\n      0xffffffffffffffffffffffffffffffffffffffff\n      and\n      dup2\n      mstore\n      0x20\n      add\n      swap1\n      dup2\n      mstore\n      0x20\n      add\n      0x00\n      keccak256\n      0x00\n        /* \"SimpleSwap.sol\":3420:3448  r.liquidity[to] += liquidity */\n      dup3\n      dup3\n      sload\n      tag_157\n      swap2\n      swap1\n      tag_50\n      jump\t// in\n    tag_157:\n      swap3\n      pop\n      pop\n      dup2\n      swap1\n      sstore\n      pop\n        /* \"SimpleSwap.sol\":3481:3491  msg.sender */\n      caller\n        /* \"SimpleSwap.sol\":3466:3537  LiquidityAdded(msg.sender, tokenA, tokenB, amountA, amountB, liquidity) */\n      0xffffffffffffffffffffffffffffffffffffffff\n      and\n      0x43c967b388d3a4ccad3f7ab80167852e322e5a3fde9893f530252281b2ae8b70\n        /* \"SimpleSwap.sol\":3493:3499  tokenA */\n      dup16\n        /* \"SimpleSwap.sol\":3501:3507  tokenB */\n      dup16\n        /* \"SimpleSwap.sol\":3509:3516  amountA */\n      dup10\n        /* \"SimpleSwap.sol\":3518:3525  amountB */\n      dup10\n        /* \"SimpleSwap.sol\":3527:3536  liquidity */\n      dup10\n        /* \"SimpleSwap.sol\":3466:3537  LiquidityAdded(msg.sender, tokenA, tokenB, amountA, amountB, liquidity) */\n      mload(0x40)\n      tag_158\n      swap6\n      swap5\n      swap4\n      swap3\n      swap2\n      swap1\n      tag_136\n      jump\t// in\n    tag_158:\n      mload(0x40)\n      dup1\n      swap2\n      sub\n      swap1\n      log2\n        /* \"SimpleSwap.sol\":2686:3545  {... */\n      pop\n      pop\n        /* \"SimpleSwap.sol\":2371:3545  function addLiquidity(... */\n      pop\n      swap9\n      pop\n      swap9\n      pop\n      swap9\n      swap6\n      pop\n      pop\n      pop\n      pop\n      pop\n      pop\n      jump\t// out\n        /* \"SimpleSwap.sol\":1226:1443  function _getPairKey(address tokenA, address tokenB) private pure returns (bytes32) {... */\n    tag_70:\n        /* \"SimpleSwap.sol\":1301:1308  bytes32 */\n      0x00\n        /* \"SimpleSwap.sol\":1337:1343  tokenB */\n      dup2\n        /* \"SimpleSwap.sol\":1328:1343  tokenA < tokenB */\n      0xffffffffffffffffffffffffffffffffffffffff\n      and\n        /* \"SimpleSwap.sol\":1328:1334  tokenA */\n      dup4\n        /* \"SimpleSwap.sol\":1328:1343  tokenA < tokenB */\n      0xffffffffffffffffffffffffffffffffffffffff\n      and\n      lt\n        /* \"SimpleSwap.sol\":1328:1435  tokenA < tokenB ? keccak256(abi.encodePacked(tokenA, tokenB)) : keccak256(abi.encodePacked(tokenB, tokenA)) */\n      tag_160\n      jumpi\n        /* \"SimpleSwap.sol\":1419:1425  tokenB */\n      dup2\n        /* \"SimpleSwap.sol\":1427:1433  tokenA */\n      dup4\n        /* \"SimpleSwap.sol\":1402:1434  abi.encodePacked(tokenB, tokenA) */\n      add(0x20, mload(0x40))\n      tag_161\n      swap3\n      swap2\n      swap1\n      tag_162\n      jump\t// in\n    tag_161:\n      mload(0x40)\n      0x20\n      dup2\n      dup4\n      sub\n      sub\n      dup2\n      mstore\n      swap1\n      0x40\n      mstore\n        /* \"SimpleSwap.sol\":1392:1435  keccak256(abi.encodePacked(tokenB, tokenA)) */\n      dup1\n      mload\n      swap1\n      0x20\n      add\n      keccak256\n        /* \"SimpleSwap.sol\":1328:1435  tokenA < tokenB ? keccak256(abi.encodePacked(tokenA, tokenB)) : keccak256(abi.encodePacked(tokenB, tokenA)) */\n      jump(tag_163)\n    tag_160:\n        /* \"SimpleSwap.sol\":1373:1379  tokenA */\n      dup3\n        /* \"SimpleSwap.sol\":1381:1387  tokenB */\n      dup3\n        /* \"SimpleSwap.sol\":1356:1388  abi.encodePacked(tokenA, tokenB) */\n      add(0x20, mload(0x40))\n      tag_164\n      swap3\n      swap2\n      swap1\n      tag_162\n      jump\t// in\n    tag_164:\n      mload(0x40)\n      0x20\n      dup2\n      dup4\n      sub\n      sub\n      dup2\n      mstore\n      swap1\n      0x40\n      mstore\n        /* \"SimpleSwap.sol\":1346:1389  keccak256(abi.encodePacked(tokenA, tokenB)) */\n      dup1\n      mload\n      swap1\n      0x20\n      add\n      keccak256\n        /* \"SimpleSwap.sol\":1328:1435  tokenA < tokenB ? keccak256(abi.encodePacked(tokenA, tokenB)) : keccak256(abi.encodePacked(tokenB, tokenA)) */\n    tag_163:\n        /* \"SimpleSwap.sol\":1321:1435  return tokenA < tokenB ? keccak256(abi.encodePacked(tokenA, tokenB)) : keccak256(abi.encodePacked(tokenB, tokenA)) */\n      swap1\n      pop\n        /* \"SimpleSwap.sol\":1226:1443  function _getPairKey(address tokenA, address tokenB) private pure returns (bytes32) {... */\n      swap3\n      swap2\n      pop\n      pop\n      jump\t// out\n        /* \"@openzeppelin/contracts/token/ERC20/utils/SafeERC20.sol\":1618:1806  function safeTransferFrom(IERC20 token, address from, address to, uint256 value) internal {... */\n    tag_72:\n        /* \"@openzeppelin/contracts/token/ERC20/utils/SafeERC20.sol\":1718:1799  _callOptionalReturn(token, abi.encodeCall(token.transferFrom, (from, to, value))) */\n      tag_166\n        /* \"@openzeppelin/contracts/token/ERC20/utils/SafeERC20.sol\":1738:1743  token */\n      dup5\n        /* \"@openzeppelin/contracts/token/ERC20/utils/SafeERC20.sol\":1760:1765  token */\n      dup6\n        /* \"@openzeppelin/contracts/token/ERC20/utils/SafeERC20.sol\":1760:1778  token.transferFrom */\n      0xffffffffffffffffffffffffffffffffffffffff\n      and\n      0x23b872dd\n        /* \"@openzeppelin/contracts/token/ERC20/utils/SafeERC20.sol\":1781:1785  from */\n      dup7\n        /* \"@openzeppelin/contracts/token/ERC20/utils/SafeERC20.sol\":1787:1789  to */\n      dup7\n        /* \"@openzeppelin/contracts/token/ERC20/utils/SafeERC20.sol\":1791:1796  value */\n      dup7\n        /* \"@openzeppelin/contracts/token/ERC20/utils/SafeERC20.sol\":1745:1798  abi.encodeCall(token.transferFrom, (from, to, value)) */\n      add(0x24, mload(0x40))\n      tag_167\n      swap4\n      swap3\n      swap2\n      swap1\n      tag_168\n      jump\t// in\n    tag_167:\n      mload(0x40)\n      0x20\n      dup2\n      dup4\n      sub\n      sub\n      dup2\n      mstore\n      swap1\n      0x40\n      mstore\n      swap2\n      pop\n      0xe0\n      shl\n      0x20\n      dup3\n      add\n      dup1\n      mload\n      0xffffffffffffffffffffffffffffffffffffffffffffffffffffffff\n      dup4\n      dup2\n      dup4\n      and\n      or\n      dup4\n      mstore\n      pop\n      pop\n      pop\n      pop\n        /* \"@openzeppelin/contracts/token/ERC20/utils/SafeERC20.sol\":1718:1737  _callOptionalReturn */\n      tag_169\n        /* \"@openzeppelin/contracts/token/ERC20/utils/SafeERC20.sol\":1718:1799  _callOptionalReturn(token, abi.encodeCall(token.transferFrom, (from, to, value))) */\n      jump\t// in\n    tag_166:\n        /* \"@openzeppelin/contracts/token/ERC20/utils/SafeERC20.sol\":1618:1806  function safeTransferFrom(IERC20 token, address from, address to, uint256 value) internal {... */\n      pop\n      pop\n      pop\n      pop\n      jump\t// out\n        /* \"@openzeppelin/contracts/token/ERC20/utils/SafeERC20.sol\":1219:1379  function safeTransfer(IERC20 token, address to, uint256 value) internal {... */\n    tag_87:\n        /* \"@openzeppelin/contracts/token/ERC20/utils/SafeERC20.sol\":1301:1372  _callOptionalReturn(token, abi.encodeCall(token.transfer, (to, value))) */\n      tag_171\n        /* \"@openzeppelin/contracts/token/ERC20/utils/SafeERC20.sol\":1321:1326  token */\n      dup4\n        /* \"@openzeppelin/contracts/token/ERC20/utils/SafeERC20.sol\":1343:1348  token */\n      dup5\n        /* \"@openzeppelin/contracts/token/ERC20/utils/SafeERC20.sol\":1343:1357  token.transfer */\n      0xffffffffffffffffffffffffffffffffffffffff\n      and\n      0xa9059cbb\n        /* \"@openzeppelin/contracts/token/ERC20/utils/SafeERC20.sol\":1360:1362  to */\n      dup6\n        /* \"@openzeppelin/contracts/token/ERC20/utils/SafeERC20.sol\":1364:1369  value */\n      dup6\n        /* \"@openzeppelin/contracts/token/ERC20/utils/SafeERC20.sol\":1328:1371  abi.encodeCall(token.transfer, (to, value)) */\n      add(0x24, mload(0x40))\n      tag_172\n      swap3\n      swap2\n      swap1\n      tag_173\n      jump\t// in\n    tag_172:\n      mload(0x40)\n      0x20\n      dup2\n      dup4\n      sub\n      sub\n      dup2\n      mstore\n      swap1\n      0x40\n      mstore\n      swap2\n      pop\n      0xe0\n      shl\n      0x20\n      dup3\n      add\n      dup1\n      mload\n      0xffffffffffffffffffffffffffffffffffffffffffffffffffffffff\n      dup4\n      dup2\n      dup4\n      and\n      or\n      dup4\n      mstore\n      pop\n      pop\n      pop\n      pop\n        /* \"@openzeppelin/contracts/token/ERC20/utils/SafeERC20.sol\":1301:1320  _callOptionalReturn */\n      tag_169\n        /* \"@openzeppelin/contracts/token/ERC20/utils/SafeERC20.sol\":1301:1372  _callOptionalReturn(token, abi.encodeCall(token.transfer, (to, value))) */\n      jump\t// in\n    tag_171:\n        /* \"@openzeppelin/contracts/token/ERC20/utils/SafeERC20.sol\":1219:1379  function safeTransfer(IERC20 token, address to, uint256 value) internal {... */\n      pop\n      pop\n      pop\n      jump\t// out\n        /* \"SimpleSwap.sol\":3625:4622  function _quoteAddLiquidity(... */\n    tag_146:\n        /* \"SimpleSwap.sol\":3923:3935  uint amountA */\n      0x00\n        /* \"SimpleSwap.sol\":3937:3949  uint amountB */\n      0x00\n        /* \"SimpleSwap.sol\":3984:3985  0 */\n      0x00\n        /* \"SimpleSwap.sol\":3966:3980  totalLiquidity */\n      dup4\n        /* \"SimpleSwap.sol\":3966:3985  totalLiquidity == 0 */\n      sub\n        /* \"SimpleSwap.sol\":3962:4053  if (totalLiquidity == 0) {... */\n      tag_175\n      jumpi\n        /* \"SimpleSwap.sol\":4010:4024  amountADesired */\n      dup9\n        /* \"SimpleSwap.sol\":4026:4040  amountBDesired */\n      dup9\n        /* \"SimpleSwap.sol\":4002:4041  return (amountADesired, amountBDesired) */\n      swap2\n      pop\n      swap2\n      pop\n      jump(tag_174)\n        /* \"SimpleSwap.sol\":3962:4053  if (totalLiquidity == 0) {... */\n    tag_175:\n        /* \"SimpleSwap.sol\":4066:4080  address token0 */\n      0x00\n        /* \"SimpleSwap.sol\":4085:4112  _sortTokens(tokenA, tokenB) */\n      tag_176\n        /* \"SimpleSwap.sol\":4097:4103  tokenA */\n      dup13\n        /* \"SimpleSwap.sol\":4105:4111  tokenB */\n      dup13\n        /* \"SimpleSwap.sol\":4085:4096  _sortTokens */\n      tag_177\n        /* \"SimpleSwap.sol\":4085:4112  _sortTokens(tokenA, tokenB) */\n      jump\t// in\n    tag_176:\n        /* \"SimpleSwap.sol\":4065:4112  (address token0,) = _sortTokens(tokenA, tokenB) */\n      pop\n      swap1\n      pop\n        /* \"SimpleSwap.sol\":4124:4131  uint rA */\n      0x00\n        /* \"SimpleSwap.sol\":4133:4140  uint rB */\n      0x00\n        /* \"SimpleSwap.sol\":4154:4160  token0 */\n      dup3\n        /* \"SimpleSwap.sol\":4144:4160  tokenA == token0 */\n      0xffffffffffffffffffffffffffffffffffffffff\n      and\n        /* \"SimpleSwap.sol\":4144:4150  tokenA */\n      dup15\n        /* \"SimpleSwap.sol\":4144:4160  tokenA == token0 */\n      0xffffffffffffffffffffffffffffffffffffffff\n      and\n      eq\n        /* \"SimpleSwap.sol\":4144:4206  tokenA == token0 ? (reserveA, reserveB) : (reserveB, reserveA) */\n      tag_178\n      jumpi\n        /* \"SimpleSwap.sol\":4187:4195  reserveB */\n      dup7\n        /* \"SimpleSwap.sol\":4197:4205  reserveA */\n      dup9\n        /* \"SimpleSwap.sol\":4144:4206  tokenA == token0 ? (reserveA, reserveB) : (reserveB, reserveA) */\n      jump(tag_179)\n    tag_178:\n        /* \"SimpleSwap.sol\":4164:4172  reserveA */\n      dup8\n        /* \"SimpleSwap.sol\":4174:4182  reserveB */\n      dup8\n        /* \"SimpleSwap.sol\":4144:4206  tokenA == token0 ? (reserveA, reserveB) : (reserveB, reserveA) */\n    tag_179:\n        /* \"SimpleSwap.sol\":4123:4206  (uint rA, uint rB) = tokenA == token0 ? (reserveA, reserveB) : (reserveB, reserveA) */\n      swap2\n      pop\n      swap2\n      pop\n        /* \"SimpleSwap.sol\":4219:4232  uint bOptimal */\n      0x00\n        /* \"SimpleSwap.sol\":4259:4261  rA */\n      dup3\n        /* \"SimpleSwap.sol\":4253:4255  rB */\n      dup3\n        /* \"SimpleSwap.sol\":4236:4250  amountADesired */\n      dup15\n        /* \"SimpleSwap.sol\":4236:4255  amountADesired * rB */\n      tag_180\n      swap2\n      swap1\n      tag_46\n      jump\t// in\n    tag_180:\n        /* \"SimpleSwap.sol\":4235:4261  (amountADesired * rB) / rA */\n      tag_181\n      swap2\n      swap1\n      tag_52\n      jump\t// in\n    tag_181:\n        /* \"SimpleSwap.sol\":4219:4261  uint bOptimal = (amountADesired * rB) / rA */\n      swap1\n      pop\n        /* \"SimpleSwap.sol\":4288:4302  amountBDesired */\n      dup12\n        /* \"SimpleSwap.sol\":4276:4284  bOptimal */\n      dup2\n        /* \"SimpleSwap.sol\":4276:4302  bOptimal <= amountBDesired */\n      gt\n        /* \"SimpleSwap.sol\":4272:4615  if (bOptimal <= amountBDesired) {... */\n      tag_182\n      jumpi\n        /* \"SimpleSwap.sol\":4339:4349  amountBMin */\n      dup10\n        /* \"SimpleSwap.sol\":4327:4335  bOptimal */\n      dup2\n        /* \"SimpleSwap.sol\":4327:4349  bOptimal >= amountBMin */\n      lt\n      iszero\n        /* \"SimpleSwap.sol\":4319:4368  require(bOptimal >= amountBMin, \"Insufficient B\") */\n      tag_183\n      jumpi\n      mload(0x40)\n      0x08c379a000000000000000000000000000000000000000000000000000000000\n      dup2\n      mstore\n      0x04\n      add\n      tag_184\n      swap1\n      tag_128\n      jump\t// in\n    tag_184:\n      mload(0x40)\n      dup1\n      swap2\n      sub\n      swap1\n      revert\n    tag_183:\n        /* \"SimpleSwap.sol\":4391:4405  amountADesired */\n      dup13\n        /* \"SimpleSwap.sol\":4407:4415  bOptimal */\n      dup2\n        /* \"SimpleSwap.sol\":4383:4416  return (amountADesired, bOptimal) */\n      swap6\n      pop\n      swap6\n      pop\n      pop\n      pop\n      pop\n      pop\n      jump(tag_174)\n        /* \"SimpleSwap.sol\":4272:4615  if (bOptimal <= amountBDesired) {... */\n    tag_182:\n        /* \"SimpleSwap.sol\":4449:4462  uint aOptimal */\n      0x00\n        /* \"SimpleSwap.sol\":4489:4491  rB */\n      dup3\n        /* \"SimpleSwap.sol\":4483:4485  rA */\n      dup5\n        /* \"SimpleSwap.sol\":4466:4480  amountBDesired */\n      dup15\n        /* \"SimpleSwap.sol\":4466:4485  amountBDesired * rA */\n      tag_186\n      swap2\n      swap1\n      tag_46\n      jump\t// in\n    tag_186:\n        /* \"SimpleSwap.sol\":4465:4491  (amountBDesired * rA) / rB */\n      tag_187\n      swap2\n      swap1\n      tag_52\n      jump\t// in\n    tag_187:\n        /* \"SimpleSwap.sol\":4449:4491  uint aOptimal = (amountBDesired * rA) / rB */\n      swap1\n      pop\n        /* \"SimpleSwap.sol\":4526:4536  amountAMin */\n      dup12\n        /* \"SimpleSwap.sol\":4514:4522  aOptimal */\n      dup2\n        /* \"SimpleSwap.sol\":4514:4536  aOptimal >= amountAMin */\n      lt\n      iszero\n        /* \"SimpleSwap.sol\":4506:4555  require(aOptimal >= amountAMin, \"Insufficient A\") */\n      tag_188\n      jumpi\n      mload(0x40)\n      0x08c379a000000000000000000000000000000000000000000000000000000000\n      dup2\n      mstore\n      0x04\n      add\n      tag_189\n      swap1\n      tag_125\n      jump\t// in\n    tag_189:\n      mload(0x40)\n      dup1\n      swap2\n      sub\n      swap1\n      revert\n    tag_188:\n        /* \"SimpleSwap.sol\":4578:4586  aOptimal */\n      dup1\n        /* \"SimpleSwap.sol\":4588:4602  amountBDesired */\n      dup14\n        /* \"SimpleSwap.sol\":4570:4603  return (aOptimal, amountBDesired) */\n      swap7\n      pop\n      swap7\n      pop\n      pop\n      pop\n      pop\n      pop\n      pop\n        /* \"SimpleSwap.sol\":3625:4622  function _quoteAddLiquidity(... */\n    tag_174:\n      swap10\n      pop\n      swap10\n      swap8\n      pop\n      pop\n      pop\n      pop\n      pop\n      pop\n      pop\n      pop\n      jump\t// out\n        /* \"SimpleSwap.sol\":4685:4943  function _transferTokens(address tokenA, address tokenB, uint amountA, uint amountB) internal {... */\n    tag_148:\n        /* \"SimpleSwap.sol\":4790:4857  IERC20(tokenA).safeTransferFrom(msg.sender, address(this), amountA) */\n      tag_191\n        /* \"SimpleSwap.sol\":4822:4832  msg.sender */\n      caller\n        /* \"SimpleSwap.sol\":4842:4846  this */\n      address\n        /* \"SimpleSwap.sol\":4849:4856  amountA */\n      dup5\n        /* \"SimpleSwap.sol\":4797:4803  tokenA */\n      dup8\n        /* \"SimpleSwap.sol\":4790:4821  IERC20(tokenA).safeTransferFrom */\n      0xffffffffffffffffffffffffffffffffffffffff\n      and\n      tag_72\n      swap1\n        /* \"SimpleSwap.sol\":4790:4857  IERC20(tokenA).safeTransferFrom(msg.sender, address(this), amountA) */\n      swap4\n      swap3\n      swap2\n      swap1\n      0xffffffff\n      and\n      jump\t// in\n    tag_191:\n        /* \"SimpleSwap.sol\":4868:4935  IERC20(tokenB).safeTransferFrom(msg.sender, address(this), amountB) */\n      tag_192\n        /* \"SimpleSwap.sol\":4900:4910  msg.sender */\n      caller\n        /* \"SimpleSwap.sol\":4920:4924  this */\n      address\n        /* \"SimpleSwap.sol\":4927:4934  amountB */\n      dup4\n        /* \"SimpleSwap.sol\":4875:4881  tokenB */\n      dup7\n        /* \"SimpleSwap.sol\":4868:4899  IERC20(tokenB).safeTransferFrom */\n      0xffffffffffffffffffffffffffffffffffffffff\n      and\n      tag_72\n      swap1\n        /* \"SimpleSwap.sol\":4868:4935  IERC20(tokenB).safeTransferFrom(msg.sender, address(this), amountB) */\n      swap4\n      swap3\n      swap2\n      swap1\n      0xffffffff\n      and\n      jump\t// in\n    tag_192:\n        /* \"SimpleSwap.sol\":4685:4943  function _transferTokens(address tokenA, address tokenB, uint amountA, uint amountB) internal {... */\n      pop\n      pop\n      pop\n      pop\n      jump\t// out\n        /* \"SimpleSwap.sol\":5011:5500  function _calculateLiquidity(... */\n    tag_150:\n        /* \"SimpleSwap.sol\":5194:5208  uint liquidity */\n      0x00\n        /* \"SimpleSwap.sol\":5243:5244  0 */\n      0x00\n        /* \"SimpleSwap.sol\":5225:5239  totalLiquidity */\n      dup3\n        /* \"SimpleSwap.sol\":5225:5244  totalLiquidity == 0 */\n      sub\n        /* \"SimpleSwap.sol\":5221:5493  if (totalLiquidity == 0) {... */\n      tag_194\n      jumpi\n        /* \"SimpleSwap.sol\":5273:5301  Math.sqrt(amountA * amountB) */\n      tag_195\n        /* \"SimpleSwap.sol\":5293:5300  amountB */\n      dup6\n        /* \"SimpleSwap.sol\":5283:5290  amountA */\n      dup8\n        /* \"SimpleSwap.sol\":5283:5300  amountA * amountB */\n      tag_196\n      swap2\n      swap1\n      tag_46\n      jump\t// in\n    tag_196:\n        /* \"SimpleSwap.sol\":5273:5282  Math.sqrt */\n      tag_197\n        /* \"SimpleSwap.sol\":5273:5301  Math.sqrt(amountA * amountB) */\n      jump\t// in\n    tag_195:\n        /* \"SimpleSwap.sol\":5261:5301  liquidity = Math.sqrt(amountA * amountB) */\n      swap1\n      pop\n        /* \"SimpleSwap.sol\":5221:5493  if (totalLiquidity == 0) {... */\n      jump(tag_198)\n    tag_194:\n        /* \"SimpleSwap.sol\":5346:5481  Math.min(... */\n      tag_199\n        /* \"SimpleSwap.sol\":5402:5410  reserveA */\n      dup5\n        /* \"SimpleSwap.sol\":5384:5398  totalLiquidity */\n      dup4\n        /* \"SimpleSwap.sol\":5374:5381  amountA */\n      dup9\n        /* \"SimpleSwap.sol\":5374:5398  amountA * totalLiquidity */\n      tag_200\n      swap2\n      swap1\n      tag_46\n      jump\t// in\n    tag_200:\n        /* \"SimpleSwap.sol\":5373:5410  (amountA * totalLiquidity) / reserveA */\n      tag_201\n      swap2\n      swap1\n      tag_52\n      jump\t// in\n    tag_201:\n        /* \"SimpleSwap.sol\":5458:5466  reserveB */\n      dup5\n        /* \"SimpleSwap.sol\":5440:5454  totalLiquidity */\n      dup5\n        /* \"SimpleSwap.sol\":5430:5437  amountB */\n      dup9\n        /* \"SimpleSwap.sol\":5430:5454  amountB * totalLiquidity */\n      tag_202\n      swap2\n      swap1\n      tag_46\n      jump\t// in\n    tag_202:\n        /* \"SimpleSwap.sol\":5429:5466  (amountB * totalLiquidity) / reserveB */\n      tag_203\n      swap2\n      swap1\n      tag_52\n      jump\t// in\n    tag_203:\n        /* \"SimpleSwap.sol\":5346:5354  Math.min */\n      tag_204\n        /* \"SimpleSwap.sol\":5346:5481  Math.min(... */\n      jump\t// in\n    tag_199:\n        /* \"SimpleSwap.sol\":5334:5481  liquidity = Math.min(... */\n      swap1\n      pop\n        /* \"SimpleSwap.sol\":5221:5493  if (totalLiquidity == 0) {... */\n    tag_198:\n        /* \"SimpleSwap.sol\":5011:5500  function _calculateLiquidity(... */\n      swap6\n      swap5\n      pop\n      pop\n      pop\n      pop\n      pop\n      jump\t// out\n        /* \"@openzeppelin/contracts/token/ERC20/utils/SafeERC20.sol\":8370:9090  function _callOptionalReturn(IERC20 token, bytes memory data) private {... */\n    tag_169:\n        /* \"@openzeppelin/contracts/token/ERC20/utils/SafeERC20.sol\":8450:8468  uint256 returnSize */\n      0x00\n        /* \"@openzeppelin/contracts/token/ERC20/utils/SafeERC20.sol\":8478:8497  uint256 returnValue */\n      0x00\n        /* \"@openzeppelin/contracts/token/ERC20/utils/SafeERC20.sol\":8616:8620  0x20 */\n      0x20\n        /* \"@openzeppelin/contracts/token/ERC20/utils/SafeERC20.sol\":8613:8614  0 */\n      0x00\n        /* \"@openzeppelin/contracts/token/ERC20/utils/SafeERC20.sol\":8606:8610  data */\n      dup5\n        /* \"@openzeppelin/contracts/token/ERC20/utils/SafeERC20.sol\":8600:8611  mload(data) */\n      mload\n        /* \"@openzeppelin/contracts/token/ERC20/utils/SafeERC20.sol\":8593:8597  0x20 */\n      0x20\n        /* \"@openzeppelin/contracts/token/ERC20/utils/SafeERC20.sol\":8587:8591  data */\n      dup7\n        /* \"@openzeppelin/contracts/token/ERC20/utils/SafeERC20.sol\":8583:8598  add(data, 0x20) */\n      add\n        /* \"@openzeppelin/contracts/token/ERC20/utils/SafeERC20.sol\":8580:8581  0 */\n      0x00\n        /* \"@openzeppelin/contracts/token/ERC20/utils/SafeERC20.sol\":8573:8578  token */\n      dup9\n        /* \"@openzeppelin/contracts/token/ERC20/utils/SafeERC20.sol\":8566:8571  gas() */\n      gas\n        /* \"@openzeppelin/contracts/token/ERC20/utils/SafeERC20.sol\":8561:8621  call(gas(), token, 0, add(data, 0x20), mload(data), 0, 0x20) */\n      call\n        /* \"@openzeppelin/contracts/token/ERC20/utils/SafeERC20.sol\":8673:8680  success */\n      dup1\n        /* \"@openzeppelin/contracts/token/ERC20/utils/SafeERC20.sol\":8663:8839  if iszero(success) {... */\n      tag_206\n      jumpi\n        /* \"@openzeppelin/contracts/token/ERC20/utils/SafeERC20.sol\":8717:8721  0x40 */\n      0x40\n        /* \"@openzeppelin/contracts/token/ERC20/utils/SafeERC20.sol\":8711:8722  mload(0x40) */\n      mload\n        /* \"@openzeppelin/contracts/token/ERC20/utils/SafeERC20.sol\":8762:8778  returndatasize() */\n      returndatasize\n        /* \"@openzeppelin/contracts/token/ERC20/utils/SafeERC20.sol\":8759:8760  0 */\n      0x00\n        /* \"@openzeppelin/contracts/token/ERC20/utils/SafeERC20.sol\":8754:8757  ptr */\n      dup3\n        /* \"@openzeppelin/contracts/token/ERC20/utils/SafeERC20.sol\":8739:8779  returndatacopy(ptr, 0, returndatasize()) */\n      returndatacopy\n        /* \"@openzeppelin/contracts/token/ERC20/utils/SafeERC20.sol\":8808:8824  returndatasize() */\n      returndatasize\n        /* \"@openzeppelin/contracts/token/ERC20/utils/SafeERC20.sol\":8803:8806  ptr */\n      dup2\n        /* \"@openzeppelin/contracts/token/ERC20/utils/SafeERC20.sol\":8796:8825  revert(ptr, returndatasize()) */\n      revert\n        /* \"@openzeppelin/contracts/token/ERC20/utils/SafeERC20.sol\":8663:8839  if iszero(success) {... */\n    tag_206:\n        /* \"@openzeppelin/contracts/token/ERC20/utils/SafeERC20.sol\":8866:8882  returndatasize() */\n      returndatasize\n        /* \"@openzeppelin/contracts/token/ERC20/utils/SafeERC20.sol\":8852:8882  returnSize := returndatasize() */\n      swap3\n      pop\n        /* \"@openzeppelin/contracts/token/ERC20/utils/SafeERC20.sol\":8916:8917  0 */\n      0x00\n        /* \"@openzeppelin/contracts/token/ERC20/utils/SafeERC20.sol\":8910:8918  mload(0) */\n      mload\n        /* \"@openzeppelin/contracts/token/ERC20/utils/SafeERC20.sol\":8895:8918  returnValue := mload(0) */\n      swap2\n      pop\n        /* \"@openzeppelin/contracts/token/ERC20/utils/SafeERC20.sol\":8532:8928  {... */\n      pop\n        /* \"@openzeppelin/contracts/token/ERC20/utils/SafeERC20.sol\":8956:8957  0 */\n      0x00\n        /* \"@openzeppelin/contracts/token/ERC20/utils/SafeERC20.sol\":8942:8952  returnSize */\n      dup3\n        /* \"@openzeppelin/contracts/token/ERC20/utils/SafeERC20.sol\":8942:8957  returnSize == 0 */\n      eq\n        /* \"@openzeppelin/contracts/token/ERC20/utils/SafeERC20.sol\":8942:9010  returnSize == 0 ? address(token).code.length == 0 : returnValue != 1 */\n      tag_207\n      jumpi\n        /* \"@openzeppelin/contracts/token/ERC20/utils/SafeERC20.sol\":9009:9010  1 */\n      0x01\n        /* \"@openzeppelin/contracts/token/ERC20/utils/SafeERC20.sol\":8994:9005  returnValue */\n      dup2\n        /* \"@openzeppelin/contracts/token/ERC20/utils/SafeERC20.sol\":8994:9010  returnValue != 1 */\n      eq\n      iszero\n        /* \"@openzeppelin/contracts/token/ERC20/utils/SafeERC20.sol\":8942:9010  returnSize == 0 ? address(token).code.length == 0 : returnValue != 1 */\n      jump(tag_208)\n    tag_207:\n        /* \"@openzeppelin/contracts/token/ERC20/utils/SafeERC20.sol\":8990:8991  0 */\n      0x00\n        /* \"@openzeppelin/contracts/token/ERC20/utils/SafeERC20.sol\":8968:8973  token */\n      dup5\n        /* \"@openzeppelin/contracts/token/ERC20/utils/SafeERC20.sol\":8960:8986  address(token).code.length */\n      0xffffffffffffffffffffffffffffffffffffffff\n      and\n      extcodesize\n        /* \"@openzeppelin/contracts/token/ERC20/utils/SafeERC20.sol\":8960:8991  address(token).code.length == 0 */\n      eq\n        /* \"@openzeppelin/contracts/token/ERC20/utils/SafeERC20.sol\":8942:9010  returnSize == 0 ? address(token).code.length == 0 : returnValue != 1 */\n    tag_208:\n        /* \"@openzeppelin/contracts/token/ERC20/utils/SafeERC20.sol\":8938:9084  if (returnSize == 0 ? address(token).code.length == 0 : returnValue != 1) {... */\n      iszero\n      tag_209\n      jumpi\n        /* \"@openzeppelin/contracts/token/ERC20/utils/SafeERC20.sol\":9066:9071  token */\n      dup4\n        /* \"@openzeppelin/contracts/token/ERC20/utils/SafeERC20.sol\":9033:9073  SafeERC20FailedOperation(address(token)) */\n      mload(0x40)\n      0x5274afe700000000000000000000000000000000000000000000000000000000\n      dup2\n      mstore\n      0x04\n      add\n      tag_210\n      swap2\n      swap1\n      tag_211\n      jump\t// in\n    tag_210:\n      mload(0x40)\n      dup1\n      swap2\n      sub\n      swap1\n      revert\n        /* \"@openzeppelin/contracts/token/ERC20/utils/SafeERC20.sol\":8938:9084  if (returnSize == 0 ? address(token).code.length == 0 : returnValue != 1) {... */\n    tag_209:\n        /* \"@openzeppelin/contracts/token/ERC20/utils/SafeERC20.sol\":8440:9090  {... */\n      pop\n      pop\n        /* \"@openzeppelin/contracts/token/ERC20/utils/SafeERC20.sol\":8370:9090  function _callOptionalReturn(IERC20 token, bytes memory data) private {... */\n      pop\n      pop\n      jump\t// out\n        /* \"SimpleSwap.sol\":1505:1677  function _sortTokens(address tokenA, address tokenB) private pure returns (address, address) {... */\n    tag_177:\n        /* \"SimpleSwap.sol\":1580:1587  address */\n      0x00\n        /* \"SimpleSwap.sol\":1589:1596  address */\n      0x00\n        /* \"SimpleSwap.sol\":1625:1631  tokenB */\n      dup3\n        /* \"SimpleSwap.sol\":1616:1631  tokenA < tokenB */\n      0xffffffffffffffffffffffffffffffffffffffff\n      and\n        /* \"SimpleSwap.sol\":1616:1622  tokenA */\n      dup5\n        /* \"SimpleSwap.sol\":1616:1631  tokenA < tokenB */\n      0xffffffffffffffffffffffffffffffffffffffff\n      and\n      lt\n        /* \"SimpleSwap.sol\":1616:1669  tokenA < tokenB ? (tokenA, tokenB) : (tokenB, tokenA) */\n      tag_213\n      jumpi\n        /* \"SimpleSwap.sol\":1654:1660  tokenB */\n      dup3\n        /* \"SimpleSwap.sol\":1662:1668  tokenA */\n      dup5\n        /* \"SimpleSwap.sol\":1616:1669  tokenA < tokenB ? (tokenA, tokenB) : (tokenB, tokenA) */\n      jump(tag_214)\n    tag_213:\n        /* \"SimpleSwap.sol\":1635:1641  tokenA */\n      dup4\n        /* \"SimpleSwap.sol\":1643:1649  tokenB */\n      dup4\n        /* \"SimpleSwap.sol\":1616:1669  tokenA < tokenB ? (tokenA, tokenB) : (tokenB, tokenA) */\n    tag_214:\n        /* \"SimpleSwap.sol\":1609:1669  return tokenA < tokenB ? (tokenA, tokenB) : (tokenB, tokenA) */\n      swap2\n      pop\n      swap2\n      pop\n        /* \"SimpleSwap.sol\":1505:1677  function _sortTokens(address tokenA, address tokenB) private pure returns (address, address) {... */\n      swap3\n      pop\n      swap3\n      swap1\n      pop\n      jump\t// out\n        /* \"@openzeppelin/contracts/utils/math/Math.sol\":20567:25748  function sqrt(uint256 a) internal pure returns (uint256) {... */\n    tag_197:\n        /* \"@openzeppelin/contracts/utils/math/Math.sol\":20615:20622  uint256 */\n      0x00\n        /* \"@openzeppelin/contracts/utils/math/Math.sol\":20733:20734  1 */\n      0x01\n        /* \"@openzeppelin/contracts/utils/math/Math.sol\":20728:20729  a */\n      dup3\n        /* \"@openzeppelin/contracts/utils/math/Math.sol\":20728:20734  a <= 1 */\n      gt\n        /* \"@openzeppelin/contracts/utils/math/Math.sol\":20724:20777  if (a <= 1) {... */\n      tag_216\n      jumpi\n        /* \"@openzeppelin/contracts/utils/math/Math.sol\":20761:20762  a */\n      dup2\n        /* \"@openzeppelin/contracts/utils/math/Math.sol\":20754:20762  return a */\n      swap1\n      pop\n      jump(tag_215)\n        /* \"@openzeppelin/contracts/utils/math/Math.sol\":20724:20777  if (a <= 1) {... */\n    tag_216:\n        /* \"@openzeppelin/contracts/utils/math/Math.sol\":21704:21714  uint256 aa */\n      0x00\n        /* \"@openzeppelin/contracts/utils/math/Math.sol\":21717:21718  a */\n      dup3\n        /* \"@openzeppelin/contracts/utils/math/Math.sol\":21704:21718  uint256 aa = a */\n      swap1\n      pop\n        /* \"@openzeppelin/contracts/utils/math/Math.sol\":21732:21742  uint256 xn */\n      0x00\n        /* \"@openzeppelin/contracts/utils/math/Math.sol\":21745:21746  1 */\n      0x01\n        /* \"@openzeppelin/contracts/utils/math/Math.sol\":21732:21746  uint256 xn = 1 */\n      swap1\n      pop\n        /* \"@openzeppelin/contracts/utils/math/Math.sol\":21772:21780  1 << 128 */\n      0x0100000000000000000000000000000000\n        /* \"@openzeppelin/contracts/utils/math/Math.sol\":21765:21767  aa */\n      dup3\n        /* \"@openzeppelin/contracts/utils/math/Math.sol\":21765:21781  aa >= (1 << 128) */\n      lt\n        /* \"@openzeppelin/contracts/utils/math/Math.sol\":21761:21853  if (aa >= (1 << 128)) {... */\n      tag_217\n      jumpi\n        /* \"@openzeppelin/contracts/utils/math/Math.sol\":21808:21811  128 */\n      0x80\n        /* \"@openzeppelin/contracts/utils/math/Math.sol\":21801:21811  aa >>= 128 */\n      dup3\n      swap1\n      shr\n      swap2\n      pop\n        /* \"@openzeppelin/contracts/utils/math/Math.sol\":21836:21838  64 */\n      0x40\n        /* \"@openzeppelin/contracts/utils/math/Math.sol\":21829:21838  xn <<= 64 */\n      dup2\n      swap1\n      shl\n      swap1\n      pop\n        /* \"@openzeppelin/contracts/utils/math/Math.sol\":21761:21853  if (aa >= (1 << 128)) {... */\n    tag_217:\n        /* \"@openzeppelin/contracts/utils/math/Math.sol\":21877:21884  1 << 64 */\n      0x010000000000000000\n        /* \"@openzeppelin/contracts/utils/math/Math.sol\":21870:21872  aa */\n      dup3\n        /* \"@openzeppelin/contracts/utils/math/Math.sol\":21870:21885  aa >= (1 << 64) */\n      lt\n        /* \"@openzeppelin/contracts/utils/math/Math.sol\":21866:21956  if (aa >= (1 << 64)) {... */\n      tag_218\n      jumpi\n        /* \"@openzeppelin/contracts/utils/math/Math.sol\":21912:21914  64 */\n      0x40\n        /* \"@openzeppelin/contracts/utils/math/Math.sol\":21905:21914  aa >>= 64 */\n      dup3\n      swap1\n      shr\n      swap2\n      pop\n        /* \"@openzeppelin/contracts/utils/math/Math.sol\":21939:21941  32 */\n      0x20\n        /* \"@openzeppelin/contracts/utils/math/Math.sol\":21932:21941  xn <<= 32 */\n      dup2\n      swap1\n      shl\n      swap1\n      pop\n        /* \"@openzeppelin/contracts/utils/math/Math.sol\":21866:21956  if (aa >= (1 << 64)) {... */\n    tag_218:\n        /* \"@openzeppelin/contracts/utils/math/Math.sol\":21980:21987  1 << 32 */\n      0x0100000000\n        /* \"@openzeppelin/contracts/utils/math/Math.sol\":21973:21975  aa */\n      dup3\n        /* \"@openzeppelin/contracts/utils/math/Math.sol\":21973:21988  aa >= (1 << 32) */\n      lt\n        /* \"@openzeppelin/contracts/utils/math/Math.sol\":21969:22059  if (aa >= (1 << 32)) {... */\n      tag_219\n      jumpi\n        /* \"@openzeppelin/contracts/utils/math/Math.sol\":22015:22017  32 */\n      0x20\n        /* \"@openzeppelin/contracts/utils/math/Math.sol\":22008:22017  aa >>= 32 */\n      dup3\n      swap1\n      shr\n      swap2\n      pop\n        /* \"@openzeppelin/contracts/utils/math/Math.sol\":22042:22044  16 */\n      0x10\n        /* \"@openzeppelin/contracts/utils/math/Math.sol\":22035:22044  xn <<= 16 */\n      dup2\n      swap1\n      shl\n      swap1\n      pop\n        /* \"@openzeppelin/contracts/utils/math/Math.sol\":21969:22059  if (aa >= (1 << 32)) {... */\n    tag_219:\n        /* \"@openzeppelin/contracts/utils/math/Math.sol\":22083:22090  1 << 16 */\n      0x010000\n        /* \"@openzeppelin/contracts/utils/math/Math.sol\":22076:22078  aa */\n      dup3\n        /* \"@openzeppelin/contracts/utils/math/Math.sol\":22076:22091  aa >= (1 << 16) */\n      lt\n        /* \"@openzeppelin/contracts/utils/math/Math.sol\":22072:22161  if (aa >= (1 << 16)) {... */\n      tag_220\n      jumpi\n        /* \"@openzeppelin/contracts/utils/math/Math.sol\":22118:22120  16 */\n      0x10\n        /* \"@openzeppelin/contracts/utils/math/Math.sol\":22111:22120  aa >>= 16 */\n      dup3\n      swap1\n      shr\n      swap2\n      pop\n        /* \"@openzeppelin/contracts/utils/math/Math.sol\":22145:22146  8 */\n      0x08\n        /* \"@openzeppelin/contracts/utils/math/Math.sol\":22138:22146  xn <<= 8 */\n      dup2\n      swap1\n      shl\n      swap1\n      pop\n        /* \"@openzeppelin/contracts/utils/math/Math.sol\":22072:22161  if (aa >= (1 << 16)) {... */\n    tag_220:\n        /* \"@openzeppelin/contracts/utils/math/Math.sol\":22185:22191  1 << 8 */\n      0x0100\n        /* \"@openzeppelin/contracts/utils/math/Math.sol\":22178:22180  aa */\n      dup3\n        /* \"@openzeppelin/contracts/utils/math/Math.sol\":22178:22192  aa >= (1 << 8) */\n      lt\n        /* \"@openzeppelin/contracts/utils/math/Math.sol\":22174:22261  if (aa >= (1 << 8)) {... */\n      tag_221\n      jumpi\n        /* \"@openzeppelin/contracts/utils/math/Math.sol\":22219:22220  8 */\n      0x08\n        /* \"@openzeppelin/contracts/utils/math/Math.sol\":22212:22220  aa >>= 8 */\n      dup3\n      swap1\n      shr\n      swap2\n      pop\n        /* \"@openzeppelin/contracts/utils/math/Math.sol\":22245:22246  4 */\n      0x04\n        /* \"@openzeppelin/contracts/utils/math/Math.sol\":22238:22246  xn <<= 4 */\n      dup2\n      swap1\n      shl\n      swap1\n      pop\n        /* \"@openzeppelin/contracts/utils/math/Math.sol\":22174:22261  if (aa >= (1 << 8)) {... */\n    tag_221:\n        /* \"@openzeppelin/contracts/utils/math/Math.sol\":22285:22291  1 << 4 */\n      0x10\n        /* \"@openzeppelin/contracts/utils/math/Math.sol\":22278:22280  aa */\n      dup3\n        /* \"@openzeppelin/contracts/utils/math/Math.sol\":22278:22292  aa >= (1 << 4) */\n      lt\n        /* \"@openzeppelin/contracts/utils/math/Math.sol\":22274:22361  if (aa >= (1 << 4)) {... */\n      tag_222\n      jumpi\n        /* \"@openzeppelin/contracts/utils/math/Math.sol\":22319:22320  4 */\n      0x04\n        /* \"@openzeppelin/contracts/utils/math/Math.sol\":22312:22320  aa >>= 4 */\n      dup3\n      swap1\n      shr\n      swap2\n      pop\n        /* \"@openzeppelin/contracts/utils/math/Math.sol\":22345:22346  2 */\n      0x02\n        /* \"@openzeppelin/contracts/utils/math/Math.sol\":22338:22346  xn <<= 2 */\n      dup2\n      swap1\n      shl\n      swap1\n      pop\n        /* \"@openzeppelin/contracts/utils/math/Math.sol\":22274:22361  if (aa >= (1 << 4)) {... */\n    tag_222:\n        /* \"@openzeppelin/contracts/utils/math/Math.sol\":22385:22391  1 << 2 */\n      0x04\n        /* \"@openzeppelin/contracts/utils/math/Math.sol\":22378:22380  aa */\n      dup3\n        /* \"@openzeppelin/contracts/utils/math/Math.sol\":22378:22392  aa >= (1 << 2) */\n      lt\n        /* \"@openzeppelin/contracts/utils/math/Math.sol\":22374:22435  if (aa >= (1 << 2)) {... */\n      tag_223\n      jumpi\n        /* \"@openzeppelin/contracts/utils/math/Math.sol\":22419:22420  1 */\n      0x01\n        /* \"@openzeppelin/contracts/utils/math/Math.sol\":22412:22420  xn <<= 1 */\n      dup2\n      swap1\n      shl\n      swap1\n      pop\n        /* \"@openzeppelin/contracts/utils/math/Math.sol\":22374:22435  if (aa >= (1 << 2)) {... */\n    tag_223:\n        /* \"@openzeppelin/contracts/utils/math/Math.sol\":22872:22873  1 */\n      0x01\n        /* \"@openzeppelin/contracts/utils/math/Math.sol\":22865:22867  xn */\n      dup2\n        /* \"@openzeppelin/contracts/utils/math/Math.sol\":22861:22862  3 */\n      0x03\n        /* \"@openzeppelin/contracts/utils/math/Math.sol\":22861:22867  3 * xn */\n      mul\n        /* \"@openzeppelin/contracts/utils/math/Math.sol\":22860:22873  (3 * xn) >> 1 */\n      swap1\n      shr\n        /* \"@openzeppelin/contracts/utils/math/Math.sol\":22855:22873  xn = (3 * xn) >> 1 */\n      swap1\n      pop\n        /* \"@openzeppelin/contracts/utils/math/Math.sol\":24782:24783  1 */\n      0x01\n        /* \"@openzeppelin/contracts/utils/math/Math.sol\":24775:24777  xn */\n      dup2\n        /* \"@openzeppelin/contracts/utils/math/Math.sol\":24771:24772  a */\n      dup6\n        /* \"@openzeppelin/contracts/utils/math/Math.sol\":24771:24777  a / xn */\n      dup2\n      tag_224\n      jumpi\n      tag_225\n      tag_226\n      jump\t// in\n    tag_225:\n    tag_224:\n      div\n        /* \"@openzeppelin/contracts/utils/math/Math.sol\":24766:24768  xn */\n      dup3\n        /* \"@openzeppelin/contracts/utils/math/Math.sol\":24766:24777  xn + a / xn */\n      add\n        /* \"@openzeppelin/contracts/utils/math/Math.sol\":24765:24783  (xn + a / xn) >> 1 */\n      swap1\n      shr\n        /* \"@openzeppelin/contracts/utils/math/Math.sol\":24760:24783  xn = (xn + a / xn) >> 1 */\n      swap1\n      pop\n        /* \"@openzeppelin/contracts/utils/math/Math.sol\":24891:24892  1 */\n      0x01\n        /* \"@openzeppelin/contracts/utils/math/Math.sol\":24884:24886  xn */\n      dup2\n        /* \"@openzeppelin/contracts/utils/math/Math.sol\":24880:24881  a */\n      dup6\n        /* \"@openzeppelin/contracts/utils/math/Math.sol\":24880:24886  a / xn */\n      dup2\n      tag_227\n      jumpi\n      tag_228\n      tag_226\n      jump\t// in\n    tag_228:\n    tag_227:\n      div\n        /* \"@openzeppelin/contracts/utils/math/Math.sol\":24875:24877  xn */\n      dup3\n        /* \"@openzeppelin/contracts/utils/math/Math.sol\":24875:24886  xn + a / xn */\n      add\n        /* \"@openzeppelin/contracts/utils/math/Math.sol\":24874:24892  (xn + a / xn) >> 1 */\n      swap1\n      shr\n        /* \"@openzeppelin/contracts/utils/math/Math.sol\":24869:24892  xn = (xn + a / xn) >> 1 */\n      swap1\n      pop\n        /* \"@openzeppelin/contracts/utils/math/Math.sol\":25002:25003  1 */\n      0x01\n        /* \"@openzeppelin/contracts/utils/math/Math.sol\":24995:24997  xn */\n      dup2\n        /* \"@openzeppelin/contracts/utils/math/Math.sol\":24991:24992  a */\n      dup6\n        /* \"@openzeppelin/contracts/utils/math/Math.sol\":24991:24997  a / xn */\n      dup2\n      tag_229\n      jumpi\n      tag_230\n      tag_226\n      jump\t// in\n    tag_230:\n    tag_229:\n      div\n        /* \"@openzeppelin/contracts/utils/math/Math.sol\":24986:24988  xn */\n      dup3\n        /* \"@openzeppelin/contracts/utils/math/Math.sol\":24986:24997  xn + a / xn */\n      add\n        /* \"@openzeppelin/contracts/utils/math/Math.sol\":24985:25003  (xn + a / xn) >> 1 */\n      swap1\n      shr\n        /* \"@openzeppelin/contracts/utils/math/Math.sol\":24980:25003  xn = (xn + a / xn) >> 1 */\n      swap1\n      pop\n        /* \"@openzeppelin/contracts/utils/math/Math.sol\":25111:25112  1 */\n      0x01\n        /* \"@openzeppelin/contracts/utils/math/Math.sol\":25104:25106  xn */\n      dup2\n        /* \"@openzeppelin/contracts/utils/math/Math.sol\":25100:25101  a */\n      dup6\n        /* \"@openzeppelin/contracts/utils/math/Math.sol\":25100:25106  a / xn */\n      dup2\n      tag_231\n      jumpi\n      tag_232\n      tag_226\n      jump\t// in\n    tag_232:\n    tag_231:\n      div\n        /* \"@openzeppelin/contracts/utils/math/Math.sol\":25095:25097  xn */\n      dup3\n        /* \"@openzeppelin/contracts/utils/math/Math.sol\":25095:25106  xn + a / xn */\n      add\n        /* \"@openzeppelin/contracts/utils/math/Math.sol\":25094:25112  (xn + a / xn) >> 1 */\n      swap1\n      shr\n        /* \"@openzeppelin/contracts/utils/math/Math.sol\":25089:25112  xn = (xn + a / xn) >> 1 */\n      swap1\n      pop\n        /* \"@openzeppelin/contracts/utils/math/Math.sol\":25221:25222  1 */\n      0x01\n        /* \"@openzeppelin/contracts/utils/math/Math.sol\":25214:25216  xn */\n      dup2\n        /* \"@openzeppelin/contracts/utils/math/Math.sol\":25210:25211  a */\n      dup6\n        /* \"@openzeppelin/contracts/utils/math/Math.sol\":25210:25216  a / xn */\n      dup2\n      tag_233\n      jumpi\n      tag_234\n      tag_226\n      jump\t// in\n    tag_234:\n    tag_233:\n      div\n        /* \"@openzeppelin/contracts/utils/math/Math.sol\":25205:25207  xn */\n      dup3\n        /* \"@openzeppelin/contracts/utils/math/Math.sol\":25205:25216  xn + a / xn */\n      add\n        /* \"@openzeppelin/contracts/utils/math/Math.sol\":25204:25222  (xn + a / xn) >> 1 */\n      swap1\n      shr\n        /* \"@openzeppelin/contracts/utils/math/Math.sol\":25199:25222  xn = (xn + a / xn) >> 1 */\n      swap1\n      pop\n        /* \"@openzeppelin/contracts/utils/math/Math.sol\":25331:25332  1 */\n      0x01\n        /* \"@openzeppelin/contracts/utils/math/Math.sol\":25324:25326  xn */\n      dup2\n        /* \"@openzeppelin/contracts/utils/math/Math.sol\":25320:25321  a */\n      dup6\n        /* \"@openzeppelin/contracts/utils/math/Math.sol\":25320:25326  a / xn */\n      dup2\n      tag_235\n      jumpi\n      tag_236\n      tag_226\n      jump\t// in\n    tag_236:\n    tag_235:\n      div\n        /* \"@openzeppelin/contracts/utils/math/Math.sol\":25315:25317  xn */\n      dup3\n        /* \"@openzeppelin/contracts/utils/math/Math.sol\":25315:25326  xn + a / xn */\n      add\n        /* \"@openzeppelin/contracts/utils/math/Math.sol\":25314:25332  (xn + a / xn) >> 1 */\n      swap1\n      shr\n        /* \"@openzeppelin/contracts/utils/math/Math.sol\":25309:25332  xn = (xn + a / xn) >> 1 */\n      swap1\n      pop\n        /* \"@openzeppelin/contracts/utils/math/Math.sol\":25703:25731  SafeCast.toUint(xn > a / xn) */\n      tag_237\n        /* \"@openzeppelin/contracts/utils/math/Math.sol\":25728:25730  xn */\n      dup2\n        /* \"@openzeppelin/contracts/utils/math/Math.sol\":25724:25725  a */\n      dup6\n        /* \"@openzeppelin/contracts/utils/math/Math.sol\":25724:25730  a / xn */\n      dup2\n      tag_238\n      jumpi\n      tag_239\n      tag_226\n      jump\t// in\n    tag_239:\n    tag_238:\n      div\n        /* \"@openzeppelin/contracts/utils/math/Math.sol\":25719:25721  xn */\n      dup3\n        /* \"@openzeppelin/contracts/utils/math/Math.sol\":25719:25730  xn > a / xn */\n      gt\n        /* \"@openzeppelin/contracts/utils/math/Math.sol\":25703:25718  SafeCast.toUint */\n      tag_240\n        /* \"@openzeppelin/contracts/utils/math/Math.sol\":25703:25731  SafeCast.toUint(xn > a / xn) */\n      jump\t// in\n    tag_237:\n        /* \"@openzeppelin/contracts/utils/math/Math.sol\":25698:25700  xn */\n      dup2\n        /* \"@openzeppelin/contracts/utils/math/Math.sol\":25698:25731  xn - SafeCast.toUint(xn > a / xn) */\n      sub\n        /* \"@openzeppelin/contracts/utils/math/Math.sol\":25691:25731  return xn - SafeCast.toUint(xn > a / xn) */\n      swap3\n      pop\n      pop\n      pop\n        /* \"@openzeppelin/contracts/utils/math/Math.sol\":20567:25748  function sqrt(uint256 a) internal pure returns (uint256) {... */\n    tag_215:\n      swap2\n      swap1\n      pop\n      jump\t// out\n        /* \"@openzeppelin/contracts/utils/math/Math.sol\":5617:5728  function min(uint256 a, uint256 b) internal pure returns (uint256) {... */\n    tag_204:\n        /* \"@openzeppelin/contracts/utils/math/Math.sol\":5675:5682  uint256 */\n      0x00\n        /* \"@openzeppelin/contracts/utils/math/Math.sol\":5701:5721  ternary(a < b, a, b) */\n      tag_242\n        /* \"@openzeppelin/contracts/utils/math/Math.sol\":5713:5714  b */\n      dup3\n        /* \"@openzeppelin/contracts/utils/math/Math.sol\":5709:5710  a */\n      dup5\n        /* \"@openzeppelin/contracts/utils/math/Math.sol\":5709:5714  a < b */\n      lt\n        /* \"@openzeppelin/contracts/utils/math/Math.sol\":5716:5717  a */\n      dup5\n        /* \"@openzeppelin/contracts/utils/math/Math.sol\":5719:5720  b */\n      dup5\n        /* \"@openzeppelin/contracts/utils/math/Math.sol\":5701:5708  ternary */\n      tag_243\n        /* \"@openzeppelin/contracts/utils/math/Math.sol\":5701:5721  ternary(a < b, a, b) */\n      jump\t// in\n    tag_242:\n        /* \"@openzeppelin/contracts/utils/math/Math.sol\":5694:5721  return ternary(a < b, a, b) */\n      swap1\n      pop\n        /* \"@openzeppelin/contracts/utils/math/Math.sol\":5617:5728  function min(uint256 a, uint256 b) internal pure returns (uint256) {... */\n      swap3\n      swap2\n      pop\n      pop\n      jump\t// out\n        /* \"@openzeppelin/contracts/utils/math/SafeCast.sol\":34795:34940  function toUint(bool b) internal pure returns (uint256 u) {... */\n    tag_240:\n        /* \"@openzeppelin/contracts/utils/math/SafeCast.sol\":34842:34851  uint256 u */\n      0x00\n        /* \"@openzeppelin/contracts/utils/math/SafeCast.sol\":34921:34922  b */\n      dup2\n        /* \"@openzeppelin/contracts/utils/math/SafeCast.sol\":34914:34923  iszero(b) */\n      iszero\n        /* \"@openzeppelin/contracts/utils/math/SafeCast.sol\":34907:34924  iszero(iszero(b)) */\n      iszero\n        /* \"@openzeppelin/contracts/utils/math/SafeCast.sol\":34902:34924  u := iszero(iszero(b)) */\n      swap1\n      pop\n        /* \"@openzeppelin/contracts/utils/math/SafeCast.sol\":34795:34940  function toUint(bool b) internal pure returns (uint256 u) {... */\n      swap2\n      swap1\n      pop\n      jump\t// out\n        /* \"@openzeppelin/contracts/utils/math/Math.sol\":5071:5365  function ternary(bool condition, uint256 a, uint256 b) internal pure returns (uint256) {... */\n    tag_243:\n        /* \"@openzeppelin/contracts/utils/math/Math.sol\":5149:5156  uint256 */\n      0x00\n        /* \"@openzeppelin/contracts/utils/math/Math.sol\":5321:5347  SafeCast.toUint(condition) */\n      tag_246\n        /* \"@openzeppelin/contracts/utils/math/Math.sol\":5337:5346  condition */\n      dup5\n        /* \"@openzeppelin/contracts/utils/math/Math.sol\":5321:5336  SafeCast.toUint */\n      tag_240\n        /* \"@openzeppelin/contracts/utils/math/Math.sol\":5321:5347  SafeCast.toUint(condition) */\n      jump\t// in\n    tag_246:\n        /* \"@openzeppelin/contracts/utils/math/Math.sol\":5316:5317  b */\n      dup3\n        /* \"@openzeppelin/contracts/utils/math/Math.sol\":5312:5313  a */\n      dup5\n        /* \"@openzeppelin/contracts/utils/math/Math.sol\":5312:5317  a ^ b */\n      xor\n        /* \"@openzeppelin/contracts/utils/math/Math.sol\":5311:5347  (a ^ b) * SafeCast.toUint(condition) */\n      mul\n        /* \"@openzeppelin/contracts/utils/math/Math.sol\":5306:5307  b */\n      dup3\n        /* \"@openzeppelin/contracts/utils/math/Math.sol\":5306:5348  b ^ ((a ^ b) * SafeCast.toUint(condition)) */\n      xor\n        /* \"@openzeppelin/contracts/utils/math/Math.sol\":5299:5348  return b ^ ((a ^ b) * SafeCast.toUint(condition)) */\n      swap1\n      pop\n        /* \"@openzeppelin/contracts/utils/math/Math.sol\":5071:5365  function ternary(bool condition, uint256 a, uint256 b) internal pure returns (uint256) {... */\n      swap4\n      swap3\n      pop\n      pop\n      pop\n      jump\t// out\n        /* \"#utility.yul\":88:205   */\n    tag_248:\n        /* \"#utility.yul\":197:198   */\n      0x00\n        /* \"#utility.yul\":194:195   */\n      0x00\n        /* \"#utility.yul\":187:199   */\n      revert\n        /* \"#utility.yul\":211:328   */\n    tag_249:\n        /* \"#utility.yul\":320:321   */\n      0x00\n        /* \"#utility.yul\":317:318   */\n      0x00\n        /* \"#utility.yul\":310:322   */\n      revert\n        /* \"#utility.yul\":334:411   */\n    tag_250:\n        /* \"#utility.yul\":371:378   */\n      0x00\n        /* \"#utility.yul\":400:405   */\n      dup2\n        /* \"#utility.yul\":389:405   */\n      swap1\n      pop\n        /* \"#utility.yul\":334:411   */\n      swap2\n      swap1\n      pop\n      jump\t// out\n        /* \"#utility.yul\":417:539   */\n    tag_251:\n        /* \"#utility.yul\":490:514   */\n      tag_302\n        /* \"#utility.yul\":508:513   */\n      dup2\n        /* \"#utility.yul\":490:514   */\n      tag_250\n      jump\t// in\n    tag_302:\n        /* \"#utility.yul\":483:488   */\n      dup2\n        /* \"#utility.yul\":480:515   */\n      eq\n        /* \"#utility.yul\":470:533   */\n      tag_303\n      jumpi\n        /* \"#utility.yul\":529:530   */\n      0x00\n        /* \"#utility.yul\":526:527   */\n      0x00\n        /* \"#utility.yul\":519:531   */\n      revert\n        /* \"#utility.yul\":470:533   */\n    tag_303:\n        /* \"#utility.yul\":417:539   */\n      pop\n      jump\t// out\n        /* \"#utility.yul\":545:684   */\n    tag_252:\n        /* \"#utility.yul\":591:596   */\n      0x00\n        /* \"#utility.yul\":629:635   */\n      dup2\n        /* \"#utility.yul\":616:636   */\n      calldataload\n        /* \"#utility.yul\":607:636   */\n      swap1\n      pop\n        /* \"#utility.yul\":645:678   */\n      tag_305\n        /* \"#utility.yul\":672:677   */\n      dup2\n        /* \"#utility.yul\":645:678   */\n      tag_251\n      jump\t// in\n    tag_305:\n        /* \"#utility.yul\":545:684   */\n      swap3\n      swap2\n      pop\n      pop\n      jump\t// out\n        /* \"#utility.yul\":690:1309   */\n    tag_10:\n        /* \"#utility.yul\":767:773   */\n      0x00\n        /* \"#utility.yul\":775:781   */\n      0x00\n        /* \"#utility.yul\":783:789   */\n      0x00\n        /* \"#utility.yul\":832:834   */\n      0x60\n        /* \"#utility.yul\":820:829   */\n      dup5\n        /* \"#utility.yul\":811:818   */\n      dup7\n        /* \"#utility.yul\":807:830   */\n      sub\n        /* \"#utility.yul\":803:835   */\n      slt\n        /* \"#utility.yul\":800:919   */\n      iszero\n      tag_307\n      jumpi\n        /* \"#utility.yul\":838:917   */\n      tag_308\n      tag_248\n      jump\t// in\n    tag_308:\n        /* \"#utility.yul\":800:919   */\n    tag_307:\n        /* \"#utility.yul\":958:959   */\n      0x00\n        /* \"#utility.yul\":983:1036   */\n      tag_309\n        /* \"#utility.yul\":1028:1035   */\n      dup7\n        /* \"#utility.yul\":1019:1025   */\n      dup3\n        /* \"#utility.yul\":1008:1017   */\n      dup8\n        /* \"#utility.yul\":1004:1026   */\n      add\n        /* \"#utility.yul\":983:1036   */\n      tag_252\n      jump\t// in\n    tag_309:\n        /* \"#utility.yul\":973:1036   */\n      swap4\n      pop\n        /* \"#utility.yul\":929:1046   */\n      pop\n        /* \"#utility.yul\":1085:1087   */\n      0x20\n        /* \"#utility.yul\":1111:1164   */\n      tag_310\n        /* \"#utility.yul\":1156:1163   */\n      dup7\n        /* \"#utility.yul\":1147:1153   */\n      dup3\n        /* \"#utility.yul\":1136:1145   */\n      dup8\n        /* \"#utility.yul\":1132:1154   */\n      add\n        /* \"#utility.yul\":1111:1164   */\n      tag_252\n      jump\t// in\n    tag_310:\n        /* \"#utility.yul\":1101:1164   */\n      swap3\n      pop\n        /* \"#utility.yul\":1056:1174   */\n      pop\n        /* \"#utility.yul\":1213:1215   */\n      0x40\n        /* \"#utility.yul\":1239:1292   */\n      tag_311\n        /* \"#utility.yul\":1284:1291   */\n      dup7\n        /* \"#utility.yul\":1275:1281   */\n      dup3\n        /* \"#utility.yul\":1264:1273   */\n      dup8\n        /* \"#utility.yul\":1260:1282   */\n      add\n        /* \"#utility.yul\":1239:1292   */\n      tag_252\n      jump\t// in\n    tag_311:\n        /* \"#utility.yul\":1229:1292   */\n      swap2\n      pop\n        /* \"#utility.yul\":1184:1302   */\n      pop\n        /* \"#utility.yul\":690:1309   */\n      swap3\n      pop\n      swap3\n      pop\n      swap3\n      jump\t// out\n        /* \"#utility.yul\":1315:1433   */\n    tag_253:\n        /* \"#utility.yul\":1402:1426   */\n      tag_313\n        /* \"#utility.yul\":1420:1425   */\n      dup2\n        /* \"#utility.yul\":1402:1426   */\n      tag_250\n      jump\t// in\n    tag_313:\n        /* \"#utility.yul\":1397:1400   */\n      dup3\n        /* \"#utility.yul\":1390:1427   */\n      mstore\n        /* \"#utility.yul\":1315:1433   */\n      pop\n      pop\n      jump\t// out\n        /* \"#utility.yul\":1439:1661   */\n    tag_13:\n        /* \"#utility.yul\":1532:1536   */\n      0x00\n        /* \"#utility.yul\":1570:1572   */\n      0x20\n        /* \"#utility.yul\":1559:1568   */\n      dup3\n        /* \"#utility.yul\":1555:1573   */\n      add\n        /* \"#utility.yul\":1547:1573   */\n      swap1\n      pop\n        /* \"#utility.yul\":1583:1654   */\n      tag_315\n        /* \"#utility.yul\":1651:1652   */\n      0x00\n        /* \"#utility.yul\":1640:1649   */\n      dup4\n        /* \"#utility.yul\":1636:1653   */\n      add\n        /* \"#utility.yul\":1627:1633   */\n      dup5\n        /* \"#utility.yul\":1583:1654   */\n      tag_253\n      jump\t// in\n    tag_315:\n        /* \"#utility.yul\":1439:1661   */\n      swap3\n      swap2\n      pop\n      pop\n      jump\t// out\n        /* \"#utility.yul\":1667:1784   */\n    tag_254:\n        /* \"#utility.yul\":1776:1777   */\n      0x00\n        /* \"#utility.yul\":1773:1774   */\n      0x00\n        /* \"#utility.yul\":1766:1778   */\n      revert\n        /* \"#utility.yul\":1790:1907   */\n    tag_255:\n        /* \"#utility.yul\":1899:1900   */\n      0x00\n        /* \"#utility.yul\":1896:1897   */\n      0x00\n        /* \"#utility.yul\":1889:1901   */\n      revert\n        /* \"#utility.yul\":1913:2030   */\n    tag_256:\n        /* \"#utility.yul\":2022:2023   */\n      0x00\n        /* \"#utility.yul\":2019:2020   */\n      0x00\n        /* \"#utility.yul\":2012:2024   */\n      revert\n        /* \"#utility.yul\":2053:2621   */\n    tag_257:\n        /* \"#utility.yul\":2126:2134   */\n      0x00\n        /* \"#utility.yul\":2136:2142   */\n      0x00\n        /* \"#utility.yul\":2186:2189   */\n      dup4\n        /* \"#utility.yul\":2179:2183   */\n      0x1f\n        /* \"#utility.yul\":2171:2177   */\n      dup5\n        /* \"#utility.yul\":2167:2184   */\n      add\n        /* \"#utility.yul\":2163:2190   */\n      slt\n        /* \"#utility.yul\":2153:2275   */\n      tag_320\n      jumpi\n        /* \"#utility.yul\":2194:2273   */\n      tag_321\n      tag_254\n      jump\t// in\n    tag_321:\n        /* \"#utility.yul\":2153:2275   */\n    tag_320:\n        /* \"#utility.yul\":2307:2313   */\n      dup3\n        /* \"#utility.yul\":2294:2314   */\n      calldataload\n        /* \"#utility.yul\":2284:2314   */\n      swap1\n      pop\n        /* \"#utility.yul\":2337:2355   */\n      0xffffffffffffffff\n        /* \"#utility.yul\":2329:2335   */\n      dup2\n        /* \"#utility.yul\":2326:2356   */\n      gt\n        /* \"#utility.yul\":2323:2440   */\n      iszero\n      tag_322\n      jumpi\n        /* \"#utility.yul\":2359:2438   */\n      tag_323\n      tag_255\n      jump\t// in\n    tag_323:\n        /* \"#utility.yul\":2323:2440   */\n    tag_322:\n        /* \"#utility.yul\":2473:2477   */\n      0x20\n        /* \"#utility.yul\":2465:2471   */\n      dup4\n        /* \"#utility.yul\":2461:2478   */\n      add\n        /* \"#utility.yul\":2449:2478   */\n      swap2\n      pop\n        /* \"#utility.yul\":2527:2530   */\n      dup4\n        /* \"#utility.yul\":2519:2523   */\n      0x20\n        /* \"#utility.yul\":2511:2517   */\n      dup3\n        /* \"#utility.yul\":2507:2524   */\n      mul\n        /* \"#utility.yul\":2497:2505   */\n      dup4\n        /* \"#utility.yul\":2493:2525   */\n      add\n        /* \"#utility.yul\":2490:2531   */\n      gt\n        /* \"#utility.yul\":2487:2615   */\n      iszero\n      tag_324\n      jumpi\n        /* \"#utility.yul\":2534:2613   */\n      tag_325\n      tag_256\n      jump\t// in\n    tag_325:\n        /* \"#utility.yul\":2487:2615   */\n    tag_324:\n        /* \"#utility.yul\":2053:2621   */\n      swap3\n      pop\n      swap3\n      swap1\n      pop\n      jump\t// out\n        /* \"#utility.yul\":2627:2753   */\n    tag_258:\n        /* \"#utility.yul\":2664:2671   */\n      0x00\n        /* \"#utility.yul\":2704:2746   */\n      0xffffffffffffffffffffffffffffffffffffffff\n        /* \"#utility.yul\":2697:2702   */\n      dup3\n        /* \"#utility.yul\":2693:2747   */\n      and\n        /* \"#utility.yul\":2682:2747   */\n      swap1\n      pop\n        /* \"#utility.yul\":2627:2753   */\n      swap2\n      swap1\n      pop\n      jump\t// out\n        /* \"#utility.yul\":2759:2855   */\n    tag_259:\n        /* \"#utility.yul\":2796:2803   */\n      0x00\n        /* \"#utility.yul\":2825:2849   */\n      tag_328\n        /* \"#utility.yul\":2843:2848   */\n      dup3\n        /* \"#utility.yul\":2825:2849   */\n      tag_258\n      jump\t// in\n    tag_328:\n        /* \"#utility.yul\":2814:2849   */\n      swap1\n      pop\n        /* \"#utility.yul\":2759:2855   */\n      swap2\n      swap1\n      pop\n      jump\t// out\n        /* \"#utility.yul\":2861:2983   */\n    tag_260:\n        /* \"#utility.yul\":2934:2958   */\n      tag_330\n        /* \"#utility.yul\":2952:2957   */\n      dup2\n        /* \"#utility.yul\":2934:2958   */\n      tag_259\n      jump\t// in\n    tag_330:\n        /* \"#utility.yul\":2927:2932   */\n      dup2\n        /* \"#utility.yul\":2924:2959   */\n      eq\n        /* \"#utility.yul\":2914:2977   */\n      tag_331\n      jumpi\n        /* \"#utility.yul\":2973:2974   */\n      0x00\n        /* \"#utility.yul\":2970:2971   */\n      0x00\n        /* \"#utility.yul\":2963:2975   */\n      revert\n        /* \"#utility.yul\":2914:2977   */\n    tag_331:\n        /* \"#utility.yul\":2861:2983   */\n      pop\n      jump\t// out\n        /* \"#utility.yul\":2989:3128   */\n    tag_261:\n        /* \"#utility.yul\":3035:3040   */\n      0x00\n        /* \"#utility.yul\":3073:3079   */\n      dup2\n        /* \"#utility.yul\":3060:3080   */\n      calldataload\n        /* \"#utility.yul\":3051:3080   */\n      swap1\n      pop\n        /* \"#utility.yul\":3089:3122   */\n      tag_333\n        /* \"#utility.yul\":3116:3121   */\n      dup2\n        /* \"#utility.yul\":3089:3122   */\n      tag_260\n      jump\t// in\n    tag_333:\n        /* \"#utility.yul\":2989:3128   */\n      swap3\n      swap2\n      pop\n      pop\n      jump\t// out\n        /* \"#utility.yul\":3134:4275   */\n    tag_16:\n        /* \"#utility.yul\":3256:3262   */\n      0x00\n        /* \"#utility.yul\":3264:3270   */\n      0x00\n        /* \"#utility.yul\":3272:3278   */\n      0x00\n        /* \"#utility.yul\":3280:3286   */\n      0x00\n        /* \"#utility.yul\":3288:3294   */\n      0x00\n        /* \"#utility.yul\":3296:3302   */\n      0x00\n        /* \"#utility.yul\":3345:3348   */\n      0xa0\n        /* \"#utility.yul\":3333:3342   */\n      dup8\n        /* \"#utility.yul\":3324:3331   */\n      dup10\n        /* \"#utility.yul\":3320:3343   */\n      sub\n        /* \"#utility.yul\":3316:3349   */\n      slt\n        /* \"#utility.yul\":3313:3433   */\n      iszero\n      tag_335\n      jumpi\n        /* \"#utility.yul\":3352:3431   */\n      tag_336\n      tag_248\n      jump\t// in\n    tag_336:\n        /* \"#utility.yul\":3313:3433   */\n    tag_335:\n        /* \"#utility.yul\":3472:3473   */\n      0x00\n        /* \"#utility.yul\":3497:3550   */\n      tag_337\n        /* \"#utility.yul\":3542:3549   */\n      dup10\n        /* \"#utility.yul\":3533:3539   */\n      dup3\n        /* \"#utility.yul\":3522:3531   */\n      dup11\n        /* \"#utility.yul\":3518:3540   */\n      add\n        /* \"#utility.yul\":3497:3550   */\n      tag_252\n      jump\t// in\n    tag_337:\n        /* \"#utility.yul\":3487:3550   */\n      swap7\n      pop\n        /* \"#utility.yul\":3443:3560   */\n      pop\n        /* \"#utility.yul\":3599:3601   */\n      0x20\n        /* \"#utility.yul\":3625:3678   */\n      tag_338\n        /* \"#utility.yul\":3670:3677   */\n      dup10\n        /* \"#utility.yul\":3661:3667   */\n      dup3\n        /* \"#utility.yul\":3650:3659   */\n      dup11\n        /* \"#utility.yul\":3646:3668   */\n      add\n        /* \"#utility.yul\":3625:3678   */\n      tag_252\n      jump\t// in\n    tag_338:\n        /* \"#utility.yul\":3615:3678   */\n      swap6\n      pop\n        /* \"#utility.yul\":3570:3688   */\n      pop\n        /* \"#utility.yul\":3755:3757   */\n      0x40\n        /* \"#utility.yul\":3744:3753   */\n      dup8\n        /* \"#utility.yul\":3740:3758   */\n      add\n        /* \"#utility.yul\":3727:3759   */\n      calldataload\n        /* \"#utility.yul\":3786:3804   */\n      0xffffffffffffffff\n        /* \"#utility.yul\":3778:3784   */\n      dup2\n        /* \"#utility.yul\":3775:3805   */\n      gt\n        /* \"#utility.yul\":3772:3889   */\n      iszero\n      tag_339\n      jumpi\n        /* \"#utility.yul\":3808:3887   */\n      tag_340\n      tag_249\n      jump\t// in\n    tag_340:\n        /* \"#utility.yul\":3772:3889   */\n    tag_339:\n        /* \"#utility.yul\":3921:4001   */\n      tag_341\n        /* \"#utility.yul\":3993:4000   */\n      dup10\n        /* \"#utility.yul\":3984:3990   */\n      dup3\n        /* \"#utility.yul\":3973:3982   */\n      dup11\n        /* \"#utility.yul\":3969:3991   */\n      add\n        /* \"#utility.yul\":3921:4001   */\n      tag_257\n      jump\t// in\n    tag_341:\n        /* \"#utility.yul\":3903:4001   */\n      swap5\n      pop\n      swap5\n      pop\n        /* \"#utility.yul\":3698:4011   */\n      pop\n        /* \"#utility.yul\":4050:4052   */\n      0x60\n        /* \"#utility.yul\":4076:4129   */\n      tag_342\n        /* \"#utility.yul\":4121:4128   */\n      dup10\n        /* \"#utility.yul\":4112:4118   */\n      dup3\n        /* \"#utility.yul\":4101:4110   */\n      dup11\n        /* \"#utility.yul\":4097:4119   */\n      add\n        /* \"#utility.yul\":4076:4129   */\n      tag_261\n      jump\t// in\n    tag_342:\n        /* \"#utility.yul\":4066:4129   */\n      swap3\n      pop\n        /* \"#utility.yul\":4021:4139   */\n      pop\n        /* \"#utility.yul\":4178:4181   */\n      0x80\n        /* \"#utility.yul\":4205:4258   */\n      tag_343\n        /* \"#utility.yul\":4250:4257   */\n      dup10\n        /* \"#utility.yul\":4241:4247   */\n      dup3\n        /* \"#utility.yul\":4230:4239   */\n      dup11\n        /* \"#utility.yul\":4226:4248   */\n      add\n        /* \"#utility.yul\":4205:4258   */\n      tag_252\n      jump\t// in\n    tag_343:\n        /* \"#utility.yul\":4195:4258   */\n      swap2\n      pop\n        /* \"#utility.yul\":4149:4268   */\n      pop\n        /* \"#utility.yul\":3134:4275   */\n      swap3\n      swap6\n      pop\n      swap3\n      swap6\n      pop\n      swap3\n      swap6\n      jump\t// out\n        /* \"#utility.yul\":4281:4395   */\n    tag_262:\n        /* \"#utility.yul\":4348:4354   */\n      0x00\n        /* \"#utility.yul\":4382:4387   */\n      dup2\n        /* \"#utility.yul\":4376:4388   */\n      mload\n        /* \"#utility.yul\":4366:4388   */\n      swap1\n      pop\n        /* \"#utility.yul\":4281:4395   */\n      swap2\n      swap1\n      pop\n      jump\t// out\n        /* \"#utility.yul\":4401:4585   */\n    tag_263:\n        /* \"#utility.yul\":4500:4511   */\n      0x00\n        /* \"#utility.yul\":4534:4540   */\n      dup3\n        /* \"#utility.yul\":4529:4532   */\n      dup3\n        /* \"#utility.yul\":4522:4541   */\n      mstore\n        /* \"#utility.yul\":4574:4578   */\n      0x20\n        /* \"#utility.yul\":4569:4572   */\n      dup3\n        /* \"#utility.yul\":4565:4579   */\n      add\n        /* \"#utility.yul\":4550:4579   */\n      swap1\n      pop\n        /* \"#utility.yul\":4401:4585   */\n      swap3\n      swap2\n      pop\n      pop\n      jump\t// out\n        /* \"#utility.yul\":4591:4723   */\n    tag_264:\n        /* \"#utility.yul\":4658:4662   */\n      0x00\n        /* \"#utility.yul\":4681:4684   */\n      dup2\n        /* \"#utility.yul\":4673:4684   */\n      swap1\n      pop\n        /* \"#utility.yul\":4711:4715   */\n      0x20\n        /* \"#utility.yul\":4706:4709   */\n      dup3\n        /* \"#utility.yul\":4702:4716   */\n      add\n        /* \"#utility.yul\":4694:4716   */\n      swap1\n      pop\n        /* \"#utility.yul\":4591:4723   */\n      swap2\n      swap1\n      pop\n      jump\t// out\n        /* \"#utility.yul\":4729:4837   */\n    tag_265:\n        /* \"#utility.yul\":4806:4830   */\n      tag_348\n        /* \"#utility.yul\":4824:4829   */\n      dup2\n        /* \"#utility.yul\":4806:4830   */\n      tag_250\n      jump\t// in\n    tag_348:\n        /* \"#utility.yul\":4801:4804   */\n      dup3\n        /* \"#utility.yul\":4794:4831   */\n      mstore\n        /* \"#utility.yul\":4729:4837   */\n      pop\n      pop\n      jump\t// out\n        /* \"#utility.yul\":4843:5022   */\n    tag_266:\n        /* \"#utility.yul\":4912:4922   */\n      0x00\n        /* \"#utility.yul\":4933:4979   */\n      tag_350\n        /* \"#utility.yul\":4975:4978   */\n      dup4\n        /* \"#utility.yul\":4967:4973   */\n      dup4\n        /* \"#utility.yul\":4933:4979   */\n      tag_265\n      jump\t// in\n    tag_350:\n        /* \"#utility.yul\":5011:5015   */\n      0x20\n        /* \"#utility.yul\":5006:5009   */\n      dup4\n        /* \"#utility.yul\":5002:5016   */\n      add\n        /* \"#utility.yul\":4988:5016   */\n      swap1\n      pop\n        /* \"#utility.yul\":4843:5022   */\n      swap3\n      swap2\n      pop\n      pop\n      jump\t// out\n        /* \"#utility.yul\":5028:5141   */\n    tag_267:\n        /* \"#utility.yul\":5098:5102   */\n      0x00\n        /* \"#utility.yul\":5130:5134   */\n      0x20\n        /* \"#utility.yul\":5125:5128   */\n      dup3\n        /* \"#utility.yul\":5121:5135   */\n      add\n        /* \"#utility.yul\":5113:5135   */\n      swap1\n      pop\n        /* \"#utility.yul\":5028:5141   */\n      swap2\n      swap1\n      pop\n      jump\t// out\n        /* \"#utility.yul\":5177:5909   */\n    tag_268:\n        /* \"#utility.yul\":5296:5299   */\n      0x00\n        /* \"#utility.yul\":5325:5379   */\n      tag_353\n        /* \"#utility.yul\":5373:5378   */\n      dup3\n        /* \"#utility.yul\":5325:5379   */\n      tag_262\n      jump\t// in\n    tag_353:\n        /* \"#utility.yul\":5395:5481   */\n      tag_354\n        /* \"#utility.yul\":5474:5480   */\n      dup2\n        /* \"#utility.yul\":5469:5472   */\n      dup6\n        /* \"#utility.yul\":5395:5481   */\n      tag_263\n      jump\t// in\n    tag_354:\n        /* \"#utility.yul\":5388:5481   */\n      swap4\n      pop\n        /* \"#utility.yul\":5505:5561   */\n      tag_355\n        /* \"#utility.yul\":5555:5560   */\n      dup4\n        /* \"#utility.yul\":5505:5561   */\n      tag_264\n      jump\t// in\n    tag_355:\n        /* \"#utility.yul\":5584:5591   */\n      dup1\n        /* \"#utility.yul\":5615:5616   */\n      0x00\n        /* \"#utility.yul\":5600:5884   */\n    tag_356:\n        /* \"#utility.yul\":5625:5631   */\n      dup4\n        /* \"#utility.yul\":5622:5623   */\n      dup2\n        /* \"#utility.yul\":5619:5632   */\n      lt\n        /* \"#utility.yul\":5600:5884   */\n      iszero\n      tag_358\n      jumpi\n        /* \"#utility.yul\":5701:5707   */\n      dup2\n        /* \"#utility.yul\":5695:5708   */\n      mload\n        /* \"#utility.yul\":5728:5791   */\n      tag_359\n        /* \"#utility.yul\":5787:5790   */\n      dup9\n        /* \"#utility.yul\":5772:5785   */\n      dup3\n        /* \"#utility.yul\":5728:5791   */\n      tag_266\n      jump\t// in\n    tag_359:\n        /* \"#utility.yul\":5721:5791   */\n      swap8\n      pop\n        /* \"#utility.yul\":5814:5874   */\n      tag_360\n        /* \"#utility.yul\":5867:5873   */\n      dup4\n        /* \"#utility.yul\":5814:5874   */\n      tag_267\n      jump\t// in\n    tag_360:\n        /* \"#utility.yul\":5804:5874   */\n      swap3\n      pop\n        /* \"#utility.yul\":5660:5884   */\n      pop\n        /* \"#utility.yul\":5647:5648   */\n      0x01\n        /* \"#utility.yul\":5644:5645   */\n      dup2\n        /* \"#utility.yul\":5640:5649   */\n      add\n        /* \"#utility.yul\":5635:5649   */\n      swap1\n      pop\n        /* \"#utility.yul\":5600:5884   */\n      jump(tag_356)\n    tag_358:\n        /* \"#utility.yul\":5604:5618   */\n      pop\n        /* \"#utility.yul\":5900:5903   */\n      dup6\n        /* \"#utility.yul\":5893:5903   */\n      swap4\n      pop\n        /* \"#utility.yul\":5301:5909   */\n      pop\n      pop\n      pop\n        /* \"#utility.yul\":5177:5909   */\n      swap3\n      swap2\n      pop\n      pop\n      jump\t// out\n        /* \"#utility.yul\":5915:6288   */\n    tag_19:\n        /* \"#utility.yul\":6058:6062   */\n      0x00\n        /* \"#utility.yul\":6096:6098   */\n      0x20\n        /* \"#utility.yul\":6085:6094   */\n      dup3\n        /* \"#utility.yul\":6081:6099   */\n      add\n        /* \"#utility.yul\":6073:6099   */\n      swap1\n      pop\n        /* \"#utility.yul\":6145:6154   */\n      dup2\n        /* \"#utility.yul\":6139:6143   */\n      dup2\n        /* \"#utility.yul\":6135:6155   */\n      sub\n        /* \"#utility.yul\":6131:6132   */\n      0x00\n        /* \"#utility.yul\":6120:6129   */\n      dup4\n        /* \"#utility.yul\":6116:6133   */\n      add\n        /* \"#utility.yul\":6109:6156   */\n      mstore\n        /* \"#utility.yul\":6173:6281   */\n      tag_362\n        /* \"#utility.yul\":6276:6280   */\n      dup2\n        /* \"#utility.yul\":6267:6273   */\n      dup5\n        /* \"#utility.yul\":6173:6281   */\n      tag_268\n      jump\t// in\n    tag_362:\n        /* \"#utility.yul\":6165:6281   */\n      swap1\n      pop\n        /* \"#utility.yul\":5915:6288   */\n      swap3\n      swap2\n      pop\n      pop\n      jump\t// out\n        /* \"#utility.yul\":6294:6768   */\n    tag_22:\n        /* \"#utility.yul\":6362:6368   */\n      0x00\n        /* \"#utility.yul\":6370:6376   */\n      0x00\n        /* \"#utility.yul\":6419:6421   */\n      0x40\n        /* \"#utility.yul\":6407:6416   */\n      dup4\n        /* \"#utility.yul\":6398:6405   */\n      dup6\n        /* \"#utility.yul\":6394:6417   */\n      sub\n        /* \"#utility.yul\":6390:6422   */\n      slt\n        /* \"#utility.yul\":6387:6506   */\n      iszero\n      tag_364\n      jumpi\n        /* \"#utility.yul\":6425:6504   */\n      tag_365\n      tag_248\n      jump\t// in\n    tag_365:\n        /* \"#utility.yul\":6387:6506   */\n    tag_364:\n        /* \"#utility.yul\":6545:6546   */\n      0x00\n        /* \"#utility.yul\":6570:6623   */\n      tag_366\n        /* \"#utility.yul\":6615:6622   */\n      dup6\n        /* \"#utility.yul\":6606:6612   */\n      dup3\n        /* \"#utility.yul\":6595:6604   */\n      dup7\n        /* \"#utility.yul\":6591:6613   */\n      add\n        /* \"#utility.yul\":6570:6623   */\n      tag_261\n      jump\t// in\n    tag_366:\n        /* \"#utility.yul\":6560:6623   */\n      swap3\n      pop\n        /* \"#utility.yul\":6516:6633   */\n      pop\n        /* \"#utility.yul\":6672:6674   */\n      0x20\n        /* \"#utility.yul\":6698:6751   */\n      tag_367\n        /* \"#utility.yul\":6743:6750   */\n      dup6\n        /* \"#utility.yul\":6734:6740   */\n      dup3\n        /* \"#utility.yul\":6723:6732   */\n      dup7\n        /* \"#utility.yul\":6719:6741   */\n      add\n        /* \"#utility.yul\":6698:6751   */\n      tag_261\n      jump\t// in\n    tag_367:\n        /* \"#utility.yul\":6688:6751   */\n      swap2\n      pop\n        /* \"#utility.yul\":6643:6761   */\n      pop\n        /* \"#utility.yul\":6294:6768   */\n      swap3\n      pop\n      swap3\n      swap1\n      pop\n      jump\t// out\n        /* \"#utility.yul\":6774:7977   */\n    tag_27:\n        /* \"#utility.yul\":6887:6893   */\n      0x00\n        /* \"#utility.yul\":6895:6901   */\n      0x00\n        /* \"#utility.yul\":6903:6909   */\n      0x00\n        /* \"#utility.yul\":6911:6917   */\n      0x00\n        /* \"#utility.yul\":6919:6925   */\n      0x00\n        /* \"#utility.yul\":6927:6933   */\n      0x00\n        /* \"#utility.yul\":6935:6941   */\n      0x00\n        /* \"#utility.yul\":6984:6987   */\n      0xe0\n        /* \"#utility.yul\":6972:6981   */\n      dup9\n        /* \"#utility.yul\":6963:6970   */\n      dup11\n        /* \"#utility.yul\":6959:6982   */\n      sub\n        /* \"#utility.yul\":6955:6988   */\n      slt\n        /* \"#utility.yul\":6952:7072   */\n      iszero\n      tag_369\n      jumpi\n        /* \"#utility.yul\":6991:7070   */\n      tag_370\n      tag_248\n      jump\t// in\n    tag_370:\n        /* \"#utility.yul\":6952:7072   */\n    tag_369:\n        /* \"#utility.yul\":7111:7112   */\n      0x00\n        /* \"#utility.yul\":7136:7189   */\n      tag_371\n        /* \"#utility.yul\":7181:7188   */\n      dup11\n        /* \"#utility.yul\":7172:7178   */\n      dup3\n        /* \"#utility.yul\":7161:7170   */\n      dup12\n        /* \"#utility.yul\":7157:7179   */\n      add\n        /* \"#utility.yul\":7136:7189   */\n      tag_261\n      jump\t// in\n    tag_371:\n        /* \"#utility.yul\":7126:7189   */\n      swap8\n      pop\n        /* \"#utility.yul\":7082:7199   */\n      pop\n        /* \"#utility.yul\":7238:7240   */\n      0x20\n        /* \"#utility.yul\":7264:7317   */\n      tag_372\n        /* \"#utility.yul\":7309:7316   */\n      dup11\n        /* \"#utility.yul\":7300:7306   */\n      dup3\n        /* \"#utility.yul\":7289:7298   */\n      dup12\n        /* \"#utility.yul\":7285:7307   */\n      add\n        /* \"#utility.yul\":7264:7317   */\n      tag_261\n      jump\t// in\n    tag_372:\n        /* \"#utility.yul\":7254:7317   */\n      swap7\n      pop\n        /* \"#utility.yul\":7209:7327   */\n      pop\n        /* \"#utility.yul\":7366:7368   */\n      0x40\n        /* \"#utility.yul\":7392:7445   */\n      tag_373\n        /* \"#utility.yul\":7437:7444   */\n      dup11\n        /* \"#utility.yul\":7428:7434   */\n      dup3\n        /* \"#utility.yul\":7417:7426   */\n      dup12\n        /* \"#utility.yul\":7413:7435   */\n      add\n        /* \"#utility.yul\":7392:7445   */\n      tag_252\n      jump\t// in\n    tag_373:\n        /* \"#utility.yul\":7382:7445   */\n      swap6\n      pop\n        /* \"#utility.yul\":7337:7455   */\n      pop\n        /* \"#utility.yul\":7494:7496   */\n      0x60\n        /* \"#utility.yul\":7520:7573   */\n      tag_374\n        /* \"#utility.yul\":7565:7572   */\n      dup11\n        /* \"#utility.yul\":7556:7562   */\n      dup3\n        /* \"#utility.yul\":7545:7554   */\n      dup12\n        /* \"#utility.yul\":7541:7563   */\n      add\n        /* \"#utility.yul\":7520:7573   */\n      tag_252\n      jump\t// in\n    tag_374:\n        /* \"#utility.yul\":7510:7573   */\n      swap5\n      pop\n        /* \"#utility.yul\":7465:7583   */\n      pop\n        /* \"#utility.yul\":7622:7625   */\n      0x80\n        /* \"#utility.yul\":7649:7702   */\n      tag_375\n        /* \"#utility.yul\":7694:7701   */\n      dup11\n        /* \"#utility.yul\":7685:7691   */\n      dup3\n        /* \"#utility.yul\":7674:7683   */\n      dup12\n        /* \"#utility.yul\":7670:7692   */\n      add\n        /* \"#utility.yul\":7649:7702   */\n      tag_252\n      jump\t// in\n    tag_375:\n        /* \"#utility.yul\":7639:7702   */\n      swap4\n      pop\n        /* \"#utility.yul\":7593:7712   */\n      pop\n        /* \"#utility.yul\":7751:7754   */\n      0xa0\n        /* \"#utility.yul\":7778:7831   */\n      tag_376\n        /* \"#utility.yul\":7823:7830   */\n      dup11\n        /* \"#utility.yul\":7814:7820   */\n      dup3\n        /* \"#utility.yul\":7803:7812   */\n      dup12\n        /* \"#utility.yul\":7799:7821   */\n      add\n        /* \"#utility.yul\":7778:7831   */\n      tag_261\n      jump\t// in\n    tag_376:\n        /* \"#utility.yul\":7768:7831   */\n      swap3\n      pop\n        /* \"#utility.yul\":7722:7841   */\n      pop\n        /* \"#utility.yul\":7880:7883   */\n      0xc0\n        /* \"#utility.yul\":7907:7960   */\n      tag_377\n        /* \"#utility.yul\":7952:7959   */\n      dup11\n        /* \"#utility.yul\":7943:7949   */\n      dup3\n        /* \"#utility.yul\":7932:7941   */\n      dup12\n        /* \"#utility.yul\":7928:7950   */\n      add\n        /* \"#utility.yul\":7907:7960   */\n      tag_252\n      jump\t// in\n    tag_377:\n        /* \"#utility.yul\":7897:7960   */\n      swap2\n      pop\n        /* \"#utility.yul\":7851:7970   */\n      pop\n        /* \"#utility.yul\":6774:7977   */\n      swap3\n      swap6\n      swap9\n      swap2\n      swap5\n      swap8\n      pop\n      swap3\n      swap6\n      pop\n      jump\t// out\n        /* \"#utility.yul\":7983:8315   */\n    tag_30:\n        /* \"#utility.yul\":8104:8108   */\n      0x00\n        /* \"#utility.yul\":8142:8144   */\n      0x40\n        /* \"#utility.yul\":8131:8140   */\n      dup3\n        /* \"#utility.yul\":8127:8145   */\n      add\n        /* \"#utility.yul\":8119:8145   */\n      swap1\n      pop\n        /* \"#utility.yul\":8155:8226   */\n      tag_379\n        /* \"#utility.yul\":8223:8224   */\n      0x00\n        /* \"#utility.yul\":8212:8221   */\n      dup4\n        /* \"#utility.yul\":8208:8225   */\n      add\n        /* \"#utility.yul\":8199:8205   */\n      dup6\n        /* \"#utility.yul\":8155:8226   */\n      tag_253\n      jump\t// in\n    tag_379:\n        /* \"#utility.yul\":8236:8308   */\n      tag_380\n        /* \"#utility.yul\":8304:8306   */\n      0x20\n        /* \"#utility.yul\":8293:8302   */\n      dup4\n        /* \"#utility.yul\":8289:8307   */\n      add\n        /* \"#utility.yul\":8280:8286   */\n      dup5\n        /* \"#utility.yul\":8236:8308   */\n      tag_253\n      jump\t// in\n    tag_380:\n        /* \"#utility.yul\":7983:8315   */\n      swap4\n      swap3\n      pop\n      pop\n      pop\n      jump\t// out\n        /* \"#utility.yul\":8321:9670   */\n    tag_33:\n        /* \"#utility.yul\":8443:8449   */\n      0x00\n        /* \"#utility.yul\":8451:8457   */\n      0x00\n        /* \"#utility.yul\":8459:8465   */\n      0x00\n        /* \"#utility.yul\":8467:8473   */\n      0x00\n        /* \"#utility.yul\":8475:8481   */\n      0x00\n        /* \"#utility.yul\":8483:8489   */\n      0x00\n        /* \"#utility.yul\":8491:8497   */\n      0x00\n        /* \"#utility.yul\":8499:8505   */\n      0x00\n        /* \"#utility.yul\":8548:8551   */\n      0x0100\n        /* \"#utility.yul\":8536:8545   */\n      dup10\n        /* \"#utility.yul\":8527:8534   */\n      dup12\n        /* \"#utility.yul\":8523:8546   */\n      sub\n        /* \"#utility.yul\":8519:8552   */\n      slt\n        /* \"#utility.yul\":8516:8636   */\n      iszero\n      tag_382\n      jumpi\n        /* \"#utility.yul\":8555:8634   */\n      tag_383\n      tag_248\n      jump\t// in\n    tag_383:\n        /* \"#utility.yul\":8516:8636   */\n    tag_382:\n        /* \"#utility.yul\":8675:8676   */\n      0x00\n        /* \"#utility.yul\":8700:8753   */\n      tag_384\n        /* \"#utility.yul\":8745:8752   */\n      dup12\n        /* \"#utility.yul\":8736:8742   */\n      dup3\n        /* \"#utility.yul\":8725:8734   */\n      dup13\n        /* \"#utility.yul\":8721:8743   */\n      add\n        /* \"#utility.yul\":8700:8753   */\n      tag_261\n      jump\t// in\n    tag_384:\n        /* \"#utility.yul\":8690:8753   */\n      swap9\n      pop\n        /* \"#utility.yul\":8646:8763   */\n      pop\n        /* \"#utility.yul\":8802:8804   */\n      0x20\n        /* \"#utility.yul\":8828:8881   */\n      tag_385\n        /* \"#utility.yul\":8873:8880   */\n      dup12\n        /* \"#utility.yul\":8864:8870   */\n      dup3\n        /* \"#utility.yul\":8853:8862   */\n      dup13\n        /* \"#utility.yul\":8849:8871   */\n      add\n        /* \"#utility.yul\":8828:8881   */\n      tag_261\n      jump\t// in\n    tag_385:\n        /* \"#utility.yul\":8818:8881   */\n      swap8\n      pop\n        /* \"#utility.yul\":8773:8891   */\n      pop\n        /* \"#utility.yul\":8930:8932   */\n      0x40\n        /* \"#utility.yul\":8956:9009   */\n      tag_386\n        /* \"#utility.yul\":9001:9008   */\n      dup12\n        /* \"#utility.yul\":8992:8998   */\n      dup3\n        /* \"#utility.yul\":8981:8990   */\n      dup13\n        /* \"#utility.yul\":8977:8999   */\n      add\n        /* \"#utility.yul\":8956:9009   */\n      tag_252\n      jump\t// in\n    tag_386:\n        /* \"#utility.yul\":8946:9009   */\n      swap7\n      pop\n        /* \"#utility.yul\":8901:9019   */\n      pop\n        /* \"#utility.yul\":9058:9060   */\n      0x60\n        /* \"#utility.yul\":9084:9137   */\n      tag_387\n        /* \"#utility.yul\":9129:9136   */\n      dup12\n        /* \"#utility.yul\":9120:9126   */\n      dup3\n        /* \"#utility.yul\":9109:9118   */\n      dup13\n        /* \"#utility.yul\":9105:9127   */\n      add\n        /* \"#utility.yul\":9084:9137   */\n      tag_252\n      jump\t// in\n    tag_387:\n        /* \"#utility.yul\":9074:9137   */\n      swap6\n      pop\n        /* \"#utility.yul\":9029:9147   */\n      pop\n        /* \"#utility.yul\":9186:9189   */\n      0x80\n        /* \"#utility.yul\":9213:9266   */\n      tag_388\n        /* \"#utility.yul\":9258:9265   */\n      dup12\n        /* \"#utility.yul\":9249:9255   */\n      dup3\n        /* \"#utility.yul\":9238:9247   */\n      dup13\n        /* \"#utility.yul\":9234:9256   */\n      add\n        /* \"#utility.yul\":9213:9266   */\n      tag_252\n      jump\t// in\n    tag_388:\n        /* \"#utility.yul\":9203:9266   */\n      swap5\n      pop\n        /* \"#utility.yul\":9157:9276   */\n      pop\n        /* \"#utility.yul\":9315:9318   */\n      0xa0\n        /* \"#utility.yul\":9342:9395   */\n      tag_389\n        /* \"#utility.yul\":9387:9394   */\n      dup12\n        /* \"#utility.yul\":9378:9384   */\n      dup3\n        /* \"#utility.yul\":9367:9376   */\n      dup13\n        /* \"#utility.yul\":9363:9385   */\n      add\n        /* \"#utility.yul\":9342:9395   */\n      tag_252\n      jump\t// in\n    tag_389:\n        /* \"#utility.yul\":9332:9395   */\n      swap4\n      pop\n        /* \"#utility.yul\":9286:9405   */\n      pop\n        /* \"#utility.yul\":9444:9447   */\n      0xc0\n        /* \"#utility.yul\":9471:9524   */\n      tag_390\n        /* \"#utility.yul\":9516:9523   */\n      dup12\n        /* \"#utility.yul\":9507:9513   */\n      dup3\n        /* \"#utility.yul\":9496:9505   */\n      dup13\n        /* \"#utility.yul\":9492:9514   */\n      add\n        /* \"#utility.yul\":9471:9524   */\n      tag_261\n      jump\t// in\n    tag_390:\n        /* \"#utility.yul\":9461:9524   */\n      swap3\n      pop\n        /* \"#utility.yul\":9415:9534   */\n      pop\n        /* \"#utility.yul\":9573:9576   */\n      0xe0\n        /* \"#utility.yul\":9600:9653   */\n      tag_391\n        /* \"#utility.yul\":9645:9652   */\n      dup12\n        /* \"#utility.yul\":9636:9642   */\n      dup3\n        /* \"#utility.yul\":9625:9634   */\n      dup13\n        /* \"#utility.yul\":9621:9643   */\n      add\n        /* \"#utility.yul\":9600:9653   */\n      tag_252\n      jump\t// in\n    tag_391:\n        /* \"#utility.yul\":9590:9653   */\n      swap2\n      pop\n        /* \"#utility.yul\":9544:9663   */\n      pop\n        /* \"#utility.yul\":8321:9670   */\n      swap3\n      swap6\n      swap9\n      pop\n      swap3\n      swap6\n      swap9\n      swap1\n      swap4\n      swap7\n      pop\n      jump\t// out\n        /* \"#utility.yul\":9676:10118   */\n    tag_36:\n        /* \"#utility.yul\":9825:9829   */\n      0x00\n        /* \"#utility.yul\":9863:9865   */\n      0x60\n        /* \"#utility.yul\":9852:9861   */\n      dup3\n        /* \"#utility.yul\":9848:9866   */\n      add\n        /* \"#utility.yul\":9840:9866   */\n      swap1\n      pop\n        /* \"#utility.yul\":9876:9947   */\n      tag_393\n        /* \"#utility.yul\":9944:9945   */\n      0x00\n        /* \"#utility.yul\":9933:9942   */\n      dup4\n        /* \"#utility.yul\":9929:9946   */\n      add\n        /* \"#utility.yul\":9920:9926   */\n      dup7\n        /* \"#utility.yul\":9876:9947   */\n      tag_253\n      jump\t// in\n    tag_393:\n        /* \"#utility.yul\":9957:10029   */\n      tag_394\n        /* \"#utility.yul\":10025:10027   */\n      0x20\n        /* \"#utility.yul\":10014:10023   */\n      dup4\n        /* \"#utility.yul\":10010:10028   */\n      add\n        /* \"#utility.yul\":10001:10007   */\n      dup6\n        /* \"#utility.yul\":9957:10029   */\n      tag_253\n      jump\t// in\n    tag_394:\n        /* \"#utility.yul\":10039:10111   */\n      tag_395\n        /* \"#utility.yul\":10107:10109   */\n      0x40\n        /* \"#utility.yul\":10096:10105   */\n      dup4\n        /* \"#utility.yul\":10092:10110   */\n      add\n        /* \"#utility.yul\":10083:10089   */\n      dup5\n        /* \"#utility.yul\":10039:10111   */\n      tag_253\n      jump\t// in\n    tag_395:\n        /* \"#utility.yul\":9676:10118   */\n      swap5\n      swap4\n      pop\n      pop\n      pop\n      pop\n      jump\t// out\n        /* \"#utility.yul\":10124:10293   */\n    tag_269:\n        /* \"#utility.yul\":10208:10219   */\n      0x00\n        /* \"#utility.yul\":10242:10248   */\n      dup3\n        /* \"#utility.yul\":10237:10240   */\n      dup3\n        /* \"#utility.yul\":10230:10249   */\n      mstore\n        /* \"#utility.yul\":10282:10286   */\n      0x20\n        /* \"#utility.yul\":10277:10280   */\n      dup3\n        /* \"#utility.yul\":10273:10287   */\n      add\n        /* \"#utility.yul\":10258:10287   */\n      swap1\n      pop\n        /* \"#utility.yul\":10124:10293   */\n      swap3\n      swap2\n      pop\n      pop\n      jump\t// out\n        /* \"#utility.yul\":10299:10467   */\n    tag_270:\n        /* \"#utility.yul\":10439:10459   */\n      0x496e73756666696369656e7420696e7075740000000000000000000000000000\n        /* \"#utility.yul\":10435:10436   */\n      0x00\n        /* \"#utility.yul\":10427:10433   */\n      dup3\n        /* \"#utility.yul\":10423:10437   */\n      add\n        /* \"#utility.yul\":10416:10460   */\n      mstore\n        /* \"#utility.yul\":10299:10467   */\n      pop\n      jump\t// out\n        /* \"#utility.yul\":10473:10839   */\n    tag_271:\n        /* \"#utility.yul\":10615:10618   */\n      0x00\n        /* \"#utility.yul\":10636:10703   */\n      tag_399\n        /* \"#utility.yul\":10700:10702   */\n      0x12\n        /* \"#utility.yul\":10695:10698   */\n      dup4\n        /* \"#utility.yul\":10636:10703   */\n      tag_269\n      jump\t// in\n    tag_399:\n        /* \"#utility.yul\":10629:10703   */\n      swap2\n      pop\n        /* \"#utility.yul\":10712:10805   */\n      tag_400\n        /* \"#utility.yul\":10801:10804   */\n      dup3\n        /* \"#utility.yul\":10712:10805   */\n      tag_270\n      jump\t// in\n    tag_400:\n        /* \"#utility.yul\":10830:10832   */\n      0x20\n        /* \"#utility.yul\":10825:10828   */\n      dup3\n        /* \"#utility.yul\":10821:10833   */\n      add\n        /* \"#utility.yul\":10814:10833   */\n      swap1\n      pop\n        /* \"#utility.yul\":10473:10839   */\n      swap2\n      swap1\n      pop\n      jump\t// out\n        /* \"#utility.yul\":10845:11264   */\n    tag_40:\n        /* \"#utility.yul\":11011:11015   */\n      0x00\n        /* \"#utility.yul\":11049:11051   */\n      0x20\n        /* \"#utility.yul\":11038:11047   */\n      dup3\n        /* \"#utility.yul\":11034:11052   */\n      add\n        /* \"#utility.yul\":11026:11052   */\n      swap1\n      pop\n        /* \"#utility.yul\":11098:11107   */\n      dup2\n        /* \"#utility.yul\":11092:11096   */\n      dup2\n        /* \"#utility.yul\":11088:11108   */\n      sub\n        /* \"#utility.yul\":11084:11085   */\n      0x00\n        /* \"#utility.yul\":11073:11082   */\n      dup4\n        /* \"#utility.yul\":11069:11086   */\n      add\n        /* \"#utility.yul\":11062:11109   */\n      mstore\n        /* \"#utility.yul\":11126:11257   */\n      tag_402\n        /* \"#utility.yul\":11252:11256   */\n      dup2\n        /* \"#utility.yul\":11126:11257   */\n      tag_271\n      jump\t// in\n    tag_402:\n        /* \"#utility.yul\":11118:11257   */\n      swap1\n      pop\n        /* \"#utility.yul\":10845:11264   */\n      swap2\n      swap1\n      pop\n      jump\t// out\n        /* \"#utility.yul\":11270:11442   */\n    tag_272:\n        /* \"#utility.yul\":11410:11434   */\n      0x496e73756666696369656e74206c697175696469747900000000000000000000\n        /* \"#utility.yul\":11406:11407   */\n      0x00\n        /* \"#utility.yul\":11398:11404   */\n      dup3\n        /* \"#utility.yul\":11394:11408   */\n      add\n        /* \"#utility.yul\":11387:11435   */\n      mstore\n        /* \"#utility.yul\":11270:11442   */\n      pop\n      jump\t// out\n        /* \"#utility.yul\":11448:11814   */\n    tag_273:\n        /* \"#utility.yul\":11590:11593   */\n      0x00\n        /* \"#utility.yul\":11611:11678   */\n      tag_405\n        /* \"#utility.yul\":11675:11677   */\n      0x16\n        /* \"#utility.yul\":11670:11673   */\n      dup4\n        /* \"#utility.yul\":11611:11678   */\n      tag_269\n      jump\t// in\n    tag_405:\n        /* \"#utility.yul\":11604:11678   */\n      swap2\n      pop\n        /* \"#utility.yul\":11687:11780   */\n      tag_406\n        /* \"#utility.yul\":11776:11779   */\n      dup3\n        /* \"#utility.yul\":11687:11780   */\n      tag_272\n      jump\t// in\n    tag_406:\n        /* \"#utility.yul\":11805:11807   */\n      0x20\n        /* \"#utility.yul\":11800:11803   */\n      dup3\n        /* \"#utility.yul\":11796:11808   */\n      add\n        /* \"#utility.yul\":11789:11808   */\n      swap1\n      pop\n        /* \"#utility.yul\":11448:11814   */\n      swap2\n      swap1\n      pop\n      jump\t// out\n        /* \"#utility.yul\":11820:12239   */\n    tag_44:\n        /* \"#utility.yul\":11986:11990   */\n      0x00\n        /* \"#utility.yul\":12024:12026   */\n      0x20\n        /* \"#utility.yul\":12013:12022   */\n      dup3\n        /* \"#utility.yul\":12009:12027   */\n      add\n        /* \"#utility.yul\":12001:12027   */\n      swap1\n      pop\n        /* \"#utility.yul\":12073:12082   */\n      dup2\n        /* \"#utility.yul\":12067:12071   */\n      dup2\n        /* \"#utility.yul\":12063:12083   */\n      sub\n        /* \"#utility.yul\":12059:12060   */\n      0x00\n        /* \"#utility.yul\":12048:12057   */\n      dup4\n        /* \"#utility.yul\":12044:12061   */\n      add\n        /* \"#utility.yul\":12037:12084   */\n      mstore\n        /* \"#utility.yul\":12101:12232   */\n      tag_408\n        /* \"#utility.yul\":12227:12231   */\n      dup2\n        /* \"#utility.yul\":12101:12232   */\n      tag_273\n      jump\t// in\n    tag_408:\n        /* \"#utility.yul\":12093:12232   */\n      swap1\n      pop\n        /* \"#utility.yul\":11820:12239   */\n      swap2\n      swap1\n      pop\n      jump\t// out\n        /* \"#utility.yul\":12245:12425   */\n    tag_274:\n        /* \"#utility.yul\":12293:12370   */\n      0x4e487b7100000000000000000000000000000000000000000000000000000000\n        /* \"#utility.yul\":12290:12291   */\n      0x00\n        /* \"#utility.yul\":12283:12371   */\n      mstore\n        /* \"#utility.yul\":12390:12394   */\n      0x11\n        /* \"#utility.yul\":12387:12388   */\n      0x04\n        /* \"#utility.yul\":12380:12395   */\n      mstore\n        /* \"#utility.yul\":12414:12418   */\n      0x24\n        /* \"#utility.yul\":12411:12412   */\n      0x00\n        /* \"#utility.yul\":12404:12419   */\n      revert\n        /* \"#utility.yul\":12431:12841   */\n    tag_46:\n        /* \"#utility.yul\":12471:12478   */\n      0x00\n        /* \"#utility.yul\":12494:12514   */\n      tag_411\n        /* \"#utility.yul\":12512:12513   */\n      dup3\n        /* \"#utility.yul\":12494:12514   */\n      tag_250\n      jump\t// in\n    tag_411:\n        /* \"#utility.yul\":12489:12514   */\n      swap2\n      pop\n        /* \"#utility.yul\":12528:12548   */\n      tag_412\n        /* \"#utility.yul\":12546:12547   */\n      dup4\n        /* \"#utility.yul\":12528:12548   */\n      tag_250\n      jump\t// in\n    tag_412:\n        /* \"#utility.yul\":12523:12548   */\n      swap3\n      pop\n        /* \"#utility.yul\":12583:12584   */\n      dup3\n        /* \"#utility.yul\":12580:12581   */\n      dup3\n        /* \"#utility.yul\":12576:12585   */\n      mul\n        /* \"#utility.yul\":12605:12635   */\n      tag_413\n        /* \"#utility.yul\":12623:12634   */\n      dup2\n        /* \"#utility.yul\":12605:12635   */\n      tag_250\n      jump\t// in\n    tag_413:\n        /* \"#utility.yul\":12594:12635   */\n      swap2\n      pop\n        /* \"#utility.yul\":12784:12785   */\n      dup3\n        /* \"#utility.yul\":12775:12782   */\n      dup3\n        /* \"#utility.yul\":12771:12786   */\n      div\n        /* \"#utility.yul\":12768:12769   */\n      dup5\n        /* \"#utility.yul\":12765:12787   */\n      eq\n        /* \"#utility.yul\":12745:12746   */\n      dup4\n        /* \"#utility.yul\":12738:12747   */\n      iszero\n        /* \"#utility.yul\":12718:12801   */\n      or\n        /* \"#utility.yul\":12695:12834   */\n      tag_414\n      jumpi\n        /* \"#utility.yul\":12814:12832   */\n      tag_415\n      tag_274\n      jump\t// in\n    tag_415:\n        /* \"#utility.yul\":12695:12834   */\n    tag_414:\n        /* \"#utility.yul\":12479:12841   */\n      pop\n        /* \"#utility.yul\":12431:12841   */\n      swap3\n      swap2\n      pop\n      pop\n      jump\t// out\n        /* \"#utility.yul\":12847:13038   */\n    tag_50:\n        /* \"#utility.yul\":12887:12890   */\n      0x00\n        /* \"#utility.yul\":12906:12926   */\n      tag_417\n        /* \"#utility.yul\":12924:12925   */\n      dup3\n        /* \"#utility.yul\":12906:12926   */\n      tag_250\n      jump\t// in\n    tag_417:\n        /* \"#utility.yul\":12901:12926   */\n      swap2\n      pop\n        /* \"#utility.yul\":12940:12960   */\n      tag_418\n        /* \"#utility.yul\":12958:12959   */\n      dup4\n        /* \"#utility.yul\":12940:12960   */\n      tag_250\n      jump\t// in\n    tag_418:\n        /* \"#utility.yul\":12935:12960   */\n      swap3\n      pop\n        /* \"#utility.yul\":12983:12984   */\n      dup3\n        /* \"#utility.yul\":12980:12981   */\n      dup3\n        /* \"#utility.yul\":12976:12985   */\n      add\n        /* \"#utility.yul\":12969:12985   */\n      swap1\n      pop\n        /* \"#utility.yul\":13004:13007   */\n      dup1\n        /* \"#utility.yul\":13001:13002   */\n      dup3\n        /* \"#utility.yul\":12998:13008   */\n      gt\n        /* \"#utility.yul\":12995:13031   */\n      iszero\n      tag_419\n      jumpi\n        /* \"#utility.yul\":13011:13029   */\n      tag_420\n      tag_274\n      jump\t// in\n    tag_420:\n        /* \"#utility.yul\":12995:13031   */\n    tag_419:\n        /* \"#utility.yul\":12847:13038   */\n      swap3\n      swap2\n      pop\n      pop\n      jump\t// out\n        /* \"#utility.yul\":13044:13224   */\n    tag_226:\n        /* \"#utility.yul\":13092:13169   */\n      0x4e487b7100000000000000000000000000000000000000000000000000000000\n        /* \"#utility.yul\":13089:13090   */\n      0x00\n        /* \"#utility.yul\":13082:13170   */\n      mstore\n        /* \"#utility.yul\":13189:13193   */\n      0x12\n        /* \"#utility.yul\":13186:13187   */\n      0x04\n        /* \"#utility.yul\":13179:13194   */\n      mstore\n        /* \"#utility.yul\":13213:13217   */\n      0x24\n        /* \"#utility.yul\":13210:13211   */\n      0x00\n        /* \"#utility.yul\":13203:13218   */\n      revert\n        /* \"#utility.yul\":13230:13415   */\n    tag_52:\n        /* \"#utility.yul\":13270:13271   */\n      0x00\n        /* \"#utility.yul\":13287:13307   */\n      tag_423\n        /* \"#utility.yul\":13305:13306   */\n      dup3\n        /* \"#utility.yul\":13287:13307   */\n      tag_250\n      jump\t// in\n    tag_423:\n        /* \"#utility.yul\":13282:13307   */\n      swap2\n      pop\n        /* \"#utility.yul\":13321:13341   */\n      tag_424\n        /* \"#utility.yul\":13339:13340   */\n      dup4\n        /* \"#utility.yul\":13321:13341   */\n      tag_250\n      jump\t// in\n    tag_424:\n        /* \"#utility.yul\":13316:13341   */\n      swap3\n      pop\n        /* \"#utility.yul\":13360:13361   */\n      dup3\n        /* \"#utility.yul\":13350:13385   */\n      tag_425\n      jumpi\n        /* \"#utility.yul\":13365:13383   */\n      tag_426\n      tag_226\n      jump\t// in\n    tag_426:\n        /* \"#utility.yul\":13350:13385   */\n    tag_425:\n        /* \"#utility.yul\":13407:13408   */\n      dup3\n        /* \"#utility.yul\":13404:13405   */\n      dup3\n        /* \"#utility.yul\":13400:13409   */\n      div\n        /* \"#utility.yul\":13395:13409   */\n      swap1\n      pop\n        /* \"#utility.yul\":13230:13415   */\n      swap3\n      swap2\n      pop\n      pop\n      jump\t// out\n        /* \"#utility.yul\":13421:13590   */\n    tag_275:\n        /* \"#utility.yul\":13561:13582   */\n      0x5472616e73616374696f6e206578706972656400000000000000000000000000\n        /* \"#utility.yul\":13557:13558   */\n      0x00\n        /* \"#utility.yul\":13549:13555   */\n      dup3\n        /* \"#utility.yul\":13545:13559   */\n      add\n        /* \"#utility.yul\":13538:13583   */\n      mstore\n        /* \"#utility.yul\":13421:13590   */\n      pop\n      jump\t// out\n        /* \"#utility.yul\":13596:13962   */\n    tag_276:\n        /* \"#utility.yul\":13738:13741   */\n      0x00\n        /* \"#utility.yul\":13759:13826   */\n      tag_429\n        /* \"#utility.yul\":13823:13825   */\n      0x13\n        /* \"#utility.yul\":13818:13821   */\n      dup4\n        /* \"#utility.yul\":13759:13826   */\n      tag_269\n      jump\t// in\n    tag_429:\n        /* \"#utility.yul\":13752:13826   */\n      swap2\n      pop\n        /* \"#utility.yul\":13835:13928   */\n      tag_430\n        /* \"#utility.yul\":13924:13927   */\n      dup3\n        /* \"#utility.yul\":13835:13928   */\n      tag_275\n      jump\t// in\n    tag_430:\n        /* \"#utility.yul\":13953:13955   */\n      0x20\n        /* \"#utility.yul\":13948:13951   */\n      dup3\n        /* \"#utility.yul\":13944:13956   */\n      add\n        /* \"#utility.yul\":13937:13956   */\n      swap1\n      pop\n        /* \"#utility.yul\":13596:13962   */\n      swap2\n      swap1\n      pop\n      jump\t// out\n        /* \"#utility.yul\":13968:14387   */\n    tag_56:\n        /* \"#utility.yul\":14134:14138   */\n      0x00\n        /* \"#utility.yul\":14172:14174   */\n      0x20\n        /* \"#utility.yul\":14161:14170   */\n      dup3\n        /* \"#utility.yul\":14157:14175   */\n      add\n        /* \"#utility.yul\":14149:14175   */\n      swap1\n      pop\n        /* \"#utility.yul\":14221:14230   */\n      dup2\n        /* \"#utility.yul\":14215:14219   */\n      dup2\n        /* \"#utility.yul\":14211:14231   */\n      sub\n        /* \"#utility.yul\":14207:14208   */\n      0x00\n        /* \"#utility.yul\":14196:14205   */\n      dup4\n        /* \"#utility.yul\":14192:14209   */\n      add\n        /* \"#utility.yul\":14185:14232   */\n      mstore\n        /* \"#utility.yul\":14249:14380   */\n      tag_432\n        /* \"#utility.yul\":14375:14379   */\n      dup2\n        /* \"#utility.yul\":14249:14380   */\n      tag_276\n      jump\t// in\n    tag_432:\n        /* \"#utility.yul\":14241:14380   */\n      swap1\n      pop\n        /* \"#utility.yul\":13968:14387   */\n      swap2\n      swap1\n      pop\n      jump\t// out\n        /* \"#utility.yul\":14393:14555   */\n    tag_277:\n        /* \"#utility.yul\":14533:14547   */\n      0x4f6e6c7920322d746f6b656e0000000000000000000000000000000000000000\n        /* \"#utility.yul\":14529:14530   */\n      0x00\n        /* \"#utility.yul\":14521:14527   */\n      dup3\n        /* \"#utility.yul\":14517:14531   */\n      add\n        /* \"#utility.yul\":14510:14548   */\n      mstore\n        /* \"#utility.yul\":14393:14555   */\n      pop\n      jump\t// out\n        /* \"#utility.yul\":14561:14927   */\n    tag_278:\n        /* \"#utility.yul\":14703:14706   */\n      0x00\n        /* \"#utility.yul\":14724:14791   */\n      tag_435\n        /* \"#utility.yul\":14788:14790   */\n      0x0c\n        /* \"#utility.yul\":14783:14786   */\n      dup4\n        /* \"#utility.yul\":14724:14791   */\n      tag_269\n      jump\t// in\n    tag_435:\n        /* \"#utility.yul\":14717:14791   */\n      swap2\n      pop\n        /* \"#utility.yul\":14800:14893   */\n      tag_436\n        /* \"#utility.yul\":14889:14892   */\n      dup3\n        /* \"#utility.yul\":14800:14893   */\n      tag_277\n      jump\t// in\n    tag_436:\n        /* \"#utility.yul\":14918:14920   */\n      0x20\n        /* \"#utility.yul\":14913:14916   */\n      dup3\n        /* \"#utility.yul\":14909:14921   */\n      add\n        /* \"#utility.yul\":14902:14921   */\n      swap1\n      pop\n        /* \"#utility.yul\":14561:14927   */\n      swap2\n      swap1\n      pop\n      jump\t// out\n        /* \"#utility.yul\":14933:15352   */\n    tag_60:\n        /* \"#utility.yul\":15099:15103   */\n      0x00\n        /* \"#utility.yul\":15137:15139   */\n      0x20\n        /* \"#utility.yul\":15126:15135   */\n      dup3\n        /* \"#utility.yul\":15122:15140   */\n      add\n        /* \"#utility.yul\":15114:15140   */\n      swap1\n      pop\n        /* \"#utility.yul\":15186:15195   */\n      dup2\n        /* \"#utility.yul\":15180:15184   */\n      dup2\n        /* \"#utility.yul\":15176:15196   */\n      sub\n        /* \"#utility.yul\":15172:15173   */\n      0x00\n        /* \"#utility.yul\":15161:15170   */\n      dup4\n        /* \"#utility.yul\":15157:15174   */\n      add\n        /* \"#utility.yul\":15150:15197   */\n      mstore\n        /* \"#utility.yul\":15214:15345   */\n      tag_438\n        /* \"#utility.yul\":15340:15344   */\n      dup2\n        /* \"#utility.yul\":15214:15345   */\n      tag_278\n      jump\t// in\n    tag_438:\n        /* \"#utility.yul\":15206:15345   */\n      swap1\n      pop\n        /* \"#utility.yul\":14933:15352   */\n      swap2\n      swap1\n      pop\n      jump\t// out\n        /* \"#utility.yul\":15358:15538   */\n    tag_63:\n        /* \"#utility.yul\":15406:15483   */\n      0x4e487b7100000000000000000000000000000000000000000000000000000000\n        /* \"#utility.yul\":15403:15404   */\n      0x00\n        /* \"#utility.yul\":15396:15484   */\n      mstore\n        /* \"#utility.yul\":15503:15507   */\n      0x32\n        /* \"#utility.yul\":15500:15501   */\n      0x04\n        /* \"#utility.yul\":15493:15508   */\n      mstore\n        /* \"#utility.yul\":15527:15531   */\n      0x24\n        /* \"#utility.yul\":15524:15525   */\n      0x00\n        /* \"#utility.yul\":15517:15532   */\n      revert\n        /* \"#utility.yul\":15544:15873   */\n    tag_65:\n        /* \"#utility.yul\":15603:15609   */\n      0x00\n        /* \"#utility.yul\":15652:15654   */\n      0x20\n        /* \"#utility.yul\":15640:15649   */\n      dup3\n        /* \"#utility.yul\":15631:15638   */\n      dup5\n        /* \"#utility.yul\":15627:15650   */\n      sub\n        /* \"#utility.yul\":15623:15655   */\n      slt\n        /* \"#utility.yul\":15620:15739   */\n      iszero\n      tag_441\n      jumpi\n        /* \"#utility.yul\":15658:15737   */\n      tag_442\n      tag_248\n      jump\t// in\n    tag_442:\n        /* \"#utility.yul\":15620:15739   */\n    tag_441:\n        /* \"#utility.yul\":15778:15779   */\n      0x00\n        /* \"#utility.yul\":15803:15856   */\n      tag_443\n        /* \"#utility.yul\":15848:15855   */\n      dup5\n        /* \"#utility.yul\":15839:15845   */\n      dup3\n        /* \"#utility.yul\":15828:15837   */\n      dup6\n        /* \"#utility.yul\":15824:15846   */\n      add\n        /* \"#utility.yul\":15803:15856   */\n      tag_261\n      jump\t// in\n    tag_443:\n        /* \"#utility.yul\":15793:15856   */\n      swap2\n      pop\n        /* \"#utility.yul\":15749:15866   */\n      pop\n        /* \"#utility.yul\":15544:15873   */\n      swap3\n      swap2\n      pop\n      pop\n      jump\t// out\n        /* \"#utility.yul\":15879:16048   */\n    tag_279:\n        /* \"#utility.yul\":16019:16040   */\n      0x496e73756666696369656e74206f757470757400000000000000000000000000\n        /* \"#utility.yul\":16015:16016   */\n      0x00\n        /* \"#utility.yul\":16007:16013   */\n      dup3\n        /* \"#utility.yul\":16003:16017   */\n      add\n        /* \"#utility.yul\":15996:16041   */\n      mstore\n        /* \"#utility.yul\":15879:16048   */\n      pop\n      jump\t// out\n        /* \"#utility.yul\":16054:16420   */\n    tag_280:\n        /* \"#utility.yul\":16196:16199   */\n      0x00\n        /* \"#utility.yul\":16217:16284   */\n      tag_446\n        /* \"#utility.yul\":16281:16283   */\n      0x13\n        /* \"#utility.yul\":16276:16279   */\n      dup4\n        /* \"#utility.yul\":16217:16284   */\n      tag_269\n      jump\t// in\n    tag_446:\n        /* \"#utility.yul\":16210:16284   */\n      swap2\n      pop\n        /* \"#utility.yul\":16293:16386   */\n      tag_447\n        /* \"#utility.yul\":16382:16385   */\n      dup3\n        /* \"#utility.yul\":16293:16386   */\n      tag_279\n      jump\t// in\n    tag_447:\n        /* \"#utility.yul\":16411:16413   */\n      0x20\n        /* \"#utility.yul\":16406:16409   */\n      dup3\n        /* \"#utility.yul\":16402:16414   */\n      add\n        /* \"#utility.yul\":16395:16414   */\n      swap1\n      pop\n        /* \"#utility.yul\":16054:16420   */\n      swap2\n      swap1\n      pop\n      jump\t// out\n        /* \"#utility.yul\":16426:16845   */\n    tag_78:\n        /* \"#utility.yul\":16592:16596   */\n      0x00\n        /* \"#utility.yul\":16630:16632   */\n      0x20\n        /* \"#utility.yul\":16619:16628   */\n      dup3\n        /* \"#utility.yul\":16615:16633   */\n      add\n        /* \"#utility.yul\":16607:16633   */\n      swap1\n      pop\n        /* \"#utility.yul\":16679:16688   */\n      dup2\n        /* \"#utility.yul\":16673:16677   */\n      dup2\n        /* \"#utility.yul\":16669:16689   */\n      sub\n        /* \"#utility.yul\":16665:16666   */\n      0x00\n        /* \"#utility.yul\":16654:16663   */\n      dup4\n        /* \"#utility.yul\":16650:16667   */\n      add\n        /* \"#utility.yul\":16643:16690   */\n      mstore\n        /* \"#utility.yul\":16707:16838   */\n      tag_449\n        /* \"#utility.yul\":16833:16837   */\n      dup2\n        /* \"#utility.yul\":16707:16838   */\n      tag_280\n      jump\t// in\n    tag_449:\n        /* \"#utility.yul\":16699:16838   */\n      swap1\n      pop\n        /* \"#utility.yul\":16426:16845   */\n      swap2\n      swap1\n      pop\n      jump\t// out\n        /* \"#utility.yul\":16851:17045   */\n    tag_82:\n        /* \"#utility.yul\":16891:16895   */\n      0x00\n        /* \"#utility.yul\":16911:16931   */\n      tag_451\n        /* \"#utility.yul\":16929:16930   */\n      dup3\n        /* \"#utility.yul\":16911:16931   */\n      tag_250\n      jump\t// in\n    tag_451:\n        /* \"#utility.yul\":16906:16931   */\n      swap2\n      pop\n        /* \"#utility.yul\":16945:16965   */\n      tag_452\n        /* \"#utility.yul\":16963:16964   */\n      dup4\n        /* \"#utility.yul\":16945:16965   */\n      tag_250\n      jump\t// in\n    tag_452:\n        /* \"#utility.yul\":16940:16965   */\n      swap3\n      pop\n        /* \"#utility.yul\":16989:16990   */\n      dup3\n        /* \"#utility.yul\":16986:16987   */\n      dup3\n        /* \"#utility.yul\":16982:16991   */\n      sub\n        /* \"#utility.yul\":16974:16991   */\n      swap1\n      pop\n        /* \"#utility.yul\":17013:17014   */\n      dup2\n        /* \"#utility.yul\":17007:17011   */\n      dup2\n        /* \"#utility.yul\":17004:17015   */\n      gt\n        /* \"#utility.yul\":17001:17038   */\n      iszero\n      tag_453\n      jumpi\n        /* \"#utility.yul\":17018:17036   */\n      tag_454\n      tag_274\n      jump\t// in\n    tag_454:\n        /* \"#utility.yul\":17001:17038   */\n    tag_453:\n        /* \"#utility.yul\":16851:17045   */\n      swap3\n      swap2\n      pop\n      pop\n      jump\t// out\n        /* \"#utility.yul\":17051:17231   */\n    tag_90:\n        /* \"#utility.yul\":17099:17176   */\n      0x4e487b7100000000000000000000000000000000000000000000000000000000\n        /* \"#utility.yul\":17096:17097   */\n      0x00\n        /* \"#utility.yul\":17089:17177   */\n      mstore\n        /* \"#utility.yul\":17196:17200   */\n      0x41\n        /* \"#utility.yul\":17193:17194   */\n      0x04\n        /* \"#utility.yul\":17186:17201   */\n      mstore\n        /* \"#utility.yul\":17220:17224   */\n      0x24\n        /* \"#utility.yul\":17217:17218   */\n      0x00\n        /* \"#utility.yul\":17210:17225   */\n      revert\n        /* \"#utility.yul\":17237:17355   */\n    tag_281:\n        /* \"#utility.yul\":17324:17348   */\n      tag_457\n        /* \"#utility.yul\":17342:17347   */\n      dup2\n        /* \"#utility.yul\":17324:17348   */\n      tag_259\n      jump\t// in\n    tag_457:\n        /* \"#utility.yul\":17319:17322   */\n      dup3\n        /* \"#utility.yul\":17312:17349   */\n      mstore\n        /* \"#utility.yul\":17237:17355   */\n      pop\n      pop\n      jump\t// out\n        /* \"#utility.yul\":17361:17914   */\n    tag_101:\n        /* \"#utility.yul\":17538:17542   */\n      0x00\n        /* \"#utility.yul\":17576:17579   */\n      0x80\n        /* \"#utility.yul\":17565:17574   */\n      dup3\n        /* \"#utility.yul\":17561:17580   */\n      add\n        /* \"#utility.yul\":17553:17580   */\n      swap1\n      pop\n        /* \"#utility.yul\":17590:17661   */\n      tag_459\n        /* \"#utility.yul\":17658:17659   */\n      0x00\n        /* \"#utility.yul\":17647:17656   */\n      dup4\n        /* \"#utility.yul\":17643:17660   */\n      add\n        /* \"#utility.yul\":17634:17640   */\n      dup8\n        /* \"#utility.yul\":17590:17661   */\n      tag_281\n      jump\t// in\n    tag_459:\n        /* \"#utility.yul\":17671:17743   */\n      tag_460\n        /* \"#utility.yul\":17739:17741   */\n      0x20\n        /* \"#utility.yul\":17728:17737   */\n      dup4\n        /* \"#utility.yul\":17724:17742   */\n      add\n        /* \"#utility.yul\":17715:17721   */\n      dup7\n        /* \"#utility.yul\":17671:17743   */\n      tag_281\n      jump\t// in\n    tag_460:\n        /* \"#utility.yul\":17753:17825   */\n      tag_461\n        /* \"#utility.yul\":17821:17823   */\n      0x40\n        /* \"#utility.yul\":17810:17819   */\n      dup4\n        /* \"#utility.yul\":17806:17824   */\n      add\n        /* \"#utility.yul\":17797:17803   */\n      dup6\n        /* \"#utility.yul\":17753:17825   */\n      tag_253\n      jump\t// in\n    tag_461:\n        /* \"#utility.yul\":17835:17907   */\n      tag_462\n        /* \"#utility.yul\":17903:17905   */\n      0x60\n        /* \"#utility.yul\":17892:17901   */\n      dup4\n        /* \"#utility.yul\":17888:17906   */\n      add\n        /* \"#utility.yul\":17879:17885   */\n      dup5\n        /* \"#utility.yul\":17835:17907   */\n      tag_253\n      jump\t// in\n    tag_462:\n        /* \"#utility.yul\":17361:17914   */\n      swap6\n      swap5\n      pop\n      pop\n      pop\n      pop\n      pop\n      jump\t// out\n        /* \"#utility.yul\":17920:18081   */\n    tag_282:\n        /* \"#utility.yul\":18060:18073   */\n      0x4e6f207265736572766573000000000000000000000000000000000000000000\n        /* \"#utility.yul\":18056:18057   */\n      0x00\n        /* \"#utility.yul\":18048:18054   */\n      dup3\n        /* \"#utility.yul\":18044:18058   */\n      add\n        /* \"#utility.yul\":18037:18074   */\n      mstore\n        /* \"#utility.yul\":17920:18081   */\n      pop\n      jump\t// out\n        /* \"#utility.yul\":18087:18453   */\n    tag_283:\n        /* \"#utility.yul\":18229:18232   */\n      0x00\n        /* \"#utility.yul\":18250:18317   */\n      tag_465\n        /* \"#utility.yul\":18314:18316   */\n      0x0b\n        /* \"#utility.yul\":18309:18312   */\n      dup4\n        /* \"#utility.yul\":18250:18317   */\n      tag_269\n      jump\t// in\n    tag_465:\n        /* \"#utility.yul\":18243:18317   */\n      swap2\n      pop\n        /* \"#utility.yul\":18326:18419   */\n      tag_466\n        /* \"#utility.yul\":18415:18418   */\n      dup3\n        /* \"#utility.yul\":18326:18419   */\n      tag_282\n      jump\t// in\n    tag_466:\n        /* \"#utility.yul\":18444:18446   */\n      0x20\n        /* \"#utility.yul\":18439:18442   */\n      dup3\n        /* \"#utility.yul\":18435:18447   */\n      add\n        /* \"#utility.yul\":18428:18447   */\n      swap1\n      pop\n        /* \"#utility.yul\":18087:18453   */\n      swap2\n      swap1\n      pop\n      jump\t// out\n        /* \"#utility.yul\":18459:18878   */\n    tag_109:\n        /* \"#utility.yul\":18625:18629   */\n      0x00\n        /* \"#utility.yul\":18663:18665   */\n      0x20\n        /* \"#utility.yul\":18652:18661   */\n      dup3\n        /* \"#utility.yul\":18648:18666   */\n      add\n        /* \"#utility.yul\":18640:18666   */\n      swap1\n      pop\n        /* \"#utility.yul\":18712:18721   */\n      dup2\n        /* \"#utility.yul\":18706:18710   */\n      dup2\n        /* \"#utility.yul\":18702:18722   */\n      sub\n        /* \"#utility.yul\":18698:18699   */\n      0x00\n        /* \"#utility.yul\":18687:18696   */\n      dup4\n        /* \"#utility.yul\":18683:18700   */\n      add\n        /* \"#utility.yul\":18676:18723   */\n      mstore\n        /* \"#utility.yul\":18740:18871   */\n      tag_468\n        /* \"#utility.yul\":18866:18870   */\n      dup2\n        /* \"#utility.yul\":18740:18871   */\n      tag_283\n      jump\t// in\n    tag_468:\n        /* \"#utility.yul\":18732:18871   */\n      swap1\n      pop\n        /* \"#utility.yul\":18459:18878   */\n      swap2\n      swap1\n      pop\n      jump\t// out\n        /* \"#utility.yul\":18884:19048   */\n    tag_284:\n        /* \"#utility.yul\":19024:19040   */\n      0x496e73756666696369656e742041000000000000000000000000000000000000\n        /* \"#utility.yul\":19020:19021   */\n      0x00\n        /* \"#utility.yul\":19012:19018   */\n      dup3\n        /* \"#utility.yul\":19008:19022   */\n      add\n        /* \"#utility.yul\":19001:19041   */\n      mstore\n        /* \"#utility.yul\":18884:19048   */\n      pop\n      jump\t// out\n        /* \"#utility.yul\":19054:19420   */\n    tag_285:\n        /* \"#utility.yul\":19196:19199   */\n      0x00\n        /* \"#utility.yul\":19217:19284   */\n      tag_471\n        /* \"#utility.yul\":19281:19283   */\n      0x0e\n        /* \"#utility.yul\":19276:19279   */\n      dup4\n        /* \"#utility.yul\":19217:19284   */\n      tag_269\n      jump\t// in\n    tag_471:\n        /* \"#utility.yul\":19210:19284   */\n      swap2\n      pop\n        /* \"#utility.yul\":19293:19386   */\n      tag_472\n        /* \"#utility.yul\":19382:19385   */\n      dup3\n        /* \"#utility.yul\":19293:19386   */\n      tag_284\n      jump\t// in\n    tag_472:\n        /* \"#utility.yul\":19411:19413   */\n      0x20\n        /* \"#utility.yul\":19406:19409   */\n      dup3\n        /* \"#utility.yul\":19402:19414   */\n      add\n        /* \"#utility.yul\":19395:19414   */\n      swap1\n      pop\n        /* \"#utility.yul\":19054:19420   */\n      swap2\n      swap1\n      pop\n      jump\t// out\n        /* \"#utility.yul\":19426:19845   */\n    tag_125:\n        /* \"#utility.yul\":19592:19596   */\n      0x00\n        /* \"#utility.yul\":19630:19632   */\n      0x20\n        /* \"#utility.yul\":19619:19628   */\n      dup3\n        /* \"#utility.yul\":19615:19633   */\n      add\n        /* \"#utility.yul\":19607:19633   */\n      swap1\n      pop\n        /* \"#utility.yul\":19679:19688   */\n      dup2\n        /* \"#utility.yul\":19673:19677   */\n      dup2\n        /* \"#utility.yul\":19669:19689   */\n      sub\n        /* \"#utility.yul\":19665:19666   */\n      0x00\n        /* \"#utility.yul\":19654:19663   */\n      dup4\n        /* \"#utility.yul\":19650:19667   */\n      add\n        /* \"#utility.yul\":19643:19690   */\n      mstore\n        /* \"#utility.yul\":19707:19838   */\n      tag_474\n        /* \"#utility.yul\":19833:19837   */\n      dup2\n        /* \"#utility.yul\":19707:19838   */\n      tag_285\n      jump\t// in\n    tag_474:\n        /* \"#utility.yul\":19699:19838   */\n      swap1\n      pop\n        /* \"#utility.yul\":19426:19845   */\n      swap2\n      swap1\n      pop\n      jump\t// out\n        /* \"#utility.yul\":19851:20015   */\n    tag_286:\n        /* \"#utility.yul\":19991:20007   */\n      0x496e73756666696369656e742042000000000000000000000000000000000000\n        /* \"#utility.yul\":19987:19988   */\n      0x00\n        /* \"#utility.yul\":19979:19985   */\n      dup3\n        /* \"#utility.yul\":19975:19989   */\n      add\n        /* \"#utility.yul\":19968:20008   */\n      mstore\n        /* \"#utility.yul\":19851:20015   */\n      pop\n      jump\t// out\n        /* \"#utility.yul\":20021:20387   */\n    tag_287:\n        /* \"#utility.yul\":20163:20166   */\n      0x00\n        /* \"#utility.yul\":20184:20251   */\n      tag_477\n        /* \"#utility.yul\":20248:20250   */\n      0x0e\n        /* \"#utility.yul\":20243:20246   */\n      dup4\n        /* \"#utility.yul\":20184:20251   */\n      tag_269\n      jump\t// in\n    tag_477:\n        /* \"#utility.yul\":20177:20251   */\n      swap2\n      pop\n        /* \"#utility.yul\":20260:20353   */\n      tag_478\n        /* \"#utility.yul\":20349:20352   */\n      dup3\n        /* \"#utility.yul\":20260:20353   */\n      tag_286\n      jump\t// in\n    tag_478:\n        /* \"#utility.yul\":20378:20380   */\n      0x20\n        /* \"#utility.yul\":20373:20376   */\n      dup3\n        /* \"#utility.yul\":20369:20381   */\n      add\n        /* \"#utility.yul\":20362:20381   */\n      swap1\n      pop\n        /* \"#utility.yul\":20021:20387   */\n      swap2\n      swap1\n      pop\n      jump\t// out\n        /* \"#utility.yul\":20393:20812   */\n    tag_128:\n        /* \"#utility.yul\":20559:20563   */\n      0x00\n        /* \"#utility.yul\":20597:20599   */\n      0x20\n        /* \"#utility.yul\":20586:20595   */\n      dup3\n        /* \"#utility.yul\":20582:20600   */\n      add\n        /* \"#utility.yul\":20574:20600   */\n      swap1\n      pop\n        /* \"#utility.yul\":20646:20655   */\n      dup2\n        /* \"#utility.yul\":20640:20644   */\n      dup2\n        /* \"#utility.yul\":20636:20656   */\n      sub\n        /* \"#utility.yul\":20632:20633   */\n      0x00\n        /* \"#utility.yul\":20621:20630   */\n      dup4\n        /* \"#utility.yul\":20617:20634   */\n      add\n        /* \"#utility.yul\":20610:20657   */\n      mstore\n        /* \"#utility.yul\":20674:20805   */\n      tag_480\n        /* \"#utility.yul\":20800:20804   */\n      dup2\n        /* \"#utility.yul\":20674:20805   */\n      tag_287\n      jump\t// in\n    tag_480:\n        /* \"#utility.yul\":20666:20805   */\n      swap1\n      pop\n        /* \"#utility.yul\":20393:20812   */\n      swap2\n      swap1\n      pop\n      jump\t// out\n        /* \"#utility.yul\":20818:21482   */\n    tag_136:\n        /* \"#utility.yul\":21023:21027   */\n      0x00\n        /* \"#utility.yul\":21061:21064   */\n      0xa0\n        /* \"#utility.yul\":21050:21059   */\n      dup3\n        /* \"#utility.yul\":21046:21065   */\n      add\n        /* \"#utility.yul\":21038:21065   */\n      swap1\n      pop\n        /* \"#utility.yul\":21075:21146   */\n      tag_482\n        /* \"#utility.yul\":21143:21144   */\n      0x00\n        /* \"#utility.yul\":21132:21141   */\n      dup4\n        /* \"#utility.yul\":21128:21145   */\n      add\n        /* \"#utility.yul\":21119:21125   */\n      dup9\n        /* \"#utility.yul\":21075:21146   */\n      tag_281\n      jump\t// in\n    tag_482:\n        /* \"#utility.yul\":21156:21228   */\n      tag_483\n        /* \"#utility.yul\":21224:21226   */\n      0x20\n        /* \"#utility.yul\":21213:21222   */\n      dup4\n        /* \"#utility.yul\":21209:21227   */\n      add\n        /* \"#utility.yul\":21200:21206   */\n      dup8\n        /* \"#utility.yul\":21156:21228   */\n      tag_281\n      jump\t// in\n    tag_483:\n        /* \"#utility.yul\":21238:21310   */\n      tag_484\n        /* \"#utility.yul\":21306:21308   */\n      0x40\n        /* \"#utility.yul\":21295:21304   */\n      dup4\n        /* \"#utility.yul\":21291:21309   */\n      add\n        /* \"#utility.yul\":21282:21288   */\n      dup7\n        /* \"#utility.yul\":21238:21310   */\n      tag_253\n      jump\t// in\n    tag_484:\n        /* \"#utility.yul\":21320:21392   */\n      tag_485\n        /* \"#utility.yul\":21388:21390   */\n      0x60\n        /* \"#utility.yul\":21377:21386   */\n      dup4\n        /* \"#utility.yul\":21373:21391   */\n      add\n        /* \"#utility.yul\":21364:21370   */\n      dup6\n        /* \"#utility.yul\":21320:21392   */\n      tag_253\n      jump\t// in\n    tag_485:\n        /* \"#utility.yul\":21402:21475   */\n      tag_486\n        /* \"#utility.yul\":21470:21473   */\n      0x80\n        /* \"#utility.yul\":21459:21468   */\n      dup4\n        /* \"#utility.yul\":21455:21474   */\n      add\n        /* \"#utility.yul\":21446:21452   */\n      dup5\n        /* \"#utility.yul\":21402:21475   */\n      tag_253\n      jump\t// in\n    tag_486:\n        /* \"#utility.yul\":20818:21482   */\n      swap7\n      swap6\n      pop\n      pop\n      pop\n      pop\n      pop\n      pop\n      jump\t// out\n        /* \"#utility.yul\":21488:21654   */\n    tag_288:\n        /* \"#utility.yul\":21628:21646   */\n      0x4964656e746963616c20746f6b656e7300000000000000000000000000000000\n        /* \"#utility.yul\":21624:21625   */\n      0x00\n        /* \"#utility.yul\":21616:21622   */\n      dup3\n        /* \"#utility.yul\":21612:21626   */\n      add\n        /* \"#utility.yul\":21605:21647   */\n      mstore\n        /* \"#utility.yul\":21488:21654   */\n      pop\n      jump\t// out\n        /* \"#utility.yul\":21660:22026   */\n    tag_289:\n        /* \"#utility.yul\":21802:21805   */\n      0x00\n        /* \"#utility.yul\":21823:21890   */\n      tag_489\n        /* \"#utility.yul\":21887:21889   */\n      0x10\n        /* \"#utility.yul\":21882:21885   */\n      dup4\n        /* \"#utility.yul\":21823:21890   */\n      tag_269\n      jump\t// in\n    tag_489:\n        /* \"#utility.yul\":21816:21890   */\n      swap2\n      pop\n        /* \"#utility.yul\":21899:21992   */\n      tag_490\n        /* \"#utility.yul\":21988:21991   */\n      dup3\n        /* \"#utility.yul\":21899:21992   */\n      tag_288\n      jump\t// in\n    tag_490:\n        /* \"#utility.yul\":22017:22019   */\n      0x20\n        /* \"#utility.yul\":22012:22015   */\n      dup3\n        /* \"#utility.yul\":22008:22020   */\n      add\n        /* \"#utility.yul\":22001:22020   */\n      swap1\n      pop\n        /* \"#utility.yul\":21660:22026   */\n      swap2\n      swap1\n      pop\n      jump\t// out\n        /* \"#utility.yul\":22032:22451   */\n    tag_143:\n        /* \"#utility.yul\":22198:22202   */\n      0x00\n        /* \"#utility.yul\":22236:22238   */\n      0x20\n        /* \"#utility.yul\":22225:22234   */\n      dup3\n        /* \"#utility.yul\":22221:22239   */\n      add\n        /* \"#utility.yul\":22213:22239   */\n      swap1\n      pop\n        /* \"#utility.yul\":22285:22294   */\n      dup2\n        /* \"#utility.yul\":22279:22283   */\n      dup2\n        /* \"#utility.yul\":22275:22295   */\n      sub\n        /* \"#utility.yul\":22271:22272   */\n      0x00\n        /* \"#utility.yul\":22260:22269   */\n      dup4\n        /* \"#utility.yul\":22256:22273   */\n      add\n        /* \"#utility.yul\":22249:22296   */\n      mstore\n        /* \"#utility.yul\":22313:22444   */\n      tag_492\n        /* \"#utility.yul\":22439:22443   */\n      dup2\n        /* \"#utility.yul\":22313:22444   */\n      tag_289\n      jump\t// in\n    tag_492:\n        /* \"#utility.yul\":22305:22444   */\n      swap1\n      pop\n        /* \"#utility.yul\":22032:22451   */\n      swap2\n      swap1\n      pop\n      jump\t// out\n        /* \"#utility.yul\":22457:22619   */\n    tag_290:\n        /* \"#utility.yul\":22597:22611   */\n      0x496e73756666696369656e740000000000000000000000000000000000000000\n        /* \"#utility.yul\":22593:22594   */\n      0x00\n        /* \"#utility.yul\":22585:22591   */\n      dup3\n        /* \"#utility.yul\":22581:22595   */\n      add\n        /* \"#utility.yul\":22574:22612   */\n      mstore\n        /* \"#utility.yul\":22457:22619   */\n      pop\n      jump\t// out\n        /* \"#utility.yul\":22625:22991   */\n    tag_291:\n        /* \"#utility.yul\":22767:22770   */\n      0x00\n        /* \"#utility.yul\":22788:22855   */\n      tag_495\n        /* \"#utility.yul\":22852:22854   */\n      0x0c\n        /* \"#utility.yul\":22847:22850   */\n      dup4\n        /* \"#utility.yul\":22788:22855   */\n      tag_269\n      jump\t// in\n    tag_495:\n        /* \"#utility.yul\":22781:22855   */\n      swap2\n      pop\n        /* \"#utility.yul\":22864:22957   */\n      tag_496\n        /* \"#utility.yul\":22953:22956   */\n      dup3\n        /* \"#utility.yul\":22864:22957   */\n      tag_290\n      jump\t// in\n    tag_496:\n        /* \"#utility.yul\":22982:22984   */\n      0x20\n        /* \"#utility.yul\":22977:22980   */\n      dup3\n        /* \"#utility.yul\":22973:22985   */\n      add\n        /* \"#utility.yul\":22966:22985   */\n      swap1\n      pop\n        /* \"#utility.yul\":22625:22991   */\n      swap2\n      swap1\n      pop\n      jump\t// out\n        /* \"#utility.yul\":22997:23416   */\n    tag_153:\n        /* \"#utility.yul\":23163:23167   */\n      0x00\n        /* \"#utility.yul\":23201:23203   */\n      0x20\n        /* \"#utility.yul\":23190:23199   */\n      dup3\n        /* \"#utility.yul\":23186:23204   */\n      add\n        /* \"#utility.yul\":23178:23204   */\n      swap1\n      pop\n        /* \"#utility.yul\":23250:23259   */\n      dup2\n        /* \"#utility.yul\":23244:23248   */\n      dup2\n        /* \"#utility.yul\":23240:23260   */\n      sub\n        /* \"#utility.yul\":23236:23237   */\n      0x00\n        /* \"#utility.yul\":23225:23234   */\n      dup4\n        /* \"#utility.yul\":23221:23238   */\n      add\n        /* \"#utility.yul\":23214:23261   */\n      mstore\n        /* \"#utility.yul\":23278:23409   */\n      tag_498\n        /* \"#utility.yul\":23404:23408   */\n      dup2\n        /* \"#utility.yul\":23278:23409   */\n      tag_291\n      jump\t// in\n    tag_498:\n        /* \"#utility.yul\":23270:23409   */\n      swap1\n      pop\n        /* \"#utility.yul\":22997:23416   */\n      swap2\n      swap1\n      pop\n      jump\t// out\n        /* \"#utility.yul\":23422:23516   */\n    tag_292:\n        /* \"#utility.yul\":23455:23463   */\n      0x00\n        /* \"#utility.yul\":23503:23508   */\n      dup2\n        /* \"#utility.yul\":23499:23501   */\n      0x60\n        /* \"#utility.yul\":23495:23509   */\n      shl\n        /* \"#utility.yul\":23474:23509   */\n      swap1\n      pop\n        /* \"#utility.yul\":23422:23516   */\n      swap2\n      swap1\n      pop\n      jump\t// out\n        /* \"#utility.yul\":23522:23616   */\n    tag_293:\n        /* \"#utility.yul\":23561:23568   */\n      0x00\n        /* \"#utility.yul\":23590:23610   */\n      tag_501\n        /* \"#utility.yul\":23604:23609   */\n      dup3\n        /* \"#utility.yul\":23590:23610   */\n      tag_292\n      jump\t// in\n    tag_501:\n        /* \"#utility.yul\":23579:23610   */\n      swap1\n      pop\n        /* \"#utility.yul\":23522:23616   */\n      swap2\n      swap1\n      pop\n      jump\t// out\n        /* \"#utility.yul\":23622:23722   */\n    tag_294:\n        /* \"#utility.yul\":23661:23668   */\n      0x00\n        /* \"#utility.yul\":23690:23716   */\n      tag_503\n        /* \"#utility.yul\":23710:23715   */\n      dup3\n        /* \"#utility.yul\":23690:23716   */\n      tag_293\n      jump\t// in\n    tag_503:\n        /* \"#utility.yul\":23679:23716   */\n      swap1\n      pop\n        /* \"#utility.yul\":23622:23722   */\n      swap2\n      swap1\n      pop\n      jump\t// out\n        /* \"#utility.yul\":23728:23885   */\n    tag_295:\n        /* \"#utility.yul\":23833:23878   */\n      tag_505\n        /* \"#utility.yul\":23853:23877   */\n      tag_506\n        /* \"#utility.yul\":23871:23876   */\n      dup3\n        /* \"#utility.yul\":23853:23877   */\n      tag_259\n      jump\t// in\n    tag_506:\n        /* \"#utility.yul\":23833:23878   */\n      tag_294\n      jump\t// in\n    tag_505:\n        /* \"#utility.yul\":23828:23831   */\n      dup3\n        /* \"#utility.yul\":23821:23879   */\n      mstore\n        /* \"#utility.yul\":23728:23885   */\n      pop\n      pop\n      jump\t// out\n        /* \"#utility.yul\":23891:24288   */\n    tag_162:\n        /* \"#utility.yul\":24031:24034   */\n      0x00\n        /* \"#utility.yul\":24046:24121   */\n      tag_508\n        /* \"#utility.yul\":24117:24120   */\n      dup3\n        /* \"#utility.yul\":24108:24114   */\n      dup6\n        /* \"#utility.yul\":24046:24121   */\n      tag_295\n      jump\t// in\n    tag_508:\n        /* \"#utility.yul\":24146:24148   */\n      0x14\n        /* \"#utility.yul\":24141:24144   */\n      dup3\n        /* \"#utility.yul\":24137:24149   */\n      add\n        /* \"#utility.yul\":24130:24149   */\n      swap2\n      pop\n        /* \"#utility.yul\":24159:24234   */\n      tag_509\n        /* \"#utility.yul\":24230:24233   */\n      dup3\n        /* \"#utility.yul\":24221:24227   */\n      dup5\n        /* \"#utility.yul\":24159:24234   */\n      tag_295\n      jump\t// in\n    tag_509:\n        /* \"#utility.yul\":24259:24261   */\n      0x14\n        /* \"#utility.yul\":24254:24257   */\n      dup3\n        /* \"#utility.yul\":24250:24262   */\n      add\n        /* \"#utility.yul\":24243:24262   */\n      swap2\n      pop\n        /* \"#utility.yul\":24279:24282   */\n      dup2\n        /* \"#utility.yul\":24272:24282   */\n      swap1\n      pop\n        /* \"#utility.yul\":23891:24288   */\n      swap4\n      swap3\n      pop\n      pop\n      pop\n      jump\t// out\n        /* \"#utility.yul\":24294:24736   */\n    tag_168:\n        /* \"#utility.yul\":24443:24447   */\n      0x00\n        /* \"#utility.yul\":24481:24483   */\n      0x60\n        /* \"#utility.yul\":24470:24479   */\n      dup3\n        /* \"#utility.yul\":24466:24484   */\n      add\n        /* \"#utility.yul\":24458:24484   */\n      swap1\n      pop\n        /* \"#utility.yul\":24494:24565   */\n      tag_511\n        /* \"#utility.yul\":24562:24563   */\n      0x00\n        /* \"#utility.yul\":24551:24560   */\n      dup4\n        /* \"#utility.yul\":24547:24564   */\n      add\n        /* \"#utility.yul\":24538:24544   */\n      dup7\n        /* \"#utility.yul\":24494:24565   */\n      tag_281\n      jump\t// in\n    tag_511:\n        /* \"#utility.yul\":24575:24647   */\n      tag_512\n        /* \"#utility.yul\":24643:24645   */\n      0x20\n        /* \"#utility.yul\":24632:24641   */\n      dup4\n        /* \"#utility.yul\":24628:24646   */\n      add\n        /* \"#utility.yul\":24619:24625   */\n      dup6\n        /* \"#utility.yul\":24575:24647   */\n      tag_281\n      jump\t// in\n    tag_512:\n        /* \"#utility.yul\":24657:24729   */\n      tag_513\n        /* \"#utility.yul\":24725:24727   */\n      0x40\n        /* \"#utility.yul\":24714:24723   */\n      dup4\n        /* \"#utility.yul\":24710:24728   */\n      add\n        /* \"#utility.yul\":24701:24707   */\n      dup5\n        /* \"#utility.yul\":24657:24729   */\n      tag_253\n      jump\t// in\n    tag_513:\n        /* \"#utility.yul\":24294:24736   */\n      swap5\n      swap4\n      pop\n      pop\n      pop\n      pop\n      jump\t// out\n        /* \"#utility.yul\":24742:25074   */\n    tag_173:\n        /* \"#utility.yul\":24863:24867   */\n      0x00\n        /* \"#utility.yul\":24901:24903   */\n      0x40\n        /* \"#utility.yul\":24890:24899   */\n      dup3\n        /* \"#utility.yul\":24886:24904   */\n      add\n        /* \"#utility.yul\":24878:24904   */\n      swap1\n      pop\n        /* \"#utility.yul\":24914:24985   */\n      tag_515\n        /* \"#utility.yul\":24982:24983   */\n      0x00\n        /* \"#utility.yul\":24971:24980   */\n      dup4\n        /* \"#utility.yul\":24967:24984   */\n      add\n        /* \"#utility.yul\":24958:24964   */\n      dup6\n        /* \"#utility.yul\":24914:24985   */\n      tag_281\n      jump\t// in\n    tag_515:\n        /* \"#utility.yul\":24995:25067   */\n      tag_516\n        /* \"#utility.yul\":25063:25065   */\n      0x20\n        /* \"#utility.yul\":25052:25061   */\n      dup4\n        /* \"#utility.yul\":25048:25066   */\n      add\n        /* \"#utility.yul\":25039:25045   */\n      dup5\n        /* \"#utility.yul\":24995:25067   */\n      tag_253\n      jump\t// in\n    tag_516:\n        /* \"#utility.yul\":24742:25074   */\n      swap4\n      swap3\n      pop\n      pop\n      pop\n      jump\t// out\n        /* \"#utility.yul\":25080:25302   */\n    tag_211:\n        /* \"#utility.yul\":25173:25177   */\n      0x00\n        /* \"#utility.yul\":25211:25213   */\n      0x20\n        /* \"#utility.yul\":25200:25209   */\n      dup3\n        /* \"#utility.yul\":25196:25214   */\n      add\n        /* \"#utility.yul\":25188:25214   */\n      swap1\n      pop\n        /* \"#utility.yul\":25224:25295   */\n      tag_518\n        /* \"#utility.yul\":25292:25293   */\n      0x00\n        /* \"#utility.yul\":25281:25290   */\n      dup4\n        /* \"#utility.yul\":25277:25294   */\n      add\n        /* \"#utility.yul\":25268:25274   */\n      dup5\n        /* \"#utility.yul\":25224:25295   */\n      tag_281\n      jump\t// in\n    tag_518:\n        /* \"#utility.yul\":25080:25302   */\n      swap3\n      swap2\n      pop\n      pop\n      jump\t// out\n\n    auxdata: 0xa26469706673582212205a45c9c4154c788383953756d8e89aaccd4c84f90d0e8a62513e9dd1f0d0f02564736f6c634300081e0033\n}\n",
				"bytecode": {
					"linkReferences": {},
					"object": "6080604052348015600e575f5ffd5b50611f0e8061001c5f395ff3fe608060405234801561000f575f5ffd5b5060043610610055575f3560e01c8063054d50d41461005957806338ed173914610089578063ac41865a146100b9578063baa2abde146100e9578063e8e337001461011a575b5f5ffd5b610073600480360381019061006e91906112f2565b61014c565b6040516100809190611351565b60405180910390f35b6100a3600480360381019061009e9190611425565b610230565b6040516100b09190611572565b60405180910390f35b6100d360048036038101906100ce9190611592565b6105f5565b6040516100e09190611351565b60405180910390f35b61010360048036038101906100fe91906115d0565b6106df565b60405161011192919061166d565b60405180910390f35b610134600480360381019061012f9190611694565b6109eb565b60405161014393929190611745565b60405180910390f35b5f5f841161018f576040517f08c379a0000000000000000000000000000000000000000000000000000000008152600401610186906117d4565b60405180910390fd5b5f8311801561019d57505f82115b6101dc576040517f08c379a00000000000000000000000000000000000000000000000000000000081526004016101d39061183c565b60405180910390fd5b5f6103e5856101eb9190611887565b90505f83826101fa9190611887565b90505f826103e88761020c9190611887565b61021691906118c8565b905080826102249190611928565b93505050509392505050565b60608180421115610276576040517f08c379a000000000000000000000000000000000000000000000000000000000815260040161026d906119a2565b60405180910390fd5b600286869050146102bc576040517f08c379a00000000000000000000000000000000000000000000000000000000081526004016102b390611a0a565b60405180910390fd5b5f86865f8181106102d0576102cf611a28565b5b90506020020160208101906102e59190611a55565b90505f878760018181106102fc576102fb611a28565b5b90506020020160208101906103119190611a55565b90505f61031e8383610c55565b90505f5f5f8381526020019081526020015f20905061036033308e8773ffffffffffffffffffffffffffffffffffffffff16610ce9909392919063ffffffff16565b5f5f8473ffffffffffffffffffffffffffffffffffffffff168673ffffffffffffffffffffffffffffffffffffffff16106103a3578260010154835f01546103ad565b825f015483600101545b915091505f6103bd8f848461014c565b90508d811015610402576040517f08c379a00000000000000000000000000000000000000000000000000000000081526004016103f990611aca565b60405180910390fd5b8573ffffffffffffffffffffffffffffffffffffffff168773ffffffffffffffffffffffffffffffffffffffff16101561046e578e845f015f82825461044891906118c8565b9250508190555080846001015f8282546104629190611ae8565b925050819055506104a2565b8e846001015f82825461048191906118c8565b9250508190555080845f015f82825461049a9190611ae8565b925050819055505b6104cd8b828873ffffffffffffffffffffffffffffffffffffffff16610d6b9092919063ffffffff16565b600267ffffffffffffffff8111156104e8576104e7611b1b565b5b6040519080825280602002602001820160405280156105165781602001602082028036833780820191505090505b5098508e895f8151811061052d5761052c611a28565b5b602002602001018181525050808960018151811061054e5761054d611a28565b5b6020026020010181815250503373ffffffffffffffffffffffffffffffffffffffff167fcd3829a3813dc3cdd188fd3d01dcf3268c16be2fdd2dd21d0665418816e4606288888c5f815181106105a7576105a6611a28565b5b60200260200101518d6001815181106105c3576105c2611a28565b5b60200260200101516040516105db9493929190611b57565b60405180910390a250505050505050509695505050505050565b5f5f6106018484610c55565b90505f5f5f8381526020019081526020015f2090505f5f8573ffffffffffffffffffffffffffffffffffffffff168773ffffffffffffffffffffffffffffffffffffffff1610610659578260010154835f0154610663565b825f015483600101545b915091505f8211801561067557505f81115b6106b4576040517f08c379a00000000000000000000000000000000000000000000000000000000081526004016106ab90611be4565b60405180910390fd5b81670de0b6b3a7640000826106c99190611887565b6106d39190611928565b94505050505092915050565b5f5f8280421115610725576040517f08c379a000000000000000000000000000000000000000000000000000000000815260040161071c906119a2565b60405180910390fd5b5f6107308b8b610c55565b90505f5f5f8381526020019081526020015f20905089816003015f3373ffffffffffffffffffffffffffffffffffffffff1673ffffffffffffffffffffffffffffffffffffffff1681526020019081526020015f205410156107c7576040517f08c379a00000000000000000000000000000000000000000000000000000000081526004016107be9061183c565b60405180910390fd5b8060020154815f01548b6107db9190611887565b6107e59190611928565b9450806002015481600101548b6107fc9190611887565b6108069190611928565b93508885101561084b576040517f08c379a000000000000000000000000000000000000000000000000000000000815260040161084290611c4c565b60405180910390fd5b8784101561088e576040517f08c379a000000000000000000000000000000000000000000000000000000000815260040161088590611cb4565b60405180910390fd5b84815f015f8282546108a09190611ae8565b9250508190555083816001015f8282546108ba9190611ae8565b9250508190555089816002015f8282546108d49190611ae8565b9250508190555089816003015f3373ffffffffffffffffffffffffffffffffffffffff1673ffffffffffffffffffffffffffffffffffffffff1681526020019081526020015f205f8282546109299190611ae8565b9250508190555061095b87868e73ffffffffffffffffffffffffffffffffffffffff16610d6b9092919063ffffffff16565b61098687858d73ffffffffffffffffffffffffffffffffffffffff16610d6b9092919063ffffffff16565b3373ffffffffffffffffffffffffffffffffffffffff167fd765e08eef31c0983ecca03ecd166297ac485ecd5dd69e291c848f0a020333c18d8d88888f6040516109d4959493929190611cd2565b60405180910390a250505097509795505050505050565b5f5f5f8380421115610a32576040517f08c379a0000000000000000000000000000000000000000000000000000000008152600401610a29906119a2565b60405180910390fd5b8a73ffffffffffffffffffffffffffffffffffffffff168c73ffffffffffffffffffffffffffffffffffffffff1603610aa0576040517f08c379a0000000000000000000000000000000000000000000000000000000008152600401610a9790611d6d565b60405180910390fd5b5f610aab8d8d610c55565b90505f5f5f8381526020019081526020015f209050610adc8e8e8e8e8e8e875f015488600101548960020154610dea565b8096508197505050610af08e8e8888610f39565b610b088686835f015484600101548560020154610f99565b93505f8411610b4c576040517f08c379a0000000000000000000000000000000000000000000000000000000008152600401610b4390611dd5565b60405180910390fd5b85815f015f828254610b5e91906118c8565b9250508190555084816001015f828254610b7891906118c8565b9250508190555083816002015f828254610b9291906118c8565b9250508190555083816003015f8a73ffffffffffffffffffffffffffffffffffffffff1673ffffffffffffffffffffffffffffffffffffffff1681526020019081526020015f205f828254610be791906118c8565b925050819055503373ffffffffffffffffffffffffffffffffffffffff167f43c967b388d3a4ccad3f7ab80167852e322e5a3fde9893f530252281b2ae8b708f8f898989604051610c3c959493929190611cd2565b60405180910390a2505050985098509895505050505050565b5f8173ffffffffffffffffffffffffffffffffffffffff168373ffffffffffffffffffffffffffffffffffffffff1610610cb7578183604051602001610c9c929190611e38565b60405160208183030381529060405280519060200120610ce1565b8282604051602001610cca929190611e38565b604051602081830303815290604052805190602001205b905092915050565b610d65848573ffffffffffffffffffffffffffffffffffffffff166323b872dd868686604051602401610d1e93929190611e63565b604051602081830303815290604052915060e01b6020820180517bffffffffffffffffffffffffffffffffffffffffffffffffffffffff8381831617835250505050610ffe565b50505050565b610de5838473ffffffffffffffffffffffffffffffffffffffff1663a9059cbb8585604051602401610d9e929190611e98565b604051602081830303815290604052915060e01b6020820180517bffffffffffffffffffffffffffffffffffffffffffffffffffffffff8381831617835250505050610ffe565b505050565b5f5f5f8303610dfe57888891509150610f2b565b5f610e098c8c611099565b5090505f5f8273ffffffffffffffffffffffffffffffffffffffff168e73ffffffffffffffffffffffffffffffffffffffff1614610e48578688610e4b565b87875b915091505f82828e610e5d9190611887565b610e679190611928565b90508b8111610ec25789811015610eb3576040517f08c379a0000000000000000000000000000000000000000000000000000000008152600401610eaa90611cb4565b60405180910390fd5b8c819550955050505050610f2b565b5f82848e610ed09190611887565b610eda9190611928565b90508b811015610f1f576040517f08c379a0000000000000000000000000000000000000000000000000000000008152600401610f1690611c4c565b60405180910390fd5b808d9650965050505050505b995099975050505050505050565b610f663330848773ffffffffffffffffffffffffffffffffffffffff16610ce9909392919063ffffffff16565b610f933330838673ffffffffffffffffffffffffffffffffffffffff16610ce9909392919063ffffffff16565b50505050565b5f5f8203610fbc57610fb58587610fb09190611887565b6110e3565b9050610ff5565b610ff2848388610fcc9190611887565b610fd69190611928565b848488610fe39190611887565b610fed9190611928565b61127d565b90505b95945050505050565b5f5f60205f8451602086015f885af18061101d576040513d5f823e3d81fd5b3d92505f519150505f8214611036576001811415611051565b5f8473ffffffffffffffffffffffffffffffffffffffff163b145b1561109357836040517f5274afe700000000000000000000000000000000000000000000000000000000815260040161108a9190611ebf565b60405180910390fd5b50505050565b5f5f8273ffffffffffffffffffffffffffffffffffffffff168473ffffffffffffffffffffffffffffffffffffffff16106110d55782846110d8565b83835b915091509250929050565b5f600182116110f457819050611278565b5f8290505f60019050700100000000000000000000000000000000821061112457608082901c9150604081901b90505b68010000000000000000821061114357604082901c9150602081901b90505b640100000000821061115e57602082901c9150601081901b90505b62010000821061117757601082901c9150600881901b90505b610100821061118f57600882901c9150600481901b90505b601082106111a657600482901c9150600281901b90505b600482106111b657600181901b90505b600181600302901c905060018185816111d2576111d16118fb565b5b048201901c905060018185816111eb576111ea6118fb565b5b048201901c90506001818581611204576112036118fb565b5b048201901c9050600181858161121d5761121c6118fb565b5b048201901c90506001818581611236576112356118fb565b5b048201901c9050600181858161124f5761124e6118fb565b5b048201901c9050611271818581611269576112686118fb565b5b048211611293565b8103925050505b919050565b5f61128b828410848461129e565b905092915050565b5f8115159050919050565b5f6112a884611293565b82841802821890509392505050565b5f5ffd5b5f5ffd5b5f819050919050565b6112d1816112bf565b81146112db575f5ffd5b50565b5f813590506112ec816112c8565b92915050565b5f5f5f60608486031215611309576113086112b7565b5b5f611316868287016112de565b9350506020611327868287016112de565b9250506040611338868287016112de565b9150509250925092565b61134b816112bf565b82525050565b5f6020820190506113645f830184611342565b92915050565b5f5ffd5b5f5ffd5b5f5ffd5b5f5f83601f84011261138b5761138a61136a565b5b8235905067ffffffffffffffff8111156113a8576113a761136e565b5b6020830191508360208202830111156113c4576113c3611372565b5b9250929050565b5f73ffffffffffffffffffffffffffffffffffffffff82169050919050565b5f6113f4826113cb565b9050919050565b611404816113ea565b811461140e575f5ffd5b50565b5f8135905061141f816113fb565b92915050565b5f5f5f5f5f5f60a0878903121561143f5761143e6112b7565b5b5f61144c89828a016112de565b965050602061145d89828a016112de565b955050604087013567ffffffffffffffff81111561147e5761147d6112bb565b5b61148a89828a01611376565b9450945050606061149d89828a01611411565b92505060806114ae89828a016112de565b9150509295509295509295565b5f81519050919050565b5f82825260208201905092915050565b5f819050602082019050919050565b6114ed816112bf565b82525050565b5f6114fe83836114e4565b60208301905092915050565b5f602082019050919050565b5f611520826114bb565b61152a81856114c5565b9350611535836114d5565b805f5b8381101561156557815161154c88826114f3565b97506115578361150a565b925050600181019050611538565b5085935050505092915050565b5f6020820190508181035f83015261158a8184611516565b905092915050565b5f5f604083850312156115a8576115a76112b7565b5b5f6115b585828601611411565b92505060206115c685828601611411565b9150509250929050565b5f5f5f5f5f5f5f60e0888a0312156115eb576115ea6112b7565b5b5f6115f88a828b01611411565b97505060206116098a828b01611411565b965050604061161a8a828b016112de565b955050606061162b8a828b016112de565b945050608061163c8a828b016112de565b93505060a061164d8a828b01611411565b92505060c061165e8a828b016112de565b91505092959891949750929550565b5f6040820190506116805f830185611342565b61168d6020830184611342565b9392505050565b5f5f5f5f5f5f5f5f610100898b0312156116b1576116b06112b7565b5b5f6116be8b828c01611411565b98505060206116cf8b828c01611411565b97505060406116e08b828c016112de565b96505060606116f18b828c016112de565b95505060806117028b828c016112de565b94505060a06117138b828c016112de565b93505060c06117248b828c01611411565b92505060e06117358b828c016112de565b9150509295985092959890939650565b5f6060820190506117585f830186611342565b6117656020830185611342565b6117726040830184611342565b949350505050565b5f82825260208201905092915050565b7f496e73756666696369656e7420696e70757400000000000000000000000000005f82015250565b5f6117be60128361177a565b91506117c98261178a565b602082019050919050565b5f6020820190508181035f8301526117eb816117b2565b9050919050565b7f496e73756666696369656e74206c6971756964697479000000000000000000005f82015250565b5f61182660168361177a565b9150611831826117f2565b602082019050919050565b5f6020820190508181035f8301526118538161181a565b9050919050565b7f4e487b71000000000000000000000000000000000000000000000000000000005f52601160045260245ffd5b5f611891826112bf565b915061189c836112bf565b92508282026118aa816112bf565b915082820484148315176118c1576118c061185a565b5b5092915050565b5f6118d2826112bf565b91506118dd836112bf565b92508282019050808211156118f5576118f461185a565b5b92915050565b7f4e487b71000000000000000000000000000000000000000000000000000000005f52601260045260245ffd5b5f611932826112bf565b915061193d836112bf565b92508261194d5761194c6118fb565b5b828204905092915050565b7f5472616e73616374696f6e2065787069726564000000000000000000000000005f82015250565b5f61198c60138361177a565b915061199782611958565b602082019050919050565b5f6020820190508181035f8301526119b981611980565b9050919050565b7f4f6e6c7920322d746f6b656e00000000000000000000000000000000000000005f82015250565b5f6119f4600c8361177a565b91506119ff826119c0565b602082019050919050565b5f6020820190508181035f830152611a21816119e8565b9050919050565b7f4e487b71000000000000000000000000000000000000000000000000000000005f52603260045260245ffd5b5f60208284031215611a6a57611a696112b7565b5b5f611a7784828501611411565b91505092915050565b7f496e73756666696369656e74206f7574707574000000000000000000000000005f82015250565b5f611ab460138361177a565b9150611abf82611a80565b602082019050919050565b5f6020820190508181035f830152611ae181611aa8565b9050919050565b5f611af2826112bf565b9150611afd836112bf565b9250828203905081811115611b1557611b1461185a565b5b92915050565b7f4e487b71000000000000000000000000000000000000000000000000000000005f52604160045260245ffd5b611b51816113ea565b82525050565b5f608082019050611b6a5f830187611b48565b611b776020830186611b48565b611b846040830185611342565b611b916060830184611342565b95945050505050565b7f4e6f2072657365727665730000000000000000000000000000000000000000005f82015250565b5f611bce600b8361177a565b9150611bd982611b9a565b602082019050919050565b5f6020820190508181035f830152611bfb81611bc2565b9050919050565b7f496e73756666696369656e7420410000000000000000000000000000000000005f82015250565b5f611c36600e8361177a565b9150611c4182611c02565b602082019050919050565b5f6020820190508181035f830152611c6381611c2a565b9050919050565b7f496e73756666696369656e7420420000000000000000000000000000000000005f82015250565b5f611c9e600e8361177a565b9150611ca982611c6a565b602082019050919050565b5f6020820190508181035f830152611ccb81611c92565b9050919050565b5f60a082019050611ce55f830188611b48565b611cf26020830187611b48565b611cff6040830186611342565b611d0c6060830185611342565b611d196080830184611342565b9695505050505050565b7f4964656e746963616c20746f6b656e73000000000000000000000000000000005f82015250565b5f611d5760108361177a565b9150611d6282611d23565b602082019050919050565b5f6020820190508181035f830152611d8481611d4b565b9050919050565b7f496e73756666696369656e7400000000000000000000000000000000000000005f82015250565b5f611dbf600c8361177a565b9150611dca82611d8b565b602082019050919050565b5f6020820190508181035f830152611dec81611db3565b9050919050565b5f8160601b9050919050565b5f611e0982611df3565b9050919050565b5f611e1a82611dff565b9050919050565b611e32611e2d826113ea565b611e10565b82525050565b5f611e438285611e21565b601482019150611e538284611e21565b6014820191508190509392505050565b5f606082019050611e765f830186611b48565b611e836020830185611b48565b611e906040830184611342565b949350505050565b5f604082019050611eab5f830185611b48565b611eb86020830184611342565b9392505050565b5f602082019050611ed25f830184611b48565b9291505056fea26469706673582212205a45c9c4154c788383953756d8e89aaccd4c84f90d0e8a62513e9dd1f0d0f02564736f6c634300081e0033",
					"opcodes": "PUSH1 0x80 PUSH1 0x40 MSTORE CALLVALUE DUP1 ISZERO PUSH1 0xE JUMPI PUSH0 PUSH0 REVERT JUMPDEST POP PUSH2 0x1F0E DUP1 PUSH2 0x1C PUSH0 CODECOPY PUSH0 RETURN INVALID PUSH1 0x80 PUSH1 0x40 MSTORE CALLVALUE DUP1 ISZERO PUSH2 0xF JUMPI PUSH0 PUSH0 REVERT JUMPDEST POP PUSH1 0x4 CALLDATASIZE LT PUSH2 0x55 JUMPI PUSH0 CALLDATALOAD PUSH1 0xE0 SHR DUP1 PUSH4 0x54D50D4 EQ PUSH2 0x59 JUMPI DUP1 PUSH4 0x38ED1739 EQ PUSH2 0x89 JUMPI DUP1 PUSH4 0xAC41865A EQ PUSH2 0xB9 JUMPI DUP1 PUSH4 0xBAA2ABDE EQ PUSH2 0xE9 JUMPI DUP1 PUSH4 0xE8E33700 EQ PUSH2 0x11A JUMPI JUMPDEST PUSH0 PUSH0 REVERT JUMPDEST PUSH2 0x73 PUSH1 0x4 DUP1 CALLDATASIZE SUB DUP2 ADD SWAP1 PUSH2 0x6E SWAP2 SWAP1 PUSH2 0x12F2 JUMP JUMPDEST PUSH2 0x14C JUMP JUMPDEST PUSH1 0x40 MLOAD PUSH2 0x80 SWAP2 SWAP1 PUSH2 0x1351 JUMP JUMPDEST PUSH1 0x40 MLOAD DUP1 SWAP2 SUB SWAP1 RETURN JUMPDEST PUSH2 0xA3 PUSH1 0x4 DUP1 CALLDATASIZE SUB DUP2 ADD SWAP1 PUSH2 0x9E SWAP2 SWAP1 PUSH2 0x1425 JUMP JUMPDEST PUSH2 0x230 JUMP JUMPDEST PUSH1 0x40 MLOAD PUSH2 0xB0 SWAP2 SWAP1 PUSH2 0x1572 JUMP JUMPDEST PUSH1 0x40 MLOAD DUP1 SWAP2 SUB SWAP1 RETURN JUMPDEST PUSH2 0xD3 PUSH1 0x4 DUP1 CALLDATASIZE SUB DUP2 ADD SWAP1 PUSH2 0xCE SWAP2 SWAP1 PUSH2 0x1592 JUMP JUMPDEST PUSH2 0x5F5 JUMP JUMPDEST PUSH1 0x40 MLOAD PUSH2 0xE0 SWAP2 SWAP1 PUSH2 0x1351 JUMP JUMPDEST PUSH1 0x40 MLOAD DUP1 SWAP2 SUB SWAP1 RETURN JUMPDEST PUSH2 0x103 PUSH1 0x4 DUP1 CALLDATASIZE SUB DUP2 ADD SWAP1 PUSH2 0xFE SWAP2 SWAP1 PUSH2 0x15D0 JUMP JUMPDEST PUSH2 0x6DF JUMP JUMPDEST PUSH1 0x40 MLOAD PUSH2 0x111 SWAP3 SWAP2 SWAP1 PUSH2 0x166D JUMP JUMPDEST PUSH1 0x40 MLOAD DUP1 SWAP2 SUB SWAP1 RETURN JUMPDEST PUSH2 0x134 PUSH1 0x4 DUP1 CALLDATASIZE SUB DUP2 ADD SWAP1 PUSH2 0x12F SWAP2 SWAP1 PUSH2 0x1694 JUMP JUMPDEST PUSH2 0x9EB JUMP JUMPDEST PUSH1 0x40 MLOAD PUSH2 0x143 SWAP4 SWAP3 SWAP2 SWAP1 PUSH2 0x1745 JUMP JUMPDEST PUSH1 0x40 MLOAD DUP1 SWAP2 SUB SWAP1 RETURN JUMPDEST PUSH0 PUSH0 DUP5 GT PUSH2 0x18F JUMPI PUSH1 0x40 MLOAD PUSH32 0x8C379A000000000000000000000000000000000000000000000000000000000 DUP2 MSTORE PUSH1 0x4 ADD PUSH2 0x186 SWAP1 PUSH2 0x17D4 JUMP JUMPDEST PUSH1 0x40 MLOAD DUP1 SWAP2 SUB SWAP1 REVERT JUMPDEST PUSH0 DUP4 GT DUP1 ISZERO PUSH2 0x19D JUMPI POP PUSH0 DUP3 GT JUMPDEST PUSH2 0x1DC JUMPI PUSH1 0x40 MLOAD PUSH32 0x8C379A000000000000000000000000000000000000000000000000000000000 DUP2 MSTORE PUSH1 0x4 ADD PUSH2 0x1D3 SWAP1 PUSH2 0x183C JUMP JUMPDEST PUSH1 0x40 MLOAD DUP1 SWAP2 SUB SWAP1 REVERT JUMPDEST PUSH0 PUSH2 0x3E5 DUP6 PUSH2 0x1EB SWAP2 SWAP1 PUSH2 0x1887 JUMP JUMPDEST SWAP1 POP PUSH0 DUP4 DUP3 PUSH2 0x1FA SWAP2 SWAP1 PUSH2 0x1887 JUMP JUMPDEST SWAP1 POP PUSH0 DUP3 PUSH2 0x3E8 DUP8 PUSH2 0x20C SWAP2 SWAP1 PUSH2 0x1887 JUMP JUMPDEST PUSH2 0x216 SWAP2 SWAP1 PUSH2 0x18C8 JUMP JUMPDEST SWAP1 POP DUP1 DUP3 PUSH2 0x224 SWAP2 SWAP1 PUSH2 0x1928 JUMP JUMPDEST SWAP4 POP POP POP POP SWAP4 SWAP3 POP POP POP JUMP JUMPDEST PUSH1 0x60 DUP2 DUP1 TIMESTAMP GT ISZERO PUSH2 0x276 JUMPI PUSH1 0x40 MLOAD PUSH32 0x8C379A000000000000000000000000000000000000000000000000000000000 DUP2 MSTORE PUSH1 0x4 ADD PUSH2 0x26D SWAP1 PUSH2 0x19A2 JUMP JUMPDEST PUSH1 0x40 MLOAD DUP1 SWAP2 SUB SWAP1 REVERT JUMPDEST PUSH1 0x2 DUP7 DUP7 SWAP1 POP EQ PUSH2 0x2BC JUMPI PUSH1 0x40 MLOAD PUSH32 0x8C379A000000000000000000000000000000000000000000000000000000000 DUP2 MSTORE PUSH1 0x4 ADD PUSH2 0x2B3 SWAP1 PUSH2 0x1A0A JUMP JUMPDEST PUSH1 0x40 MLOAD DUP1 SWAP2 SUB SWAP1 REVERT JUMPDEST PUSH0 DUP7 DUP7 PUSH0 DUP2 DUP2 LT PUSH2 0x2D0 JUMPI PUSH2 0x2CF PUSH2 0x1A28 JUMP JUMPDEST JUMPDEST SWAP1 POP PUSH1 0x20 MUL ADD PUSH1 0x20 DUP2 ADD SWAP1 PUSH2 0x2E5 SWAP2 SWAP1 PUSH2 0x1A55 JUMP JUMPDEST SWAP1 POP PUSH0 DUP8 DUP8 PUSH1 0x1 DUP2 DUP2 LT PUSH2 0x2FC JUMPI PUSH2 0x2FB PUSH2 0x1A28 JUMP JUMPDEST JUMPDEST SWAP1 POP PUSH1 0x20 MUL ADD PUSH1 0x20 DUP2 ADD SWAP1 PUSH2 0x311 SWAP2 SWAP1 PUSH2 0x1A55 JUMP JUMPDEST SWAP1 POP PUSH0 PUSH2 0x31E DUP4 DUP4 PUSH2 0xC55 JUMP JUMPDEST SWAP1 POP PUSH0 PUSH0 PUSH0 DUP4 DUP2 MSTORE PUSH1 0x20 ADD SWAP1 DUP2 MSTORE PUSH1 0x20 ADD PUSH0 KECCAK256 SWAP1 POP PUSH2 0x360 CALLER ADDRESS DUP15 DUP8 PUSH20 0xFFFFFFFFFFFFFFFFFFFFFFFFFFFFFFFFFFFFFFFF AND PUSH2 0xCE9 SWAP1 SWAP4 SWAP3 SWAP2 SWAP1 PUSH4 0xFFFFFFFF AND JUMP JUMPDEST PUSH0 PUSH0 DUP5 PUSH20 0xFFFFFFFFFFFFFFFFFFFFFFFFFFFFFFFFFFFFFFFF AND DUP7 PUSH20 0xFFFFFFFFFFFFFFFFFFFFFFFFFFFFFFFFFFFFFFFF AND LT PUSH2 0x3A3 JUMPI DUP3 PUSH1 0x1 ADD SLOAD DUP4 PUSH0 ADD SLOAD PUSH2 0x3AD JUMP JUMPDEST DUP3 PUSH0 ADD SLOAD DUP4 PUSH1 0x1 ADD SLOAD JUMPDEST SWAP2 POP SWAP2 POP PUSH0 PUSH2 0x3BD DUP16 DUP5 DUP5 PUSH2 0x14C JUMP JUMPDEST SWAP1 POP DUP14 DUP2 LT ISZERO PUSH2 0x402 JUMPI PUSH1 0x40 MLOAD PUSH32 0x8C379A000000000000000000000000000000000000000000000000000000000 DUP2 MSTORE PUSH1 0x4 ADD PUSH2 0x3F9 SWAP1 PUSH2 0x1ACA JUMP JUMPDEST PUSH1 0x40 MLOAD DUP1 SWAP2 SUB SWAP1 REVERT JUMPDEST DUP6 PUSH20 0xFFFFFFFFFFFFFFFFFFFFFFFFFFFFFFFFFFFFFFFF AND DUP8 PUSH20 0xFFFFFFFFFFFFFFFFFFFFFFFFFFFFFFFFFFFFFFFF AND LT ISZERO PUSH2 0x46E JUMPI DUP15 DUP5 PUSH0 ADD PUSH0 DUP3 DUP3 SLOAD PUSH2 0x448 SWAP2 SWAP1 PUSH2 0x18C8 JUMP JUMPDEST SWAP3 POP POP DUP2 SWAP1 SSTORE POP DUP1 DUP5 PUSH1 0x1 ADD PUSH0 DUP3 DUP3 SLOAD PUSH2 0x462 SWAP2 SWAP1 PUSH2 0x1AE8 JUMP JUMPDEST SWAP3 POP POP DUP2 SWAP1 SSTORE POP PUSH2 0x4A2 JUMP JUMPDEST DUP15 DUP5 PUSH1 0x1 ADD PUSH0 DUP3 DUP3 SLOAD PUSH2 0x481 SWAP2 SWAP1 PUSH2 0x18C8 JUMP JUMPDEST SWAP3 POP POP DUP2 SWAP1 SSTORE POP DUP1 DUP5 PUSH0 ADD PUSH0 DUP3 DUP3 SLOAD PUSH2 0x49A SWAP2 SWAP1 PUSH2 0x1AE8 JUMP JUMPDEST SWAP3 POP POP DUP2 SWAP1 SSTORE POP JUMPDEST PUSH2 0x4CD DUP12 DUP3 DUP9 PUSH20 0xFFFFFFFFFFFFFFFFFFFFFFFFFFFFFFFFFFFFFFFF AND PUSH2 0xD6B SWAP1 SWAP3 SWAP2 SWAP1 PUSH4 0xFFFFFFFF AND JUMP JUMPDEST PUSH1 0x2 PUSH8 0xFFFFFFFFFFFFFFFF DUP2 GT ISZERO PUSH2 0x4E8 JUMPI PUSH2 0x4E7 PUSH2 0x1B1B JUMP JUMPDEST JUMPDEST PUSH1 0x40 MLOAD SWAP1 DUP1 DUP3 MSTORE DUP1 PUSH1 0x20 MUL PUSH1 0x20 ADD DUP3 ADD PUSH1 0x40 MSTORE DUP1 ISZERO PUSH2 0x516 JUMPI DUP2 PUSH1 0x20 ADD PUSH1 0x20 DUP3 MUL DUP1 CALLDATASIZE DUP4 CALLDATACOPY DUP1 DUP3 ADD SWAP2 POP POP SWAP1 POP JUMPDEST POP SWAP9 POP DUP15 DUP10 PUSH0 DUP2 MLOAD DUP2 LT PUSH2 0x52D JUMPI PUSH2 0x52C PUSH2 0x1A28 JUMP JUMPDEST JUMPDEST PUSH1 0x20 MUL PUSH1 0x20 ADD ADD DUP2 DUP2 MSTORE POP POP DUP1 DUP10 PUSH1 0x1 DUP2 MLOAD DUP2 LT PUSH2 0x54E JUMPI PUSH2 0x54D PUSH2 0x1A28 JUMP JUMPDEST JUMPDEST PUSH1 0x20 MUL PUSH1 0x20 ADD ADD DUP2 DUP2 MSTORE POP POP CALLER PUSH20 0xFFFFFFFFFFFFFFFFFFFFFFFFFFFFFFFFFFFFFFFF AND PUSH32 0xCD3829A3813DC3CDD188FD3D01DCF3268C16BE2FDD2DD21D0665418816E46062 DUP9 DUP9 DUP13 PUSH0 DUP2 MLOAD DUP2 LT PUSH2 0x5A7 JUMPI PUSH2 0x5A6 PUSH2 0x1A28 JUMP JUMPDEST JUMPDEST PUSH1 0x20 MUL PUSH1 0x20 ADD ADD MLOAD DUP14 PUSH1 0x1 DUP2 MLOAD DUP2 LT PUSH2 0x5C3 JUMPI PUSH2 0x5C2 PUSH2 0x1A28 JUMP JUMPDEST JUMPDEST PUSH1 0x20 MUL PUSH1 0x20 ADD ADD MLOAD PUSH1 0x40 MLOAD PUSH2 0x5DB SWAP5 SWAP4 SWAP3 SWAP2 SWAP1 PUSH2 0x1B57 JUMP JUMPDEST PUSH1 0x40 MLOAD DUP1 SWAP2 SUB SWAP1 LOG2 POP POP POP POP POP POP POP POP SWAP7 SWAP6 POP POP POP POP POP POP JUMP JUMPDEST PUSH0 PUSH0 PUSH2 0x601 DUP5 DUP5 PUSH2 0xC55 JUMP JUMPDEST SWAP1 POP PUSH0 PUSH0 PUSH0 DUP4 DUP2 MSTORE PUSH1 0x20 ADD SWAP1 DUP2 MSTORE PUSH1 0x20 ADD PUSH0 KECCAK256 SWAP1 POP PUSH0 PUSH0 DUP6 PUSH20 0xFFFFFFFFFFFFFFFFFFFFFFFFFFFFFFFFFFFFFFFF AND DUP8 PUSH20 0xFFFFFFFFFFFFFFFFFFFFFFFFFFFFFFFFFFFFFFFF AND LT PUSH2 0x659 JUMPI DUP3 PUSH1 0x1 ADD SLOAD DUP4 PUSH0 ADD SLOAD PUSH2 0x663 JUMP JUMPDEST DUP3 PUSH0 ADD SLOAD DUP4 PUSH1 0x1 ADD SLOAD JUMPDEST SWAP2 POP SWAP2 POP PUSH0 DUP3 GT DUP1 ISZERO PUSH2 0x675 JUMPI POP PUSH0 DUP2 GT JUMPDEST PUSH2 0x6B4 JUMPI PUSH1 0x40 MLOAD PUSH32 0x8C379A000000000000000000000000000000000000000000000000000000000 DUP2 MSTORE PUSH1 0x4 ADD PUSH2 0x6AB SWAP1 PUSH2 0x1BE4 JUMP JUMPDEST PUSH1 0x40 MLOAD DUP1 SWAP2 SUB SWAP1 REVERT JUMPDEST DUP2 PUSH8 0xDE0B6B3A7640000 DUP3 PUSH2 0x6C9 SWAP2 SWAP1 PUSH2 0x1887 JUMP JUMPDEST PUSH2 0x6D3 SWAP2 SWAP1 PUSH2 0x1928 JUMP JUMPDEST SWAP5 POP POP POP POP POP SWAP3 SWAP2 POP POP JUMP JUMPDEST PUSH0 PUSH0 DUP3 DUP1 TIMESTAMP GT ISZERO PUSH2 0x725 JUMPI PUSH1 0x40 MLOAD PUSH32 0x8C379A000000000000000000000000000000000000000000000000000000000 DUP2 MSTORE PUSH1 0x4 ADD PUSH2 0x71C SWAP1 PUSH2 0x19A2 JUMP JUMPDEST PUSH1 0x40 MLOAD DUP1 SWAP2 SUB SWAP1 REVERT JUMPDEST PUSH0 PUSH2 0x730 DUP12 DUP12 PUSH2 0xC55 JUMP JUMPDEST SWAP1 POP PUSH0 PUSH0 PUSH0 DUP4 DUP2 MSTORE PUSH1 0x20 ADD SWAP1 DUP2 MSTORE PUSH1 0x20 ADD PUSH0 KECCAK256 SWAP1 POP DUP10 DUP2 PUSH1 0x3 ADD PUSH0 CALLER PUSH20 0xFFFFFFFFFFFFFFFFFFFFFFFFFFFFFFFFFFFFFFFF AND PUSH20 0xFFFFFFFFFFFFFFFFFFFFFFFFFFFFFFFFFFFFFFFF AND DUP2 MSTORE PUSH1 0x20 ADD SWAP1 DUP2 MSTORE PUSH1 0x20 ADD PUSH0 KECCAK256 SLOAD LT ISZERO PUSH2 0x7C7 JUMPI PUSH1 0x40 MLOAD PUSH32 0x8C379A000000000000000000000000000000000000000000000000000000000 DUP2 MSTORE PUSH1 0x4 ADD PUSH2 0x7BE SWAP1 PUSH2 0x183C JUMP JUMPDEST PUSH1 0x40 MLOAD DUP1 SWAP2 SUB SWAP1 REVERT JUMPDEST DUP1 PUSH1 0x2 ADD SLOAD DUP2 PUSH0 ADD SLOAD DUP12 PUSH2 0x7DB SWAP2 SWAP1 PUSH2 0x1887 JUMP JUMPDEST PUSH2 0x7E5 SWAP2 SWAP1 PUSH2 0x1928 JUMP JUMPDEST SWAP5 POP DUP1 PUSH1 0x2 ADD SLOAD DUP2 PUSH1 0x1 ADD SLOAD DUP12 PUSH2 0x7FC SWAP2 SWAP1 PUSH2 0x1887 JUMP JUMPDEST PUSH2 0x806 SWAP2 SWAP1 PUSH2 0x1928 JUMP JUMPDEST SWAP4 POP DUP9 DUP6 LT ISZERO PUSH2 0x84B JUMPI PUSH1 0x40 MLOAD PUSH32 0x8C379A000000000000000000000000000000000000000000000000000000000 DUP2 MSTORE PUSH1 0x4 ADD PUSH2 0x842 SWAP1 PUSH2 0x1C4C JUMP JUMPDEST PUSH1 0x40 MLOAD DUP1 SWAP2 SUB SWAP1 REVERT JUMPDEST DUP8 DUP5 LT ISZERO PUSH2 0x88E JUMPI PUSH1 0x40 MLOAD PUSH32 0x8C379A000000000000000000000000000000000000000000000000000000000 DUP2 MSTORE PUSH1 0x4 ADD PUSH2 0x885 SWAP1 PUSH2 0x1CB4 JUMP JUMPDEST PUSH1 0x40 MLOAD DUP1 SWAP2 SUB SWAP1 REVERT JUMPDEST DUP5 DUP2 PUSH0 ADD PUSH0 DUP3 DUP3 SLOAD PUSH2 0x8A0 SWAP2 SWAP1 PUSH2 0x1AE8 JUMP JUMPDEST SWAP3 POP POP DUP2 SWAP1 SSTORE POP DUP4 DUP2 PUSH1 0x1 ADD PUSH0 DUP3 DUP3 SLOAD PUSH2 0x8BA SWAP2 SWAP1 PUSH2 0x1AE8 JUMP JUMPDEST SWAP3 POP POP DUP2 SWAP1 SSTORE POP DUP10 DUP2 PUSH1 0x2 ADD PUSH0 DUP3 DUP3 SLOAD PUSH2 0x8D4 SWAP2 SWAP1 PUSH2 0x1AE8 JUMP JUMPDEST SWAP3 POP POP DUP2 SWAP1 SSTORE POP DUP10 DUP2 PUSH1 0x3 ADD PUSH0 CALLER PUSH20 0xFFFFFFFFFFFFFFFFFFFFFFFFFFFFFFFFFFFFFFFF AND PUSH20 0xFFFFFFFFFFFFFFFFFFFFFFFFFFFFFFFFFFFFFFFF AND DUP2 MSTORE PUSH1 0x20 ADD SWAP1 DUP2 MSTORE PUSH1 0x20 ADD PUSH0 KECCAK256 PUSH0 DUP3 DUP3 SLOAD PUSH2 0x929 SWAP2 SWAP1 PUSH2 0x1AE8 JUMP JUMPDEST SWAP3 POP POP DUP2 SWAP1 SSTORE POP PUSH2 0x95B DUP8 DUP7 DUP15 PUSH20 0xFFFFFFFFFFFFFFFFFFFFFFFFFFFFFFFFFFFFFFFF AND PUSH2 0xD6B SWAP1 SWAP3 SWAP2 SWAP1 PUSH4 0xFFFFFFFF AND JUMP JUMPDEST PUSH2 0x986 DUP8 DUP6 DUP14 PUSH20 0xFFFFFFFFFFFFFFFFFFFFFFFFFFFFFFFFFFFFFFFF AND PUSH2 0xD6B SWAP1 SWAP3 SWAP2 SWAP1 PUSH4 0xFFFFFFFF AND JUMP JUMPDEST CALLER PUSH20 0xFFFFFFFFFFFFFFFFFFFFFFFFFFFFFFFFFFFFFFFF AND PUSH32 0xD765E08EEF31C0983ECCA03ECD166297AC485ECD5DD69E291C848F0A020333C1 DUP14 DUP14 DUP9 DUP9 DUP16 PUSH1 0x40 MLOAD PUSH2 0x9D4 SWAP6 SWAP5 SWAP4 SWAP3 SWAP2 SWAP1 PUSH2 0x1CD2 JUMP JUMPDEST PUSH1 0x40 MLOAD DUP1 SWAP2 SUB SWAP1 LOG2 POP POP POP SWAP8 POP SWAP8 SWAP6 POP POP POP POP POP POP JUMP JUMPDEST PUSH0 PUSH0 PUSH0 DUP4 DUP1 TIMESTAMP GT ISZERO PUSH2 0xA32 JUMPI PUSH1 0x40 MLOAD PUSH32 0x8C379A000000000000000000000000000000000000000000000000000000000 DUP2 MSTORE PUSH1 0x4 ADD PUSH2 0xA29 SWAP1 PUSH2 0x19A2 JUMP JUMPDEST PUSH1 0x40 MLOAD DUP1 SWAP2 SUB SWAP1 REVERT JUMPDEST DUP11 PUSH20 0xFFFFFFFFFFFFFFFFFFFFFFFFFFFFFFFFFFFFFFFF AND DUP13 PUSH20 0xFFFFFFFFFFFFFFFFFFFFFFFFFFFFFFFFFFFFFFFF AND SUB PUSH2 0xAA0 JUMPI PUSH1 0x40 MLOAD PUSH32 0x8C379A000000000000000000000000000000000000000000000000000000000 DUP2 MSTORE PUSH1 0x4 ADD PUSH2 0xA97 SWAP1 PUSH2 0x1D6D JUMP JUMPDEST PUSH1 0x40 MLOAD DUP1 SWAP2 SUB SWAP1 REVERT JUMPDEST PUSH0 PUSH2 0xAAB DUP14 DUP14 PUSH2 0xC55 JUMP JUMPDEST SWAP1 POP PUSH0 PUSH0 PUSH0 DUP4 DUP2 MSTORE PUSH1 0x20 ADD SWAP1 DUP2 MSTORE PUSH1 0x20 ADD PUSH0 KECCAK256 SWAP1 POP PUSH2 0xADC DUP15 DUP15 DUP15 DUP15 DUP15 DUP15 DUP8 PUSH0 ADD SLOAD DUP9 PUSH1 0x1 ADD SLOAD DUP10 PUSH1 0x2 ADD SLOAD PUSH2 0xDEA JUMP JUMPDEST DUP1 SWAP7 POP DUP2 SWAP8 POP POP POP PUSH2 0xAF0 DUP15 DUP15 DUP9 DUP9 PUSH2 0xF39 JUMP JUMPDEST PUSH2 0xB08 DUP7 DUP7 DUP4 PUSH0 ADD SLOAD DUP5 PUSH1 0x1 ADD SLOAD DUP6 PUSH1 0x2 ADD SLOAD PUSH2 0xF99 JUMP JUMPDEST SWAP4 POP PUSH0 DUP5 GT PUSH2 0xB4C JUMPI PUSH1 0x40 MLOAD PUSH32 0x8C379A000000000000000000000000000000000000000000000000000000000 DUP2 MSTORE PUSH1 0x4 ADD PUSH2 0xB43 SWAP1 PUSH2 0x1DD5 JUMP JUMPDEST PUSH1 0x40 MLOAD DUP1 SWAP2 SUB SWAP1 REVERT JUMPDEST DUP6 DUP2 PUSH0 ADD PUSH0 DUP3 DUP3 SLOAD PUSH2 0xB5E SWAP2 SWAP1 PUSH2 0x18C8 JUMP JUMPDEST SWAP3 POP POP DUP2 SWAP1 SSTORE POP DUP5 DUP2 PUSH1 0x1 ADD PUSH0 DUP3 DUP3 SLOAD PUSH2 0xB78 SWAP2 SWAP1 PUSH2 0x18C8 JUMP JUMPDEST SWAP3 POP POP DUP2 SWAP1 SSTORE POP DUP4 DUP2 PUSH1 0x2 ADD PUSH0 DUP3 DUP3 SLOAD PUSH2 0xB92 SWAP2 SWAP1 PUSH2 0x18C8 JUMP JUMPDEST SWAP3 POP POP DUP2 SWAP1 SSTORE POP DUP4 DUP2 PUSH1 0x3 ADD PUSH0 DUP11 PUSH20 0xFFFFFFFFFFFFFFFFFFFFFFFFFFFFFFFFFFFFFFFF AND PUSH20 0xFFFFFFFFFFFFFFFFFFFFFFFFFFFFFFFFFFFFFFFF AND DUP2 MSTORE PUSH1 0x20 ADD SWAP1 DUP2 MSTORE PUSH1 0x20 ADD PUSH0 KECCAK256 PUSH0 DUP3 DUP3 SLOAD PUSH2 0xBE7 SWAP2 SWAP1 PUSH2 0x18C8 JUMP JUMPDEST SWAP3 POP POP DUP2 SWAP1 SSTORE POP CALLER PUSH20 0xFFFFFFFFFFFFFFFFFFFFFFFFFFFFFFFFFFFFFFFF AND PUSH32 0x43C967B388D3A4CCAD3F7AB80167852E322E5A3FDE9893F530252281B2AE8B70 DUP16 DUP16 DUP10 DUP10 DUP10 PUSH1 0x40 MLOAD PUSH2 0xC3C SWAP6 SWAP5 SWAP4 SWAP3 SWAP2 SWAP1 PUSH2 0x1CD2 JUMP JUMPDEST PUSH1 0x40 MLOAD DUP1 SWAP2 SUB SWAP1 LOG2 POP POP POP SWAP9 POP SWAP9 POP SWAP9 SWAP6 POP POP POP POP POP POP JUMP JUMPDEST PUSH0 DUP2 PUSH20 0xFFFFFFFFFFFFFFFFFFFFFFFFFFFFFFFFFFFFFFFF AND DUP4 PUSH20 0xFFFFFFFFFFFFFFFFFFFFFFFFFFFFFFFFFFFFFFFF AND LT PUSH2 0xCB7 JUMPI DUP2 DUP4 PUSH1 0x40 MLOAD PUSH1 0x20 ADD PUSH2 0xC9C SWAP3 SWAP2 SWAP1 PUSH2 0x1E38 JUMP JUMPDEST PUSH1 0x40 MLOAD PUSH1 0x20 DUP2 DUP4 SUB SUB DUP2 MSTORE SWAP1 PUSH1 0x40 MSTORE DUP1 MLOAD SWAP1 PUSH1 0x20 ADD KECCAK256 PUSH2 0xCE1 JUMP JUMPDEST DUP3 DUP3 PUSH1 0x40 MLOAD PUSH1 0x20 ADD PUSH2 0xCCA SWAP3 SWAP2 SWAP1 PUSH2 0x1E38 JUMP JUMPDEST PUSH1 0x40 MLOAD PUSH1 0x20 DUP2 DUP4 SUB SUB DUP2 MSTORE SWAP1 PUSH1 0x40 MSTORE DUP1 MLOAD SWAP1 PUSH1 0x20 ADD KECCAK256 JUMPDEST SWAP1 POP SWAP3 SWAP2 POP POP JUMP JUMPDEST PUSH2 0xD65 DUP5 DUP6 PUSH20 0xFFFFFFFFFFFFFFFFFFFFFFFFFFFFFFFFFFFFFFFF AND PUSH4 0x23B872DD DUP7 DUP7 DUP7 PUSH1 0x40 MLOAD PUSH1 0x24 ADD PUSH2 0xD1E SWAP4 SWAP3 SWAP2 SWAP1 PUSH2 0x1E63 JUMP JUMPDEST PUSH1 0x40 MLOAD PUSH1 0x20 DUP2 DUP4 SUB SUB DUP2 MSTORE SWAP1 PUSH1 0x40 MSTORE SWAP2 POP PUSH1 0xE0 SHL PUSH1 0x20 DUP3 ADD DUP1 MLOAD PUSH28 0xFFFFFFFFFFFFFFFFFFFFFFFFFFFFFFFFFFFFFFFFFFFFFFFFFFFFFFFF DUP4 DUP2 DUP4 AND OR DUP4 MSTORE POP POP POP POP PUSH2 0xFFE JUMP JUMPDEST POP POP POP POP JUMP JUMPDEST PUSH2 0xDE5 DUP4 DUP5 PUSH20 0xFFFFFFFFFFFFFFFFFFFFFFFFFFFFFFFFFFFFFFFF AND PUSH4 0xA9059CBB DUP6 DUP6 PUSH1 0x40 MLOAD PUSH1 0x24 ADD PUSH2 0xD9E SWAP3 SWAP2 SWAP1 PUSH2 0x1E98 JUMP JUMPDEST PUSH1 0x40 MLOAD PUSH1 0x20 DUP2 DUP4 SUB SUB DUP2 MSTORE SWAP1 PUSH1 0x40 MSTORE SWAP2 POP PUSH1 0xE0 SHL PUSH1 0x20 DUP3 ADD DUP1 MLOAD PUSH28 0xFFFFFFFFFFFFFFFFFFFFFFFFFFFFFFFFFFFFFFFFFFFFFFFFFFFFFFFF DUP4 DUP2 DUP4 AND OR DUP4 MSTORE POP POP POP POP PUSH2 0xFFE JUMP JUMPDEST POP POP POP JUMP JUMPDEST PUSH0 PUSH0 PUSH0 DUP4 SUB PUSH2 0xDFE JUMPI DUP9 DUP9 SWAP2 POP SWAP2 POP PUSH2 0xF2B JUMP JUMPDEST PUSH0 PUSH2 0xE09 DUP13 DUP13 PUSH2 0x1099 JUMP JUMPDEST POP SWAP1 POP PUSH0 PUSH0 DUP3 PUSH20 0xFFFFFFFFFFFFFFFFFFFFFFFFFFFFFFFFFFFFFFFF AND DUP15 PUSH20 0xFFFFFFFFFFFFFFFFFFFFFFFFFFFFFFFFFFFFFFFF AND EQ PUSH2 0xE48 JUMPI DUP7 DUP9 PUSH2 0xE4B JUMP JUMPDEST DUP8 DUP8 JUMPDEST SWAP2 POP SWAP2 POP PUSH0 DUP3 DUP3 DUP15 PUSH2 0xE5D SWAP2 SWAP1 PUSH2 0x1887 JUMP JUMPDEST PUSH2 0xE67 SWAP2 SWAP1 PUSH2 0x1928 JUMP JUMPDEST SWAP1 POP DUP12 DUP2 GT PUSH2 0xEC2 JUMPI DUP10 DUP2 LT ISZERO PUSH2 0xEB3 JUMPI PUSH1 0x40 MLOAD PUSH32 0x8C379A000000000000000000000000000000000000000000000000000000000 DUP2 MSTORE PUSH1 0x4 ADD PUSH2 0xEAA SWAP1 PUSH2 0x1CB4 JUMP JUMPDEST PUSH1 0x40 MLOAD DUP1 SWAP2 SUB SWAP1 REVERT JUMPDEST DUP13 DUP2 SWAP6 POP SWAP6 POP POP POP POP POP PUSH2 0xF2B JUMP JUMPDEST PUSH0 DUP3 DUP5 DUP15 PUSH2 0xED0 SWAP2 SWAP1 PUSH2 0x1887 JUMP JUMPDEST PUSH2 0xEDA SWAP2 SWAP1 PUSH2 0x1928 JUMP JUMPDEST SWAP1 POP DUP12 DUP2 LT ISZERO PUSH2 0xF1F JUMPI PUSH1 0x40 MLOAD PUSH32 0x8C379A000000000000000000000000000000000000000000000000000000000 DUP2 MSTORE PUSH1 0x4 ADD PUSH2 0xF16 SWAP1 PUSH2 0x1C4C JUMP JUMPDEST PUSH1 0x40 MLOAD DUP1 SWAP2 SUB SWAP1 REVERT JUMPDEST DUP1 DUP14 SWAP7 POP SWAP7 POP POP POP POP POP POP JUMPDEST SWAP10 POP SWAP10 SWAP8 POP POP POP POP POP POP POP POP JUMP JUMPDEST PUSH2 0xF66 CALLER ADDRESS DUP5 DUP8 PUSH20 0xFFFFFFFFFFFFFFFFFFFFFFFFFFFFFFFFFFFFFFFF AND PUSH2 0xCE9 SWAP1 SWAP4 SWAP3 SWAP2 SWAP1 PUSH4 0xFFFFFFFF AND JUMP JUMPDEST PUSH2 0xF93 CALLER ADDRESS DUP4 DUP7 PUSH20 0xFFFFFFFFFFFFFFFFFFFFFFFFFFFFFFFFFFFFFFFF AND PUSH2 0xCE9 SWAP1 SWAP4 SWAP3 SWAP2 SWAP1 PUSH4 0xFFFFFFFF AND JUMP JUMPDEST POP POP POP POP JUMP JUMPDEST PUSH0 PUSH0 DUP3 SUB PUSH2 0xFBC JUMPI PUSH2 0xFB5 DUP6 DUP8 PUSH2 0xFB0 SWAP2 SWAP1 PUSH2 0x1887 JUMP JUMPDEST PUSH2 0x10E3 JUMP JUMPDEST SWAP1 POP PUSH2 0xFF5 JUMP JUMPDEST PUSH2 0xFF2 DUP5 DUP4 DUP9 PUSH2 0xFCC SWAP2 SWAP1 PUSH2 0x1887 JUMP JUMPDEST PUSH2 0xFD6 SWAP2 SWAP1 PUSH2 0x1928 JUMP JUMPDEST DUP5 DUP5 DUP9 PUSH2 0xFE3 SWAP2 SWAP1 PUSH2 0x1887 JUMP JUMPDEST PUSH2 0xFED SWAP2 SWAP1 PUSH2 0x1928 JUMP JUMPDEST PUSH2 0x127D JUMP JUMPDEST SWAP1 POP JUMPDEST SWAP6 SWAP5 POP POP POP POP POP JUMP JUMPDEST PUSH0 PUSH0 PUSH1 0x20 PUSH0 DUP5 MLOAD PUSH1 0x20 DUP7 ADD PUSH0 DUP9 GAS CALL DUP1 PUSH2 0x101D JUMPI PUSH1 0x40 MLOAD RETURNDATASIZE PUSH0 DUP3 RETURNDATACOPY RETURNDATASIZE DUP2 REVERT JUMPDEST RETURNDATASIZE SWAP3 POP PUSH0 MLOAD SWAP2 POP POP PUSH0 DUP3 EQ PUSH2 0x1036 JUMPI PUSH1 0x1 DUP2 EQ ISZERO PUSH2 0x1051 JUMP JUMPDEST PUSH0 DUP5 PUSH20 0xFFFFFFFFFFFFFFFFFFFFFFFFFFFFFFFFFFFFFFFF AND EXTCODESIZE EQ JUMPDEST ISZERO PUSH2 0x1093 JUMPI DUP4 PUSH1 0x40 MLOAD PUSH32 0x5274AFE700000000000000000000000000000000000000000000000000000000 DUP2 MSTORE PUSH1 0x4 ADD PUSH2 0x108A SWAP2 SWAP1 PUSH2 0x1EBF JUMP JUMPDEST PUSH1 0x40 MLOAD DUP1 SWAP2 SUB SWAP1 REVERT JUMPDEST POP POP POP POP JUMP JUMPDEST PUSH0 PUSH0 DUP3 PUSH20 0xFFFFFFFFFFFFFFFFFFFFFFFFFFFFFFFFFFFFFFFF AND DUP5 PUSH20 0xFFFFFFFFFFFFFFFFFFFFFFFFFFFFFFFFFFFFFFFF AND LT PUSH2 0x10D5 JUMPI DUP3 DUP5 PUSH2 0x10D8 JUMP JUMPDEST DUP4 DUP4 JUMPDEST SWAP2 POP SWAP2 POP SWAP3 POP SWAP3 SWAP1 POP JUMP JUMPDEST PUSH0 PUSH1 0x1 DUP3 GT PUSH2 0x10F4 JUMPI DUP2 SWAP1 POP PUSH2 0x1278 JUMP JUMPDEST PUSH0 DUP3 SWAP1 POP PUSH0 PUSH1 0x1 SWAP1 POP PUSH17 0x100000000000000000000000000000000 DUP3 LT PUSH2 0x1124 JUMPI PUSH1 0x80 DUP3 SWAP1 SHR SWAP2 POP PUSH1 0x40 DUP2 SWAP1 SHL SWAP1 POP JUMPDEST PUSH9 0x10000000000000000 DUP3 LT PUSH2 0x1143 JUMPI PUSH1 0x40 DUP3 SWAP1 SHR SWAP2 POP PUSH1 0x20 DUP2 SWAP1 SHL SWAP1 POP JUMPDEST PUSH5 0x100000000 DUP3 LT PUSH2 0x115E JUMPI PUSH1 0x20 DUP3 SWAP1 SHR SWAP2 POP PUSH1 0x10 DUP2 SWAP1 SHL SWAP1 POP JUMPDEST PUSH3 0x10000 DUP3 LT PUSH2 0x1177 JUMPI PUSH1 0x10 DUP3 SWAP1 SHR SWAP2 POP PUSH1 0x8 DUP2 SWAP1 SHL SWAP1 POP JUMPDEST PUSH2 0x100 DUP3 LT PUSH2 0x118F JUMPI PUSH1 0x8 DUP3 SWAP1 SHR SWAP2 POP PUSH1 0x4 DUP2 SWAP1 SHL SWAP1 POP JUMPDEST PUSH1 0x10 DUP3 LT PUSH2 0x11A6 JUMPI PUSH1 0x4 DUP3 SWAP1 SHR SWAP2 POP PUSH1 0x2 DUP2 SWAP1 SHL SWAP1 POP JUMPDEST PUSH1 0x4 DUP3 LT PUSH2 0x11B6 JUMPI PUSH1 0x1 DUP2 SWAP1 SHL SWAP1 POP JUMPDEST PUSH1 0x1 DUP2 PUSH1 0x3 MUL SWAP1 SHR SWAP1 POP PUSH1 0x1 DUP2 DUP6 DUP2 PUSH2 0x11D2 JUMPI PUSH2 0x11D1 PUSH2 0x18FB JUMP JUMPDEST JUMPDEST DIV DUP3 ADD SWAP1 SHR SWAP1 POP PUSH1 0x1 DUP2 DUP6 DUP2 PUSH2 0x11EB JUMPI PUSH2 0x11EA PUSH2 0x18FB JUMP JUMPDEST JUMPDEST DIV DUP3 ADD SWAP1 SHR SWAP1 POP PUSH1 0x1 DUP2 DUP6 DUP2 PUSH2 0x1204 JUMPI PUSH2 0x1203 PUSH2 0x18FB JUMP JUMPDEST JUMPDEST DIV DUP3 ADD SWAP1 SHR SWAP1 POP PUSH1 0x1 DUP2 DUP6 DUP2 PUSH2 0x121D JUMPI PUSH2 0x121C PUSH2 0x18FB JUMP JUMPDEST JUMPDEST DIV DUP3 ADD SWAP1 SHR SWAP1 POP PUSH1 0x1 DUP2 DUP6 DUP2 PUSH2 0x1236 JUMPI PUSH2 0x1235 PUSH2 0x18FB JUMP JUMPDEST JUMPDEST DIV DUP3 ADD SWAP1 SHR SWAP1 POP PUSH1 0x1 DUP2 DUP6 DUP2 PUSH2 0x124F JUMPI PUSH2 0x124E PUSH2 0x18FB JUMP JUMPDEST JUMPDEST DIV DUP3 ADD SWAP1 SHR SWAP1 POP PUSH2 0x1271 DUP2 DUP6 DUP2 PUSH2 0x1269 JUMPI PUSH2 0x1268 PUSH2 0x18FB JUMP JUMPDEST JUMPDEST DIV DUP3 GT PUSH2 0x1293 JUMP JUMPDEST DUP2 SUB SWAP3 POP POP POP JUMPDEST SWAP2 SWAP1 POP JUMP JUMPDEST PUSH0 PUSH2 0x128B DUP3 DUP5 LT DUP5 DUP5 PUSH2 0x129E JUMP JUMPDEST SWAP1 POP SWAP3 SWAP2 POP POP JUMP JUMPDEST PUSH0 DUP2 ISZERO ISZERO SWAP1 POP SWAP2 SWAP1 POP JUMP JUMPDEST PUSH0 PUSH2 0x12A8 DUP5 PUSH2 0x1293 JUMP JUMPDEST DUP3 DUP5 XOR MUL DUP3 XOR SWAP1 POP SWAP4 SWAP3 POP POP POP JUMP JUMPDEST PUSH0 PUSH0 REVERT JUMPDEST PUSH0 PUSH0 REVERT JUMPDEST PUSH0 DUP2 SWAP1 POP SWAP2 SWAP1 POP JUMP JUMPDEST PUSH2 0x12D1 DUP2 PUSH2 0x12BF JUMP JUMPDEST DUP2 EQ PUSH2 0x12DB JUMPI PUSH0 PUSH0 REVERT JUMPDEST POP JUMP JUMPDEST PUSH0 DUP2 CALLDATALOAD SWAP1 POP PUSH2 0x12EC DUP2 PUSH2 0x12C8 JUMP JUMPDEST SWAP3 SWAP2 POP POP JUMP JUMPDEST PUSH0 PUSH0 PUSH0 PUSH1 0x60 DUP5 DUP7 SUB SLT ISZERO PUSH2 0x1309 JUMPI PUSH2 0x1308 PUSH2 0x12B7 JUMP JUMPDEST JUMPDEST PUSH0 PUSH2 0x1316 DUP7 DUP3 DUP8 ADD PUSH2 0x12DE JUMP JUMPDEST SWAP4 POP POP PUSH1 0x20 PUSH2 0x1327 DUP7 DUP3 DUP8 ADD PUSH2 0x12DE JUMP JUMPDEST SWAP3 POP POP PUSH1 0x40 PUSH2 0x1338 DUP7 DUP3 DUP8 ADD PUSH2 0x12DE JUMP JUMPDEST SWAP2 POP POP SWAP3 POP SWAP3 POP SWAP3 JUMP JUMPDEST PUSH2 0x134B DUP2 PUSH2 0x12BF JUMP JUMPDEST DUP3 MSTORE POP POP JUMP JUMPDEST PUSH0 PUSH1 0x20 DUP3 ADD SWAP1 POP PUSH2 0x1364 PUSH0 DUP4 ADD DUP5 PUSH2 0x1342 JUMP JUMPDEST SWAP3 SWAP2 POP POP JUMP JUMPDEST PUSH0 PUSH0 REVERT JUMPDEST PUSH0 PUSH0 REVERT JUMPDEST PUSH0 PUSH0 REVERT JUMPDEST PUSH0 PUSH0 DUP4 PUSH1 0x1F DUP5 ADD SLT PUSH2 0x138B JUMPI PUSH2 0x138A PUSH2 0x136A JUMP JUMPDEST JUMPDEST DUP3 CALLDATALOAD SWAP1 POP PUSH8 0xFFFFFFFFFFFFFFFF DUP2 GT ISZERO PUSH2 0x13A8 JUMPI PUSH2 0x13A7 PUSH2 0x136E JUMP JUMPDEST JUMPDEST PUSH1 0x20 DUP4 ADD SWAP2 POP DUP4 PUSH1 0x20 DUP3 MUL DUP4 ADD GT ISZERO PUSH2 0x13C4 JUMPI PUSH2 0x13C3 PUSH2 0x1372 JUMP JUMPDEST JUMPDEST SWAP3 POP SWAP3 SWAP1 POP JUMP JUMPDEST PUSH0 PUSH20 0xFFFFFFFFFFFFFFFFFFFFFFFFFFFFFFFFFFFFFFFF DUP3 AND SWAP1 POP SWAP2 SWAP1 POP JUMP JUMPDEST PUSH0 PUSH2 0x13F4 DUP3 PUSH2 0x13CB JUMP JUMPDEST SWAP1 POP SWAP2 SWAP1 POP JUMP JUMPDEST PUSH2 0x1404 DUP2 PUSH2 0x13EA JUMP JUMPDEST DUP2 EQ PUSH2 0x140E JUMPI PUSH0 PUSH0 REVERT JUMPDEST POP JUMP JUMPDEST PUSH0 DUP2 CALLDATALOAD SWAP1 POP PUSH2 0x141F DUP2 PUSH2 0x13FB JUMP JUMPDEST SWAP3 SWAP2 POP POP JUMP JUMPDEST PUSH0 PUSH0 PUSH0 PUSH0 PUSH0 PUSH0 PUSH1 0xA0 DUP8 DUP10 SUB SLT ISZERO PUSH2 0x143F JUMPI PUSH2 0x143E PUSH2 0x12B7 JUMP JUMPDEST JUMPDEST PUSH0 PUSH2 0x144C DUP10 DUP3 DUP11 ADD PUSH2 0x12DE JUMP JUMPDEST SWAP7 POP POP PUSH1 0x20 PUSH2 0x145D DUP10 DUP3 DUP11 ADD PUSH2 0x12DE JUMP JUMPDEST SWAP6 POP POP PUSH1 0x40 DUP8 ADD CALLDATALOAD PUSH8 0xFFFFFFFFFFFFFFFF DUP2 GT ISZERO PUSH2 0x147E JUMPI PUSH2 0x147D PUSH2 0x12BB JUMP JUMPDEST JUMPDEST PUSH2 0x148A DUP10 DUP3 DUP11 ADD PUSH2 0x1376 JUMP JUMPDEST SWAP5 POP SWAP5 POP POP PUSH1 0x60 PUSH2 0x149D DUP10 DUP3 DUP11 ADD PUSH2 0x1411 JUMP JUMPDEST SWAP3 POP POP PUSH1 0x80 PUSH2 0x14AE DUP10 DUP3 DUP11 ADD PUSH2 0x12DE JUMP JUMPDEST SWAP2 POP POP SWAP3 SWAP6 POP SWAP3 SWAP6 POP SWAP3 SWAP6 JUMP JUMPDEST PUSH0 DUP2 MLOAD SWAP1 POP SWAP2 SWAP1 POP JUMP JUMPDEST PUSH0 DUP3 DUP3 MSTORE PUSH1 0x20 DUP3 ADD SWAP1 POP SWAP3 SWAP2 POP POP JUMP JUMPDEST PUSH0 DUP2 SWAP1 POP PUSH1 0x20 DUP3 ADD SWAP1 POP SWAP2 SWAP1 POP JUMP JUMPDEST PUSH2 0x14ED DUP2 PUSH2 0x12BF JUMP JUMPDEST DUP3 MSTORE POP POP JUMP JUMPDEST PUSH0 PUSH2 0x14FE DUP4 DUP4 PUSH2 0x14E4 JUMP JUMPDEST PUSH1 0x20 DUP4 ADD SWAP1 POP SWAP3 SWAP2 POP POP JUMP JUMPDEST PUSH0 PUSH1 0x20 DUP3 ADD SWAP1 POP SWAP2 SWAP1 POP JUMP JUMPDEST PUSH0 PUSH2 0x1520 DUP3 PUSH2 0x14BB JUMP JUMPDEST PUSH2 0x152A DUP2 DUP6 PUSH2 0x14C5 JUMP JUMPDEST SWAP4 POP PUSH2 0x1535 DUP4 PUSH2 0x14D5 JUMP JUMPDEST DUP1 PUSH0 JUMPDEST DUP4 DUP2 LT ISZERO PUSH2 0x1565 JUMPI DUP2 MLOAD PUSH2 0x154C DUP9 DUP3 PUSH2 0x14F3 JUMP JUMPDEST SWAP8 POP PUSH2 0x1557 DUP4 PUSH2 0x150A JUMP JUMPDEST SWAP3 POP POP PUSH1 0x1 DUP2 ADD SWAP1 POP PUSH2 0x1538 JUMP JUMPDEST POP DUP6 SWAP4 POP POP POP POP SWAP3 SWAP2 POP POP JUMP JUMPDEST PUSH0 PUSH1 0x20 DUP3 ADD SWAP1 POP DUP2 DUP2 SUB PUSH0 DUP4 ADD MSTORE PUSH2 0x158A DUP2 DUP5 PUSH2 0x1516 JUMP JUMPDEST SWAP1 POP SWAP3 SWAP2 POP POP JUMP JUMPDEST PUSH0 PUSH0 PUSH1 0x40 DUP4 DUP6 SUB SLT ISZERO PUSH2 0x15A8 JUMPI PUSH2 0x15A7 PUSH2 0x12B7 JUMP JUMPDEST JUMPDEST PUSH0 PUSH2 0x15B5 DUP6 DUP3 DUP7 ADD PUSH2 0x1411 JUMP JUMPDEST SWAP3 POP POP PUSH1 0x20 PUSH2 0x15C6 DUP6 DUP3 DUP7 ADD PUSH2 0x1411 JUMP JUMPDEST SWAP2 POP POP SWAP3 POP SWAP3 SWAP1 POP JUMP JUMPDEST PUSH0 PUSH0 PUSH0 PUSH0 PUSH0 PUSH0 PUSH0 PUSH1 0xE0 DUP9 DUP11 SUB SLT ISZERO PUSH2 0x15EB JUMPI PUSH2 0x15EA PUSH2 0x12B7 JUMP JUMPDEST JUMPDEST PUSH0 PUSH2 0x15F8 DUP11 DUP3 DUP12 ADD PUSH2 0x1411 JUMP JUMPDEST SWAP8 POP POP PUSH1 0x20 PUSH2 0x1609 DUP11 DUP3 DUP12 ADD PUSH2 0x1411 JUMP JUMPDEST SWAP7 POP POP PUSH1 0x40 PUSH2 0x161A DUP11 DUP3 DUP12 ADD PUSH2 0x12DE JUMP JUMPDEST SWAP6 POP POP PUSH1 0x60 PUSH2 0x162B DUP11 DUP3 DUP12 ADD PUSH2 0x12DE JUMP JUMPDEST SWAP5 POP POP PUSH1 0x80 PUSH2 0x163C DUP11 DUP3 DUP12 ADD PUSH2 0x12DE JUMP JUMPDEST SWAP4 POP POP PUSH1 0xA0 PUSH2 0x164D DUP11 DUP3 DUP12 ADD PUSH2 0x1411 JUMP JUMPDEST SWAP3 POP POP PUSH1 0xC0 PUSH2 0x165E DUP11 DUP3 DUP12 ADD PUSH2 0x12DE JUMP JUMPDEST SWAP2 POP POP SWAP3 SWAP6 SWAP9 SWAP2 SWAP5 SWAP8 POP SWAP3 SWAP6 POP JUMP JUMPDEST PUSH0 PUSH1 0x40 DUP3 ADD SWAP1 POP PUSH2 0x1680 PUSH0 DUP4 ADD DUP6 PUSH2 0x1342 JUMP JUMPDEST PUSH2 0x168D PUSH1 0x20 DUP4 ADD DUP5 PUSH2 0x1342 JUMP JUMPDEST SWAP4 SWAP3 POP POP POP JUMP JUMPDEST PUSH0 PUSH0 PUSH0 PUSH0 PUSH0 PUSH0 PUSH0 PUSH0 PUSH2 0x100 DUP10 DUP12 SUB SLT ISZERO PUSH2 0x16B1 JUMPI PUSH2 0x16B0 PUSH2 0x12B7 JUMP JUMPDEST JUMPDEST PUSH0 PUSH2 0x16BE DUP12 DUP3 DUP13 ADD PUSH2 0x1411 JUMP JUMPDEST SWAP9 POP POP PUSH1 0x20 PUSH2 0x16CF DUP12 DUP3 DUP13 ADD PUSH2 0x1411 JUMP JUMPDEST SWAP8 POP POP PUSH1 0x40 PUSH2 0x16E0 DUP12 DUP3 DUP13 ADD PUSH2 0x12DE JUMP JUMPDEST SWAP7 POP POP PUSH1 0x60 PUSH2 0x16F1 DUP12 DUP3 DUP13 ADD PUSH2 0x12DE JUMP JUMPDEST SWAP6 POP POP PUSH1 0x80 PUSH2 0x1702 DUP12 DUP3 DUP13 ADD PUSH2 0x12DE JUMP JUMPDEST SWAP5 POP POP PUSH1 0xA0 PUSH2 0x1713 DUP12 DUP3 DUP13 ADD PUSH2 0x12DE JUMP JUMPDEST SWAP4 POP POP PUSH1 0xC0 PUSH2 0x1724 DUP12 DUP3 DUP13 ADD PUSH2 0x1411 JUMP JUMPDEST SWAP3 POP POP PUSH1 0xE0 PUSH2 0x1735 DUP12 DUP3 DUP13 ADD PUSH2 0x12DE JUMP JUMPDEST SWAP2 POP POP SWAP3 SWAP6 SWAP9 POP SWAP3 SWAP6 SWAP9 SWAP1 SWAP4 SWAP7 POP JUMP JUMPDEST PUSH0 PUSH1 0x60 DUP3 ADD SWAP1 POP PUSH2 0x1758 PUSH0 DUP4 ADD DUP7 PUSH2 0x1342 JUMP JUMPDEST PUSH2 0x1765 PUSH1 0x20 DUP4 ADD DUP6 PUSH2 0x1342 JUMP JUMPDEST PUSH2 0x1772 PUSH1 0x40 DUP4 ADD DUP5 PUSH2 0x1342 JUMP JUMPDEST SWAP5 SWAP4 POP POP POP POP JUMP JUMPDEST PUSH0 DUP3 DUP3 MSTORE PUSH1 0x20 DUP3 ADD SWAP1 POP SWAP3 SWAP2 POP POP JUMP JUMPDEST PUSH32 0x496E73756666696369656E7420696E7075740000000000000000000000000000 PUSH0 DUP3 ADD MSTORE POP JUMP JUMPDEST PUSH0 PUSH2 0x17BE PUSH1 0x12 DUP4 PUSH2 0x177A JUMP JUMPDEST SWAP2 POP PUSH2 0x17C9 DUP3 PUSH2 0x178A JUMP JUMPDEST PUSH1 0x20 DUP3 ADD SWAP1 POP SWAP2 SWAP1 POP JUMP JUMPDEST PUSH0 PUSH1 0x20 DUP3 ADD SWAP1 POP DUP2 DUP2 SUB PUSH0 DUP4 ADD MSTORE PUSH2 0x17EB DUP2 PUSH2 0x17B2 JUMP JUMPDEST SWAP1 POP SWAP2 SWAP1 POP JUMP JUMPDEST PUSH32 0x496E73756666696369656E74206C697175696469747900000000000000000000 PUSH0 DUP3 ADD MSTORE POP JUMP JUMPDEST PUSH0 PUSH2 0x1826 PUSH1 0x16 DUP4 PUSH2 0x177A JUMP JUMPDEST SWAP2 POP PUSH2 0x1831 DUP3 PUSH2 0x17F2 JUMP JUMPDEST PUSH1 0x20 DUP3 ADD SWAP1 POP SWAP2 SWAP1 POP JUMP JUMPDEST PUSH0 PUSH1 0x20 DUP3 ADD SWAP1 POP DUP2 DUP2 SUB PUSH0 DUP4 ADD MSTORE PUSH2 0x1853 DUP2 PUSH2 0x181A JUMP JUMPDEST SWAP1 POP SWAP2 SWAP1 POP JUMP JUMPDEST PUSH32 0x4E487B7100000000000000000000000000000000000000000000000000000000 PUSH0 MSTORE PUSH1 0x11 PUSH1 0x4 MSTORE PUSH1 0x24 PUSH0 REVERT JUMPDEST PUSH0 PUSH2 0x1891 DUP3 PUSH2 0x12BF JUMP JUMPDEST SWAP2 POP PUSH2 0x189C DUP4 PUSH2 0x12BF JUMP JUMPDEST SWAP3 POP DUP3 DUP3 MUL PUSH2 0x18AA DUP2 PUSH2 0x12BF JUMP JUMPDEST SWAP2 POP DUP3 DUP3 DIV DUP5 EQ DUP4 ISZERO OR PUSH2 0x18C1 JUMPI PUSH2 0x18C0 PUSH2 0x185A JUMP JUMPDEST JUMPDEST POP SWAP3 SWAP2 POP POP JUMP JUMPDEST PUSH0 PUSH2 0x18D2 DUP3 PUSH2 0x12BF JUMP JUMPDEST SWAP2 POP PUSH2 0x18DD DUP4 PUSH2 0x12BF JUMP JUMPDEST SWAP3 POP DUP3 DUP3 ADD SWAP1 POP DUP1 DUP3 GT ISZERO PUSH2 0x18F5 JUMPI PUSH2 0x18F4 PUSH2 0x185A JUMP JUMPDEST JUMPDEST SWAP3 SWAP2 POP POP JUMP JUMPDEST PUSH32 0x4E487B7100000000000000000000000000000000000000000000000000000000 PUSH0 MSTORE PUSH1 0x12 PUSH1 0x4 MSTORE PUSH1 0x24 PUSH0 REVERT JUMPDEST PUSH0 PUSH2 0x1932 DUP3 PUSH2 0x12BF JUMP JUMPDEST SWAP2 POP PUSH2 0x193D DUP4 PUSH2 0x12BF JUMP JUMPDEST SWAP3 POP DUP3 PUSH2 0x194D JUMPI PUSH2 0x194C PUSH2 0x18FB JUMP JUMPDEST JUMPDEST DUP3 DUP3 DIV SWAP1 POP SWAP3 SWAP2 POP POP JUMP JUMPDEST PUSH32 0x5472616E73616374696F6E206578706972656400000000000000000000000000 PUSH0 DUP3 ADD MSTORE POP JUMP JUMPDEST PUSH0 PUSH2 0x198C PUSH1 0x13 DUP4 PUSH2 0x177A JUMP JUMPDEST SWAP2 POP PUSH2 0x1997 DUP3 PUSH2 0x1958 JUMP JUMPDEST PUSH1 0x20 DUP3 ADD SWAP1 POP SWAP2 SWAP1 POP JUMP JUMPDEST PUSH0 PUSH1 0x20 DUP3 ADD SWAP1 POP DUP2 DUP2 SUB PUSH0 DUP4 ADD MSTORE PUSH2 0x19B9 DUP2 PUSH2 0x1980 JUMP JUMPDEST SWAP1 POP SWAP2 SWAP1 POP JUMP JUMPDEST PUSH32 0x4F6E6C7920322D746F6B656E0000000000000000000000000000000000000000 PUSH0 DUP3 ADD MSTORE POP JUMP JUMPDEST PUSH0 PUSH2 0x19F4 PUSH1 0xC DUP4 PUSH2 0x177A JUMP JUMPDEST SWAP2 POP PUSH2 0x19FF DUP3 PUSH2 0x19C0 JUMP JUMPDEST PUSH1 0x20 DUP3 ADD SWAP1 POP SWAP2 SWAP1 POP JUMP JUMPDEST PUSH0 PUSH1 0x20 DUP3 ADD SWAP1 POP DUP2 DUP2 SUB PUSH0 DUP4 ADD MSTORE PUSH2 0x1A21 DUP2 PUSH2 0x19E8 JUMP JUMPDEST SWAP1 POP SWAP2 SWAP1 POP JUMP JUMPDEST PUSH32 0x4E487B7100000000000000000000000000000000000000000000000000000000 PUSH0 MSTORE PUSH1 0x32 PUSH1 0x4 MSTORE PUSH1 0x24 PUSH0 REVERT JUMPDEST PUSH0 PUSH1 0x20 DUP3 DUP5 SUB SLT ISZERO PUSH2 0x1A6A JUMPI PUSH2 0x1A69 PUSH2 0x12B7 JUMP JUMPDEST JUMPDEST PUSH0 PUSH2 0x1A77 DUP5 DUP3 DUP6 ADD PUSH2 0x1411 JUMP JUMPDEST SWAP2 POP POP SWAP3 SWAP2 POP POP JUMP JUMPDEST PUSH32 0x496E73756666696369656E74206F757470757400000000000000000000000000 PUSH0 DUP3 ADD MSTORE POP JUMP JUMPDEST PUSH0 PUSH2 0x1AB4 PUSH1 0x13 DUP4 PUSH2 0x177A JUMP JUMPDEST SWAP2 POP PUSH2 0x1ABF DUP3 PUSH2 0x1A80 JUMP JUMPDEST PUSH1 0x20 DUP3 ADD SWAP1 POP SWAP2 SWAP1 POP JUMP JUMPDEST PUSH0 PUSH1 0x20 DUP3 ADD SWAP1 POP DUP2 DUP2 SUB PUSH0 DUP4 ADD MSTORE PUSH2 0x1AE1 DUP2 PUSH2 0x1AA8 JUMP JUMPDEST SWAP1 POP SWAP2 SWAP1 POP JUMP JUMPDEST PUSH0 PUSH2 0x1AF2 DUP3 PUSH2 0x12BF JUMP JUMPDEST SWAP2 POP PUSH2 0x1AFD DUP4 PUSH2 0x12BF JUMP JUMPDEST SWAP3 POP DUP3 DUP3 SUB SWAP1 POP DUP2 DUP2 GT ISZERO PUSH2 0x1B15 JUMPI PUSH2 0x1B14 PUSH2 0x185A JUMP JUMPDEST JUMPDEST SWAP3 SWAP2 POP POP JUMP JUMPDEST PUSH32 0x4E487B7100000000000000000000000000000000000000000000000000000000 PUSH0 MSTORE PUSH1 0x41 PUSH1 0x4 MSTORE PUSH1 0x24 PUSH0 REVERT JUMPDEST PUSH2 0x1B51 DUP2 PUSH2 0x13EA JUMP JUMPDEST DUP3 MSTORE POP POP JUMP JUMPDEST PUSH0 PUSH1 0x80 DUP3 ADD SWAP1 POP PUSH2 0x1B6A PUSH0 DUP4 ADD DUP8 PUSH2 0x1B48 JUMP JUMPDEST PUSH2 0x1B77 PUSH1 0x20 DUP4 ADD DUP7 PUSH2 0x1B48 JUMP JUMPDEST PUSH2 0x1B84 PUSH1 0x40 DUP4 ADD DUP6 PUSH2 0x1342 JUMP JUMPDEST PUSH2 0x1B91 PUSH1 0x60 DUP4 ADD DUP5 PUSH2 0x1342 JUMP JUMPDEST SWAP6 SWAP5 POP POP POP POP POP JUMP JUMPDEST PUSH32 0x4E6F207265736572766573000000000000000000000000000000000000000000 PUSH0 DUP3 ADD MSTORE POP JUMP JUMPDEST PUSH0 PUSH2 0x1BCE PUSH1 0xB DUP4 PUSH2 0x177A JUMP JUMPDEST SWAP2 POP PUSH2 0x1BD9 DUP3 PUSH2 0x1B9A JUMP JUMPDEST PUSH1 0x20 DUP3 ADD SWAP1 POP SWAP2 SWAP1 POP JUMP JUMPDEST PUSH0 PUSH1 0x20 DUP3 ADD SWAP1 POP DUP2 DUP2 SUB PUSH0 DUP4 ADD MSTORE PUSH2 0x1BFB DUP2 PUSH2 0x1BC2 JUMP JUMPDEST SWAP1 POP SWAP2 SWAP1 POP JUMP JUMPDEST PUSH32 0x496E73756666696369656E742041000000000000000000000000000000000000 PUSH0 DUP3 ADD MSTORE POP JUMP JUMPDEST PUSH0 PUSH2 0x1C36 PUSH1 0xE DUP4 PUSH2 0x177A JUMP JUMPDEST SWAP2 POP PUSH2 0x1C41 DUP3 PUSH2 0x1C02 JUMP JUMPDEST PUSH1 0x20 DUP3 ADD SWAP1 POP SWAP2 SWAP1 POP JUMP JUMPDEST PUSH0 PUSH1 0x20 DUP3 ADD SWAP1 POP DUP2 DUP2 SUB PUSH0 DUP4 ADD MSTORE PUSH2 0x1C63 DUP2 PUSH2 0x1C2A JUMP JUMPDEST SWAP1 POP SWAP2 SWAP1 POP JUMP JUMPDEST PUSH32 0x496E73756666696369656E742042000000000000000000000000000000000000 PUSH0 DUP3 ADD MSTORE POP JUMP JUMPDEST PUSH0 PUSH2 0x1C9E PUSH1 0xE DUP4 PUSH2 0x177A JUMP JUMPDEST SWAP2 POP PUSH2 0x1CA9 DUP3 PUSH2 0x1C6A JUMP JUMPDEST PUSH1 0x20 DUP3 ADD SWAP1 POP SWAP2 SWAP1 POP JUMP JUMPDEST PUSH0 PUSH1 0x20 DUP3 ADD SWAP1 POP DUP2 DUP2 SUB PUSH0 DUP4 ADD MSTORE PUSH2 0x1CCB DUP2 PUSH2 0x1C92 JUMP JUMPDEST SWAP1 POP SWAP2 SWAP1 POP JUMP JUMPDEST PUSH0 PUSH1 0xA0 DUP3 ADD SWAP1 POP PUSH2 0x1CE5 PUSH0 DUP4 ADD DUP9 PUSH2 0x1B48 JUMP JUMPDEST PUSH2 0x1CF2 PUSH1 0x20 DUP4 ADD DUP8 PUSH2 0x1B48 JUMP JUMPDEST PUSH2 0x1CFF PUSH1 0x40 DUP4 ADD DUP7 PUSH2 0x1342 JUMP JUMPDEST PUSH2 0x1D0C PUSH1 0x60 DUP4 ADD DUP6 PUSH2 0x1342 JUMP JUMPDEST PUSH2 0x1D19 PUSH1 0x80 DUP4 ADD DUP5 PUSH2 0x1342 JUMP JUMPDEST SWAP7 SWAP6 POP POP POP POP POP POP JUMP JUMPDEST PUSH32 0x4964656E746963616C20746F6B656E7300000000000000000000000000000000 PUSH0 DUP3 ADD MSTORE POP JUMP JUMPDEST PUSH0 PUSH2 0x1D57 PUSH1 0x10 DUP4 PUSH2 0x177A JUMP JUMPDEST SWAP2 POP PUSH2 0x1D62 DUP3 PUSH2 0x1D23 JUMP JUMPDEST PUSH1 0x20 DUP3 ADD SWAP1 POP SWAP2 SWAP1 POP JUMP JUMPDEST PUSH0 PUSH1 0x20 DUP3 ADD SWAP1 POP DUP2 DUP2 SUB PUSH0 DUP4 ADD MSTORE PUSH2 0x1D84 DUP2 PUSH2 0x1D4B JUMP JUMPDEST SWAP1 POP SWAP2 SWAP1 POP JUMP JUMPDEST PUSH32 0x496E73756666696369656E740000000000000000000000000000000000000000 PUSH0 DUP3 ADD MSTORE POP JUMP JUMPDEST PUSH0 PUSH2 0x1DBF PUSH1 0xC DUP4 PUSH2 0x177A JUMP JUMPDEST SWAP2 POP PUSH2 0x1DCA DUP3 PUSH2 0x1D8B JUMP JUMPDEST PUSH1 0x20 DUP3 ADD SWAP1 POP SWAP2 SWAP1 POP JUMP JUMPDEST PUSH0 PUSH1 0x20 DUP3 ADD SWAP1 POP DUP2 DUP2 SUB PUSH0 DUP4 ADD MSTORE PUSH2 0x1DEC DUP2 PUSH2 0x1DB3 JUMP JUMPDEST SWAP1 POP SWAP2 SWAP1 POP JUMP JUMPDEST PUSH0 DUP2 PUSH1 0x60 SHL SWAP1 POP SWAP2 SWAP1 POP JUMP JUMPDEST PUSH0 PUSH2 0x1E09 DUP3 PUSH2 0x1DF3 JUMP JUMPDEST SWAP1 POP SWAP2 SWAP1 POP JUMP JUMPDEST PUSH0 PUSH2 0x1E1A DUP3 PUSH2 0x1DFF JUMP JUMPDEST SWAP1 POP SWAP2 SWAP1 POP JUMP JUMPDEST PUSH2 0x1E32 PUSH2 0x1E2D DUP3 PUSH2 0x13EA JUMP JUMPDEST PUSH2 0x1E10 JUMP JUMPDEST DUP3 MSTORE POP POP JUMP JUMPDEST PUSH0 PUSH2 0x1E43 DUP3 DUP6 PUSH2 0x1E21 JUMP JUMPDEST PUSH1 0x14 DUP3 ADD SWAP2 POP PUSH2 0x1E53 DUP3 DUP5 PUSH2 0x1E21 JUMP JUMPDEST PUSH1 0x14 DUP3 ADD SWAP2 POP DUP2 SWAP1 POP SWAP4 SWAP3 POP POP POP JUMP JUMPDEST PUSH0 PUSH1 0x60 DUP3 ADD SWAP1 POP PUSH2 0x1E76 PUSH0 DUP4 ADD DUP7 PUSH2 0x1B48 JUMP JUMPDEST PUSH2 0x1E83 PUSH1 0x20 DUP4 ADD DUP6 PUSH2 0x1B48 JUMP JUMPDEST PUSH2 0x1E90 PUSH1 0x40 DUP4 ADD DUP5 PUSH2 0x1342 JUMP JUMPDEST SWAP5 SWAP4 POP POP POP POP JUMP JUMPDEST PUSH0 PUSH1 0x40 DUP3 ADD SWAP1 POP PUSH2 0x1EAB PUSH0 DUP4 ADD DUP6 PUSH2 0x1B48 JUMP JUMPDEST PUSH2 0x1EB8 PUSH1 0x20 DUP4 ADD DUP5 PUSH2 0x1342 JUMP JUMPDEST SWAP4 SWAP3 POP POP POP JUMP JUMPDEST PUSH0 PUSH1 0x20 DUP3 ADD SWAP1 POP PUSH2 0x1ED2 PUSH0 DUP4 ADD DUP5 PUSH2 0x1B48 JUMP JUMPDEST SWAP3 SWAP2 POP POP JUMP INVALID LOG2 PUSH5 0x6970667358 0x22 SLT KECCAK256 GAS GASLIMIT 0xC9 0xC4 ISZERO 0x4C PUSH25 0x8383953756D8E89AACCD4C84F90D0E8A62513E9DD1F0D0F025 PUSH5 0x736F6C6343 STOP ADDMOD 0x1E STOP CALLER "
				},
				"gasEstimates": {
					"creation": {
						"codeDepositCost": "1590000",
						"executionCost": "1664",
						"totalCost": "1591664"
					},
					"external": {
						"addLiquidity(address,address,uint256,uint256,uint256,uint256,address,uint256)": "infinite",
						"getAmountOut(uint256,uint256,uint256)": "infinite",
						"getPrice(address,address)": "infinite",
						"removeLiquidity(address,address,uint256,uint256,uint256,address,uint256)": "infinite",
						"swapExactTokensForTokens(uint256,uint256,address[],address,uint256)": "infinite"
					},
					"internal": {
						"_calculateLiquidity(uint256,uint256,uint256,uint256,uint256)": "infinite",
						"_getPairKey(address,address)": "infinite",
						"_quoteAddLiquidity(address,address,uint256,uint256,uint256,uint256,uint256,uint256,uint256)": "infinite",
						"_sortTokens(address,address)": "88",
						"_transferTokens(address,address,uint256,uint256)": "infinite"
					}
				},
				"methodIdentifiers": {
					"addLiquidity(address,address,uint256,uint256,uint256,uint256,address,uint256)": "e8e33700",
					"getAmountOut(uint256,uint256,uint256)": "054d50d4",
					"getPrice(address,address)": "ac41865a",
					"removeLiquidity(address,address,uint256,uint256,uint256,address,uint256)": "baa2abde",
					"swapExactTokensForTokens(uint256,uint256,address[],address,uint256)": "38ed1739"
				}
			},
			"storageLayout": {
				"storage": [
					{
						"astId": 4107,
						"contract": "SimpleSwap.sol:SimpleSwap",
						"label": "reserves",
						"offset": 0,
						"slot": "0",
						"type": "t_mapping(t_bytes32,t_struct(Reserve)4102_storage)"
					}
				],
				"types": {
					"t_address": {
						"encoding": "inplace",
						"label": "address",
						"numberOfBytes": "20"
					},
					"t_bytes32": {
						"encoding": "inplace",
						"label": "bytes32",
						"numberOfBytes": "32"
					},
					"t_mapping(t_address,t_uint256)": {
						"encoding": "mapping",
						"key": "t_address",
						"label": "mapping(address => uint256)",
						"numberOfBytes": "32",
						"value": "t_uint256"
					},
					"t_mapping(t_bytes32,t_struct(Reserve)4102_storage)": {
						"encoding": "mapping",
						"key": "t_bytes32",
						"label": "mapping(bytes32 => struct SimpleSwap.Reserve)",
						"numberOfBytes": "32",
						"value": "t_struct(Reserve)4102_storage"
					},
					"t_struct(Reserve)4102_storage": {
						"encoding": "inplace",
						"label": "struct SimpleSwap.Reserve",
						"members": [
							{
								"astId": 4093,
								"contract": "SimpleSwap.sol:SimpleSwap",
								"label": "reserveA",
								"offset": 0,
								"slot": "0",
								"type": "t_uint256"
							},
							{
								"astId": 4095,
								"contract": "SimpleSwap.sol:SimpleSwap",
								"label": "reserveB",
								"offset": 0,
								"slot": "1",
								"type": "t_uint256"
							},
							{
								"astId": 4097,
								"contract": "SimpleSwap.sol:SimpleSwap",
								"label": "totalLiquidity",
								"offset": 0,
								"slot": "2",
								"type": "t_uint256"
							},
							{
								"astId": 4101,
								"contract": "SimpleSwap.sol:SimpleSwap",
								"label": "liquidity",
								"offset": 0,
								"slot": "3",
								"type": "t_mapping(t_address,t_uint256)"
							}
						],
						"numberOfBytes": "128"
					},
					"t_uint256": {
						"encoding": "inplace",
						"label": "uint256",
						"numberOfBytes": "32"
					}
				}
			},
			"userdoc": {
				"kind": "user",
				"methods": {
					"addLiquidity(address,address,uint256,uint256,uint256,uint256,address,uint256)": {
						"notice": "Adds liquidity to a token pair pool"
					},
					"getAmountOut(uint256,uint256,uint256)": {
						"notice": "Calculates output amount given input and reserves"
					},
					"getPrice(address,address)": {
						"notice": "Returns the price of tokenA in terms of tokenB"
					},
					"removeLiquidity(address,address,uint256,uint256,uint256,address,uint256)": {
						"notice": "Removes liquidity from a pool"
					},
					"swapExactTokensForTokens(uint256,uint256,address[],address,uint256)": {
						"notice": "Swaps exact amount of input tokens for output tokens"
					}
				},
				"notice": "Enables token swaps and liquidity management for token pairs",
				"version": 1
			}
		}
	}
}