{
	"SimpleSwap.sol": {
		"SimpleSwap": {
			"abi": [
				{
					"inputs": [
						{
							"internalType": "address",
							"name": "token",
							"type": "address"
						}
					],
					"name": "SafeERC20FailedOperation",
					"type": "error"
				},
				{
					"anonymous": false,
					"inputs": [
						{
							"indexed": true,
							"internalType": "address",
							"name": "provider",
							"type": "address"
						},
						{
							"indexed": false,
							"internalType": "address",
							"name": "tokenA",
							"type": "address"
						},
						{
							"indexed": false,
							"internalType": "address",
							"name": "tokenB",
							"type": "address"
						},
						{
							"indexed": false,
							"internalType": "uint256",
							"name": "amountA",
							"type": "uint256"
						},
						{
							"indexed": false,
							"internalType": "uint256",
							"name": "amountB",
							"type": "uint256"
						},
						{
							"indexed": false,
							"internalType": "uint256",
							"name": "liquidity",
							"type": "uint256"
						}
					],
					"name": "LiquidityAdded",
					"type": "event"
				},
				{
					"anonymous": false,
					"inputs": [
						{
							"indexed": true,
							"internalType": "address",
							"name": "provider",
							"type": "address"
						},
						{
							"indexed": false,
							"internalType": "address",
							"name": "tokenA",
							"type": "address"
						},
						{
							"indexed": false,
							"internalType": "address",
							"name": "tokenB",
							"type": "address"
						},
						{
							"indexed": false,
							"internalType": "uint256",
							"name": "amountA",
							"type": "uint256"
						},
						{
							"indexed": false,
							"internalType": "uint256",
							"name": "amountB",
							"type": "uint256"
						},
						{
							"indexed": false,
							"internalType": "uint256",
							"name": "liquidity",
							"type": "uint256"
						}
					],
					"name": "LiquidityRemoved",
					"type": "event"
				},
				{
					"anonymous": false,
					"inputs": [
						{
							"indexed": true,
							"internalType": "address",
							"name": "sender",
							"type": "address"
						},
						{
							"indexed": false,
							"internalType": "address",
							"name": "tokenIn",
							"type": "address"
						},
						{
							"indexed": false,
							"internalType": "address",
							"name": "tokenOut",
							"type": "address"
						},
						{
							"indexed": false,
							"internalType": "uint256",
							"name": "amountIn",
							"type": "uint256"
						},
						{
							"indexed": false,
							"internalType": "uint256",
							"name": "amountOut",
							"type": "uint256"
						}
					],
					"name": "Swap",
					"type": "event"
				},
				{
					"inputs": [
						{
							"internalType": "address",
							"name": "tokenA",
							"type": "address"
						},
						{
							"internalType": "address",
							"name": "tokenB",
							"type": "address"
						},
						{
							"internalType": "uint256",
							"name": "amountADesired",
							"type": "uint256"
						},
						{
							"internalType": "uint256",
							"name": "amountBDesired",
							"type": "uint256"
						},
						{
							"internalType": "uint256",
							"name": "amountAMin",
							"type": "uint256"
						},
						{
							"internalType": "uint256",
							"name": "amountBMin",
							"type": "uint256"
						},
						{
							"internalType": "address",
							"name": "to",
							"type": "address"
						},
						{
							"internalType": "uint256",
							"name": "deadline",
							"type": "uint256"
						}
					],
					"name": "addLiquidity",
					"outputs": [
						{
							"internalType": "uint256",
							"name": "amountA",
							"type": "uint256"
						},
						{
							"internalType": "uint256",
							"name": "amountB",
							"type": "uint256"
						},
						{
							"internalType": "uint256",
							"name": "liquidity",
							"type": "uint256"
						}
					],
					"stateMutability": "nonpayable",
					"type": "function"
				},
				{
					"inputs": [
						{
							"internalType": "uint256",
							"name": "amountIn",
							"type": "uint256"
						},
						{
							"internalType": "uint256",
							"name": "reserveIn",
							"type": "uint256"
						},
						{
							"internalType": "uint256",
							"name": "reserveOut",
							"type": "uint256"
						}
					],
					"name": "getAmountOut",
					"outputs": [
						{
							"internalType": "uint256",
							"name": "amountOut",
							"type": "uint256"
						}
					],
					"stateMutability": "pure",
					"type": "function"
				},
				{
					"inputs": [
						{
							"internalType": "address",
							"name": "tokenA",
							"type": "address"
						},
						{
							"internalType": "address",
							"name": "tokenB",
							"type": "address"
						}
					],
					"name": "getPrice",
					"outputs": [
						{
							"internalType": "uint256",
							"name": "price",
							"type": "uint256"
						}
					],
					"stateMutability": "view",
					"type": "function"
				},
				{
					"inputs": [
						{
							"internalType": "address",
							"name": "tokenA",
							"type": "address"
						},
						{
							"internalType": "address",
							"name": "tokenB",
							"type": "address"
						},
						{
							"internalType": "uint256",
							"name": "liquidity",
							"type": "uint256"
						},
						{
							"internalType": "uint256",
							"name": "amountAMin",
							"type": "uint256"
						},
						{
							"internalType": "uint256",
							"name": "amountBMin",
							"type": "uint256"
						},
						{
							"internalType": "address",
							"name": "to",
							"type": "address"
						},
						{
							"internalType": "uint256",
							"name": "deadline",
							"type": "uint256"
						}
					],
					"name": "removeLiquidity",
					"outputs": [
						{
							"internalType": "uint256",
							"name": "amountA",
							"type": "uint256"
						},
						{
							"internalType": "uint256",
							"name": "amountB",
							"type": "uint256"
						}
					],
					"stateMutability": "nonpayable",
					"type": "function"
				},
				{
					"inputs": [
						{
							"internalType": "uint256",
							"name": "amountIn",
							"type": "uint256"
						},
						{
							"internalType": "uint256",
							"name": "amountOutMin",
							"type": "uint256"
						},
						{
							"internalType": "address[]",
							"name": "path",
							"type": "address[]"
						},
						{
							"internalType": "address",
							"name": "to",
							"type": "address"
						},
						{
							"internalType": "uint256",
							"name": "deadline",
							"type": "uint256"
						}
					],
					"name": "swapExactTokensForTokens",
					"outputs": [
						{
							"internalType": "uint256[]",
							"name": "amounts",
							"type": "uint256[]"
						}
					],
					"stateMutability": "nonpayable",
					"type": "function"
				}
			],
			"devdoc": {
				"errors": {
					"SafeERC20FailedOperation(address)": [
						{
							"details": "An operation with an ERC-20 token failed."
						}
					]
				},
				"kind": "dev",
				"methods": {},
				"title": "SimpleSwap - A simplified Uniswap-like contract",
				"version": 1
			},
			"evm": {
				"assembly": "    /* \"SimpleSwap.sol\":387:8910  contract SimpleSwap {... */\n  mstore(0x40, 0x80)\n  callvalue\n  dup1\n  iszero\n  tag_1\n  jumpi\n  revert(0x00, 0x00)\ntag_1:\n  pop\n  dataSize(sub_0)\n  dup1\n  dataOffset(sub_0)\n  0x00\n  codecopy\n  0x00\n  return\nstop\n\nsub_0: assembly {\n        /* \"SimpleSwap.sol\":387:8910  contract SimpleSwap {... */\n      mstore(0x40, 0x80)\n      callvalue\n      dup1\n      iszero\n      tag_1\n      jumpi\n      revert(0x00, 0x00)\n    tag_1:\n      pop\n      jumpi(tag_2, lt(calldatasize, 0x04))\n      shr(0xe0, calldataload(0x00))\n      dup1\n      0x054d50d4\n      eq\n      tag_3\n      jumpi\n      dup1\n      0x38ed1739\n      eq\n      tag_4\n      jumpi\n      dup1\n      0xac41865a\n      eq\n      tag_5\n      jumpi\n      dup1\n      0xbaa2abde\n      eq\n      tag_6\n      jumpi\n      dup1\n      0xe8e33700\n      eq\n      tag_7\n      jumpi\n    tag_2:\n      revert(0x00, 0x00)\n        /* \"SimpleSwap.sol\":8445:8907  function getAmountOut(uint amountIn, uint reserveIn, uint reserveOut) public pure returns (uint amountOut) {... */\n    tag_3:\n      tag_8\n      0x04\n      dup1\n      calldatasize\n      sub\n      dup2\n      add\n      swap1\n      tag_9\n      swap2\n      swap1\n      tag_10\n      jump\t// in\n    tag_9:\n      tag_11\n      jump\t// in\n    tag_8:\n      mload(0x40)\n      tag_12\n      swap2\n      swap1\n      tag_13\n      jump\t// in\n    tag_12:\n      mload(0x40)\n      dup1\n      swap2\n      sub\n      swap1\n      return\n        /* \"SimpleSwap.sol\":6488:7892  function swapExactTokensForTokens(... */\n    tag_4:\n      tag_14\n      0x04\n      dup1\n      calldatasize\n      sub\n      dup2\n      add\n      swap1\n      tag_15\n      swap2\n      swap1\n      tag_16\n      jump\t// in\n    tag_15:\n      tag_17\n      jump\t// in\n    tag_14:\n      mload(0x40)\n      tag_18\n      swap2\n      swap1\n      tag_19\n      jump\t// in\n    tag_18:\n      mload(0x40)\n      dup1\n      swap2\n      sub\n      swap1\n      return\n        /* \"SimpleSwap.sol\":7958:8377  function getPrice(address tokenA, address tokenB) external view returns (uint price) {... */\n    tag_5:\n      tag_20\n      0x04\n      dup1\n      calldatasize\n      sub\n      dup2\n      add\n      swap1\n      tag_21\n      swap2\n      swap1\n      tag_22\n      jump\t// in\n    tag_21:\n      tag_23\n      jump\t// in\n    tag_20:\n      mload(0x40)\n      tag_24\n      swap2\n      swap1\n      tag_13\n      jump\t// in\n    tag_24:\n      mload(0x40)\n      dup1\n      swap2\n      sub\n      swap1\n      return\n        /* \"SimpleSwap.sol\":5359:6434  function removeLiquidity(... */\n    tag_6:\n      tag_25\n      0x04\n      dup1\n      calldatasize\n      sub\n      dup2\n      add\n      swap1\n      tag_26\n      swap2\n      swap1\n      tag_27\n      jump\t// in\n    tag_26:\n      tag_28\n      jump\t// in\n    tag_25:\n      mload(0x40)\n      tag_29\n      swap3\n      swap2\n      swap1\n      tag_30\n      jump\t// in\n    tag_29:\n      mload(0x40)\n      dup1\n      swap2\n      sub\n      swap1\n      return\n        /* \"SimpleSwap.sol\":1632:2747  function addLiquidity(... */\n    tag_7:\n      tag_31\n      0x04\n      dup1\n      calldatasize\n      sub\n      dup2\n      add\n      swap1\n      tag_32\n      swap2\n      swap1\n      tag_33\n      jump\t// in\n    tag_32:\n      tag_34\n      jump\t// in\n    tag_31:\n      mload(0x40)\n      tag_35\n      swap4\n      swap3\n      swap2\n      swap1\n      tag_36\n      jump\t// in\n    tag_35:\n      mload(0x40)\n      dup1\n      swap2\n      sub\n      swap1\n      return\n        /* \"SimpleSwap.sol\":8445:8907  function getAmountOut(uint amountIn, uint reserveIn, uint reserveOut) public pure returns (uint amountOut) {... */\n    tag_11:\n        /* \"SimpleSwap.sol\":8536:8550  uint amountOut */\n      0x00\n        /* \"SimpleSwap.sol\":8582:8583  0 */\n      0x00\n        /* \"SimpleSwap.sol\":8571:8579  amountIn */\n      dup5\n        /* \"SimpleSwap.sol\":8571:8583  amountIn > 0 */\n      gt\n        /* \"SimpleSwap.sol\":8563:8613  require(amountIn > 0, \"Insufficient input amount\") */\n      tag_38\n      jumpi\n      mload(0x40)\n      0x08c379a000000000000000000000000000000000000000000000000000000000\n      dup2\n      mstore\n      0x04\n      add\n      tag_39\n      swap1\n      tag_40\n      jump\t// in\n    tag_39:\n      mload(0x40)\n      dup1\n      swap2\n      sub\n      swap1\n      revert\n    tag_38:\n        /* \"SimpleSwap.sol\":8644:8645  0 */\n      0x00\n        /* \"SimpleSwap.sol\":8632:8641  reserveIn */\n      dup4\n        /* \"SimpleSwap.sol\":8632:8645  reserveIn > 0 */\n      gt\n        /* \"SimpleSwap.sol\":8632:8663  reserveIn > 0 && reserveOut > 0 */\n      dup1\n      iszero\n      tag_41\n      jumpi\n      pop\n        /* \"SimpleSwap.sol\":8662:8663  0 */\n      0x00\n        /* \"SimpleSwap.sol\":8649:8659  reserveOut */\n      dup3\n        /* \"SimpleSwap.sol\":8649:8663  reserveOut > 0 */\n      gt\n        /* \"SimpleSwap.sol\":8632:8663  reserveIn > 0 && reserveOut > 0 */\n    tag_41:\n        /* \"SimpleSwap.sol\":8624:8690  require(reserveIn > 0 && reserveOut > 0, \"Insufficient liquidity\") */\n      tag_42\n      jumpi\n      mload(0x40)\n      0x08c379a000000000000000000000000000000000000000000000000000000000\n      dup2\n      mstore\n      0x04\n      add\n      tag_43\n      swap1\n      tag_44\n      jump\t// in\n    tag_43:\n      mload(0x40)\n      dup1\n      swap2\n      sub\n      swap1\n      revert\n    tag_42:\n        /* \"SimpleSwap.sol\":8701:8721  uint amountInWithFee */\n      0x00\n        /* \"SimpleSwap.sol\":8735:8738  997 */\n      0x03e5\n        /* \"SimpleSwap.sol\":8724:8732  amountIn */\n      dup6\n        /* \"SimpleSwap.sol\":8724:8738  amountIn * 997 */\n      tag_45\n      swap2\n      swap1\n      tag_46\n      jump\t// in\n    tag_45:\n        /* \"SimpleSwap.sol\":8701:8738  uint amountInWithFee = amountIn * 997 */\n      swap1\n      pop\n        /* \"SimpleSwap.sol\":8749:8763  uint numerator */\n      0x00\n        /* \"SimpleSwap.sol\":8784:8794  reserveOut */\n      dup4\n        /* \"SimpleSwap.sol\":8766:8781  amountInWithFee */\n      dup3\n        /* \"SimpleSwap.sol\":8766:8794  amountInWithFee * reserveOut */\n      tag_47\n      swap2\n      swap1\n      tag_46\n      jump\t// in\n    tag_47:\n        /* \"SimpleSwap.sol\":8749:8794  uint numerator = amountInWithFee * reserveOut */\n      swap1\n      pop\n        /* \"SimpleSwap.sol\":8805:8821  uint denominator */\n      0x00\n        /* \"SimpleSwap.sol\":8843:8858  amountInWithFee */\n      dup3\n        /* \"SimpleSwap.sol\":8836:8840  1000 */\n      0x03e8\n        /* \"SimpleSwap.sol\":8824:8833  reserveIn */\n      dup8\n        /* \"SimpleSwap.sol\":8824:8840  reserveIn * 1000 */\n      tag_48\n      swap2\n      swap1\n      tag_46\n      jump\t// in\n    tag_48:\n        /* \"SimpleSwap.sol\":8824:8858  reserveIn * 1000 + amountInWithFee */\n      tag_49\n      swap2\n      swap1\n      tag_50\n      jump\t// in\n    tag_49:\n        /* \"SimpleSwap.sol\":8805:8858  uint denominator = reserveIn * 1000 + amountInWithFee */\n      swap1\n      pop\n        /* \"SimpleSwap.sol\":8888:8899  denominator */\n      dup1\n        /* \"SimpleSwap.sol\":8876:8885  numerator */\n      dup3\n        /* \"SimpleSwap.sol\":8876:8899  numerator / denominator */\n      tag_51\n      swap2\n      swap1\n      tag_52\n      jump\t// in\n    tag_51:\n        /* \"SimpleSwap.sol\":8869:8899  return numerator / denominator */\n      swap4\n      pop\n      pop\n      pop\n      pop\n        /* \"SimpleSwap.sol\":8445:8907  function getAmountOut(uint amountIn, uint reserveIn, uint reserveOut) public pure returns (uint amountOut) {... */\n      swap4\n      swap3\n      pop\n      pop\n      pop\n      jump\t// out\n        /* \"SimpleSwap.sol\":6488:7892  function swapExactTokensForTokens(... */\n    tag_17:\n        /* \"SimpleSwap.sol\":6695:6716  uint[] memory amounts */\n      0x60\n        /* \"SimpleSwap.sol\":6676:6684  deadline */\n      dup2\n        /* \"SimpleSwap.sol\":1130:1138  deadline */\n      dup1\n        /* \"SimpleSwap.sol\":1111:1126  block.timestamp */\n      timestamp\n        /* \"SimpleSwap.sol\":1111:1138  block.timestamp <= deadline */\n      gt\n      iszero\n        /* \"SimpleSwap.sol\":1103:1162  require(block.timestamp <= deadline, \"Transaction expired\") */\n      tag_54\n      jumpi\n      mload(0x40)\n      0x08c379a000000000000000000000000000000000000000000000000000000000\n      dup2\n      mstore\n      0x04\n      add\n      tag_55\n      swap1\n      tag_56\n      jump\t// in\n    tag_55:\n      mload(0x40)\n      dup1\n      swap2\n      sub\n      swap1\n      revert\n    tag_54:\n        /* \"SimpleSwap.sol\":6752:6753  2 */\n      0x02\n        /* \"SimpleSwap.sol\":6737:6741  path */\n      dup7\n      dup7\n        /* \"SimpleSwap.sol\":6737:6748  path.length */\n      swap1\n      pop\n        /* \"SimpleSwap.sol\":6737:6753  path.length == 2 */\n      eq\n        /* \"SimpleSwap.sol\":6729:6785  require(path.length == 2, \"Only 2-token path supported\") */\n      tag_58\n      jumpi\n      mload(0x40)\n      0x08c379a000000000000000000000000000000000000000000000000000000000\n      dup2\n      mstore\n      0x04\n      add\n      tag_59\n      swap1\n      tag_60\n      jump\t// in\n    tag_59:\n      mload(0x40)\n      dup1\n      swap2\n      sub\n      swap1\n      revert\n    tag_58:\n        /* \"SimpleSwap.sol\":6798:6813  address tokenIn */\n      0x00\n        /* \"SimpleSwap.sol\":6816:6820  path */\n      dup7\n      dup7\n        /* \"SimpleSwap.sol\":6821:6822  0 */\n      0x00\n        /* \"SimpleSwap.sol\":6816:6823  path[0] */\n      dup2\n      dup2\n      lt\n      tag_61\n      jumpi\n      tag_62\n      tag_63\n      jump\t// in\n    tag_62:\n    tag_61:\n      swap1\n      pop\n      0x20\n      mul\n      add\n      0x20\n      dup2\n      add\n      swap1\n      tag_64\n      swap2\n      swap1\n      tag_65\n      jump\t// in\n    tag_64:\n        /* \"SimpleSwap.sol\":6798:6823  address tokenIn = path[0] */\n      swap1\n      pop\n        /* \"SimpleSwap.sol\":6834:6850  address tokenOut */\n      0x00\n        /* \"SimpleSwap.sol\":6853:6857  path */\n      dup8\n      dup8\n        /* \"SimpleSwap.sol\":6858:6859  1 */\n      0x01\n        /* \"SimpleSwap.sol\":6853:6860  path[1] */\n      dup2\n      dup2\n      lt\n      tag_66\n      jumpi\n      tag_67\n      tag_63\n      jump\t// in\n    tag_67:\n    tag_66:\n      swap1\n      pop\n      0x20\n      mul\n      add\n      0x20\n      dup2\n      add\n      swap1\n      tag_68\n      swap2\n      swap1\n      tag_65\n      jump\t// in\n    tag_68:\n        /* \"SimpleSwap.sol\":6834:6860  address tokenOut = path[1] */\n      swap1\n      pop\n        /* \"SimpleSwap.sol\":6873:6888  bytes32 pairKey */\n      0x00\n        /* \"SimpleSwap.sol\":6891:6921  _getPairKey(tokenIn, tokenOut) */\n      tag_69\n        /* \"SimpleSwap.sol\":6903:6910  tokenIn */\n      dup4\n        /* \"SimpleSwap.sol\":6912:6920  tokenOut */\n      dup4\n        /* \"SimpleSwap.sol\":6891:6902  _getPairKey */\n      tag_70\n        /* \"SimpleSwap.sol\":6891:6921  _getPairKey(tokenIn, tokenOut) */\n      jump\t// in\n    tag_69:\n        /* \"SimpleSwap.sol\":6873:6921  bytes32 pairKey = _getPairKey(tokenIn, tokenOut) */\n      swap1\n      pop\n        /* \"SimpleSwap.sol\":6932:6949  Reserve storage r */\n      0x00\n        /* \"SimpleSwap.sol\":6952:6960  reserves */\n      0x00\n        /* \"SimpleSwap.sol\":6952:6969  reserves[pairKey] */\n      0x00\n        /* \"SimpleSwap.sol\":6961:6968  pairKey */\n      dup4\n        /* \"SimpleSwap.sol\":6952:6969  reserves[pairKey] */\n      dup2\n      mstore\n      0x20\n      add\n      swap1\n      dup2\n      mstore\n      0x20\n      add\n      0x00\n      keccak256\n        /* \"SimpleSwap.sol\":6932:6969  Reserve storage r = reserves[pairKey] */\n      swap1\n      pop\n        /* \"SimpleSwap.sol\":6982:7051  IERC20(tokenIn).safeTransferFrom(msg.sender, address(this), amountIn) */\n      tag_71\n        /* \"SimpleSwap.sol\":7015:7025  msg.sender */\n      caller\n        /* \"SimpleSwap.sol\":7035:7039  this */\n      address\n        /* \"SimpleSwap.sol\":7042:7050  amountIn */\n      dup15\n        /* \"SimpleSwap.sol\":6989:6996  tokenIn */\n      dup8\n        /* \"SimpleSwap.sol\":6982:7014  IERC20(tokenIn).safeTransferFrom */\n      0xffffffffffffffffffffffffffffffffffffffff\n      and\n      tag_72\n      swap1\n        /* \"SimpleSwap.sol\":6982:7051  IERC20(tokenIn).safeTransferFrom(msg.sender, address(this), amountIn) */\n      swap4\n      swap3\n      swap2\n      swap1\n      0xffffffff\n      and\n      jump\t// in\n    tag_71:\n        /* \"SimpleSwap.sol\":7065:7079  uint reserveIn */\n      0x00\n        /* \"SimpleSwap.sol\":7081:7096  uint reserveOut */\n      0x00\n        /* \"SimpleSwap.sol\":7110:7118  tokenOut */\n      dup5\n        /* \"SimpleSwap.sol\":7100:7118  tokenIn < tokenOut */\n      0xffffffffffffffffffffffffffffffffffffffff\n      and\n        /* \"SimpleSwap.sol\":7100:7107  tokenIn */\n      dup7\n        /* \"SimpleSwap.sol\":7100:7118  tokenIn < tokenOut */\n      0xffffffffffffffffffffffffffffffffffffffff\n      and\n      lt\n        /* \"SimpleSwap.sol\":7100:7198  tokenIn < tokenOut... */\n      tag_73\n      jumpi\n        /* \"SimpleSwap.sol\":7175:7176  r */\n      dup3\n        /* \"SimpleSwap.sol\":7175:7185  r.reserveB */\n      0x01\n      add\n      sload\n        /* \"SimpleSwap.sol\":7187:7188  r */\n      dup4\n        /* \"SimpleSwap.sol\":7187:7197  r.reserveA */\n      0x00\n      add\n      sload\n        /* \"SimpleSwap.sol\":7100:7198  tokenIn < tokenOut... */\n      jump(tag_74)\n    tag_73:\n        /* \"SimpleSwap.sol\":7135:7136  r */\n      dup3\n        /* \"SimpleSwap.sol\":7135:7145  r.reserveA */\n      0x00\n      add\n      sload\n        /* \"SimpleSwap.sol\":7147:7148  r */\n      dup4\n        /* \"SimpleSwap.sol\":7147:7157  r.reserveB */\n      0x01\n      add\n      sload\n        /* \"SimpleSwap.sol\":7100:7198  tokenIn < tokenOut... */\n    tag_74:\n        /* \"SimpleSwap.sol\":7064:7198  (uint reserveIn, uint reserveOut) = tokenIn < tokenOut... */\n      swap2\n      pop\n      swap2\n      pop\n        /* \"SimpleSwap.sol\":7211:7225  uint amountOut */\n      0x00\n        /* \"SimpleSwap.sol\":7228:7273  getAmountOut(amountIn, reserveIn, reserveOut) */\n      tag_75\n        /* \"SimpleSwap.sol\":7241:7249  amountIn */\n      dup16\n        /* \"SimpleSwap.sol\":7251:7260  reserveIn */\n      dup5\n        /* \"SimpleSwap.sol\":7262:7272  reserveOut */\n      dup5\n        /* \"SimpleSwap.sol\":7228:7240  getAmountOut */\n      tag_11\n        /* \"SimpleSwap.sol\":7228:7273  getAmountOut(amountIn, reserveIn, reserveOut) */\n      jump\t// in\n    tag_75:\n        /* \"SimpleSwap.sol\":7211:7273  uint amountOut = getAmountOut(amountIn, reserveIn, reserveOut) */\n      swap1\n      pop\n        /* \"SimpleSwap.sol\":7305:7317  amountOutMin */\n      dup14\n        /* \"SimpleSwap.sol\":7292:7301  amountOut */\n      dup2\n        /* \"SimpleSwap.sol\":7292:7317  amountOut >= amountOutMin */\n      lt\n      iszero\n        /* \"SimpleSwap.sol\":7284:7348  require(amountOut >= amountOutMin, \"Insufficient output amount\") */\n      tag_76\n      jumpi\n      mload(0x40)\n      0x08c379a000000000000000000000000000000000000000000000000000000000\n      dup2\n      mstore\n      0x04\n      add\n      tag_77\n      swap1\n      tag_78\n      jump\t// in\n    tag_77:\n      mload(0x40)\n      dup1\n      swap2\n      sub\n      swap1\n      revert\n    tag_76:\n        /* \"SimpleSwap.sol\":7409:7417  tokenOut */\n      dup6\n        /* \"SimpleSwap.sol\":7399:7417  tokenIn < tokenOut */\n      0xffffffffffffffffffffffffffffffffffffffff\n      and\n        /* \"SimpleSwap.sol\":7399:7406  tokenIn */\n      dup8\n        /* \"SimpleSwap.sol\":7399:7417  tokenIn < tokenOut */\n      0xffffffffffffffffffffffffffffffffffffffff\n      and\n      lt\n        /* \"SimpleSwap.sol\":7395:7599  if (tokenIn < tokenOut) {... */\n      iszero\n      tag_79\n      jumpi\n        /* \"SimpleSwap.sol\":7448:7456  amountIn */\n      dup15\n        /* \"SimpleSwap.sol\":7434:7435  r */\n      dup5\n        /* \"SimpleSwap.sol\":7434:7444  r.reserveA */\n      0x00\n      add\n      0x00\n        /* \"SimpleSwap.sol\":7434:7456  r.reserveA += amountIn */\n      dup3\n      dup3\n      sload\n      tag_80\n      swap2\n      swap1\n      tag_50\n      jump\t// in\n    tag_80:\n      swap3\n      pop\n      pop\n      dup2\n      swap1\n      sstore\n      pop\n        /* \"SimpleSwap.sol\":7485:7494  amountOut */\n      dup1\n        /* \"SimpleSwap.sol\":7471:7472  r */\n      dup5\n        /* \"SimpleSwap.sol\":7471:7481  r.reserveB */\n      0x01\n      add\n      0x00\n        /* \"SimpleSwap.sol\":7471:7494  r.reserveB -= amountOut */\n      dup3\n      dup3\n      sload\n      tag_81\n      swap2\n      swap1\n      tag_82\n      jump\t// in\n    tag_81:\n      swap3\n      pop\n      pop\n      dup2\n      swap1\n      sstore\n      pop\n        /* \"SimpleSwap.sol\":7395:7599  if (tokenIn < tokenOut) {... */\n      jump(tag_83)\n    tag_79:\n        /* \"SimpleSwap.sol\":7541:7549  amountIn */\n      dup15\n        /* \"SimpleSwap.sol\":7527:7528  r */\n      dup5\n        /* \"SimpleSwap.sol\":7527:7537  r.reserveB */\n      0x01\n      add\n      0x00\n        /* \"SimpleSwap.sol\":7527:7549  r.reserveB += amountIn */\n      dup3\n      dup3\n      sload\n      tag_84\n      swap2\n      swap1\n      tag_50\n      jump\t// in\n    tag_84:\n      swap3\n      pop\n      pop\n      dup2\n      swap1\n      sstore\n      pop\n        /* \"SimpleSwap.sol\":7578:7587  amountOut */\n      dup1\n        /* \"SimpleSwap.sol\":7564:7565  r */\n      dup5\n        /* \"SimpleSwap.sol\":7564:7574  r.reserveA */\n      0x00\n      add\n      0x00\n        /* \"SimpleSwap.sol\":7564:7587  r.reserveA -= amountOut */\n      dup3\n      dup3\n      sload\n      tag_85\n      swap2\n      swap1\n      tag_82\n      jump\t// in\n    tag_85:\n      swap3\n      pop\n      pop\n      dup2\n      swap1\n      sstore\n      pop\n        /* \"SimpleSwap.sol\":7395:7599  if (tokenIn < tokenOut) {... */\n    tag_83:\n        /* \"SimpleSwap.sol\":7611:7655  IERC20(tokenOut).safeTransfer(to, amountOut) */\n      tag_86\n        /* \"SimpleSwap.sol\":7641:7643  to */\n      dup12\n        /* \"SimpleSwap.sol\":7645:7654  amountOut */\n      dup3\n        /* \"SimpleSwap.sol\":7618:7626  tokenOut */\n      dup9\n        /* \"SimpleSwap.sol\":7611:7640  IERC20(tokenOut).safeTransfer */\n      0xffffffffffffffffffffffffffffffffffffffff\n      and\n      tag_87\n      swap1\n        /* \"SimpleSwap.sol\":7611:7655  IERC20(tokenOut).safeTransfer(to, amountOut) */\n      swap3\n      swap2\n      swap1\n      0xffffffff\n      and\n      jump\t// in\n    tag_86:\n        /* \"SimpleSwap.sol\":7689:7690  2 */\n      0x02\n        /* \"SimpleSwap.sol\":7678:7691  new uint[](2) */\n      0xffffffffffffffff\n      dup2\n      gt\n      iszero\n      tag_88\n      jumpi\n      tag_89\n      tag_90\n      jump\t// in\n    tag_89:\n    tag_88:\n      mload(0x40)\n      swap1\n      dup1\n      dup3\n      mstore\n      dup1\n      0x20\n      mul\n      0x20\n      add\n      dup3\n      add\n      0x40\n      mstore\n      dup1\n      iszero\n      tag_91\n      jumpi\n      dup2\n      0x20\n      add\n      0x20\n      dup3\n      mul\n      dup1\n      calldatasize\n      dup4\n      calldatacopy\n      dup1\n      dup3\n      add\n      swap2\n      pop\n      pop\n      swap1\n      pop\n    tag_91:\n      pop\n        /* \"SimpleSwap.sol\":7668:7691  amounts = new uint[](2) */\n      swap9\n      pop\n        /* \"SimpleSwap.sol\":7716:7724  amountIn */\n      dup15\n        /* \"SimpleSwap.sol\":7703:7710  amounts */\n      dup10\n        /* \"SimpleSwap.sol\":7711:7712  0 */\n      0x00\n        /* \"SimpleSwap.sol\":7703:7713  amounts[0] */\n      dup2\n      mload\n      dup2\n      lt\n      tag_92\n      jumpi\n      tag_93\n      tag_63\n      jump\t// in\n    tag_93:\n    tag_92:\n      0x20\n      mul\n      0x20\n      add\n      add\n        /* \"SimpleSwap.sol\":7703:7724  amounts[0] = amountIn */\n      dup2\n      dup2\n      mstore\n      pop\n      pop\n        /* \"SimpleSwap.sol\":7748:7757  amountOut */\n      dup1\n        /* \"SimpleSwap.sol\":7735:7742  amounts */\n      dup10\n        /* \"SimpleSwap.sol\":7743:7744  1 */\n      0x01\n        /* \"SimpleSwap.sol\":7735:7745  amounts[1] */\n      dup2\n      mload\n      dup2\n      lt\n      tag_94\n      jumpi\n      tag_95\n      tag_63\n      jump\t// in\n    tag_95:\n    tag_94:\n      0x20\n      mul\n      0x20\n      add\n      add\n        /* \"SimpleSwap.sol\":7735:7757  amounts[1] = amountOut */\n      dup2\n      dup2\n      mstore\n      pop\n      pop\n        /* \"SimpleSwap.sol\":7830:7840  msg.sender */\n      caller\n        /* \"SimpleSwap.sol\":7825:7884  Swap(msg.sender, tokenIn, tokenOut, amounts[0], amounts[1]) */\n      0xffffffffffffffffffffffffffffffffffffffff\n      and\n      0xcd3829a3813dc3cdd188fd3d01dcf3268c16be2fdd2dd21d0665418816e46062\n        /* \"SimpleSwap.sol\":7842:7849  tokenIn */\n      dup9\n        /* \"SimpleSwap.sol\":7851:7859  tokenOut */\n      dup9\n        /* \"SimpleSwap.sol\":7861:7868  amounts */\n      dup13\n        /* \"SimpleSwap.sol\":7869:7870  0 */\n      0x00\n        /* \"SimpleSwap.sol\":7861:7871  amounts[0] */\n      dup2\n      mload\n      dup2\n      lt\n      tag_96\n      jumpi\n      tag_97\n      tag_63\n      jump\t// in\n    tag_97:\n    tag_96:\n      0x20\n      mul\n      0x20\n      add\n      add\n      mload\n        /* \"SimpleSwap.sol\":7873:7880  amounts */\n      dup14\n        /* \"SimpleSwap.sol\":7881:7882  1 */\n      0x01\n        /* \"SimpleSwap.sol\":7873:7883  amounts[1] */\n      dup2\n      mload\n      dup2\n      lt\n      tag_98\n      jumpi\n      tag_99\n      tag_63\n      jump\t// in\n    tag_99:\n    tag_98:\n      0x20\n      mul\n      0x20\n      add\n      add\n      mload\n        /* \"SimpleSwap.sol\":7825:7884  Swap(msg.sender, tokenIn, tokenOut, amounts[0], amounts[1]) */\n      mload(0x40)\n      tag_100\n      swap5\n      swap4\n      swap3\n      swap2\n      swap1\n      tag_101\n      jump\t// in\n    tag_100:\n      mload(0x40)\n      dup1\n      swap2\n      sub\n      swap1\n      log2\n        /* \"SimpleSwap.sol\":6718:7892  {... */\n      pop\n      pop\n      pop\n      pop\n      pop\n      pop\n      pop\n        /* \"SimpleSwap.sol\":6488:7892  function swapExactTokensForTokens(... */\n      pop\n      swap7\n      swap6\n      pop\n      pop\n      pop\n      pop\n      pop\n      pop\n      jump\t// out\n        /* \"SimpleSwap.sol\":7958:8377  function getPrice(address tokenA, address tokenB) external view returns (uint price) {... */\n    tag_23:\n        /* \"SimpleSwap.sol\":8031:8041  uint price */\n      0x00\n        /* \"SimpleSwap.sol\":8054:8069  bytes32 pairKey */\n      0x00\n        /* \"SimpleSwap.sol\":8072:8099  _getPairKey(tokenA, tokenB) */\n      tag_103\n        /* \"SimpleSwap.sol\":8084:8090  tokenA */\n      dup5\n        /* \"SimpleSwap.sol\":8092:8098  tokenB */\n      dup5\n        /* \"SimpleSwap.sol\":8072:8083  _getPairKey */\n      tag_70\n        /* \"SimpleSwap.sol\":8072:8099  _getPairKey(tokenA, tokenB) */\n      jump\t// in\n    tag_103:\n        /* \"SimpleSwap.sol\":8054:8099  bytes32 pairKey = _getPairKey(tokenA, tokenB) */\n      swap1\n      pop\n        /* \"SimpleSwap.sol\":8110:8127  Reserve storage r */\n      0x00\n        /* \"SimpleSwap.sol\":8130:8138  reserves */\n      0x00\n        /* \"SimpleSwap.sol\":8130:8147  reserves[pairKey] */\n      0x00\n        /* \"SimpleSwap.sol\":8139:8146  pairKey */\n      dup4\n        /* \"SimpleSwap.sol\":8130:8147  reserves[pairKey] */\n      dup2\n      mstore\n      0x20\n      add\n      swap1\n      dup2\n      mstore\n      0x20\n      add\n      0x00\n      keccak256\n        /* \"SimpleSwap.sol\":8110:8147  Reserve storage r = reserves[pairKey] */\n      swap1\n      pop\n        /* \"SimpleSwap.sol\":8159:8172  uint reserveA */\n      0x00\n        /* \"SimpleSwap.sol\":8174:8187  uint reserveB */\n      0x00\n        /* \"SimpleSwap.sol\":8200:8206  tokenB */\n      dup6\n        /* \"SimpleSwap.sol\":8191:8206  tokenA < tokenB */\n      0xffffffffffffffffffffffffffffffffffffffff\n      and\n        /* \"SimpleSwap.sol\":8191:8197  tokenA */\n      dup8\n        /* \"SimpleSwap.sol\":8191:8206  tokenA < tokenB */\n      0xffffffffffffffffffffffffffffffffffffffff\n      and\n      lt\n        /* \"SimpleSwap.sol\":8191:8260  tokenA < tokenB ? (r.reserveA, r.reserveB) : (r.reserveB, r.reserveA) */\n      tag_104\n      jumpi\n        /* \"SimpleSwap.sol\":8237:8238  r */\n      dup3\n        /* \"SimpleSwap.sol\":8237:8247  r.reserveB */\n      0x01\n      add\n      sload\n        /* \"SimpleSwap.sol\":8249:8250  r */\n      dup4\n        /* \"SimpleSwap.sol\":8249:8259  r.reserveA */\n      0x00\n      add\n      sload\n        /* \"SimpleSwap.sol\":8191:8260  tokenA < tokenB ? (r.reserveA, r.reserveB) : (r.reserveB, r.reserveA) */\n      jump(tag_105)\n    tag_104:\n        /* \"SimpleSwap.sol\":8210:8211  r */\n      dup3\n        /* \"SimpleSwap.sol\":8210:8220  r.reserveA */\n      0x00\n      add\n      sload\n        /* \"SimpleSwap.sol\":8222:8223  r */\n      dup4\n        /* \"SimpleSwap.sol\":8222:8232  r.reserveB */\n      0x01\n      add\n      sload\n        /* \"SimpleSwap.sol\":8191:8260  tokenA < tokenB ? (r.reserveA, r.reserveB) : (r.reserveB, r.reserveA) */\n    tag_105:\n        /* \"SimpleSwap.sol\":8158:8260  (uint reserveA, uint reserveB) = tokenA < tokenB ? (r.reserveA, r.reserveB) : (r.reserveB, r.reserveA) */\n      swap2\n      pop\n      swap2\n      pop\n        /* \"SimpleSwap.sol\":8290:8291  0 */\n      0x00\n        /* \"SimpleSwap.sol\":8279:8287  reserveA */\n      dup3\n        /* \"SimpleSwap.sol\":8279:8291  reserveA > 0 */\n      gt\n        /* \"SimpleSwap.sol\":8279:8307  reserveA > 0 && reserveB > 0 */\n      dup1\n      iszero\n      tag_106\n      jumpi\n      pop\n        /* \"SimpleSwap.sol\":8306:8307  0 */\n      0x00\n        /* \"SimpleSwap.sol\":8295:8303  reserveB */\n      dup2\n        /* \"SimpleSwap.sol\":8295:8307  reserveB > 0 */\n      gt\n        /* \"SimpleSwap.sol\":8279:8307  reserveA > 0 && reserveB > 0 */\n    tag_106:\n        /* \"SimpleSwap.sol\":8271:8323  require(reserveA > 0 && reserveB > 0, \"No reserves\") */\n      tag_107\n      jumpi\n      mload(0x40)\n      0x08c379a000000000000000000000000000000000000000000000000000000000\n      dup2\n      mstore\n      0x04\n      add\n      tag_108\n      swap1\n      tag_109\n      jump\t// in\n    tag_108:\n      mload(0x40)\n      dup1\n      swap2\n      sub\n      swap1\n      revert\n    tag_107:\n        /* \"SimpleSwap.sol\":8361:8369  reserveA */\n      dup2\n        /* \"SimpleSwap.sol\":8353:8357  1e18 */\n      0x0de0b6b3a7640000\n        /* \"SimpleSwap.sol\":8342:8350  reserveB */\n      dup3\n        /* \"SimpleSwap.sol\":8342:8357  reserveB * 1e18 */\n      tag_110\n      swap2\n      swap1\n      tag_46\n      jump\t// in\n    tag_110:\n        /* \"SimpleSwap.sol\":8341:8369  (reserveB * 1e18) / reserveA */\n      tag_111\n      swap2\n      swap1\n      tag_52\n      jump\t// in\n    tag_111:\n        /* \"SimpleSwap.sol\":8334:8369  return (reserveB * 1e18) / reserveA */\n      swap5\n      pop\n      pop\n      pop\n      pop\n      pop\n        /* \"SimpleSwap.sol\":7958:8377  function getPrice(address tokenA, address tokenB) external view returns (uint price) {... */\n      swap3\n      swap2\n      pop\n      pop\n      jump\t// out\n        /* \"SimpleSwap.sol\":5359:6434  function removeLiquidity(... */\n    tag_28:\n        /* \"SimpleSwap.sol\":5598:5610  uint amountA */\n      0x00\n        /* \"SimpleSwap.sol\":5612:5624  uint amountB */\n      0x00\n        /* \"SimpleSwap.sol\":5579:5587  deadline */\n      dup3\n        /* \"SimpleSwap.sol\":1130:1138  deadline */\n      dup1\n        /* \"SimpleSwap.sol\":1111:1126  block.timestamp */\n      timestamp\n        /* \"SimpleSwap.sol\":1111:1138  block.timestamp <= deadline */\n      gt\n      iszero\n        /* \"SimpleSwap.sol\":1103:1162  require(block.timestamp <= deadline, \"Transaction expired\") */\n      tag_113\n      jumpi\n      mload(0x40)\n      0x08c379a000000000000000000000000000000000000000000000000000000000\n      dup2\n      mstore\n      0x04\n      add\n      tag_114\n      swap1\n      tag_56\n      jump\t// in\n    tag_114:\n      mload(0x40)\n      dup1\n      swap2\n      sub\n      swap1\n      revert\n    tag_113:\n        /* \"SimpleSwap.sol\":5637:5652  bytes32 pairKey */\n      0x00\n        /* \"SimpleSwap.sol\":5655:5682  _getPairKey(tokenA, tokenB) */\n      tag_116\n        /* \"SimpleSwap.sol\":5667:5673  tokenA */\n      dup12\n        /* \"SimpleSwap.sol\":5675:5681  tokenB */\n      dup12\n        /* \"SimpleSwap.sol\":5655:5666  _getPairKey */\n      tag_70\n        /* \"SimpleSwap.sol\":5655:5682  _getPairKey(tokenA, tokenB) */\n      jump\t// in\n    tag_116:\n        /* \"SimpleSwap.sol\":5637:5682  bytes32 pairKey = _getPairKey(tokenA, tokenB) */\n      swap1\n      pop\n        /* \"SimpleSwap.sol\":5693:5710  Reserve storage r */\n      0x00\n        /* \"SimpleSwap.sol\":5713:5721  reserves */\n      0x00\n        /* \"SimpleSwap.sol\":5713:5730  reserves[pairKey] */\n      0x00\n        /* \"SimpleSwap.sol\":5722:5729  pairKey */\n      dup4\n        /* \"SimpleSwap.sol\":5713:5730  reserves[pairKey] */\n      dup2\n      mstore\n      0x20\n      add\n      swap1\n      dup2\n      mstore\n      0x20\n      add\n      0x00\n      keccak256\n        /* \"SimpleSwap.sol\":5693:5730  Reserve storage r = reserves[pairKey] */\n      swap1\n      pop\n        /* \"SimpleSwap.sol\":5778:5787  liquidity */\n      dup10\n        /* \"SimpleSwap.sol\":5751:5752  r */\n      dup2\n        /* \"SimpleSwap.sol\":5751:5762  r.liquidity */\n      0x03\n      add\n        /* \"SimpleSwap.sol\":5751:5774  r.liquidity[msg.sender] */\n      0x00\n        /* \"SimpleSwap.sol\":5763:5773  msg.sender */\n      caller\n        /* \"SimpleSwap.sol\":5751:5774  r.liquidity[msg.sender] */\n      0xffffffffffffffffffffffffffffffffffffffff\n      and\n      0xffffffffffffffffffffffffffffffffffffffff\n      and\n      dup2\n      mstore\n      0x20\n      add\n      swap1\n      dup2\n      mstore\n      0x20\n      add\n      0x00\n      keccak256\n      sload\n        /* \"SimpleSwap.sol\":5751:5787  r.liquidity[msg.sender] >= liquidity */\n      lt\n      iszero\n        /* \"SimpleSwap.sol\":5743:5814  require(r.liquidity[msg.sender] >= liquidity, \"Insufficient liquidity\") */\n      tag_117\n      jumpi\n      mload(0x40)\n      0x08c379a000000000000000000000000000000000000000000000000000000000\n      dup2\n      mstore\n      0x04\n      add\n      tag_118\n      swap1\n      tag_44\n      jump\t// in\n    tag_118:\n      mload(0x40)\n      dup1\n      swap2\n      sub\n      swap1\n      revert\n    tag_117:\n        /* \"SimpleSwap.sol\":5864:5865  r */\n      dup1\n        /* \"SimpleSwap.sol\":5864:5880  r.totalLiquidity */\n      0x02\n      add\n      sload\n        /* \"SimpleSwap.sol\":5850:5851  r */\n      dup2\n        /* \"SimpleSwap.sol\":5850:5860  r.reserveA */\n      0x00\n      add\n      sload\n        /* \"SimpleSwap.sol\":5838:5847  liquidity */\n      dup12\n        /* \"SimpleSwap.sol\":5838:5860  liquidity * r.reserveA */\n      tag_119\n      swap2\n      swap1\n      tag_46\n      jump\t// in\n    tag_119:\n        /* \"SimpleSwap.sol\":5837:5880  (liquidity * r.reserveA) / r.totalLiquidity */\n      tag_120\n      swap2\n      swap1\n      tag_52\n      jump\t// in\n    tag_120:\n        /* \"SimpleSwap.sol\":5827:5880  amountA = (liquidity * r.reserveA) / r.totalLiquidity */\n      swap5\n      pop\n        /* \"SimpleSwap.sol\":5928:5929  r */\n      dup1\n        /* \"SimpleSwap.sol\":5928:5944  r.totalLiquidity */\n      0x02\n      add\n      sload\n        /* \"SimpleSwap.sol\":5914:5915  r */\n      dup2\n        /* \"SimpleSwap.sol\":5914:5924  r.reserveB */\n      0x01\n      add\n      sload\n        /* \"SimpleSwap.sol\":5902:5911  liquidity */\n      dup12\n        /* \"SimpleSwap.sol\":5902:5924  liquidity * r.reserveB */\n      tag_121\n      swap2\n      swap1\n      tag_46\n      jump\t// in\n    tag_121:\n        /* \"SimpleSwap.sol\":5901:5944  (liquidity * r.reserveB) / r.totalLiquidity */\n      tag_122\n      swap2\n      swap1\n      tag_52\n      jump\t// in\n    tag_122:\n        /* \"SimpleSwap.sol\":5891:5944  amountB = (liquidity * r.reserveB) / r.totalLiquidity */\n      swap4\n      pop\n        /* \"SimpleSwap.sol\":5976:5986  amountAMin */\n      dup9\n        /* \"SimpleSwap.sol\":5965:5972  amountA */\n      dup6\n        /* \"SimpleSwap.sol\":5965:5986  amountA >= amountAMin */\n      lt\n      iszero\n        /* \"SimpleSwap.sol\":5957:6012  require(amountA >= amountAMin, \"Insufficient A amount\") */\n      tag_123\n      jumpi\n      mload(0x40)\n      0x08c379a000000000000000000000000000000000000000000000000000000000\n      dup2\n      mstore\n      0x04\n      add\n      tag_124\n      swap1\n      tag_125\n      jump\t// in\n    tag_124:\n      mload(0x40)\n      dup1\n      swap2\n      sub\n      swap1\n      revert\n    tag_123:\n        /* \"SimpleSwap.sol\":6042:6052  amountBMin */\n      dup8\n        /* \"SimpleSwap.sol\":6031:6038  amountB */\n      dup5\n        /* \"SimpleSwap.sol\":6031:6052  amountB >= amountBMin */\n      lt\n      iszero\n        /* \"SimpleSwap.sol\":6023:6078  require(amountB >= amountBMin, \"Insufficient B amount\") */\n      tag_126\n      jumpi\n      mload(0x40)\n      0x08c379a000000000000000000000000000000000000000000000000000000000\n      dup2\n      mstore\n      0x04\n      add\n      tag_127\n      swap1\n      tag_128\n      jump\t// in\n    tag_127:\n      mload(0x40)\n      dup1\n      swap2\n      sub\n      swap1\n      revert\n    tag_126:\n        /* \"SimpleSwap.sol\":6105:6112  amountA */\n      dup5\n        /* \"SimpleSwap.sol\":6091:6092  r */\n      dup2\n        /* \"SimpleSwap.sol\":6091:6101  r.reserveA */\n      0x00\n      add\n      0x00\n        /* \"SimpleSwap.sol\":6091:6112  r.reserveA -= amountA */\n      dup3\n      dup3\n      sload\n      tag_129\n      swap2\n      swap1\n      tag_82\n      jump\t// in\n    tag_129:\n      swap3\n      pop\n      pop\n      dup2\n      swap1\n      sstore\n      pop\n        /* \"SimpleSwap.sol\":6137:6144  amountB */\n      dup4\n        /* \"SimpleSwap.sol\":6123:6124  r */\n      dup2\n        /* \"SimpleSwap.sol\":6123:6133  r.reserveB */\n      0x01\n      add\n      0x00\n        /* \"SimpleSwap.sol\":6123:6144  r.reserveB -= amountB */\n      dup3\n      dup3\n      sload\n      tag_130\n      swap2\n      swap1\n      tag_82\n      jump\t// in\n    tag_130:\n      swap3\n      pop\n      pop\n      dup2\n      swap1\n      sstore\n      pop\n        /* \"SimpleSwap.sol\":6175:6184  liquidity */\n      dup10\n        /* \"SimpleSwap.sol\":6155:6156  r */\n      dup2\n        /* \"SimpleSwap.sol\":6155:6171  r.totalLiquidity */\n      0x02\n      add\n      0x00\n        /* \"SimpleSwap.sol\":6155:6184  r.totalLiquidity -= liquidity */\n      dup3\n      dup3\n      sload\n      tag_131\n      swap2\n      swap1\n      tag_82\n      jump\t// in\n    tag_131:\n      swap3\n      pop\n      pop\n      dup2\n      swap1\n      sstore\n      pop\n        /* \"SimpleSwap.sol\":6222:6231  liquidity */\n      dup10\n        /* \"SimpleSwap.sol\":6195:6196  r */\n      dup2\n        /* \"SimpleSwap.sol\":6195:6206  r.liquidity */\n      0x03\n      add\n        /* \"SimpleSwap.sol\":6195:6218  r.liquidity[msg.sender] */\n      0x00\n        /* \"SimpleSwap.sol\":6207:6217  msg.sender */\n      caller\n        /* \"SimpleSwap.sol\":6195:6218  r.liquidity[msg.sender] */\n      0xffffffffffffffffffffffffffffffffffffffff\n      and\n      0xffffffffffffffffffffffffffffffffffffffff\n      and\n      dup2\n      mstore\n      0x20\n      add\n      swap1\n      dup2\n      mstore\n      0x20\n      add\n      0x00\n      keccak256\n      0x00\n        /* \"SimpleSwap.sol\":6195:6231  r.liquidity[msg.sender] -= liquidity */\n      dup3\n      dup3\n      sload\n      tag_132\n      swap2\n      swap1\n      tag_82\n      jump\t// in\n    tag_132:\n      swap3\n      pop\n      pop\n      dup2\n      swap1\n      sstore\n      pop\n        /* \"SimpleSwap.sol\":6244:6284  IERC20(tokenA).safeTransfer(to, amountA) */\n      tag_133\n        /* \"SimpleSwap.sol\":6272:6274  to */\n      dup8\n        /* \"SimpleSwap.sol\":6276:6283  amountA */\n      dup7\n        /* \"SimpleSwap.sol\":6251:6257  tokenA */\n      dup15\n        /* \"SimpleSwap.sol\":6244:6271  IERC20(tokenA).safeTransfer */\n      0xffffffffffffffffffffffffffffffffffffffff\n      and\n      tag_87\n      swap1\n        /* \"SimpleSwap.sol\":6244:6284  IERC20(tokenA).safeTransfer(to, amountA) */\n      swap3\n      swap2\n      swap1\n      0xffffffff\n      and\n      jump\t// in\n    tag_133:\n        /* \"SimpleSwap.sol\":6295:6335  IERC20(tokenB).safeTransfer(to, amountB) */\n      tag_134\n        /* \"SimpleSwap.sol\":6323:6325  to */\n      dup8\n        /* \"SimpleSwap.sol\":6327:6334  amountB */\n      dup6\n        /* \"SimpleSwap.sol\":6302:6308  tokenB */\n      dup14\n        /* \"SimpleSwap.sol\":6295:6322  IERC20(tokenB).safeTransfer */\n      0xffffffffffffffffffffffffffffffffffffffff\n      and\n      tag_87\n      swap1\n        /* \"SimpleSwap.sol\":6295:6335  IERC20(tokenB).safeTransfer(to, amountB) */\n      swap3\n      swap2\n      swap1\n      0xffffffff\n      and\n      jump\t// in\n    tag_134:\n        /* \"SimpleSwap.sol\":6370:6380  msg.sender */\n      caller\n        /* \"SimpleSwap.sol\":6353:6426  LiquidityRemoved(msg.sender, tokenA, tokenB, amountA, amountB, liquidity) */\n      0xffffffffffffffffffffffffffffffffffffffff\n      and\n      0xd765e08eef31c0983ecca03ecd166297ac485ecd5dd69e291c848f0a020333c1\n        /* \"SimpleSwap.sol\":6382:6388  tokenA */\n      dup14\n        /* \"SimpleSwap.sol\":6390:6396  tokenB */\n      dup14\n        /* \"SimpleSwap.sol\":6398:6405  amountA */\n      dup9\n        /* \"SimpleSwap.sol\":6407:6414  amountB */\n      dup9\n        /* \"SimpleSwap.sol\":6416:6425  liquidity */\n      dup16\n        /* \"SimpleSwap.sol\":6353:6426  LiquidityRemoved(msg.sender, tokenA, tokenB, amountA, amountB, liquidity) */\n      mload(0x40)\n      tag_135\n      swap6\n      swap5\n      swap4\n      swap3\n      swap2\n      swap1\n      tag_136\n      jump\t// in\n    tag_135:\n      mload(0x40)\n      dup1\n      swap2\n      sub\n      swap1\n      log2\n        /* \"SimpleSwap.sol\":5626:6434  {... */\n      pop\n      pop\n        /* \"SimpleSwap.sol\":5359:6434  function removeLiquidity(... */\n      pop\n      swap8\n      pop\n      swap8\n      swap6\n      pop\n      pop\n      pop\n      pop\n      pop\n      pop\n      jump\t// out\n        /* \"SimpleSwap.sol\":1632:2747  function addLiquidity(... */\n    tag_34:\n        /* \"SimpleSwap.sol\":1867:1879  uint amountA */\n      0x00\n        /* \"SimpleSwap.sol\":1881:1893  uint amountB */\n      0x00\n        /* \"SimpleSwap.sol\":1895:1909  uint liquidity */\n      0x00\n        /* \"SimpleSwap.sol\":1848:1856  deadline */\n      dup4\n        /* \"SimpleSwap.sol\":1130:1138  deadline */\n      dup1\n        /* \"SimpleSwap.sol\":1111:1126  block.timestamp */\n      timestamp\n        /* \"SimpleSwap.sol\":1111:1138  block.timestamp <= deadline */\n      gt\n      iszero\n        /* \"SimpleSwap.sol\":1103:1162  require(block.timestamp <= deadline, \"Transaction expired\") */\n      tag_138\n      jumpi\n      mload(0x40)\n      0x08c379a000000000000000000000000000000000000000000000000000000000\n      dup2\n      mstore\n      0x04\n      add\n      tag_139\n      swap1\n      tag_56\n      jump\t// in\n    tag_139:\n      mload(0x40)\n      dup1\n      swap2\n      sub\n      swap1\n      revert\n    tag_138:\n        /* \"SimpleSwap.sol\":1936:1942  tokenB */\n      dup11\n        /* \"SimpleSwap.sol\":1926:1942  tokenA != tokenB */\n      0xffffffffffffffffffffffffffffffffffffffff\n      and\n        /* \"SimpleSwap.sol\":1926:1932  tokenA */\n      dup13\n        /* \"SimpleSwap.sol\":1926:1942  tokenA != tokenB */\n      0xffffffffffffffffffffffffffffffffffffffff\n      and\n      sub\n        /* \"SimpleSwap.sol\":1918:1963  require(tokenA != tokenB, \"Identical tokens\") */\n      tag_141\n      jumpi\n      mload(0x40)\n      0x08c379a000000000000000000000000000000000000000000000000000000000\n      dup2\n      mstore\n      0x04\n      add\n      tag_142\n      swap1\n      tag_143\n      jump\t// in\n    tag_142:\n      mload(0x40)\n      dup1\n      swap2\n      sub\n      swap1\n      revert\n    tag_141:\n        /* \"SimpleSwap.sol\":1972:1987  bytes32 pairKey */\n      0x00\n        /* \"SimpleSwap.sol\":1990:2017  _getPairKey(tokenA, tokenB) */\n      tag_144\n        /* \"SimpleSwap.sol\":2002:2008  tokenA */\n      dup14\n        /* \"SimpleSwap.sol\":2010:2016  tokenB */\n      dup14\n        /* \"SimpleSwap.sol\":1990:2001  _getPairKey */\n      tag_70\n        /* \"SimpleSwap.sol\":1990:2017  _getPairKey(tokenA, tokenB) */\n      jump\t// in\n    tag_144:\n        /* \"SimpleSwap.sol\":1972:2017  bytes32 pairKey = _getPairKey(tokenA, tokenB) */\n      swap1\n      pop\n        /* \"SimpleSwap.sol\":2024:2041  Reserve storage r */\n      0x00\n        /* \"SimpleSwap.sol\":2044:2052  reserves */\n      0x00\n        /* \"SimpleSwap.sol\":2044:2061  reserves[pairKey] */\n      0x00\n        /* \"SimpleSwap.sol\":2053:2060  pairKey */\n      dup4\n        /* \"SimpleSwap.sol\":2044:2061  reserves[pairKey] */\n      dup2\n      mstore\n      0x20\n      add\n      swap1\n      dup2\n      mstore\n      0x20\n      add\n      0x00\n      keccak256\n        /* \"SimpleSwap.sol\":2024:2061  Reserve storage r = reserves[pairKey] */\n      swap1\n      pop\n        /* \"SimpleSwap.sol\":2091:2311  _quoteAddLiquidity(... */\n      tag_145\n        /* \"SimpleSwap.sol\":2120:2126  tokenA */\n      dup15\n        /* \"SimpleSwap.sol\":2137:2143  tokenB */\n      dup15\n        /* \"SimpleSwap.sol\":2154:2168  amountADesired */\n      dup15\n        /* \"SimpleSwap.sol\":2179:2193  amountBDesired */\n      dup15\n        /* \"SimpleSwap.sol\":2204:2214  amountAMin */\n      dup15\n        /* \"SimpleSwap.sol\":2225:2235  amountBMin */\n      dup15\n        /* \"SimpleSwap.sol\":2246:2247  r */\n      dup8\n        /* \"SimpleSwap.sol\":2246:2256  r.reserveA */\n      0x00\n      add\n      sload\n        /* \"SimpleSwap.sol\":2267:2268  r */\n      dup9\n        /* \"SimpleSwap.sol\":2267:2277  r.reserveB */\n      0x01\n      add\n      sload\n        /* \"SimpleSwap.sol\":2288:2289  r */\n      dup10\n        /* \"SimpleSwap.sol\":2288:2304  r.totalLiquidity */\n      0x02\n      add\n      sload\n        /* \"SimpleSwap.sol\":2091:2109  _quoteAddLiquidity */\n      tag_146\n        /* \"SimpleSwap.sol\":2091:2311  _quoteAddLiquidity(... */\n      jump\t// in\n    tag_145:\n        /* \"SimpleSwap.sol\":2070:2311  (amountA, amountB) = _quoteAddLiquidity(... */\n      dup1\n      swap7\n      pop\n      dup2\n      swap8\n      pop\n      pop\n      pop\n        /* \"SimpleSwap.sol\":2320:2369  _transferTokens(tokenA, tokenB, amountA, amountB) */\n      tag_147\n        /* \"SimpleSwap.sol\":2336:2342  tokenA */\n      dup15\n        /* \"SimpleSwap.sol\":2344:2350  tokenB */\n      dup15\n        /* \"SimpleSwap.sol\":2352:2359  amountA */\n      dup9\n        /* \"SimpleSwap.sol\":2361:2368  amountB */\n      dup9\n        /* \"SimpleSwap.sol\":2320:2335  _transferTokens */\n      tag_148\n        /* \"SimpleSwap.sol\":2320:2369  _transferTokens(tokenA, tokenB, amountA, amountB) */\n      jump\t// in\n    tag_147:\n        /* \"SimpleSwap.sol\":2388:2467  _calculateLiquidity(amountA, amountB, r.reserveA, r.reserveB, r.totalLiquidity) */\n      tag_149\n        /* \"SimpleSwap.sol\":2408:2415  amountA */\n      dup7\n        /* \"SimpleSwap.sol\":2417:2424  amountB */\n      dup7\n        /* \"SimpleSwap.sol\":2426:2427  r */\n      dup4\n        /* \"SimpleSwap.sol\":2426:2436  r.reserveA */\n      0x00\n      add\n      sload\n        /* \"SimpleSwap.sol\":2438:2439  r */\n      dup5\n        /* \"SimpleSwap.sol\":2438:2448  r.reserveB */\n      0x01\n      add\n      sload\n        /* \"SimpleSwap.sol\":2450:2451  r */\n      dup6\n        /* \"SimpleSwap.sol\":2450:2466  r.totalLiquidity */\n      0x02\n      add\n      sload\n        /* \"SimpleSwap.sol\":2388:2407  _calculateLiquidity */\n      tag_150\n        /* \"SimpleSwap.sol\":2388:2467  _calculateLiquidity(amountA, amountB, r.reserveA, r.reserveB, r.totalLiquidity) */\n      jump\t// in\n    tag_149:\n        /* \"SimpleSwap.sol\":2376:2467  liquidity = _calculateLiquidity(amountA, amountB, r.reserveA, r.reserveB, r.totalLiquidity) */\n      swap4\n      pop\n        /* \"SimpleSwap.sol\":2494:2495  0 */\n      0x00\n        /* \"SimpleSwap.sol\":2482:2491  liquidity */\n      dup5\n        /* \"SimpleSwap.sol\":2482:2495  liquidity > 0 */\n      gt\n        /* \"SimpleSwap.sol\":2474:2529  require(liquidity > 0, \"Insufficient liquidity minted\") */\n      tag_151\n      jumpi\n      mload(0x40)\n      0x08c379a000000000000000000000000000000000000000000000000000000000\n      dup2\n      mstore\n      0x04\n      add\n      tag_152\n      swap1\n      tag_153\n      jump\t// in\n    tag_152:\n      mload(0x40)\n      dup1\n      swap2\n      sub\n      swap1\n      revert\n    tag_151:\n        /* \"SimpleSwap.sol\":2552:2559  amountA */\n      dup6\n        /* \"SimpleSwap.sol\":2538:2539  r */\n      dup2\n        /* \"SimpleSwap.sol\":2538:2548  r.reserveA */\n      0x00\n      add\n      0x00\n        /* \"SimpleSwap.sol\":2538:2559  r.reserveA += amountA */\n      dup3\n      dup3\n      sload\n      tag_154\n      swap2\n      swap1\n      tag_50\n      jump\t// in\n    tag_154:\n      swap3\n      pop\n      pop\n      dup2\n      swap1\n      sstore\n      pop\n        /* \"SimpleSwap.sol\":2580:2587  amountB */\n      dup5\n        /* \"SimpleSwap.sol\":2566:2567  r */\n      dup2\n        /* \"SimpleSwap.sol\":2566:2576  r.reserveB */\n      0x01\n      add\n      0x00\n        /* \"SimpleSwap.sol\":2566:2587  r.reserveB += amountB */\n      dup3\n      dup3\n      sload\n      tag_155\n      swap2\n      swap1\n      tag_50\n      jump\t// in\n    tag_155:\n      swap3\n      pop\n      pop\n      dup2\n      swap1\n      sstore\n      pop\n        /* \"SimpleSwap.sol\":2614:2623  liquidity */\n      dup4\n        /* \"SimpleSwap.sol\":2594:2595  r */\n      dup2\n        /* \"SimpleSwap.sol\":2594:2610  r.totalLiquidity */\n      0x02\n      add\n      0x00\n        /* \"SimpleSwap.sol\":2594:2623  r.totalLiquidity += liquidity */\n      dup3\n      dup3\n      sload\n      tag_156\n      swap2\n      swap1\n      tag_50\n      jump\t// in\n    tag_156:\n      swap3\n      pop\n      pop\n      dup2\n      swap1\n      sstore\n      pop\n        /* \"SimpleSwap.sol\":2649:2658  liquidity */\n      dup4\n        /* \"SimpleSwap.sol\":2630:2631  r */\n      dup2\n        /* \"SimpleSwap.sol\":2630:2641  r.liquidity */\n      0x03\n      add\n        /* \"SimpleSwap.sol\":2630:2645  r.liquidity[to] */\n      0x00\n        /* \"SimpleSwap.sol\":2642:2644  to */\n      dup11\n        /* \"SimpleSwap.sol\":2630:2645  r.liquidity[to] */\n      0xffffffffffffffffffffffffffffffffffffffff\n      and\n      0xffffffffffffffffffffffffffffffffffffffff\n      and\n      dup2\n      mstore\n      0x20\n      add\n      swap1\n      dup2\n      mstore\n      0x20\n      add\n      0x00\n      keccak256\n      0x00\n        /* \"SimpleSwap.sol\":2630:2658  r.liquidity[to] += liquidity */\n      dup3\n      dup3\n      sload\n      tag_157\n      swap2\n      swap1\n      tag_50\n      jump\t// in\n    tag_157:\n      swap3\n      pop\n      pop\n      dup2\n      swap1\n      sstore\n      pop\n        /* \"SimpleSwap.sol\":2687:2697  msg.sender */\n      caller\n        /* \"SimpleSwap.sol\":2672:2743  LiquidityAdded(msg.sender, tokenA, tokenB, amountA, amountB, liquidity) */\n      0xffffffffffffffffffffffffffffffffffffffff\n      and\n      0x43c967b388d3a4ccad3f7ab80167852e322e5a3fde9893f530252281b2ae8b70\n        /* \"SimpleSwap.sol\":2699:2705  tokenA */\n      dup16\n        /* \"SimpleSwap.sol\":2707:2713  tokenB */\n      dup16\n        /* \"SimpleSwap.sol\":2715:2722  amountA */\n      dup10\n        /* \"SimpleSwap.sol\":2724:2731  amountB */\n      dup10\n        /* \"SimpleSwap.sol\":2733:2742  liquidity */\n      dup10\n        /* \"SimpleSwap.sol\":2672:2743  LiquidityAdded(msg.sender, tokenA, tokenB, amountA, amountB, liquidity) */\n      mload(0x40)\n      tag_158\n      swap6\n      swap5\n      swap4\n      swap3\n      swap2\n      swap1\n      tag_136\n      jump\t// in\n    tag_158:\n      mload(0x40)\n      dup1\n      swap2\n      sub\n      swap1\n      log2\n        /* \"SimpleSwap.sol\":1911:2747  {... */\n      pop\n      pop\n        /* \"SimpleSwap.sol\":1632:2747  function addLiquidity(... */\n      pop\n      swap9\n      pop\n      swap9\n      pop\n      swap9\n      swap6\n      pop\n      pop\n      pop\n      pop\n      pop\n      pop\n      jump\t// out\n        /* \"SimpleSwap.sol\":1190:1407  function _getPairKey(address tokenA, address tokenB) private pure returns (bytes32) {... */\n    tag_70:\n        /* \"SimpleSwap.sol\":1265:1272  bytes32 */\n      0x00\n        /* \"SimpleSwap.sol\":1301:1307  tokenB */\n      dup2\n        /* \"SimpleSwap.sol\":1292:1307  tokenA < tokenB */\n      0xffffffffffffffffffffffffffffffffffffffff\n      and\n        /* \"SimpleSwap.sol\":1292:1298  tokenA */\n      dup4\n        /* \"SimpleSwap.sol\":1292:1307  tokenA < tokenB */\n      0xffffffffffffffffffffffffffffffffffffffff\n      and\n      lt\n        /* \"SimpleSwap.sol\":1292:1399  tokenA < tokenB ? keccak256(abi.encodePacked(tokenA, tokenB)) : keccak256(abi.encodePacked(tokenB, tokenA)) */\n      tag_160\n      jumpi\n        /* \"SimpleSwap.sol\":1383:1389  tokenB */\n      dup2\n        /* \"SimpleSwap.sol\":1391:1397  tokenA */\n      dup4\n        /* \"SimpleSwap.sol\":1366:1398  abi.encodePacked(tokenB, tokenA) */\n      add(0x20, mload(0x40))\n      tag_161\n      swap3\n      swap2\n      swap1\n      tag_162\n      jump\t// in\n    tag_161:\n      mload(0x40)\n      0x20\n      dup2\n      dup4\n      sub\n      sub\n      dup2\n      mstore\n      swap1\n      0x40\n      mstore\n        /* \"SimpleSwap.sol\":1356:1399  keccak256(abi.encodePacked(tokenB, tokenA)) */\n      dup1\n      mload\n      swap1\n      0x20\n      add\n      keccak256\n        /* \"SimpleSwap.sol\":1292:1399  tokenA < tokenB ? keccak256(abi.encodePacked(tokenA, tokenB)) : keccak256(abi.encodePacked(tokenB, tokenA)) */\n      jump(tag_163)\n    tag_160:\n        /* \"SimpleSwap.sol\":1337:1343  tokenA */\n      dup3\n        /* \"SimpleSwap.sol\":1345:1351  tokenB */\n      dup3\n        /* \"SimpleSwap.sol\":1320:1352  abi.encodePacked(tokenA, tokenB) */\n      add(0x20, mload(0x40))\n      tag_164\n      swap3\n      swap2\n      swap1\n      tag_162\n      jump\t// in\n    tag_164:\n      mload(0x40)\n      0x20\n      dup2\n      dup4\n      sub\n      sub\n      dup2\n      mstore\n      swap1\n      0x40\n      mstore\n        /* \"SimpleSwap.sol\":1310:1353  keccak256(abi.encodePacked(tokenA, tokenB)) */\n      dup1\n      mload\n      swap1\n      0x20\n      add\n      keccak256\n        /* \"SimpleSwap.sol\":1292:1399  tokenA < tokenB ? keccak256(abi.encodePacked(tokenA, tokenB)) : keccak256(abi.encodePacked(tokenB, tokenA)) */\n    tag_163:\n        /* \"SimpleSwap.sol\":1285:1399  return tokenA < tokenB ? keccak256(abi.encodePacked(tokenA, tokenB)) : keccak256(abi.encodePacked(tokenB, tokenA)) */\n      swap1\n      pop\n        /* \"SimpleSwap.sol\":1190:1407  function _getPairKey(address tokenA, address tokenB) private pure returns (bytes32) {... */\n      swap3\n      swap2\n      pop\n      pop\n      jump\t// out\n        /* \"@openzeppelin/contracts/token/ERC20/utils/SafeERC20.sol\":1618:1806  function safeTransferFrom(IERC20 token, address from, address to, uint256 value) internal {... */\n    tag_72:\n        /* \"@openzeppelin/contracts/token/ERC20/utils/SafeERC20.sol\":1718:1799  _callOptionalReturn(token, abi.encodeCall(token.transferFrom, (from, to, value))) */\n      tag_166\n        /* \"@openzeppelin/contracts/token/ERC20/utils/SafeERC20.sol\":1738:1743  token */\n      dup5\n        /* \"@openzeppelin/contracts/token/ERC20/utils/SafeERC20.sol\":1760:1765  token */\n      dup6\n        /* \"@openzeppelin/contracts/token/ERC20/utils/SafeERC20.sol\":1760:1778  token.transferFrom */\n      0xffffffffffffffffffffffffffffffffffffffff\n      and\n      0x23b872dd\n        /* \"@openzeppelin/contracts/token/ERC20/utils/SafeERC20.sol\":1781:1785  from */\n      dup7\n        /* \"@openzeppelin/contracts/token/ERC20/utils/SafeERC20.sol\":1787:1789  to */\n      dup7\n        /* \"@openzeppelin/contracts/token/ERC20/utils/SafeERC20.sol\":1791:1796  value */\n      dup7\n        /* \"@openzeppelin/contracts/token/ERC20/utils/SafeERC20.sol\":1745:1798  abi.encodeCall(token.transferFrom, (from, to, value)) */\n      add(0x24, mload(0x40))\n      tag_167\n      swap4\n      swap3\n      swap2\n      swap1\n      tag_168\n      jump\t// in\n    tag_167:\n      mload(0x40)\n      0x20\n      dup2\n      dup4\n      sub\n      sub\n      dup2\n      mstore\n      swap1\n      0x40\n      mstore\n      swap2\n      pop\n      0xe0\n      shl\n      0x20\n      dup3\n      add\n      dup1\n      mload\n      0xffffffffffffffffffffffffffffffffffffffffffffffffffffffff\n      dup4\n      dup2\n      dup4\n      and\n      or\n      dup4\n      mstore\n      pop\n      pop\n      pop\n      pop\n        /* \"@openzeppelin/contracts/token/ERC20/utils/SafeERC20.sol\":1718:1737  _callOptionalReturn */\n      tag_169\n        /* \"@openzeppelin/contracts/token/ERC20/utils/SafeERC20.sol\":1718:1799  _callOptionalReturn(token, abi.encodeCall(token.transferFrom, (from, to, value))) */\n      jump\t// in\n    tag_166:\n        /* \"@openzeppelin/contracts/token/ERC20/utils/SafeERC20.sol\":1618:1806  function safeTransferFrom(IERC20 token, address from, address to, uint256 value) internal {... */\n      pop\n      pop\n      pop\n      pop\n      jump\t// out\n        /* \"@openzeppelin/contracts/token/ERC20/utils/SafeERC20.sol\":1219:1379  function safeTransfer(IERC20 token, address to, uint256 value) internal {... */\n    tag_87:\n        /* \"@openzeppelin/contracts/token/ERC20/utils/SafeERC20.sol\":1301:1372  _callOptionalReturn(token, abi.encodeCall(token.transfer, (to, value))) */\n      tag_171\n        /* \"@openzeppelin/contracts/token/ERC20/utils/SafeERC20.sol\":1321:1326  token */\n      dup4\n        /* \"@openzeppelin/contracts/token/ERC20/utils/SafeERC20.sol\":1343:1348  token */\n      dup5\n        /* \"@openzeppelin/contracts/token/ERC20/utils/SafeERC20.sol\":1343:1357  token.transfer */\n      0xffffffffffffffffffffffffffffffffffffffff\n      and\n      0xa9059cbb\n        /* \"@openzeppelin/contracts/token/ERC20/utils/SafeERC20.sol\":1360:1362  to */\n      dup6\n        /* \"@openzeppelin/contracts/token/ERC20/utils/SafeERC20.sol\":1364:1369  value */\n      dup6\n        /* \"@openzeppelin/contracts/token/ERC20/utils/SafeERC20.sol\":1328:1371  abi.encodeCall(token.transfer, (to, value)) */\n      add(0x24, mload(0x40))\n      tag_172\n      swap3\n      swap2\n      swap1\n      tag_173\n      jump\t// in\n    tag_172:\n      mload(0x40)\n      0x20\n      dup2\n      dup4\n      sub\n      sub\n      dup2\n      mstore\n      swap1\n      0x40\n      mstore\n      swap2\n      pop\n      0xe0\n      shl\n      0x20\n      dup3\n      add\n      dup1\n      mload\n      0xffffffffffffffffffffffffffffffffffffffffffffffffffffffff\n      dup4\n      dup2\n      dup4\n      and\n      or\n      dup4\n      mstore\n      pop\n      pop\n      pop\n      pop\n        /* \"@openzeppelin/contracts/token/ERC20/utils/SafeERC20.sol\":1301:1320  _callOptionalReturn */\n      tag_169\n        /* \"@openzeppelin/contracts/token/ERC20/utils/SafeERC20.sol\":1301:1372  _callOptionalReturn(token, abi.encodeCall(token.transfer, (to, value))) */\n      jump\t// in\n    tag_171:\n        /* \"@openzeppelin/contracts/token/ERC20/utils/SafeERC20.sol\":1219:1379  function safeTransfer(IERC20 token, address to, uint256 value) internal {... */\n      pop\n      pop\n      pop\n      jump\t// out\n        /* \"SimpleSwap.sol\":2751:3662  function _quoteAddLiquidity(... */\n    tag_146:\n        /* \"SimpleSwap.sol\":3009:3021  uint amountA */\n      0x00\n        /* \"SimpleSwap.sol\":3023:3035  uint amountB */\n      0x00\n        /* \"SimpleSwap.sol\":3066:3067  0 */\n      0x00\n        /* \"SimpleSwap.sol\":3048:3062  totalLiquidity */\n      dup4\n        /* \"SimpleSwap.sol\":3048:3067  totalLiquidity == 0 */\n      sub\n        /* \"SimpleSwap.sol\":3044:3127  if (totalLiquidity == 0) {... */\n      tag_175\n      jumpi\n        /* \"SimpleSwap.sol\":3088:3102  amountADesired */\n      dup9\n        /* \"SimpleSwap.sol\":3104:3118  amountBDesired */\n      dup9\n        /* \"SimpleSwap.sol\":3080:3119  return (amountADesired, amountBDesired) */\n      swap2\n      pop\n      swap2\n      pop\n      jump(tag_174)\n        /* \"SimpleSwap.sol\":3044:3127  if (totalLiquidity == 0) {... */\n    tag_175:\n        /* \"SimpleSwap.sol\":3136:3150  address token0 */\n      0x00\n        /* \"SimpleSwap.sol\":3155:3182  _sortTokens(tokenA, tokenB) */\n      tag_176\n        /* \"SimpleSwap.sol\":3167:3173  tokenA */\n      dup13\n        /* \"SimpleSwap.sol\":3175:3181  tokenB */\n      dup13\n        /* \"SimpleSwap.sol\":3155:3166  _sortTokens */\n      tag_177\n        /* \"SimpleSwap.sol\":3155:3182  _sortTokens(tokenA, tokenB) */\n      jump\t// in\n    tag_176:\n        /* \"SimpleSwap.sol\":3135:3182  (address token0,) = _sortTokens(tokenA, tokenB) */\n      pop\n      swap1\n      pop\n        /* \"SimpleSwap.sol\":3190:3197  uint rA */\n      0x00\n        /* \"SimpleSwap.sol\":3199:3206  uint rB */\n      0x00\n        /* \"SimpleSwap.sol\":3220:3226  token0 */\n      dup3\n        /* \"SimpleSwap.sol\":3210:3226  tokenA == token0 */\n      0xffffffffffffffffffffffffffffffffffffffff\n      and\n        /* \"SimpleSwap.sol\":3210:3216  tokenA */\n      dup15\n        /* \"SimpleSwap.sol\":3210:3226  tokenA == token0 */\n      0xffffffffffffffffffffffffffffffffffffffff\n      and\n      eq\n        /* \"SimpleSwap.sol\":3210:3272  tokenA == token0 ? (reserveA, reserveB) : (reserveB, reserveA) */\n      tag_178\n      jumpi\n        /* \"SimpleSwap.sol\":3253:3261  reserveB */\n      dup7\n        /* \"SimpleSwap.sol\":3263:3271  reserveA */\n      dup9\n        /* \"SimpleSwap.sol\":3210:3272  tokenA == token0 ? (reserveA, reserveB) : (reserveB, reserveA) */\n      jump(tag_179)\n    tag_178:\n        /* \"SimpleSwap.sol\":3230:3238  reserveA */\n      dup8\n        /* \"SimpleSwap.sol\":3240:3248  reserveB */\n      dup8\n        /* \"SimpleSwap.sol\":3210:3272  tokenA == token0 ? (reserveA, reserveB) : (reserveB, reserveA) */\n    tag_179:\n        /* \"SimpleSwap.sol\":3189:3272  (uint rA, uint rB) = tokenA == token0 ? (reserveA, reserveB) : (reserveB, reserveA) */\n      swap2\n      pop\n      swap2\n      pop\n        /* \"SimpleSwap.sol\":3281:3294  uint bOptimal */\n      0x00\n        /* \"SimpleSwap.sol\":3321:3323  rA */\n      dup3\n        /* \"SimpleSwap.sol\":3315:3317  rB */\n      dup3\n        /* \"SimpleSwap.sol\":3298:3312  amountADesired */\n      dup15\n        /* \"SimpleSwap.sol\":3298:3317  amountADesired * rB */\n      tag_180\n      swap2\n      swap1\n      tag_46\n      jump\t// in\n    tag_180:\n        /* \"SimpleSwap.sol\":3297:3323  (amountADesired * rB) / rA */\n      tag_181\n      swap2\n      swap1\n      tag_52\n      jump\t// in\n    tag_181:\n        /* \"SimpleSwap.sol\":3281:3323  uint bOptimal = (amountADesired * rB) / rA */\n      swap1\n      pop\n        /* \"SimpleSwap.sol\":3346:3360  amountBDesired */\n      dup12\n        /* \"SimpleSwap.sol\":3334:3342  bOptimal */\n      dup2\n        /* \"SimpleSwap.sol\":3334:3360  bOptimal <= amountBDesired */\n      gt\n        /* \"SimpleSwap.sol\":3330:3659  if (bOptimal <= amountBDesired) {... */\n      tag_182\n      jumpi\n        /* \"SimpleSwap.sol\":3393:3403  amountBMin */\n      dup10\n        /* \"SimpleSwap.sol\":3381:3389  bOptimal */\n      dup2\n        /* \"SimpleSwap.sol\":3381:3403  bOptimal >= amountBMin */\n      lt\n      iszero\n        /* \"SimpleSwap.sol\":3373:3429  require(bOptimal >= amountBMin, \"Insufficient B amount\") */\n      tag_183\n      jumpi\n      mload(0x40)\n      0x08c379a000000000000000000000000000000000000000000000000000000000\n      dup2\n      mstore\n      0x04\n      add\n      tag_184\n      swap1\n      tag_128\n      jump\t// in\n    tag_184:\n      mload(0x40)\n      dup1\n      swap2\n      sub\n      swap1\n      revert\n    tag_183:\n        /* \"SimpleSwap.sol\":3448:3462  amountADesired */\n      dup13\n        /* \"SimpleSwap.sol\":3464:3472  bOptimal */\n      dup2\n        /* \"SimpleSwap.sol\":3440:3473  return (amountADesired, bOptimal) */\n      swap6\n      pop\n      swap6\n      pop\n      pop\n      pop\n      pop\n      pop\n      jump(tag_174)\n        /* \"SimpleSwap.sol\":3330:3659  if (bOptimal <= amountBDesired) {... */\n    tag_182:\n        /* \"SimpleSwap.sol\":3498:3511  uint aOptimal */\n      0x00\n        /* \"SimpleSwap.sol\":3538:3540  rB */\n      dup3\n        /* \"SimpleSwap.sol\":3532:3534  rA */\n      dup5\n        /* \"SimpleSwap.sol\":3515:3529  amountBDesired */\n      dup15\n        /* \"SimpleSwap.sol\":3515:3534  amountBDesired * rA */\n      tag_186\n      swap2\n      swap1\n      tag_46\n      jump\t// in\n    tag_186:\n        /* \"SimpleSwap.sol\":3514:3540  (amountBDesired * rA) / rB */\n      tag_187\n      swap2\n      swap1\n      tag_52\n      jump\t// in\n    tag_187:\n        /* \"SimpleSwap.sol\":3498:3540  uint aOptimal = (amountBDesired * rA) / rB */\n      swap1\n      pop\n        /* \"SimpleSwap.sol\":3571:3581  amountAMin */\n      dup12\n        /* \"SimpleSwap.sol\":3559:3567  aOptimal */\n      dup2\n        /* \"SimpleSwap.sol\":3559:3581  aOptimal >= amountAMin */\n      lt\n      iszero\n        /* \"SimpleSwap.sol\":3551:3607  require(aOptimal >= amountAMin, \"Insufficient A amount\") */\n      tag_188\n      jumpi\n      mload(0x40)\n      0x08c379a000000000000000000000000000000000000000000000000000000000\n      dup2\n      mstore\n      0x04\n      add\n      tag_189\n      swap1\n      tag_125\n      jump\t// in\n    tag_189:\n      mload(0x40)\n      dup1\n      swap2\n      sub\n      swap1\n      revert\n    tag_188:\n        /* \"SimpleSwap.sol\":3626:3634  aOptimal */\n      dup1\n        /* \"SimpleSwap.sol\":3636:3650  amountBDesired */\n      dup14\n        /* \"SimpleSwap.sol\":3618:3651  return (aOptimal, amountBDesired) */\n      swap7\n      pop\n      swap7\n      pop\n      pop\n      pop\n      pop\n      pop\n      pop\n        /* \"SimpleSwap.sol\":2751:3662  function _quoteAddLiquidity(... */\n    tag_174:\n      swap10\n      pop\n      swap10\n      swap8\n      pop\n      pop\n      pop\n      pop\n      pop\n      pop\n      pop\n      pop\n      jump\t// out\n        /* \"SimpleSwap.sol\":3666:3912  function _transferTokens(address tokenA, address tokenB, uint amountA, uint amountB) internal {... */\n    tag_148:\n        /* \"SimpleSwap.sol\":3767:3834  IERC20(tokenA).safeTransferFrom(msg.sender, address(this), amountA) */\n      tag_191\n        /* \"SimpleSwap.sol\":3799:3809  msg.sender */\n      caller\n        /* \"SimpleSwap.sol\":3819:3823  this */\n      address\n        /* \"SimpleSwap.sol\":3826:3833  amountA */\n      dup5\n        /* \"SimpleSwap.sol\":3774:3780  tokenA */\n      dup8\n        /* \"SimpleSwap.sol\":3767:3798  IERC20(tokenA).safeTransferFrom */\n      0xffffffffffffffffffffffffffffffffffffffff\n      and\n      tag_72\n      swap1\n        /* \"SimpleSwap.sol\":3767:3834  IERC20(tokenA).safeTransferFrom(msg.sender, address(this), amountA) */\n      swap4\n      swap3\n      swap2\n      swap1\n      0xffffffff\n      and\n      jump\t// in\n    tag_191:\n        /* \"SimpleSwap.sol\":3841:3908  IERC20(tokenB).safeTransferFrom(msg.sender, address(this), amountB) */\n      tag_192\n        /* \"SimpleSwap.sol\":3873:3883  msg.sender */\n      caller\n        /* \"SimpleSwap.sol\":3893:3897  this */\n      address\n        /* \"SimpleSwap.sol\":3900:3907  amountB */\n      dup4\n        /* \"SimpleSwap.sol\":3848:3854  tokenB */\n      dup7\n        /* \"SimpleSwap.sol\":3841:3872  IERC20(tokenB).safeTransferFrom */\n      0xffffffffffffffffffffffffffffffffffffffff\n      and\n      tag_72\n      swap1\n        /* \"SimpleSwap.sol\":3841:3908  IERC20(tokenB).safeTransferFrom(msg.sender, address(this), amountB) */\n      swap4\n      swap3\n      swap2\n      swap1\n      0xffffffff\n      and\n      jump\t// in\n    tag_192:\n        /* \"SimpleSwap.sol\":3666:3912  function _transferTokens(address tokenA, address tokenB, uint amountA, uint amountB) internal {... */\n      pop\n      pop\n      pop\n      pop\n      jump\t// out\n        /* \"SimpleSwap.sol\":3916:4345  function _calculateLiquidity(... */\n    tag_150:\n        /* \"SimpleSwap.sol\":4075:4089  uint liquidity */\n      0x00\n        /* \"SimpleSwap.sol\":4120:4121  0 */\n      0x00\n        /* \"SimpleSwap.sol\":4102:4116  totalLiquidity */\n      dup3\n        /* \"SimpleSwap.sol\":4102:4121  totalLiquidity == 0 */\n      sub\n        /* \"SimpleSwap.sol\":4098:4342  if (totalLiquidity == 0) {... */\n      tag_194\n      jumpi\n        /* \"SimpleSwap.sol\":4146:4174  Math.sqrt(amountA * amountB) */\n      tag_195\n        /* \"SimpleSwap.sol\":4166:4173  amountB */\n      dup6\n        /* \"SimpleSwap.sol\":4156:4163  amountA */\n      dup8\n        /* \"SimpleSwap.sol\":4156:4173  amountA * amountB */\n      tag_196\n      swap2\n      swap1\n      tag_46\n      jump\t// in\n    tag_196:\n        /* \"SimpleSwap.sol\":4146:4155  Math.sqrt */\n      tag_197\n        /* \"SimpleSwap.sol\":4146:4174  Math.sqrt(amountA * amountB) */\n      jump\t// in\n    tag_195:\n        /* \"SimpleSwap.sol\":4134:4174  liquidity = Math.sqrt(amountA * amountB) */\n      swap1\n      pop\n        /* \"SimpleSwap.sol\":4098:4342  if (totalLiquidity == 0) {... */\n      jump(tag_198)\n    tag_194:\n        /* \"SimpleSwap.sol\":4211:4334  Math.min(... */\n      tag_199\n        /* \"SimpleSwap.sol\":4263:4271  reserveA */\n      dup5\n        /* \"SimpleSwap.sol\":4245:4259  totalLiquidity */\n      dup4\n        /* \"SimpleSwap.sol\":4235:4242  amountA */\n      dup9\n        /* \"SimpleSwap.sol\":4235:4259  amountA * totalLiquidity */\n      tag_200\n      swap2\n      swap1\n      tag_46\n      jump\t// in\n    tag_200:\n        /* \"SimpleSwap.sol\":4234:4271  (amountA * totalLiquidity) / reserveA */\n      tag_201\n      swap2\n      swap1\n      tag_52\n      jump\t// in\n    tag_201:\n        /* \"SimpleSwap.sol\":4315:4323  reserveB */\n      dup5\n        /* \"SimpleSwap.sol\":4297:4311  totalLiquidity */\n      dup5\n        /* \"SimpleSwap.sol\":4287:4294  amountB */\n      dup9\n        /* \"SimpleSwap.sol\":4287:4311  amountB * totalLiquidity */\n      tag_202\n      swap2\n      swap1\n      tag_46\n      jump\t// in\n    tag_202:\n        /* \"SimpleSwap.sol\":4286:4323  (amountB * totalLiquidity) / reserveB */\n      tag_203\n      swap2\n      swap1\n      tag_52\n      jump\t// in\n    tag_203:\n        /* \"SimpleSwap.sol\":4211:4219  Math.min */\n      tag_204\n        /* \"SimpleSwap.sol\":4211:4334  Math.min(... */\n      jump\t// in\n    tag_199:\n        /* \"SimpleSwap.sol\":4199:4334  liquidity = Math.min(... */\n      swap1\n      pop\n        /* \"SimpleSwap.sol\":4098:4342  if (totalLiquidity == 0) {... */\n    tag_198:\n        /* \"SimpleSwap.sol\":3916:4345  function _calculateLiquidity(... */\n      swap6\n      swap5\n      pop\n      pop\n      pop\n      pop\n      pop\n      jump\t// out\n        /* \"@openzeppelin/contracts/token/ERC20/utils/SafeERC20.sol\":8370:9090  function _callOptionalReturn(IERC20 token, bytes memory data) private {... */\n    tag_169:\n        /* \"@openzeppelin/contracts/token/ERC20/utils/SafeERC20.sol\":8450:8468  uint256 returnSize */\n      0x00\n        /* \"@openzeppelin/contracts/token/ERC20/utils/SafeERC20.sol\":8478:8497  uint256 returnValue */\n      0x00\n        /* \"@openzeppelin/contracts/token/ERC20/utils/SafeERC20.sol\":8616:8620  0x20 */\n      0x20\n        /* \"@openzeppelin/contracts/token/ERC20/utils/SafeERC20.sol\":8613:8614  0 */\n      0x00\n        /* \"@openzeppelin/contracts/token/ERC20/utils/SafeERC20.sol\":8606:8610  data */\n      dup5\n        /* \"@openzeppelin/contracts/token/ERC20/utils/SafeERC20.sol\":8600:8611  mload(data) */\n      mload\n        /* \"@openzeppelin/contracts/token/ERC20/utils/SafeERC20.sol\":8593:8597  0x20 */\n      0x20\n        /* \"@openzeppelin/contracts/token/ERC20/utils/SafeERC20.sol\":8587:8591  data */\n      dup7\n        /* \"@openzeppelin/contracts/token/ERC20/utils/SafeERC20.sol\":8583:8598  add(data, 0x20) */\n      add\n        /* \"@openzeppelin/contracts/token/ERC20/utils/SafeERC20.sol\":8580:8581  0 */\n      0x00\n        /* \"@openzeppelin/contracts/token/ERC20/utils/SafeERC20.sol\":8573:8578  token */\n      dup9\n        /* \"@openzeppelin/contracts/token/ERC20/utils/SafeERC20.sol\":8566:8571  gas() */\n      gas\n        /* \"@openzeppelin/contracts/token/ERC20/utils/SafeERC20.sol\":8561:8621  call(gas(), token, 0, add(data, 0x20), mload(data), 0, 0x20) */\n      call\n        /* \"@openzeppelin/contracts/token/ERC20/utils/SafeERC20.sol\":8673:8680  success */\n      dup1\n        /* \"@openzeppelin/contracts/token/ERC20/utils/SafeERC20.sol\":8663:8839  if iszero(success) {... */\n      tag_206\n      jumpi\n        /* \"@openzeppelin/contracts/token/ERC20/utils/SafeERC20.sol\":8717:8721  0x40 */\n      0x40\n        /* \"@openzeppelin/contracts/token/ERC20/utils/SafeERC20.sol\":8711:8722  mload(0x40) */\n      mload\n        /* \"@openzeppelin/contracts/token/ERC20/utils/SafeERC20.sol\":8762:8778  returndatasize() */\n      returndatasize\n        /* \"@openzeppelin/contracts/token/ERC20/utils/SafeERC20.sol\":8759:8760  0 */\n      0x00\n        /* \"@openzeppelin/contracts/token/ERC20/utils/SafeERC20.sol\":8754:8757  ptr */\n      dup3\n        /* \"@openzeppelin/contracts/token/ERC20/utils/SafeERC20.sol\":8739:8779  returndatacopy(ptr, 0, returndatasize()) */\n      returndatacopy\n        /* \"@openzeppelin/contracts/token/ERC20/utils/SafeERC20.sol\":8808:8824  returndatasize() */\n      returndatasize\n        /* \"@openzeppelin/contracts/token/ERC20/utils/SafeERC20.sol\":8803:8806  ptr */\n      dup2\n        /* \"@openzeppelin/contracts/token/ERC20/utils/SafeERC20.sol\":8796:8825  revert(ptr, returndatasize()) */\n      revert\n        /* \"@openzeppelin/contracts/token/ERC20/utils/SafeERC20.sol\":8663:8839  if iszero(success) {... */\n    tag_206:\n        /* \"@openzeppelin/contracts/token/ERC20/utils/SafeERC20.sol\":8866:8882  returndatasize() */\n      returndatasize\n        /* \"@openzeppelin/contracts/token/ERC20/utils/SafeERC20.sol\":8852:8882  returnSize := returndatasize() */\n      swap3\n      pop\n        /* \"@openzeppelin/contracts/token/ERC20/utils/SafeERC20.sol\":8916:8917  0 */\n      0x00\n        /* \"@openzeppelin/contracts/token/ERC20/utils/SafeERC20.sol\":8910:8918  mload(0) */\n      mload\n        /* \"@openzeppelin/contracts/token/ERC20/utils/SafeERC20.sol\":8895:8918  returnValue := mload(0) */\n      swap2\n      pop\n        /* \"@openzeppelin/contracts/token/ERC20/utils/SafeERC20.sol\":8532:8928  {... */\n      pop\n        /* \"@openzeppelin/contracts/token/ERC20/utils/SafeERC20.sol\":8956:8957  0 */\n      0x00\n        /* \"@openzeppelin/contracts/token/ERC20/utils/SafeERC20.sol\":8942:8952  returnSize */\n      dup3\n        /* \"@openzeppelin/contracts/token/ERC20/utils/SafeERC20.sol\":8942:8957  returnSize == 0 */\n      eq\n        /* \"@openzeppelin/contracts/token/ERC20/utils/SafeERC20.sol\":8942:9010  returnSize == 0 ? address(token).code.length == 0 : returnValue != 1 */\n      tag_207\n      jumpi\n        /* \"@openzeppelin/contracts/token/ERC20/utils/SafeERC20.sol\":9009:9010  1 */\n      0x01\n        /* \"@openzeppelin/contracts/token/ERC20/utils/SafeERC20.sol\":8994:9005  returnValue */\n      dup2\n        /* \"@openzeppelin/contracts/token/ERC20/utils/SafeERC20.sol\":8994:9010  returnValue != 1 */\n      eq\n      iszero\n        /* \"@openzeppelin/contracts/token/ERC20/utils/SafeERC20.sol\":8942:9010  returnSize == 0 ? address(token).code.length == 0 : returnValue != 1 */\n      jump(tag_208)\n    tag_207:\n        /* \"@openzeppelin/contracts/token/ERC20/utils/SafeERC20.sol\":8990:8991  0 */\n      0x00\n        /* \"@openzeppelin/contracts/token/ERC20/utils/SafeERC20.sol\":8968:8973  token */\n      dup5\n        /* \"@openzeppelin/contracts/token/ERC20/utils/SafeERC20.sol\":8960:8986  address(token).code.length */\n      0xffffffffffffffffffffffffffffffffffffffff\n      and\n      extcodesize\n        /* \"@openzeppelin/contracts/token/ERC20/utils/SafeERC20.sol\":8960:8991  address(token).code.length == 0 */\n      eq\n        /* \"@openzeppelin/contracts/token/ERC20/utils/SafeERC20.sol\":8942:9010  returnSize == 0 ? address(token).code.length == 0 : returnValue != 1 */\n    tag_208:\n        /* \"@openzeppelin/contracts/token/ERC20/utils/SafeERC20.sol\":8938:9084  if (returnSize == 0 ? address(token).code.length == 0 : returnValue != 1) {... */\n      iszero\n      tag_209\n      jumpi\n        /* \"@openzeppelin/contracts/token/ERC20/utils/SafeERC20.sol\":9066:9071  token */\n      dup4\n        /* \"@openzeppelin/contracts/token/ERC20/utils/SafeERC20.sol\":9033:9073  SafeERC20FailedOperation(address(token)) */\n      mload(0x40)\n      0x5274afe700000000000000000000000000000000000000000000000000000000\n      dup2\n      mstore\n      0x04\n      add\n      tag_210\n      swap2\n      swap1\n      tag_211\n      jump\t// in\n    tag_210:\n      mload(0x40)\n      dup1\n      swap2\n      sub\n      swap1\n      revert\n        /* \"@openzeppelin/contracts/token/ERC20/utils/SafeERC20.sol\":8938:9084  if (returnSize == 0 ? address(token).code.length == 0 : returnValue != 1) {... */\n    tag_209:\n        /* \"@openzeppelin/contracts/token/ERC20/utils/SafeERC20.sol\":8440:9090  {... */\n      pop\n      pop\n        /* \"@openzeppelin/contracts/token/ERC20/utils/SafeERC20.sol\":8370:9090  function _callOptionalReturn(IERC20 token, bytes memory data) private {... */\n      pop\n      pop\n      jump\t// out\n        /* \"SimpleSwap.sol\":1415:1587  function _sortTokens(address tokenA, address tokenB) private pure returns (address, address) {... */\n    tag_177:\n        /* \"SimpleSwap.sol\":1490:1497  address */\n      0x00\n        /* \"SimpleSwap.sol\":1499:1506  address */\n      0x00\n        /* \"SimpleSwap.sol\":1535:1541  tokenB */\n      dup3\n        /* \"SimpleSwap.sol\":1526:1541  tokenA < tokenB */\n      0xffffffffffffffffffffffffffffffffffffffff\n      and\n        /* \"SimpleSwap.sol\":1526:1532  tokenA */\n      dup5\n        /* \"SimpleSwap.sol\":1526:1541  tokenA < tokenB */\n      0xffffffffffffffffffffffffffffffffffffffff\n      and\n      lt\n        /* \"SimpleSwap.sol\":1526:1579  tokenA < tokenB ? (tokenA, tokenB) : (tokenB, tokenA) */\n      tag_213\n      jumpi\n        /* \"SimpleSwap.sol\":1564:1570  tokenB */\n      dup3\n        /* \"SimpleSwap.sol\":1572:1578  tokenA */\n      dup5\n        /* \"SimpleSwap.sol\":1526:1579  tokenA < tokenB ? (tokenA, tokenB) : (tokenB, tokenA) */\n      jump(tag_214)\n    tag_213:\n        /* \"SimpleSwap.sol\":1545:1551  tokenA */\n      dup4\n        /* \"SimpleSwap.sol\":1553:1559  tokenB */\n      dup4\n        /* \"SimpleSwap.sol\":1526:1579  tokenA < tokenB ? (tokenA, tokenB) : (tokenB, tokenA) */\n    tag_214:\n        /* \"SimpleSwap.sol\":1519:1579  return tokenA < tokenB ? (tokenA, tokenB) : (tokenB, tokenA) */\n      swap2\n      pop\n      swap2\n      pop\n        /* \"SimpleSwap.sol\":1415:1587  function _sortTokens(address tokenA, address tokenB) private pure returns (address, address) {... */\n      swap3\n      pop\n      swap3\n      swap1\n      pop\n      jump\t// out\n        /* \"@openzeppelin/contracts/utils/math/Math.sol\":20567:25748  function sqrt(uint256 a) internal pure returns (uint256) {... */\n    tag_197:\n        /* \"@openzeppelin/contracts/utils/math/Math.sol\":20615:20622  uint256 */\n      0x00\n        /* \"@openzeppelin/contracts/utils/math/Math.sol\":20733:20734  1 */\n      0x01\n        /* \"@openzeppelin/contracts/utils/math/Math.sol\":20728:20729  a */\n      dup3\n        /* \"@openzeppelin/contracts/utils/math/Math.sol\":20728:20734  a <= 1 */\n      gt\n        /* \"@openzeppelin/contracts/utils/math/Math.sol\":20724:20777  if (a <= 1) {... */\n      tag_216\n      jumpi\n        /* \"@openzeppelin/contracts/utils/math/Math.sol\":20761:20762  a */\n      dup2\n        /* \"@openzeppelin/contracts/utils/math/Math.sol\":20754:20762  return a */\n      swap1\n      pop\n      jump(tag_215)\n        /* \"@openzeppelin/contracts/utils/math/Math.sol\":20724:20777  if (a <= 1) {... */\n    tag_216:\n        /* \"@openzeppelin/contracts/utils/math/Math.sol\":21704:21714  uint256 aa */\n      0x00\n        /* \"@openzeppelin/contracts/utils/math/Math.sol\":21717:21718  a */\n      dup3\n        /* \"@openzeppelin/contracts/utils/math/Math.sol\":21704:21718  uint256 aa = a */\n      swap1\n      pop\n        /* \"@openzeppelin/contracts/utils/math/Math.sol\":21732:21742  uint256 xn */\n      0x00\n        /* \"@openzeppelin/contracts/utils/math/Math.sol\":21745:21746  1 */\n      0x01\n        /* \"@openzeppelin/contracts/utils/math/Math.sol\":21732:21746  uint256 xn = 1 */\n      swap1\n      pop\n        /* \"@openzeppelin/contracts/utils/math/Math.sol\":21772:21780  1 << 128 */\n      0x0100000000000000000000000000000000\n        /* \"@openzeppelin/contracts/utils/math/Math.sol\":21765:21767  aa */\n      dup3\n        /* \"@openzeppelin/contracts/utils/math/Math.sol\":21765:21781  aa >= (1 << 128) */\n      lt\n        /* \"@openzeppelin/contracts/utils/math/Math.sol\":21761:21853  if (aa >= (1 << 128)) {... */\n      tag_217\n      jumpi\n        /* \"@openzeppelin/contracts/utils/math/Math.sol\":21808:21811  128 */\n      0x80\n        /* \"@openzeppelin/contracts/utils/math/Math.sol\":21801:21811  aa >>= 128 */\n      dup3\n      swap1\n      shr\n      swap2\n      pop\n        /* \"@openzeppelin/contracts/utils/math/Math.sol\":21836:21838  64 */\n      0x40\n        /* \"@openzeppelin/contracts/utils/math/Math.sol\":21829:21838  xn <<= 64 */\n      dup2\n      swap1\n      shl\n      swap1\n      pop\n        /* \"@openzeppelin/contracts/utils/math/Math.sol\":21761:21853  if (aa >= (1 << 128)) {... */\n    tag_217:\n        /* \"@openzeppelin/contracts/utils/math/Math.sol\":21877:21884  1 << 64 */\n      0x010000000000000000\n        /* \"@openzeppelin/contracts/utils/math/Math.sol\":21870:21872  aa */\n      dup3\n        /* \"@openzeppelin/contracts/utils/math/Math.sol\":21870:21885  aa >= (1 << 64) */\n      lt\n        /* \"@openzeppelin/contracts/utils/math/Math.sol\":21866:21956  if (aa >= (1 << 64)) {... */\n      tag_218\n      jumpi\n        /* \"@openzeppelin/contracts/utils/math/Math.sol\":21912:21914  64 */\n      0x40\n        /* \"@openzeppelin/contracts/utils/math/Math.sol\":21905:21914  aa >>= 64 */\n      dup3\n      swap1\n      shr\n      swap2\n      pop\n        /* \"@openzeppelin/contracts/utils/math/Math.sol\":21939:21941  32 */\n      0x20\n        /* \"@openzeppelin/contracts/utils/math/Math.sol\":21932:21941  xn <<= 32 */\n      dup2\n      swap1\n      shl\n      swap1\n      pop\n        /* \"@openzeppelin/contracts/utils/math/Math.sol\":21866:21956  if (aa >= (1 << 64)) {... */\n    tag_218:\n        /* \"@openzeppelin/contracts/utils/math/Math.sol\":21980:21987  1 << 32 */\n      0x0100000000\n        /* \"@openzeppelin/contracts/utils/math/Math.sol\":21973:21975  aa */\n      dup3\n        /* \"@openzeppelin/contracts/utils/math/Math.sol\":21973:21988  aa >= (1 << 32) */\n      lt\n        /* \"@openzeppelin/contracts/utils/math/Math.sol\":21969:22059  if (aa >= (1 << 32)) {... */\n      tag_219\n      jumpi\n        /* \"@openzeppelin/contracts/utils/math/Math.sol\":22015:22017  32 */\n      0x20\n        /* \"@openzeppelin/contracts/utils/math/Math.sol\":22008:22017  aa >>= 32 */\n      dup3\n      swap1\n      shr\n      swap2\n      pop\n        /* \"@openzeppelin/contracts/utils/math/Math.sol\":22042:22044  16 */\n      0x10\n        /* \"@openzeppelin/contracts/utils/math/Math.sol\":22035:22044  xn <<= 16 */\n      dup2\n      swap1\n      shl\n      swap1\n      pop\n        /* \"@openzeppelin/contracts/utils/math/Math.sol\":21969:22059  if (aa >= (1 << 32)) {... */\n    tag_219:\n        /* \"@openzeppelin/contracts/utils/math/Math.sol\":22083:22090  1 << 16 */\n      0x010000\n        /* \"@openzeppelin/contracts/utils/math/Math.sol\":22076:22078  aa */\n      dup3\n        /* \"@openzeppelin/contracts/utils/math/Math.sol\":22076:22091  aa >= (1 << 16) */\n      lt\n        /* \"@openzeppelin/contracts/utils/math/Math.sol\":22072:22161  if (aa >= (1 << 16)) {... */\n      tag_220\n      jumpi\n        /* \"@openzeppelin/contracts/utils/math/Math.sol\":22118:22120  16 */\n      0x10\n        /* \"@openzeppelin/contracts/utils/math/Math.sol\":22111:22120  aa >>= 16 */\n      dup3\n      swap1\n      shr\n      swap2\n      pop\n        /* \"@openzeppelin/contracts/utils/math/Math.sol\":22145:22146  8 */\n      0x08\n        /* \"@openzeppelin/contracts/utils/math/Math.sol\":22138:22146  xn <<= 8 */\n      dup2\n      swap1\n      shl\n      swap1\n      pop\n        /* \"@openzeppelin/contracts/utils/math/Math.sol\":22072:22161  if (aa >= (1 << 16)) {... */\n    tag_220:\n        /* \"@openzeppelin/contracts/utils/math/Math.sol\":22185:22191  1 << 8 */\n      0x0100\n        /* \"@openzeppelin/contracts/utils/math/Math.sol\":22178:22180  aa */\n      dup3\n        /* \"@openzeppelin/contracts/utils/math/Math.sol\":22178:22192  aa >= (1 << 8) */\n      lt\n        /* \"@openzeppelin/contracts/utils/math/Math.sol\":22174:22261  if (aa >= (1 << 8)) {... */\n      tag_221\n      jumpi\n        /* \"@openzeppelin/contracts/utils/math/Math.sol\":22219:22220  8 */\n      0x08\n        /* \"@openzeppelin/contracts/utils/math/Math.sol\":22212:22220  aa >>= 8 */\n      dup3\n      swap1\n      shr\n      swap2\n      pop\n        /* \"@openzeppelin/contracts/utils/math/Math.sol\":22245:22246  4 */\n      0x04\n        /* \"@openzeppelin/contracts/utils/math/Math.sol\":22238:22246  xn <<= 4 */\n      dup2\n      swap1\n      shl\n      swap1\n      pop\n        /* \"@openzeppelin/contracts/utils/math/Math.sol\":22174:22261  if (aa >= (1 << 8)) {... */\n    tag_221:\n        /* \"@openzeppelin/contracts/utils/math/Math.sol\":22285:22291  1 << 4 */\n      0x10\n        /* \"@openzeppelin/contracts/utils/math/Math.sol\":22278:22280  aa */\n      dup3\n        /* \"@openzeppelin/contracts/utils/math/Math.sol\":22278:22292  aa >= (1 << 4) */\n      lt\n        /* \"@openzeppelin/contracts/utils/math/Math.sol\":22274:22361  if (aa >= (1 << 4)) {... */\n      tag_222\n      jumpi\n        /* \"@openzeppelin/contracts/utils/math/Math.sol\":22319:22320  4 */\n      0x04\n        /* \"@openzeppelin/contracts/utils/math/Math.sol\":22312:22320  aa >>= 4 */\n      dup3\n      swap1\n      shr\n      swap2\n      pop\n        /* \"@openzeppelin/contracts/utils/math/Math.sol\":22345:22346  2 */\n      0x02\n        /* \"@openzeppelin/contracts/utils/math/Math.sol\":22338:22346  xn <<= 2 */\n      dup2\n      swap1\n      shl\n      swap1\n      pop\n        /* \"@openzeppelin/contracts/utils/math/Math.sol\":22274:22361  if (aa >= (1 << 4)) {... */\n    tag_222:\n        /* \"@openzeppelin/contracts/utils/math/Math.sol\":22385:22391  1 << 2 */\n      0x04\n        /* \"@openzeppelin/contracts/utils/math/Math.sol\":22378:22380  aa */\n      dup3\n        /* \"@openzeppelin/contracts/utils/math/Math.sol\":22378:22392  aa >= (1 << 2) */\n      lt\n        /* \"@openzeppelin/contracts/utils/math/Math.sol\":22374:22435  if (aa >= (1 << 2)) {... */\n      tag_223\n      jumpi\n        /* \"@openzeppelin/contracts/utils/math/Math.sol\":22419:22420  1 */\n      0x01\n        /* \"@openzeppelin/contracts/utils/math/Math.sol\":22412:22420  xn <<= 1 */\n      dup2\n      swap1\n      shl\n      swap1\n      pop\n        /* \"@openzeppelin/contracts/utils/math/Math.sol\":22374:22435  if (aa >= (1 << 2)) {... */\n    tag_223:\n        /* \"@openzeppelin/contracts/utils/math/Math.sol\":22872:22873  1 */\n      0x01\n        /* \"@openzeppelin/contracts/utils/math/Math.sol\":22865:22867  xn */\n      dup2\n        /* \"@openzeppelin/contracts/utils/math/Math.sol\":22861:22862  3 */\n      0x03\n        /* \"@openzeppelin/contracts/utils/math/Math.sol\":22861:22867  3 * xn */\n      mul\n        /* \"@openzeppelin/contracts/utils/math/Math.sol\":22860:22873  (3 * xn) >> 1 */\n      swap1\n      shr\n        /* \"@openzeppelin/contracts/utils/math/Math.sol\":22855:22873  xn = (3 * xn) >> 1 */\n      swap1\n      pop\n        /* \"@openzeppelin/contracts/utils/math/Math.sol\":24782:24783  1 */\n      0x01\n        /* \"@openzeppelin/contracts/utils/math/Math.sol\":24775:24777  xn */\n      dup2\n        /* \"@openzeppelin/contracts/utils/math/Math.sol\":24771:24772  a */\n      dup6\n        /* \"@openzeppelin/contracts/utils/math/Math.sol\":24771:24777  a / xn */\n      dup2\n      tag_224\n      jumpi\n      tag_225\n      tag_226\n      jump\t// in\n    tag_225:\n    tag_224:\n      div\n        /* \"@openzeppelin/contracts/utils/math/Math.sol\":24766:24768  xn */\n      dup3\n        /* \"@openzeppelin/contracts/utils/math/Math.sol\":24766:24777  xn + a / xn */\n      add\n        /* \"@openzeppelin/contracts/utils/math/Math.sol\":24765:24783  (xn + a / xn) >> 1 */\n      swap1\n      shr\n        /* \"@openzeppelin/contracts/utils/math/Math.sol\":24760:24783  xn = (xn + a / xn) >> 1 */\n      swap1\n      pop\n        /* \"@openzeppelin/contracts/utils/math/Math.sol\":24891:24892  1 */\n      0x01\n        /* \"@openzeppelin/contracts/utils/math/Math.sol\":24884:24886  xn */\n      dup2\n        /* \"@openzeppelin/contracts/utils/math/Math.sol\":24880:24881  a */\n      dup6\n        /* \"@openzeppelin/contracts/utils/math/Math.sol\":24880:24886  a / xn */\n      dup2\n      tag_227\n      jumpi\n      tag_228\n      tag_226\n      jump\t// in\n    tag_228:\n    tag_227:\n      div\n        /* \"@openzeppelin/contracts/utils/math/Math.sol\":24875:24877  xn */\n      dup3\n        /* \"@openzeppelin/contracts/utils/math/Math.sol\":24875:24886  xn + a / xn */\n      add\n        /* \"@openzeppelin/contracts/utils/math/Math.sol\":24874:24892  (xn + a / xn) >> 1 */\n      swap1\n      shr\n        /* \"@openzeppelin/contracts/utils/math/Math.sol\":24869:24892  xn = (xn + a / xn) >> 1 */\n      swap1\n      pop\n        /* \"@openzeppelin/contracts/utils/math/Math.sol\":25002:25003  1 */\n      0x01\n        /* \"@openzeppelin/contracts/utils/math/Math.sol\":24995:24997  xn */\n      dup2\n        /* \"@openzeppelin/contracts/utils/math/Math.sol\":24991:24992  a */\n      dup6\n        /* \"@openzeppelin/contracts/utils/math/Math.sol\":24991:24997  a / xn */\n      dup2\n      tag_229\n      jumpi\n      tag_230\n      tag_226\n      jump\t// in\n    tag_230:\n    tag_229:\n      div\n        /* \"@openzeppelin/contracts/utils/math/Math.sol\":24986:24988  xn */\n      dup3\n        /* \"@openzeppelin/contracts/utils/math/Math.sol\":24986:24997  xn + a / xn */\n      add\n        /* \"@openzeppelin/contracts/utils/math/Math.sol\":24985:25003  (xn + a / xn) >> 1 */\n      swap1\n      shr\n        /* \"@openzeppelin/contracts/utils/math/Math.sol\":24980:25003  xn = (xn + a / xn) >> 1 */\n      swap1\n      pop\n        /* \"@openzeppelin/contracts/utils/math/Math.sol\":25111:25112  1 */\n      0x01\n        /* \"@openzeppelin/contracts/utils/math/Math.sol\":25104:25106  xn */\n      dup2\n        /* \"@openzeppelin/contracts/utils/math/Math.sol\":25100:25101  a */\n      dup6\n        /* \"@openzeppelin/contracts/utils/math/Math.sol\":25100:25106  a / xn */\n      dup2\n      tag_231\n      jumpi\n      tag_232\n      tag_226\n      jump\t// in\n    tag_232:\n    tag_231:\n      div\n        /* \"@openzeppelin/contracts/utils/math/Math.sol\":25095:25097  xn */\n      dup3\n        /* \"@openzeppelin/contracts/utils/math/Math.sol\":25095:25106  xn + a / xn */\n      add\n        /* \"@openzeppelin/contracts/utils/math/Math.sol\":25094:25112  (xn + a / xn) >> 1 */\n      swap1\n      shr\n        /* \"@openzeppelin/contracts/utils/math/Math.sol\":25089:25112  xn = (xn + a / xn) >> 1 */\n      swap1\n      pop\n        /* \"@openzeppelin/contracts/utils/math/Math.sol\":25221:25222  1 */\n      0x01\n        /* \"@openzeppelin/contracts/utils/math/Math.sol\":25214:25216  xn */\n      dup2\n        /* \"@openzeppelin/contracts/utils/math/Math.sol\":25210:25211  a */\n      dup6\n        /* \"@openzeppelin/contracts/utils/math/Math.sol\":25210:25216  a / xn */\n      dup2\n      tag_233\n      jumpi\n      tag_234\n      tag_226\n      jump\t// in\n    tag_234:\n    tag_233:\n      div\n        /* \"@openzeppelin/contracts/utils/math/Math.sol\":25205:25207  xn */\n      dup3\n        /* \"@openzeppelin/contracts/utils/math/Math.sol\":25205:25216  xn + a / xn */\n      add\n        /* \"@openzeppelin/contracts/utils/math/Math.sol\":25204:25222  (xn + a / xn) >> 1 */\n      swap1\n      shr\n        /* \"@openzeppelin/contracts/utils/math/Math.sol\":25199:25222  xn = (xn + a / xn) >> 1 */\n      swap1\n      pop\n        /* \"@openzeppelin/contracts/utils/math/Math.sol\":25331:25332  1 */\n      0x01\n        /* \"@openzeppelin/contracts/utils/math/Math.sol\":25324:25326  xn */\n      dup2\n        /* \"@openzeppelin/contracts/utils/math/Math.sol\":25320:25321  a */\n      dup6\n        /* \"@openzeppelin/contracts/utils/math/Math.sol\":25320:25326  a / xn */\n      dup2\n      tag_235\n      jumpi\n      tag_236\n      tag_226\n      jump\t// in\n    tag_236:\n    tag_235:\n      div\n        /* \"@openzeppelin/contracts/utils/math/Math.sol\":25315:25317  xn */\n      dup3\n        /* \"@openzeppelin/contracts/utils/math/Math.sol\":25315:25326  xn + a / xn */\n      add\n        /* \"@openzeppelin/contracts/utils/math/Math.sol\":25314:25332  (xn + a / xn) >> 1 */\n      swap1\n      shr\n        /* \"@openzeppelin/contracts/utils/math/Math.sol\":25309:25332  xn = (xn + a / xn) >> 1 */\n      swap1\n      pop\n        /* \"@openzeppelin/contracts/utils/math/Math.sol\":25703:25731  SafeCast.toUint(xn > a / xn) */\n      tag_237\n        /* \"@openzeppelin/contracts/utils/math/Math.sol\":25728:25730  xn */\n      dup2\n        /* \"@openzeppelin/contracts/utils/math/Math.sol\":25724:25725  a */\n      dup6\n        /* \"@openzeppelin/contracts/utils/math/Math.sol\":25724:25730  a / xn */\n      dup2\n      tag_238\n      jumpi\n      tag_239\n      tag_226\n      jump\t// in\n    tag_239:\n    tag_238:\n      div\n        /* \"@openzeppelin/contracts/utils/math/Math.sol\":25719:25721  xn */\n      dup3\n        /* \"@openzeppelin/contracts/utils/math/Math.sol\":25719:25730  xn > a / xn */\n      gt\n        /* \"@openzeppelin/contracts/utils/math/Math.sol\":25703:25718  SafeCast.toUint */\n      tag_240\n        /* \"@openzeppelin/contracts/utils/math/Math.sol\":25703:25731  SafeCast.toUint(xn > a / xn) */\n      jump\t// in\n    tag_237:\n        /* \"@openzeppelin/contracts/utils/math/Math.sol\":25698:25700  xn */\n      dup2\n        /* \"@openzeppelin/contracts/utils/math/Math.sol\":25698:25731  xn - SafeCast.toUint(xn > a / xn) */\n      sub\n        /* \"@openzeppelin/contracts/utils/math/Math.sol\":25691:25731  return xn - SafeCast.toUint(xn > a / xn) */\n      swap3\n      pop\n      pop\n      pop\n        /* \"@openzeppelin/contracts/utils/math/Math.sol\":20567:25748  function sqrt(uint256 a) internal pure returns (uint256) {... */\n    tag_215:\n      swap2\n      swap1\n      pop\n      jump\t// out\n        /* \"@openzeppelin/contracts/utils/math/Math.sol\":5617:5728  function min(uint256 a, uint256 b) internal pure returns (uint256) {... */\n    tag_204:\n        /* \"@openzeppelin/contracts/utils/math/Math.sol\":5675:5682  uint256 */\n      0x00\n        /* \"@openzeppelin/contracts/utils/math/Math.sol\":5701:5721  ternary(a < b, a, b) */\n      tag_242\n        /* \"@openzeppelin/contracts/utils/math/Math.sol\":5713:5714  b */\n      dup3\n        /* \"@openzeppelin/contracts/utils/math/Math.sol\":5709:5710  a */\n      dup5\n        /* \"@openzeppelin/contracts/utils/math/Math.sol\":5709:5714  a < b */\n      lt\n        /* \"@openzeppelin/contracts/utils/math/Math.sol\":5716:5717  a */\n      dup5\n        /* \"@openzeppelin/contracts/utils/math/Math.sol\":5719:5720  b */\n      dup5\n        /* \"@openzeppelin/contracts/utils/math/Math.sol\":5701:5708  ternary */\n      tag_243\n        /* \"@openzeppelin/contracts/utils/math/Math.sol\":5701:5721  ternary(a < b, a, b) */\n      jump\t// in\n    tag_242:\n        /* \"@openzeppelin/contracts/utils/math/Math.sol\":5694:5721  return ternary(a < b, a, b) */\n      swap1\n      pop\n        /* \"@openzeppelin/contracts/utils/math/Math.sol\":5617:5728  function min(uint256 a, uint256 b) internal pure returns (uint256) {... */\n      swap3\n      swap2\n      pop\n      pop\n      jump\t// out\n        /* \"@openzeppelin/contracts/utils/math/SafeCast.sol\":34795:34940  function toUint(bool b) internal pure returns (uint256 u) {... */\n    tag_240:\n        /* \"@openzeppelin/contracts/utils/math/SafeCast.sol\":34842:34851  uint256 u */\n      0x00\n        /* \"@openzeppelin/contracts/utils/math/SafeCast.sol\":34921:34922  b */\n      dup2\n        /* \"@openzeppelin/contracts/utils/math/SafeCast.sol\":34914:34923  iszero(b) */\n      iszero\n        /* \"@openzeppelin/contracts/utils/math/SafeCast.sol\":34907:34924  iszero(iszero(b)) */\n      iszero\n        /* \"@openzeppelin/contracts/utils/math/SafeCast.sol\":34902:34924  u := iszero(iszero(b)) */\n      swap1\n      pop\n        /* \"@openzeppelin/contracts/utils/math/SafeCast.sol\":34795:34940  function toUint(bool b) internal pure returns (uint256 u) {... */\n      swap2\n      swap1\n      pop\n      jump\t// out\n        /* \"@openzeppelin/contracts/utils/math/Math.sol\":5071:5365  function ternary(bool condition, uint256 a, uint256 b) internal pure returns (uint256) {... */\n    tag_243:\n        /* \"@openzeppelin/contracts/utils/math/Math.sol\":5149:5156  uint256 */\n      0x00\n        /* \"@openzeppelin/contracts/utils/math/Math.sol\":5321:5347  SafeCast.toUint(condition) */\n      tag_246\n        /* \"@openzeppelin/contracts/utils/math/Math.sol\":5337:5346  condition */\n      dup5\n        /* \"@openzeppelin/contracts/utils/math/Math.sol\":5321:5336  SafeCast.toUint */\n      tag_240\n        /* \"@openzeppelin/contracts/utils/math/Math.sol\":5321:5347  SafeCast.toUint(condition) */\n      jump\t// in\n    tag_246:\n        /* \"@openzeppelin/contracts/utils/math/Math.sol\":5316:5317  b */\n      dup3\n        /* \"@openzeppelin/contracts/utils/math/Math.sol\":5312:5313  a */\n      dup5\n        /* \"@openzeppelin/contracts/utils/math/Math.sol\":5312:5317  a ^ b */\n      xor\n        /* \"@openzeppelin/contracts/utils/math/Math.sol\":5311:5347  (a ^ b) * SafeCast.toUint(condition) */\n      mul\n        /* \"@openzeppelin/contracts/utils/math/Math.sol\":5306:5307  b */\n      dup3\n        /* \"@openzeppelin/contracts/utils/math/Math.sol\":5306:5348  b ^ ((a ^ b) * SafeCast.toUint(condition)) */\n      xor\n        /* \"@openzeppelin/contracts/utils/math/Math.sol\":5299:5348  return b ^ ((a ^ b) * SafeCast.toUint(condition)) */\n      swap1\n      pop\n        /* \"@openzeppelin/contracts/utils/math/Math.sol\":5071:5365  function ternary(bool condition, uint256 a, uint256 b) internal pure returns (uint256) {... */\n      swap4\n      swap3\n      pop\n      pop\n      pop\n      jump\t// out\n        /* \"#utility.yul\":88:205   */\n    tag_248:\n        /* \"#utility.yul\":197:198   */\n      0x00\n        /* \"#utility.yul\":194:195   */\n      0x00\n        /* \"#utility.yul\":187:199   */\n      revert\n        /* \"#utility.yul\":211:328   */\n    tag_249:\n        /* \"#utility.yul\":320:321   */\n      0x00\n        /* \"#utility.yul\":317:318   */\n      0x00\n        /* \"#utility.yul\":310:322   */\n      revert\n        /* \"#utility.yul\":334:411   */\n    tag_250:\n        /* \"#utility.yul\":371:378   */\n      0x00\n        /* \"#utility.yul\":400:405   */\n      dup2\n        /* \"#utility.yul\":389:405   */\n      swap1\n      pop\n        /* \"#utility.yul\":334:411   */\n      swap2\n      swap1\n      pop\n      jump\t// out\n        /* \"#utility.yul\":417:539   */\n    tag_251:\n        /* \"#utility.yul\":490:514   */\n      tag_302\n        /* \"#utility.yul\":508:513   */\n      dup2\n        /* \"#utility.yul\":490:514   */\n      tag_250\n      jump\t// in\n    tag_302:\n        /* \"#utility.yul\":483:488   */\n      dup2\n        /* \"#utility.yul\":480:515   */\n      eq\n        /* \"#utility.yul\":470:533   */\n      tag_303\n      jumpi\n        /* \"#utility.yul\":529:530   */\n      0x00\n        /* \"#utility.yul\":526:527   */\n      0x00\n        /* \"#utility.yul\":519:531   */\n      revert\n        /* \"#utility.yul\":470:533   */\n    tag_303:\n        /* \"#utility.yul\":417:539   */\n      pop\n      jump\t// out\n        /* \"#utility.yul\":545:684   */\n    tag_252:\n        /* \"#utility.yul\":591:596   */\n      0x00\n        /* \"#utility.yul\":629:635   */\n      dup2\n        /* \"#utility.yul\":616:636   */\n      calldataload\n        /* \"#utility.yul\":607:636   */\n      swap1\n      pop\n        /* \"#utility.yul\":645:678   */\n      tag_305\n        /* \"#utility.yul\":672:677   */\n      dup2\n        /* \"#utility.yul\":645:678   */\n      tag_251\n      jump\t// in\n    tag_305:\n        /* \"#utility.yul\":545:684   */\n      swap3\n      swap2\n      pop\n      pop\n      jump\t// out\n        /* \"#utility.yul\":690:1309   */\n    tag_10:\n        /* \"#utility.yul\":767:773   */\n      0x00\n        /* \"#utility.yul\":775:781   */\n      0x00\n        /* \"#utility.yul\":783:789   */\n      0x00\n        /* \"#utility.yul\":832:834   */\n      0x60\n        /* \"#utility.yul\":820:829   */\n      dup5\n        /* \"#utility.yul\":811:818   */\n      dup7\n        /* \"#utility.yul\":807:830   */\n      sub\n        /* \"#utility.yul\":803:835   */\n      slt\n        /* \"#utility.yul\":800:919   */\n      iszero\n      tag_307\n      jumpi\n        /* \"#utility.yul\":838:917   */\n      tag_308\n      tag_248\n      jump\t// in\n    tag_308:\n        /* \"#utility.yul\":800:919   */\n    tag_307:\n        /* \"#utility.yul\":958:959   */\n      0x00\n        /* \"#utility.yul\":983:1036   */\n      tag_309\n        /* \"#utility.yul\":1028:1035   */\n      dup7\n        /* \"#utility.yul\":1019:1025   */\n      dup3\n        /* \"#utility.yul\":1008:1017   */\n      dup8\n        /* \"#utility.yul\":1004:1026   */\n      add\n        /* \"#utility.yul\":983:1036   */\n      tag_252\n      jump\t// in\n    tag_309:\n        /* \"#utility.yul\":973:1036   */\n      swap4\n      pop\n        /* \"#utility.yul\":929:1046   */\n      pop\n        /* \"#utility.yul\":1085:1087   */\n      0x20\n        /* \"#utility.yul\":1111:1164   */\n      tag_310\n        /* \"#utility.yul\":1156:1163   */\n      dup7\n        /* \"#utility.yul\":1147:1153   */\n      dup3\n        /* \"#utility.yul\":1136:1145   */\n      dup8\n        /* \"#utility.yul\":1132:1154   */\n      add\n        /* \"#utility.yul\":1111:1164   */\n      tag_252\n      jump\t// in\n    tag_310:\n        /* \"#utility.yul\":1101:1164   */\n      swap3\n      pop\n        /* \"#utility.yul\":1056:1174   */\n      pop\n        /* \"#utility.yul\":1213:1215   */\n      0x40\n        /* \"#utility.yul\":1239:1292   */\n      tag_311\n        /* \"#utility.yul\":1284:1291   */\n      dup7\n        /* \"#utility.yul\":1275:1281   */\n      dup3\n        /* \"#utility.yul\":1264:1273   */\n      dup8\n        /* \"#utility.yul\":1260:1282   */\n      add\n        /* \"#utility.yul\":1239:1292   */\n      tag_252\n      jump\t// in\n    tag_311:\n        /* \"#utility.yul\":1229:1292   */\n      swap2\n      pop\n        /* \"#utility.yul\":1184:1302   */\n      pop\n        /* \"#utility.yul\":690:1309   */\n      swap3\n      pop\n      swap3\n      pop\n      swap3\n      jump\t// out\n        /* \"#utility.yul\":1315:1433   */\n    tag_253:\n        /* \"#utility.yul\":1402:1426   */\n      tag_313\n        /* \"#utility.yul\":1420:1425   */\n      dup2\n        /* \"#utility.yul\":1402:1426   */\n      tag_250\n      jump\t// in\n    tag_313:\n        /* \"#utility.yul\":1397:1400   */\n      dup3\n        /* \"#utility.yul\":1390:1427   */\n      mstore\n        /* \"#utility.yul\":1315:1433   */\n      pop\n      pop\n      jump\t// out\n        /* \"#utility.yul\":1439:1661   */\n    tag_13:\n        /* \"#utility.yul\":1532:1536   */\n      0x00\n        /* \"#utility.yul\":1570:1572   */\n      0x20\n        /* \"#utility.yul\":1559:1568   */\n      dup3\n        /* \"#utility.yul\":1555:1573   */\n      add\n        /* \"#utility.yul\":1547:1573   */\n      swap1\n      pop\n        /* \"#utility.yul\":1583:1654   */\n      tag_315\n        /* \"#utility.yul\":1651:1652   */\n      0x00\n        /* \"#utility.yul\":1640:1649   */\n      dup4\n        /* \"#utility.yul\":1636:1653   */\n      add\n        /* \"#utility.yul\":1627:1633   */\n      dup5\n        /* \"#utility.yul\":1583:1654   */\n      tag_253\n      jump\t// in\n    tag_315:\n        /* \"#utility.yul\":1439:1661   */\n      swap3\n      swap2\n      pop\n      pop\n      jump\t// out\n        /* \"#utility.yul\":1667:1784   */\n    tag_254:\n        /* \"#utility.yul\":1776:1777   */\n      0x00\n        /* \"#utility.yul\":1773:1774   */\n      0x00\n        /* \"#utility.yul\":1766:1778   */\n      revert\n        /* \"#utility.yul\":1790:1907   */\n    tag_255:\n        /* \"#utility.yul\":1899:1900   */\n      0x00\n        /* \"#utility.yul\":1896:1897   */\n      0x00\n        /* \"#utility.yul\":1889:1901   */\n      revert\n        /* \"#utility.yul\":1913:2030   */\n    tag_256:\n        /* \"#utility.yul\":2022:2023   */\n      0x00\n        /* \"#utility.yul\":2019:2020   */\n      0x00\n        /* \"#utility.yul\":2012:2024   */\n      revert\n        /* \"#utility.yul\":2053:2621   */\n    tag_257:\n        /* \"#utility.yul\":2126:2134   */\n      0x00\n        /* \"#utility.yul\":2136:2142   */\n      0x00\n        /* \"#utility.yul\":2186:2189   */\n      dup4\n        /* \"#utility.yul\":2179:2183   */\n      0x1f\n        /* \"#utility.yul\":2171:2177   */\n      dup5\n        /* \"#utility.yul\":2167:2184   */\n      add\n        /* \"#utility.yul\":2163:2190   */\n      slt\n        /* \"#utility.yul\":2153:2275   */\n      tag_320\n      jumpi\n        /* \"#utility.yul\":2194:2273   */\n      tag_321\n      tag_254\n      jump\t// in\n    tag_321:\n        /* \"#utility.yul\":2153:2275   */\n    tag_320:\n        /* \"#utility.yul\":2307:2313   */\n      dup3\n        /* \"#utility.yul\":2294:2314   */\n      calldataload\n        /* \"#utility.yul\":2284:2314   */\n      swap1\n      pop\n        /* \"#utility.yul\":2337:2355   */\n      0xffffffffffffffff\n        /* \"#utility.yul\":2329:2335   */\n      dup2\n        /* \"#utility.yul\":2326:2356   */\n      gt\n        /* \"#utility.yul\":2323:2440   */\n      iszero\n      tag_322\n      jumpi\n        /* \"#utility.yul\":2359:2438   */\n      tag_323\n      tag_255\n      jump\t// in\n    tag_323:\n        /* \"#utility.yul\":2323:2440   */\n    tag_322:\n        /* \"#utility.yul\":2473:2477   */\n      0x20\n        /* \"#utility.yul\":2465:2471   */\n      dup4\n        /* \"#utility.yul\":2461:2478   */\n      add\n        /* \"#utility.yul\":2449:2478   */\n      swap2\n      pop\n        /* \"#utility.yul\":2527:2530   */\n      dup4\n        /* \"#utility.yul\":2519:2523   */\n      0x20\n        /* \"#utility.yul\":2511:2517   */\n      dup3\n        /* \"#utility.yul\":2507:2524   */\n      mul\n        /* \"#utility.yul\":2497:2505   */\n      dup4\n        /* \"#utility.yul\":2493:2525   */\n      add\n        /* \"#utility.yul\":2490:2531   */\n      gt\n        /* \"#utility.yul\":2487:2615   */\n      iszero\n      tag_324\n      jumpi\n        /* \"#utility.yul\":2534:2613   */\n      tag_325\n      tag_256\n      jump\t// in\n    tag_325:\n        /* \"#utility.yul\":2487:2615   */\n    tag_324:\n        /* \"#utility.yul\":2053:2621   */\n      swap3\n      pop\n      swap3\n      swap1\n      pop\n      jump\t// out\n        /* \"#utility.yul\":2627:2753   */\n    tag_258:\n        /* \"#utility.yul\":2664:2671   */\n      0x00\n        /* \"#utility.yul\":2704:2746   */\n      0xffffffffffffffffffffffffffffffffffffffff\n        /* \"#utility.yul\":2697:2702   */\n      dup3\n        /* \"#utility.yul\":2693:2747   */\n      and\n        /* \"#utility.yul\":2682:2747   */\n      swap1\n      pop\n        /* \"#utility.yul\":2627:2753   */\n      swap2\n      swap1\n      pop\n      jump\t// out\n        /* \"#utility.yul\":2759:2855   */\n    tag_259:\n        /* \"#utility.yul\":2796:2803   */\n      0x00\n        /* \"#utility.yul\":2825:2849   */\n      tag_328\n        /* \"#utility.yul\":2843:2848   */\n      dup3\n        /* \"#utility.yul\":2825:2849   */\n      tag_258\n      jump\t// in\n    tag_328:\n        /* \"#utility.yul\":2814:2849   */\n      swap1\n      pop\n        /* \"#utility.yul\":2759:2855   */\n      swap2\n      swap1\n      pop\n      jump\t// out\n        /* \"#utility.yul\":2861:2983   */\n    tag_260:\n        /* \"#utility.yul\":2934:2958   */\n      tag_330\n        /* \"#utility.yul\":2952:2957   */\n      dup2\n        /* \"#utility.yul\":2934:2958   */\n      tag_259\n      jump\t// in\n    tag_330:\n        /* \"#utility.yul\":2927:2932   */\n      dup2\n        /* \"#utility.yul\":2924:2959   */\n      eq\n        /* \"#utility.yul\":2914:2977   */\n      tag_331\n      jumpi\n        /* \"#utility.yul\":2973:2974   */\n      0x00\n        /* \"#utility.yul\":2970:2971   */\n      0x00\n        /* \"#utility.yul\":2963:2975   */\n      revert\n        /* \"#utility.yul\":2914:2977   */\n    tag_331:\n        /* \"#utility.yul\":2861:2983   */\n      pop\n      jump\t// out\n        /* \"#utility.yul\":2989:3128   */\n    tag_261:\n        /* \"#utility.yul\":3035:3040   */\n      0x00\n        /* \"#utility.yul\":3073:3079   */\n      dup2\n        /* \"#utility.yul\":3060:3080   */\n      calldataload\n        /* \"#utility.yul\":3051:3080   */\n      swap1\n      pop\n        /* \"#utility.yul\":3089:3122   */\n      tag_333\n        /* \"#utility.yul\":3116:3121   */\n      dup2\n        /* \"#utility.yul\":3089:3122   */\n      tag_260\n      jump\t// in\n    tag_333:\n        /* \"#utility.yul\":2989:3128   */\n      swap3\n      swap2\n      pop\n      pop\n      jump\t// out\n        /* \"#utility.yul\":3134:4275   */\n    tag_16:\n        /* \"#utility.yul\":3256:3262   */\n      0x00\n        /* \"#utility.yul\":3264:3270   */\n      0x00\n        /* \"#utility.yul\":3272:3278   */\n      0x00\n        /* \"#utility.yul\":3280:3286   */\n      0x00\n        /* \"#utility.yul\":3288:3294   */\n      0x00\n        /* \"#utility.yul\":3296:3302   */\n      0x00\n        /* \"#utility.yul\":3345:3348   */\n      0xa0\n        /* \"#utility.yul\":3333:3342   */\n      dup8\n        /* \"#utility.yul\":3324:3331   */\n      dup10\n        /* \"#utility.yul\":3320:3343   */\n      sub\n        /* \"#utility.yul\":3316:3349   */\n      slt\n        /* \"#utility.yul\":3313:3433   */\n      iszero\n      tag_335\n      jumpi\n        /* \"#utility.yul\":3352:3431   */\n      tag_336\n      tag_248\n      jump\t// in\n    tag_336:\n        /* \"#utility.yul\":3313:3433   */\n    tag_335:\n        /* \"#utility.yul\":3472:3473   */\n      0x00\n        /* \"#utility.yul\":3497:3550   */\n      tag_337\n        /* \"#utility.yul\":3542:3549   */\n      dup10\n        /* \"#utility.yul\":3533:3539   */\n      dup3\n        /* \"#utility.yul\":3522:3531   */\n      dup11\n        /* \"#utility.yul\":3518:3540   */\n      add\n        /* \"#utility.yul\":3497:3550   */\n      tag_252\n      jump\t// in\n    tag_337:\n        /* \"#utility.yul\":3487:3550   */\n      swap7\n      pop\n        /* \"#utility.yul\":3443:3560   */\n      pop\n        /* \"#utility.yul\":3599:3601   */\n      0x20\n        /* \"#utility.yul\":3625:3678   */\n      tag_338\n        /* \"#utility.yul\":3670:3677   */\n      dup10\n        /* \"#utility.yul\":3661:3667   */\n      dup3\n        /* \"#utility.yul\":3650:3659   */\n      dup11\n        /* \"#utility.yul\":3646:3668   */\n      add\n        /* \"#utility.yul\":3625:3678   */\n      tag_252\n      jump\t// in\n    tag_338:\n        /* \"#utility.yul\":3615:3678   */\n      swap6\n      pop\n        /* \"#utility.yul\":3570:3688   */\n      pop\n        /* \"#utility.yul\":3755:3757   */\n      0x40\n        /* \"#utility.yul\":3744:3753   */\n      dup8\n        /* \"#utility.yul\":3740:3758   */\n      add\n        /* \"#utility.yul\":3727:3759   */\n      calldataload\n        /* \"#utility.yul\":3786:3804   */\n      0xffffffffffffffff\n        /* \"#utility.yul\":3778:3784   */\n      dup2\n        /* \"#utility.yul\":3775:3805   */\n      gt\n        /* \"#utility.yul\":3772:3889   */\n      iszero\n      tag_339\n      jumpi\n        /* \"#utility.yul\":3808:3887   */\n      tag_340\n      tag_249\n      jump\t// in\n    tag_340:\n        /* \"#utility.yul\":3772:3889   */\n    tag_339:\n        /* \"#utility.yul\":3921:4001   */\n      tag_341\n        /* \"#utility.yul\":3993:4000   */\n      dup10\n        /* \"#utility.yul\":3984:3990   */\n      dup3\n        /* \"#utility.yul\":3973:3982   */\n      dup11\n        /* \"#utility.yul\":3969:3991   */\n      add\n        /* \"#utility.yul\":3921:4001   */\n      tag_257\n      jump\t// in\n    tag_341:\n        /* \"#utility.yul\":3903:4001   */\n      swap5\n      pop\n      swap5\n      pop\n        /* \"#utility.yul\":3698:4011   */\n      pop\n        /* \"#utility.yul\":4050:4052   */\n      0x60\n        /* \"#utility.yul\":4076:4129   */\n      tag_342\n        /* \"#utility.yul\":4121:4128   */\n      dup10\n        /* \"#utility.yul\":4112:4118   */\n      dup3\n        /* \"#utility.yul\":4101:4110   */\n      dup11\n        /* \"#utility.yul\":4097:4119   */\n      add\n        /* \"#utility.yul\":4076:4129   */\n      tag_261\n      jump\t// in\n    tag_342:\n        /* \"#utility.yul\":4066:4129   */\n      swap3\n      pop\n        /* \"#utility.yul\":4021:4139   */\n      pop\n        /* \"#utility.yul\":4178:4181   */\n      0x80\n        /* \"#utility.yul\":4205:4258   */\n      tag_343\n        /* \"#utility.yul\":4250:4257   */\n      dup10\n        /* \"#utility.yul\":4241:4247   */\n      dup3\n        /* \"#utility.yul\":4230:4239   */\n      dup11\n        /* \"#utility.yul\":4226:4248   */\n      add\n        /* \"#utility.yul\":4205:4258   */\n      tag_252\n      jump\t// in\n    tag_343:\n        /* \"#utility.yul\":4195:4258   */\n      swap2\n      pop\n        /* \"#utility.yul\":4149:4268   */\n      pop\n        /* \"#utility.yul\":3134:4275   */\n      swap3\n      swap6\n      pop\n      swap3\n      swap6\n      pop\n      swap3\n      swap6\n      jump\t// out\n        /* \"#utility.yul\":4281:4395   */\n    tag_262:\n        /* \"#utility.yul\":4348:4354   */\n      0x00\n        /* \"#utility.yul\":4382:4387   */\n      dup2\n        /* \"#utility.yul\":4376:4388   */\n      mload\n        /* \"#utility.yul\":4366:4388   */\n      swap1\n      pop\n        /* \"#utility.yul\":4281:4395   */\n      swap2\n      swap1\n      pop\n      jump\t// out\n        /* \"#utility.yul\":4401:4585   */\n    tag_263:\n        /* \"#utility.yul\":4500:4511   */\n      0x00\n        /* \"#utility.yul\":4534:4540   */\n      dup3\n        /* \"#utility.yul\":4529:4532   */\n      dup3\n        /* \"#utility.yul\":4522:4541   */\n      mstore\n        /* \"#utility.yul\":4574:4578   */\n      0x20\n        /* \"#utility.yul\":4569:4572   */\n      dup3\n        /* \"#utility.yul\":4565:4579   */\n      add\n        /* \"#utility.yul\":4550:4579   */\n      swap1\n      pop\n        /* \"#utility.yul\":4401:4585   */\n      swap3\n      swap2\n      pop\n      pop\n      jump\t// out\n        /* \"#utility.yul\":4591:4723   */\n    tag_264:\n        /* \"#utility.yul\":4658:4662   */\n      0x00\n        /* \"#utility.yul\":4681:4684   */\n      dup2\n        /* \"#utility.yul\":4673:4684   */\n      swap1\n      pop\n        /* \"#utility.yul\":4711:4715   */\n      0x20\n        /* \"#utility.yul\":4706:4709   */\n      dup3\n        /* \"#utility.yul\":4702:4716   */\n      add\n        /* \"#utility.yul\":4694:4716   */\n      swap1\n      pop\n        /* \"#utility.yul\":4591:4723   */\n      swap2\n      swap1\n      pop\n      jump\t// out\n        /* \"#utility.yul\":4729:4837   */\n    tag_265:\n        /* \"#utility.yul\":4806:4830   */\n      tag_348\n        /* \"#utility.yul\":4824:4829   */\n      dup2\n        /* \"#utility.yul\":4806:4830   */\n      tag_250\n      jump\t// in\n    tag_348:\n        /* \"#utility.yul\":4801:4804   */\n      dup3\n        /* \"#utility.yul\":4794:4831   */\n      mstore\n        /* \"#utility.yul\":4729:4837   */\n      pop\n      pop\n      jump\t// out\n        /* \"#utility.yul\":4843:5022   */\n    tag_266:\n        /* \"#utility.yul\":4912:4922   */\n      0x00\n        /* \"#utility.yul\":4933:4979   */\n      tag_350\n        /* \"#utility.yul\":4975:4978   */\n      dup4\n        /* \"#utility.yul\":4967:4973   */\n      dup4\n        /* \"#utility.yul\":4933:4979   */\n      tag_265\n      jump\t// in\n    tag_350:\n        /* \"#utility.yul\":5011:5015   */\n      0x20\n        /* \"#utility.yul\":5006:5009   */\n      dup4\n        /* \"#utility.yul\":5002:5016   */\n      add\n        /* \"#utility.yul\":4988:5016   */\n      swap1\n      pop\n        /* \"#utility.yul\":4843:5022   */\n      swap3\n      swap2\n      pop\n      pop\n      jump\t// out\n        /* \"#utility.yul\":5028:5141   */\n    tag_267:\n        /* \"#utility.yul\":5098:5102   */\n      0x00\n        /* \"#utility.yul\":5130:5134   */\n      0x20\n        /* \"#utility.yul\":5125:5128   */\n      dup3\n        /* \"#utility.yul\":5121:5135   */\n      add\n        /* \"#utility.yul\":5113:5135   */\n      swap1\n      pop\n        /* \"#utility.yul\":5028:5141   */\n      swap2\n      swap1\n      pop\n      jump\t// out\n        /* \"#utility.yul\":5177:5909   */\n    tag_268:\n        /* \"#utility.yul\":5296:5299   */\n      0x00\n        /* \"#utility.yul\":5325:5379   */\n      tag_353\n        /* \"#utility.yul\":5373:5378   */\n      dup3\n        /* \"#utility.yul\":5325:5379   */\n      tag_262\n      jump\t// in\n    tag_353:\n        /* \"#utility.yul\":5395:5481   */\n      tag_354\n        /* \"#utility.yul\":5474:5480   */\n      dup2\n        /* \"#utility.yul\":5469:5472   */\n      dup6\n        /* \"#utility.yul\":5395:5481   */\n      tag_263\n      jump\t// in\n    tag_354:\n        /* \"#utility.yul\":5388:5481   */\n      swap4\n      pop\n        /* \"#utility.yul\":5505:5561   */\n      tag_355\n        /* \"#utility.yul\":5555:5560   */\n      dup4\n        /* \"#utility.yul\":5505:5561   */\n      tag_264\n      jump\t// in\n    tag_355:\n        /* \"#utility.yul\":5584:5591   */\n      dup1\n        /* \"#utility.yul\":5615:5616   */\n      0x00\n        /* \"#utility.yul\":5600:5884   */\n    tag_356:\n        /* \"#utility.yul\":5625:5631   */\n      dup4\n        /* \"#utility.yul\":5622:5623   */\n      dup2\n        /* \"#utility.yul\":5619:5632   */\n      lt\n        /* \"#utility.yul\":5600:5884   */\n      iszero\n      tag_358\n      jumpi\n        /* \"#utility.yul\":5701:5707   */\n      dup2\n        /* \"#utility.yul\":5695:5708   */\n      mload\n        /* \"#utility.yul\":5728:5791   */\n      tag_359\n        /* \"#utility.yul\":5787:5790   */\n      dup9\n        /* \"#utility.yul\":5772:5785   */\n      dup3\n        /* \"#utility.yul\":5728:5791   */\n      tag_266\n      jump\t// in\n    tag_359:\n        /* \"#utility.yul\":5721:5791   */\n      swap8\n      pop\n        /* \"#utility.yul\":5814:5874   */\n      tag_360\n        /* \"#utility.yul\":5867:5873   */\n      dup4\n        /* \"#utility.yul\":5814:5874   */\n      tag_267\n      jump\t// in\n    tag_360:\n        /* \"#utility.yul\":5804:5874   */\n      swap3\n      pop\n        /* \"#utility.yul\":5660:5884   */\n      pop\n        /* \"#utility.yul\":5647:5648   */\n      0x01\n        /* \"#utility.yul\":5644:5645   */\n      dup2\n        /* \"#utility.yul\":5640:5649   */\n      add\n        /* \"#utility.yul\":5635:5649   */\n      swap1\n      pop\n        /* \"#utility.yul\":5600:5884   */\n      jump(tag_356)\n    tag_358:\n        /* \"#utility.yul\":5604:5618   */\n      pop\n        /* \"#utility.yul\":5900:5903   */\n      dup6\n        /* \"#utility.yul\":5893:5903   */\n      swap4\n      pop\n        /* \"#utility.yul\":5301:5909   */\n      pop\n      pop\n      pop\n        /* \"#utility.yul\":5177:5909   */\n      swap3\n      swap2\n      pop\n      pop\n      jump\t// out\n        /* \"#utility.yul\":5915:6288   */\n    tag_19:\n        /* \"#utility.yul\":6058:6062   */\n      0x00\n        /* \"#utility.yul\":6096:6098   */\n      0x20\n        /* \"#utility.yul\":6085:6094   */\n      dup3\n        /* \"#utility.yul\":6081:6099   */\n      add\n        /* \"#utility.yul\":6073:6099   */\n      swap1\n      pop\n        /* \"#utility.yul\":6145:6154   */\n      dup2\n        /* \"#utility.yul\":6139:6143   */\n      dup2\n        /* \"#utility.yul\":6135:6155   */\n      sub\n        /* \"#utility.yul\":6131:6132   */\n      0x00\n        /* \"#utility.yul\":6120:6129   */\n      dup4\n        /* \"#utility.yul\":6116:6133   */\n      add\n        /* \"#utility.yul\":6109:6156   */\n      mstore\n        /* \"#utility.yul\":6173:6281   */\n      tag_362\n        /* \"#utility.yul\":6276:6280   */\n      dup2\n        /* \"#utility.yul\":6267:6273   */\n      dup5\n        /* \"#utility.yul\":6173:6281   */\n      tag_268\n      jump\t// in\n    tag_362:\n        /* \"#utility.yul\":6165:6281   */\n      swap1\n      pop\n        /* \"#utility.yul\":5915:6288   */\n      swap3\n      swap2\n      pop\n      pop\n      jump\t// out\n        /* \"#utility.yul\":6294:6768   */\n    tag_22:\n        /* \"#utility.yul\":6362:6368   */\n      0x00\n        /* \"#utility.yul\":6370:6376   */\n      0x00\n        /* \"#utility.yul\":6419:6421   */\n      0x40\n        /* \"#utility.yul\":6407:6416   */\n      dup4\n        /* \"#utility.yul\":6398:6405   */\n      dup6\n        /* \"#utility.yul\":6394:6417   */\n      sub\n        /* \"#utility.yul\":6390:6422   */\n      slt\n        /* \"#utility.yul\":6387:6506   */\n      iszero\n      tag_364\n      jumpi\n        /* \"#utility.yul\":6425:6504   */\n      tag_365\n      tag_248\n      jump\t// in\n    tag_365:\n        /* \"#utility.yul\":6387:6506   */\n    tag_364:\n        /* \"#utility.yul\":6545:6546   */\n      0x00\n        /* \"#utility.yul\":6570:6623   */\n      tag_366\n        /* \"#utility.yul\":6615:6622   */\n      dup6\n        /* \"#utility.yul\":6606:6612   */\n      dup3\n        /* \"#utility.yul\":6595:6604   */\n      dup7\n        /* \"#utility.yul\":6591:6613   */\n      add\n        /* \"#utility.yul\":6570:6623   */\n      tag_261\n      jump\t// in\n    tag_366:\n        /* \"#utility.yul\":6560:6623   */\n      swap3\n      pop\n        /* \"#utility.yul\":6516:6633   */\n      pop\n        /* \"#utility.yul\":6672:6674   */\n      0x20\n        /* \"#utility.yul\":6698:6751   */\n      tag_367\n        /* \"#utility.yul\":6743:6750   */\n      dup6\n        /* \"#utility.yul\":6734:6740   */\n      dup3\n        /* \"#utility.yul\":6723:6732   */\n      dup7\n        /* \"#utility.yul\":6719:6741   */\n      add\n        /* \"#utility.yul\":6698:6751   */\n      tag_261\n      jump\t// in\n    tag_367:\n        /* \"#utility.yul\":6688:6751   */\n      swap2\n      pop\n        /* \"#utility.yul\":6643:6761   */\n      pop\n        /* \"#utility.yul\":6294:6768   */\n      swap3\n      pop\n      swap3\n      swap1\n      pop\n      jump\t// out\n        /* \"#utility.yul\":6774:7977   */\n    tag_27:\n        /* \"#utility.yul\":6887:6893   */\n      0x00\n        /* \"#utility.yul\":6895:6901   */\n      0x00\n        /* \"#utility.yul\":6903:6909   */\n      0x00\n        /* \"#utility.yul\":6911:6917   */\n      0x00\n        /* \"#utility.yul\":6919:6925   */\n      0x00\n        /* \"#utility.yul\":6927:6933   */\n      0x00\n        /* \"#utility.yul\":6935:6941   */\n      0x00\n        /* \"#utility.yul\":6984:6987   */\n      0xe0\n        /* \"#utility.yul\":6972:6981   */\n      dup9\n        /* \"#utility.yul\":6963:6970   */\n      dup11\n        /* \"#utility.yul\":6959:6982   */\n      sub\n        /* \"#utility.yul\":6955:6988   */\n      slt\n        /* \"#utility.yul\":6952:7072   */\n      iszero\n      tag_369\n      jumpi\n        /* \"#utility.yul\":6991:7070   */\n      tag_370\n      tag_248\n      jump\t// in\n    tag_370:\n        /* \"#utility.yul\":6952:7072   */\n    tag_369:\n        /* \"#utility.yul\":7111:7112   */\n      0x00\n        /* \"#utility.yul\":7136:7189   */\n      tag_371\n        /* \"#utility.yul\":7181:7188   */\n      dup11\n        /* \"#utility.yul\":7172:7178   */\n      dup3\n        /* \"#utility.yul\":7161:7170   */\n      dup12\n        /* \"#utility.yul\":7157:7179   */\n      add\n        /* \"#utility.yul\":7136:7189   */\n      tag_261\n      jump\t// in\n    tag_371:\n        /* \"#utility.yul\":7126:7189   */\n      swap8\n      pop\n        /* \"#utility.yul\":7082:7199   */\n      pop\n        /* \"#utility.yul\":7238:7240   */\n      0x20\n        /* \"#utility.yul\":7264:7317   */\n      tag_372\n        /* \"#utility.yul\":7309:7316   */\n      dup11\n        /* \"#utility.yul\":7300:7306   */\n      dup3\n        /* \"#utility.yul\":7289:7298   */\n      dup12\n        /* \"#utility.yul\":7285:7307   */\n      add\n        /* \"#utility.yul\":7264:7317   */\n      tag_261\n      jump\t// in\n    tag_372:\n        /* \"#utility.yul\":7254:7317   */\n      swap7\n      pop\n        /* \"#utility.yul\":7209:7327   */\n      pop\n        /* \"#utility.yul\":7366:7368   */\n      0x40\n        /* \"#utility.yul\":7392:7445   */\n      tag_373\n        /* \"#utility.yul\":7437:7444   */\n      dup11\n        /* \"#utility.yul\":7428:7434   */\n      dup3\n        /* \"#utility.yul\":7417:7426   */\n      dup12\n        /* \"#utility.yul\":7413:7435   */\n      add\n        /* \"#utility.yul\":7392:7445   */\n      tag_252\n      jump\t// in\n    tag_373:\n        /* \"#utility.yul\":7382:7445   */\n      swap6\n      pop\n        /* \"#utility.yul\":7337:7455   */\n      pop\n        /* \"#utility.yul\":7494:7496   */\n      0x60\n        /* \"#utility.yul\":7520:7573   */\n      tag_374\n        /* \"#utility.yul\":7565:7572   */\n      dup11\n        /* \"#utility.yul\":7556:7562   */\n      dup3\n        /* \"#utility.yul\":7545:7554   */\n      dup12\n        /* \"#utility.yul\":7541:7563   */\n      add\n        /* \"#utility.yul\":7520:7573   */\n      tag_252\n      jump\t// in\n    tag_374:\n        /* \"#utility.yul\":7510:7573   */\n      swap5\n      pop\n        /* \"#utility.yul\":7465:7583   */\n      pop\n        /* \"#utility.yul\":7622:7625   */\n      0x80\n        /* \"#utility.yul\":7649:7702   */\n      tag_375\n        /* \"#utility.yul\":7694:7701   */\n      dup11\n        /* \"#utility.yul\":7685:7691   */\n      dup3\n        /* \"#utility.yul\":7674:7683   */\n      dup12\n        /* \"#utility.yul\":7670:7692   */\n      add\n        /* \"#utility.yul\":7649:7702   */\n      tag_252\n      jump\t// in\n    tag_375:\n        /* \"#utility.yul\":7639:7702   */\n      swap4\n      pop\n        /* \"#utility.yul\":7593:7712   */\n      pop\n        /* \"#utility.yul\":7751:7754   */\n      0xa0\n        /* \"#utility.yul\":7778:7831   */\n      tag_376\n        /* \"#utility.yul\":7823:7830   */\n      dup11\n        /* \"#utility.yul\":7814:7820   */\n      dup3\n        /* \"#utility.yul\":7803:7812   */\n      dup12\n        /* \"#utility.yul\":7799:7821   */\n      add\n        /* \"#utility.yul\":7778:7831   */\n      tag_261\n      jump\t// in\n    tag_376:\n        /* \"#utility.yul\":7768:7831   */\n      swap3\n      pop\n        /* \"#utility.yul\":7722:7841   */\n      pop\n        /* \"#utility.yul\":7880:7883   */\n      0xc0\n        /* \"#utility.yul\":7907:7960   */\n      tag_377\n        /* \"#utility.yul\":7952:7959   */\n      dup11\n        /* \"#utility.yul\":7943:7949   */\n      dup3\n        /* \"#utility.yul\":7932:7941   */\n      dup12\n        /* \"#utility.yul\":7928:7950   */\n      add\n        /* \"#utility.yul\":7907:7960   */\n      tag_252\n      jump\t// in\n    tag_377:\n        /* \"#utility.yul\":7897:7960   */\n      swap2\n      pop\n        /* \"#utility.yul\":7851:7970   */\n      pop\n        /* \"#utility.yul\":6774:7977   */\n      swap3\n      swap6\n      swap9\n      swap2\n      swap5\n      swap8\n      pop\n      swap3\n      swap6\n      pop\n      jump\t// out\n        /* \"#utility.yul\":7983:8315   */\n    tag_30:\n        /* \"#utility.yul\":8104:8108   */\n      0x00\n        /* \"#utility.yul\":8142:8144   */\n      0x40\n        /* \"#utility.yul\":8131:8140   */\n      dup3\n        /* \"#utility.yul\":8127:8145   */\n      add\n        /* \"#utility.yul\":8119:8145   */\n      swap1\n      pop\n        /* \"#utility.yul\":8155:8226   */\n      tag_379\n        /* \"#utility.yul\":8223:8224   */\n      0x00\n        /* \"#utility.yul\":8212:8221   */\n      dup4\n        /* \"#utility.yul\":8208:8225   */\n      add\n        /* \"#utility.yul\":8199:8205   */\n      dup6\n        /* \"#utility.yul\":8155:8226   */\n      tag_253\n      jump\t// in\n    tag_379:\n        /* \"#utility.yul\":8236:8308   */\n      tag_380\n        /* \"#utility.yul\":8304:8306   */\n      0x20\n        /* \"#utility.yul\":8293:8302   */\n      dup4\n        /* \"#utility.yul\":8289:8307   */\n      add\n        /* \"#utility.yul\":8280:8286   */\n      dup5\n        /* \"#utility.yul\":8236:8308   */\n      tag_253\n      jump\t// in\n    tag_380:\n        /* \"#utility.yul\":7983:8315   */\n      swap4\n      swap3\n      pop\n      pop\n      pop\n      jump\t// out\n        /* \"#utility.yul\":8321:9670   */\n    tag_33:\n        /* \"#utility.yul\":8443:8449   */\n      0x00\n        /* \"#utility.yul\":8451:8457   */\n      0x00\n        /* \"#utility.yul\":8459:8465   */\n      0x00\n        /* \"#utility.yul\":8467:8473   */\n      0x00\n        /* \"#utility.yul\":8475:8481   */\n      0x00\n        /* \"#utility.yul\":8483:8489   */\n      0x00\n        /* \"#utility.yul\":8491:8497   */\n      0x00\n        /* \"#utility.yul\":8499:8505   */\n      0x00\n        /* \"#utility.yul\":8548:8551   */\n      0x0100\n        /* \"#utility.yul\":8536:8545   */\n      dup10\n        /* \"#utility.yul\":8527:8534   */\n      dup12\n        /* \"#utility.yul\":8523:8546   */\n      sub\n        /* \"#utility.yul\":8519:8552   */\n      slt\n        /* \"#utility.yul\":8516:8636   */\n      iszero\n      tag_382\n      jumpi\n        /* \"#utility.yul\":8555:8634   */\n      tag_383\n      tag_248\n      jump\t// in\n    tag_383:\n        /* \"#utility.yul\":8516:8636   */\n    tag_382:\n        /* \"#utility.yul\":8675:8676   */\n      0x00\n        /* \"#utility.yul\":8700:8753   */\n      tag_384\n        /* \"#utility.yul\":8745:8752   */\n      dup12\n        /* \"#utility.yul\":8736:8742   */\n      dup3\n        /* \"#utility.yul\":8725:8734   */\n      dup13\n        /* \"#utility.yul\":8721:8743   */\n      add\n        /* \"#utility.yul\":8700:8753   */\n      tag_261\n      jump\t// in\n    tag_384:\n        /* \"#utility.yul\":8690:8753   */\n      swap9\n      pop\n        /* \"#utility.yul\":8646:8763   */\n      pop\n        /* \"#utility.yul\":8802:8804   */\n      0x20\n        /* \"#utility.yul\":8828:8881   */\n      tag_385\n        /* \"#utility.yul\":8873:8880   */\n      dup12\n        /* \"#utility.yul\":8864:8870   */\n      dup3\n        /* \"#utility.yul\":8853:8862   */\n      dup13\n        /* \"#utility.yul\":8849:8871   */\n      add\n        /* \"#utility.yul\":8828:8881   */\n      tag_261\n      jump\t// in\n    tag_385:\n        /* \"#utility.yul\":8818:8881   */\n      swap8\n      pop\n        /* \"#utility.yul\":8773:8891   */\n      pop\n        /* \"#utility.yul\":8930:8932   */\n      0x40\n        /* \"#utility.yul\":8956:9009   */\n      tag_386\n        /* \"#utility.yul\":9001:9008   */\n      dup12\n        /* \"#utility.yul\":8992:8998   */\n      dup3\n        /* \"#utility.yul\":8981:8990   */\n      dup13\n        /* \"#utility.yul\":8977:8999   */\n      add\n        /* \"#utility.yul\":8956:9009   */\n      tag_252\n      jump\t// in\n    tag_386:\n        /* \"#utility.yul\":8946:9009   */\n      swap7\n      pop\n        /* \"#utility.yul\":8901:9019   */\n      pop\n        /* \"#utility.yul\":9058:9060   */\n      0x60\n        /* \"#utility.yul\":9084:9137   */\n      tag_387\n        /* \"#utility.yul\":9129:9136   */\n      dup12\n        /* \"#utility.yul\":9120:9126   */\n      dup3\n        /* \"#utility.yul\":9109:9118   */\n      dup13\n        /* \"#utility.yul\":9105:9127   */\n      add\n        /* \"#utility.yul\":9084:9137   */\n      tag_252\n      jump\t// in\n    tag_387:\n        /* \"#utility.yul\":9074:9137   */\n      swap6\n      pop\n        /* \"#utility.yul\":9029:9147   */\n      pop\n        /* \"#utility.yul\":9186:9189   */\n      0x80\n        /* \"#utility.yul\":9213:9266   */\n      tag_388\n        /* \"#utility.yul\":9258:9265   */\n      dup12\n        /* \"#utility.yul\":9249:9255   */\n      dup3\n        /* \"#utility.yul\":9238:9247   */\n      dup13\n        /* \"#utility.yul\":9234:9256   */\n      add\n        /* \"#utility.yul\":9213:9266   */\n      tag_252\n      jump\t// in\n    tag_388:\n        /* \"#utility.yul\":9203:9266   */\n      swap5\n      pop\n        /* \"#utility.yul\":9157:9276   */\n      pop\n        /* \"#utility.yul\":9315:9318   */\n      0xa0\n        /* \"#utility.yul\":9342:9395   */\n      tag_389\n        /* \"#utility.yul\":9387:9394   */\n      dup12\n        /* \"#utility.yul\":9378:9384   */\n      dup3\n        /* \"#utility.yul\":9367:9376   */\n      dup13\n        /* \"#utility.yul\":9363:9385   */\n      add\n        /* \"#utility.yul\":9342:9395   */\n      tag_252\n      jump\t// in\n    tag_389:\n        /* \"#utility.yul\":9332:9395   */\n      swap4\n      pop\n        /* \"#utility.yul\":9286:9405   */\n      pop\n        /* \"#utility.yul\":9444:9447   */\n      0xc0\n        /* \"#utility.yul\":9471:9524   */\n      tag_390\n        /* \"#utility.yul\":9516:9523   */\n      dup12\n        /* \"#utility.yul\":9507:9513   */\n      dup3\n        /* \"#utility.yul\":9496:9505   */\n      dup13\n        /* \"#utility.yul\":9492:9514   */\n      add\n        /* \"#utility.yul\":9471:9524   */\n      tag_261\n      jump\t// in\n    tag_390:\n        /* \"#utility.yul\":9461:9524   */\n      swap3\n      pop\n        /* \"#utility.yul\":9415:9534   */\n      pop\n        /* \"#utility.yul\":9573:9576   */\n      0xe0\n        /* \"#utility.yul\":9600:9653   */\n      tag_391\n        /* \"#utility.yul\":9645:9652   */\n      dup12\n        /* \"#utility.yul\":9636:9642   */\n      dup3\n        /* \"#utility.yul\":9625:9634   */\n      dup13\n        /* \"#utility.yul\":9621:9643   */\n      add\n        /* \"#utility.yul\":9600:9653   */\n      tag_252\n      jump\t// in\n    tag_391:\n        /* \"#utility.yul\":9590:9653   */\n      swap2\n      pop\n        /* \"#utility.yul\":9544:9663   */\n      pop\n        /* \"#utility.yul\":8321:9670   */\n      swap3\n      swap6\n      swap9\n      pop\n      swap3\n      swap6\n      swap9\n      swap1\n      swap4\n      swap7\n      pop\n      jump\t// out\n        /* \"#utility.yul\":9676:10118   */\n    tag_36:\n        /* \"#utility.yul\":9825:9829   */\n      0x00\n        /* \"#utility.yul\":9863:9865   */\n      0x60\n        /* \"#utility.yul\":9852:9861   */\n      dup3\n        /* \"#utility.yul\":9848:9866   */\n      add\n        /* \"#utility.yul\":9840:9866   */\n      swap1\n      pop\n        /* \"#utility.yul\":9876:9947   */\n      tag_393\n        /* \"#utility.yul\":9944:9945   */\n      0x00\n        /* \"#utility.yul\":9933:9942   */\n      dup4\n        /* \"#utility.yul\":9929:9946   */\n      add\n        /* \"#utility.yul\":9920:9926   */\n      dup7\n        /* \"#utility.yul\":9876:9947   */\n      tag_253\n      jump\t// in\n    tag_393:\n        /* \"#utility.yul\":9957:10029   */\n      tag_394\n        /* \"#utility.yul\":10025:10027   */\n      0x20\n        /* \"#utility.yul\":10014:10023   */\n      dup4\n        /* \"#utility.yul\":10010:10028   */\n      add\n        /* \"#utility.yul\":10001:10007   */\n      dup6\n        /* \"#utility.yul\":9957:10029   */\n      tag_253\n      jump\t// in\n    tag_394:\n        /* \"#utility.yul\":10039:10111   */\n      tag_395\n        /* \"#utility.yul\":10107:10109   */\n      0x40\n        /* \"#utility.yul\":10096:10105   */\n      dup4\n        /* \"#utility.yul\":10092:10110   */\n      add\n        /* \"#utility.yul\":10083:10089   */\n      dup5\n        /* \"#utility.yul\":10039:10111   */\n      tag_253\n      jump\t// in\n    tag_395:\n        /* \"#utility.yul\":9676:10118   */\n      swap5\n      swap4\n      pop\n      pop\n      pop\n      pop\n      jump\t// out\n        /* \"#utility.yul\":10124:10293   */\n    tag_269:\n        /* \"#utility.yul\":10208:10219   */\n      0x00\n        /* \"#utility.yul\":10242:10248   */\n      dup3\n        /* \"#utility.yul\":10237:10240   */\n      dup3\n        /* \"#utility.yul\":10230:10249   */\n      mstore\n        /* \"#utility.yul\":10282:10286   */\n      0x20\n        /* \"#utility.yul\":10277:10280   */\n      dup3\n        /* \"#utility.yul\":10273:10287   */\n      add\n        /* \"#utility.yul\":10258:10287   */\n      swap1\n      pop\n        /* \"#utility.yul\":10124:10293   */\n      swap3\n      swap2\n      pop\n      pop\n      jump\t// out\n        /* \"#utility.yul\":10299:10474   */\n    tag_270:\n        /* \"#utility.yul\":10439:10466   */\n      0x496e73756666696369656e7420696e70757420616d6f756e7400000000000000\n        /* \"#utility.yul\":10435:10436   */\n      0x00\n        /* \"#utility.yul\":10427:10433   */\n      dup3\n        /* \"#utility.yul\":10423:10437   */\n      add\n        /* \"#utility.yul\":10416:10467   */\n      mstore\n        /* \"#utility.yul\":10299:10474   */\n      pop\n      jump\t// out\n        /* \"#utility.yul\":10480:10846   */\n    tag_271:\n        /* \"#utility.yul\":10622:10625   */\n      0x00\n        /* \"#utility.yul\":10643:10710   */\n      tag_399\n        /* \"#utility.yul\":10707:10709   */\n      0x19\n        /* \"#utility.yul\":10702:10705   */\n      dup4\n        /* \"#utility.yul\":10643:10710   */\n      tag_269\n      jump\t// in\n    tag_399:\n        /* \"#utility.yul\":10636:10710   */\n      swap2\n      pop\n        /* \"#utility.yul\":10719:10812   */\n      tag_400\n        /* \"#utility.yul\":10808:10811   */\n      dup3\n        /* \"#utility.yul\":10719:10812   */\n      tag_270\n      jump\t// in\n    tag_400:\n        /* \"#utility.yul\":10837:10839   */\n      0x20\n        /* \"#utility.yul\":10832:10835   */\n      dup3\n        /* \"#utility.yul\":10828:10840   */\n      add\n        /* \"#utility.yul\":10821:10840   */\n      swap1\n      pop\n        /* \"#utility.yul\":10480:10846   */\n      swap2\n      swap1\n      pop\n      jump\t// out\n        /* \"#utility.yul\":10852:11271   */\n    tag_40:\n        /* \"#utility.yul\":11018:11022   */\n      0x00\n        /* \"#utility.yul\":11056:11058   */\n      0x20\n        /* \"#utility.yul\":11045:11054   */\n      dup3\n        /* \"#utility.yul\":11041:11059   */\n      add\n        /* \"#utility.yul\":11033:11059   */\n      swap1\n      pop\n        /* \"#utility.yul\":11105:11114   */\n      dup2\n        /* \"#utility.yul\":11099:11103   */\n      dup2\n        /* \"#utility.yul\":11095:11115   */\n      sub\n        /* \"#utility.yul\":11091:11092   */\n      0x00\n        /* \"#utility.yul\":11080:11089   */\n      dup4\n        /* \"#utility.yul\":11076:11093   */\n      add\n        /* \"#utility.yul\":11069:11116   */\n      mstore\n        /* \"#utility.yul\":11133:11264   */\n      tag_402\n        /* \"#utility.yul\":11259:11263   */\n      dup2\n        /* \"#utility.yul\":11133:11264   */\n      tag_271\n      jump\t// in\n    tag_402:\n        /* \"#utility.yul\":11125:11264   */\n      swap1\n      pop\n        /* \"#utility.yul\":10852:11271   */\n      swap2\n      swap1\n      pop\n      jump\t// out\n        /* \"#utility.yul\":11277:11449   */\n    tag_272:\n        /* \"#utility.yul\":11417:11441   */\n      0x496e73756666696369656e74206c697175696469747900000000000000000000\n        /* \"#utility.yul\":11413:11414   */\n      0x00\n        /* \"#utility.yul\":11405:11411   */\n      dup3\n        /* \"#utility.yul\":11401:11415   */\n      add\n        /* \"#utility.yul\":11394:11442   */\n      mstore\n        /* \"#utility.yul\":11277:11449   */\n      pop\n      jump\t// out\n        /* \"#utility.yul\":11455:11821   */\n    tag_273:\n        /* \"#utility.yul\":11597:11600   */\n      0x00\n        /* \"#utility.yul\":11618:11685   */\n      tag_405\n        /* \"#utility.yul\":11682:11684   */\n      0x16\n        /* \"#utility.yul\":11677:11680   */\n      dup4\n        /* \"#utility.yul\":11618:11685   */\n      tag_269\n      jump\t// in\n    tag_405:\n        /* \"#utility.yul\":11611:11685   */\n      swap2\n      pop\n        /* \"#utility.yul\":11694:11787   */\n      tag_406\n        /* \"#utility.yul\":11783:11786   */\n      dup3\n        /* \"#utility.yul\":11694:11787   */\n      tag_272\n      jump\t// in\n    tag_406:\n        /* \"#utility.yul\":11812:11814   */\n      0x20\n        /* \"#utility.yul\":11807:11810   */\n      dup3\n        /* \"#utility.yul\":11803:11815   */\n      add\n        /* \"#utility.yul\":11796:11815   */\n      swap1\n      pop\n        /* \"#utility.yul\":11455:11821   */\n      swap2\n      swap1\n      pop\n      jump\t// out\n        /* \"#utility.yul\":11827:12246   */\n    tag_44:\n        /* \"#utility.yul\":11993:11997   */\n      0x00\n        /* \"#utility.yul\":12031:12033   */\n      0x20\n        /* \"#utility.yul\":12020:12029   */\n      dup3\n        /* \"#utility.yul\":12016:12034   */\n      add\n        /* \"#utility.yul\":12008:12034   */\n      swap1\n      pop\n        /* \"#utility.yul\":12080:12089   */\n      dup2\n        /* \"#utility.yul\":12074:12078   */\n      dup2\n        /* \"#utility.yul\":12070:12090   */\n      sub\n        /* \"#utility.yul\":12066:12067   */\n      0x00\n        /* \"#utility.yul\":12055:12064   */\n      dup4\n        /* \"#utility.yul\":12051:12068   */\n      add\n        /* \"#utility.yul\":12044:12091   */\n      mstore\n        /* \"#utility.yul\":12108:12239   */\n      tag_408\n        /* \"#utility.yul\":12234:12238   */\n      dup2\n        /* \"#utility.yul\":12108:12239   */\n      tag_273\n      jump\t// in\n    tag_408:\n        /* \"#utility.yul\":12100:12239   */\n      swap1\n      pop\n        /* \"#utility.yul\":11827:12246   */\n      swap2\n      swap1\n      pop\n      jump\t// out\n        /* \"#utility.yul\":12252:12432   */\n    tag_274:\n        /* \"#utility.yul\":12300:12377   */\n      0x4e487b7100000000000000000000000000000000000000000000000000000000\n        /* \"#utility.yul\":12297:12298   */\n      0x00\n        /* \"#utility.yul\":12290:12378   */\n      mstore\n        /* \"#utility.yul\":12397:12401   */\n      0x11\n        /* \"#utility.yul\":12394:12395   */\n      0x04\n        /* \"#utility.yul\":12387:12402   */\n      mstore\n        /* \"#utility.yul\":12421:12425   */\n      0x24\n        /* \"#utility.yul\":12418:12419   */\n      0x00\n        /* \"#utility.yul\":12411:12426   */\n      revert\n        /* \"#utility.yul\":12438:12848   */\n    tag_46:\n        /* \"#utility.yul\":12478:12485   */\n      0x00\n        /* \"#utility.yul\":12501:12521   */\n      tag_411\n        /* \"#utility.yul\":12519:12520   */\n      dup3\n        /* \"#utility.yul\":12501:12521   */\n      tag_250\n      jump\t// in\n    tag_411:\n        /* \"#utility.yul\":12496:12521   */\n      swap2\n      pop\n        /* \"#utility.yul\":12535:12555   */\n      tag_412\n        /* \"#utility.yul\":12553:12554   */\n      dup4\n        /* \"#utility.yul\":12535:12555   */\n      tag_250\n      jump\t// in\n    tag_412:\n        /* \"#utility.yul\":12530:12555   */\n      swap3\n      pop\n        /* \"#utility.yul\":12590:12591   */\n      dup3\n        /* \"#utility.yul\":12587:12588   */\n      dup3\n        /* \"#utility.yul\":12583:12592   */\n      mul\n        /* \"#utility.yul\":12612:12642   */\n      tag_413\n        /* \"#utility.yul\":12630:12641   */\n      dup2\n        /* \"#utility.yul\":12612:12642   */\n      tag_250\n      jump\t// in\n    tag_413:\n        /* \"#utility.yul\":12601:12642   */\n      swap2\n      pop\n        /* \"#utility.yul\":12791:12792   */\n      dup3\n        /* \"#utility.yul\":12782:12789   */\n      dup3\n        /* \"#utility.yul\":12778:12793   */\n      div\n        /* \"#utility.yul\":12775:12776   */\n      dup5\n        /* \"#utility.yul\":12772:12794   */\n      eq\n        /* \"#utility.yul\":12752:12753   */\n      dup4\n        /* \"#utility.yul\":12745:12754   */\n      iszero\n        /* \"#utility.yul\":12725:12808   */\n      or\n        /* \"#utility.yul\":12702:12841   */\n      tag_414\n      jumpi\n        /* \"#utility.yul\":12821:12839   */\n      tag_415\n      tag_274\n      jump\t// in\n    tag_415:\n        /* \"#utility.yul\":12702:12841   */\n    tag_414:\n        /* \"#utility.yul\":12486:12848   */\n      pop\n        /* \"#utility.yul\":12438:12848   */\n      swap3\n      swap2\n      pop\n      pop\n      jump\t// out\n        /* \"#utility.yul\":12854:13045   */\n    tag_50:\n        /* \"#utility.yul\":12894:12897   */\n      0x00\n        /* \"#utility.yul\":12913:12933   */\n      tag_417\n        /* \"#utility.yul\":12931:12932   */\n      dup3\n        /* \"#utility.yul\":12913:12933   */\n      tag_250\n      jump\t// in\n    tag_417:\n        /* \"#utility.yul\":12908:12933   */\n      swap2\n      pop\n        /* \"#utility.yul\":12947:12967   */\n      tag_418\n        /* \"#utility.yul\":12965:12966   */\n      dup4\n        /* \"#utility.yul\":12947:12967   */\n      tag_250\n      jump\t// in\n    tag_418:\n        /* \"#utility.yul\":12942:12967   */\n      swap3\n      pop\n        /* \"#utility.yul\":12990:12991   */\n      dup3\n        /* \"#utility.yul\":12987:12988   */\n      dup3\n        /* \"#utility.yul\":12983:12992   */\n      add\n        /* \"#utility.yul\":12976:12992   */\n      swap1\n      pop\n        /* \"#utility.yul\":13011:13014   */\n      dup1\n        /* \"#utility.yul\":13008:13009   */\n      dup3\n        /* \"#utility.yul\":13005:13015   */\n      gt\n        /* \"#utility.yul\":13002:13038   */\n      iszero\n      tag_419\n      jumpi\n        /* \"#utility.yul\":13018:13036   */\n      tag_420\n      tag_274\n      jump\t// in\n    tag_420:\n        /* \"#utility.yul\":13002:13038   */\n    tag_419:\n        /* \"#utility.yul\":12854:13045   */\n      swap3\n      swap2\n      pop\n      pop\n      jump\t// out\n        /* \"#utility.yul\":13051:13231   */\n    tag_226:\n        /* \"#utility.yul\":13099:13176   */\n      0x4e487b7100000000000000000000000000000000000000000000000000000000\n        /* \"#utility.yul\":13096:13097   */\n      0x00\n        /* \"#utility.yul\":13089:13177   */\n      mstore\n        /* \"#utility.yul\":13196:13200   */\n      0x12\n        /* \"#utility.yul\":13193:13194   */\n      0x04\n        /* \"#utility.yul\":13186:13201   */\n      mstore\n        /* \"#utility.yul\":13220:13224   */\n      0x24\n        /* \"#utility.yul\":13217:13218   */\n      0x00\n        /* \"#utility.yul\":13210:13225   */\n      revert\n        /* \"#utility.yul\":13237:13422   */\n    tag_52:\n        /* \"#utility.yul\":13277:13278   */\n      0x00\n        /* \"#utility.yul\":13294:13314   */\n      tag_423\n        /* \"#utility.yul\":13312:13313   */\n      dup3\n        /* \"#utility.yul\":13294:13314   */\n      tag_250\n      jump\t// in\n    tag_423:\n        /* \"#utility.yul\":13289:13314   */\n      swap2\n      pop\n        /* \"#utility.yul\":13328:13348   */\n      tag_424\n        /* \"#utility.yul\":13346:13347   */\n      dup4\n        /* \"#utility.yul\":13328:13348   */\n      tag_250\n      jump\t// in\n    tag_424:\n        /* \"#utility.yul\":13323:13348   */\n      swap3\n      pop\n        /* \"#utility.yul\":13367:13368   */\n      dup3\n        /* \"#utility.yul\":13357:13392   */\n      tag_425\n      jumpi\n        /* \"#utility.yul\":13372:13390   */\n      tag_426\n      tag_226\n      jump\t// in\n    tag_426:\n        /* \"#utility.yul\":13357:13392   */\n    tag_425:\n        /* \"#utility.yul\":13414:13415   */\n      dup3\n        /* \"#utility.yul\":13411:13412   */\n      dup3\n        /* \"#utility.yul\":13407:13416   */\n      div\n        /* \"#utility.yul\":13402:13416   */\n      swap1\n      pop\n        /* \"#utility.yul\":13237:13422   */\n      swap3\n      swap2\n      pop\n      pop\n      jump\t// out\n        /* \"#utility.yul\":13428:13597   */\n    tag_275:\n        /* \"#utility.yul\":13568:13589   */\n      0x5472616e73616374696f6e206578706972656400000000000000000000000000\n        /* \"#utility.yul\":13564:13565   */\n      0x00\n        /* \"#utility.yul\":13556:13562   */\n      dup3\n        /* \"#utility.yul\":13552:13566   */\n      add\n        /* \"#utility.yul\":13545:13590   */\n      mstore\n        /* \"#utility.yul\":13428:13597   */\n      pop\n      jump\t// out\n        /* \"#utility.yul\":13603:13969   */\n    tag_276:\n        /* \"#utility.yul\":13745:13748   */\n      0x00\n        /* \"#utility.yul\":13766:13833   */\n      tag_429\n        /* \"#utility.yul\":13830:13832   */\n      0x13\n        /* \"#utility.yul\":13825:13828   */\n      dup4\n        /* \"#utility.yul\":13766:13833   */\n      tag_269\n      jump\t// in\n    tag_429:\n        /* \"#utility.yul\":13759:13833   */\n      swap2\n      pop\n        /* \"#utility.yul\":13842:13935   */\n      tag_430\n        /* \"#utility.yul\":13931:13934   */\n      dup3\n        /* \"#utility.yul\":13842:13935   */\n      tag_275\n      jump\t// in\n    tag_430:\n        /* \"#utility.yul\":13960:13962   */\n      0x20\n        /* \"#utility.yul\":13955:13958   */\n      dup3\n        /* \"#utility.yul\":13951:13963   */\n      add\n        /* \"#utility.yul\":13944:13963   */\n      swap1\n      pop\n        /* \"#utility.yul\":13603:13969   */\n      swap2\n      swap1\n      pop\n      jump\t// out\n        /* \"#utility.yul\":13975:14394   */\n    tag_56:\n        /* \"#utility.yul\":14141:14145   */\n      0x00\n        /* \"#utility.yul\":14179:14181   */\n      0x20\n        /* \"#utility.yul\":14168:14177   */\n      dup3\n        /* \"#utility.yul\":14164:14182   */\n      add\n        /* \"#utility.yul\":14156:14182   */\n      swap1\n      pop\n        /* \"#utility.yul\":14228:14237   */\n      dup2\n        /* \"#utility.yul\":14222:14226   */\n      dup2\n        /* \"#utility.yul\":14218:14238   */\n      sub\n        /* \"#utility.yul\":14214:14215   */\n      0x00\n        /* \"#utility.yul\":14203:14212   */\n      dup4\n        /* \"#utility.yul\":14199:14216   */\n      add\n        /* \"#utility.yul\":14192:14239   */\n      mstore\n        /* \"#utility.yul\":14256:14387   */\n      tag_432\n        /* \"#utility.yul\":14382:14386   */\n      dup2\n        /* \"#utility.yul\":14256:14387   */\n      tag_276\n      jump\t// in\n    tag_432:\n        /* \"#utility.yul\":14248:14387   */\n      swap1\n      pop\n        /* \"#utility.yul\":13975:14394   */\n      swap2\n      swap1\n      pop\n      jump\t// out\n        /* \"#utility.yul\":14400:14577   */\n    tag_277:\n        /* \"#utility.yul\":14540:14569   */\n      0x4f6e6c7920322d746f6b656e207061746820737570706f727465640000000000\n        /* \"#utility.yul\":14536:14537   */\n      0x00\n        /* \"#utility.yul\":14528:14534   */\n      dup3\n        /* \"#utility.yul\":14524:14538   */\n      add\n        /* \"#utility.yul\":14517:14570   */\n      mstore\n        /* \"#utility.yul\":14400:14577   */\n      pop\n      jump\t// out\n        /* \"#utility.yul\":14583:14949   */\n    tag_278:\n        /* \"#utility.yul\":14725:14728   */\n      0x00\n        /* \"#utility.yul\":14746:14813   */\n      tag_435\n        /* \"#utility.yul\":14810:14812   */\n      0x1b\n        /* \"#utility.yul\":14805:14808   */\n      dup4\n        /* \"#utility.yul\":14746:14813   */\n      tag_269\n      jump\t// in\n    tag_435:\n        /* \"#utility.yul\":14739:14813   */\n      swap2\n      pop\n        /* \"#utility.yul\":14822:14915   */\n      tag_436\n        /* \"#utility.yul\":14911:14914   */\n      dup3\n        /* \"#utility.yul\":14822:14915   */\n      tag_277\n      jump\t// in\n    tag_436:\n        /* \"#utility.yul\":14940:14942   */\n      0x20\n        /* \"#utility.yul\":14935:14938   */\n      dup3\n        /* \"#utility.yul\":14931:14943   */\n      add\n        /* \"#utility.yul\":14924:14943   */\n      swap1\n      pop\n        /* \"#utility.yul\":14583:14949   */\n      swap2\n      swap1\n      pop\n      jump\t// out\n        /* \"#utility.yul\":14955:15374   */\n    tag_60:\n        /* \"#utility.yul\":15121:15125   */\n      0x00\n        /* \"#utility.yul\":15159:15161   */\n      0x20\n        /* \"#utility.yul\":15148:15157   */\n      dup3\n        /* \"#utility.yul\":15144:15162   */\n      add\n        /* \"#utility.yul\":15136:15162   */\n      swap1\n      pop\n        /* \"#utility.yul\":15208:15217   */\n      dup2\n        /* \"#utility.yul\":15202:15206   */\n      dup2\n        /* \"#utility.yul\":15198:15218   */\n      sub\n        /* \"#utility.yul\":15194:15195   */\n      0x00\n        /* \"#utility.yul\":15183:15192   */\n      dup4\n        /* \"#utility.yul\":15179:15196   */\n      add\n        /* \"#utility.yul\":15172:15219   */\n      mstore\n        /* \"#utility.yul\":15236:15367   */\n      tag_438\n        /* \"#utility.yul\":15362:15366   */\n      dup2\n        /* \"#utility.yul\":15236:15367   */\n      tag_278\n      jump\t// in\n    tag_438:\n        /* \"#utility.yul\":15228:15367   */\n      swap1\n      pop\n        /* \"#utility.yul\":14955:15374   */\n      swap2\n      swap1\n      pop\n      jump\t// out\n        /* \"#utility.yul\":15380:15560   */\n    tag_63:\n        /* \"#utility.yul\":15428:15505   */\n      0x4e487b7100000000000000000000000000000000000000000000000000000000\n        /* \"#utility.yul\":15425:15426   */\n      0x00\n        /* \"#utility.yul\":15418:15506   */\n      mstore\n        /* \"#utility.yul\":15525:15529   */\n      0x32\n        /* \"#utility.yul\":15522:15523   */\n      0x04\n        /* \"#utility.yul\":15515:15530   */\n      mstore\n        /* \"#utility.yul\":15549:15553   */\n      0x24\n        /* \"#utility.yul\":15546:15547   */\n      0x00\n        /* \"#utility.yul\":15539:15554   */\n      revert\n        /* \"#utility.yul\":15566:15895   */\n    tag_65:\n        /* \"#utility.yul\":15625:15631   */\n      0x00\n        /* \"#utility.yul\":15674:15676   */\n      0x20\n        /* \"#utility.yul\":15662:15671   */\n      dup3\n        /* \"#utility.yul\":15653:15660   */\n      dup5\n        /* \"#utility.yul\":15649:15672   */\n      sub\n        /* \"#utility.yul\":15645:15677   */\n      slt\n        /* \"#utility.yul\":15642:15761   */\n      iszero\n      tag_441\n      jumpi\n        /* \"#utility.yul\":15680:15759   */\n      tag_442\n      tag_248\n      jump\t// in\n    tag_442:\n        /* \"#utility.yul\":15642:15761   */\n    tag_441:\n        /* \"#utility.yul\":15800:15801   */\n      0x00\n        /* \"#utility.yul\":15825:15878   */\n      tag_443\n        /* \"#utility.yul\":15870:15877   */\n      dup5\n        /* \"#utility.yul\":15861:15867   */\n      dup3\n        /* \"#utility.yul\":15850:15859   */\n      dup6\n        /* \"#utility.yul\":15846:15868   */\n      add\n        /* \"#utility.yul\":15825:15878   */\n      tag_261\n      jump\t// in\n    tag_443:\n        /* \"#utility.yul\":15815:15878   */\n      swap2\n      pop\n        /* \"#utility.yul\":15771:15888   */\n      pop\n        /* \"#utility.yul\":15566:15895   */\n      swap3\n      swap2\n      pop\n      pop\n      jump\t// out\n        /* \"#utility.yul\":15901:16077   */\n    tag_279:\n        /* \"#utility.yul\":16041:16069   */\n      0x496e73756666696369656e74206f757470757420616d6f756e74000000000000\n        /* \"#utility.yul\":16037:16038   */\n      0x00\n        /* \"#utility.yul\":16029:16035   */\n      dup3\n        /* \"#utility.yul\":16025:16039   */\n      add\n        /* \"#utility.yul\":16018:16070   */\n      mstore\n        /* \"#utility.yul\":15901:16077   */\n      pop\n      jump\t// out\n        /* \"#utility.yul\":16083:16449   */\n    tag_280:\n        /* \"#utility.yul\":16225:16228   */\n      0x00\n        /* \"#utility.yul\":16246:16313   */\n      tag_446\n        /* \"#utility.yul\":16310:16312   */\n      0x1a\n        /* \"#utility.yul\":16305:16308   */\n      dup4\n        /* \"#utility.yul\":16246:16313   */\n      tag_269\n      jump\t// in\n    tag_446:\n        /* \"#utility.yul\":16239:16313   */\n      swap2\n      pop\n        /* \"#utility.yul\":16322:16415   */\n      tag_447\n        /* \"#utility.yul\":16411:16414   */\n      dup3\n        /* \"#utility.yul\":16322:16415   */\n      tag_279\n      jump\t// in\n    tag_447:\n        /* \"#utility.yul\":16440:16442   */\n      0x20\n        /* \"#utility.yul\":16435:16438   */\n      dup3\n        /* \"#utility.yul\":16431:16443   */\n      add\n        /* \"#utility.yul\":16424:16443   */\n      swap1\n      pop\n        /* \"#utility.yul\":16083:16449   */\n      swap2\n      swap1\n      pop\n      jump\t// out\n        /* \"#utility.yul\":16455:16874   */\n    tag_78:\n        /* \"#utility.yul\":16621:16625   */\n      0x00\n        /* \"#utility.yul\":16659:16661   */\n      0x20\n        /* \"#utility.yul\":16648:16657   */\n      dup3\n        /* \"#utility.yul\":16644:16662   */\n      add\n        /* \"#utility.yul\":16636:16662   */\n      swap1\n      pop\n        /* \"#utility.yul\":16708:16717   */\n      dup2\n        /* \"#utility.yul\":16702:16706   */\n      dup2\n        /* \"#utility.yul\":16698:16718   */\n      sub\n        /* \"#utility.yul\":16694:16695   */\n      0x00\n        /* \"#utility.yul\":16683:16692   */\n      dup4\n        /* \"#utility.yul\":16679:16696   */\n      add\n        /* \"#utility.yul\":16672:16719   */\n      mstore\n        /* \"#utility.yul\":16736:16867   */\n      tag_449\n        /* \"#utility.yul\":16862:16866   */\n      dup2\n        /* \"#utility.yul\":16736:16867   */\n      tag_280\n      jump\t// in\n    tag_449:\n        /* \"#utility.yul\":16728:16867   */\n      swap1\n      pop\n        /* \"#utility.yul\":16455:16874   */\n      swap2\n      swap1\n      pop\n      jump\t// out\n        /* \"#utility.yul\":16880:17074   */\n    tag_82:\n        /* \"#utility.yul\":16920:16924   */\n      0x00\n        /* \"#utility.yul\":16940:16960   */\n      tag_451\n        /* \"#utility.yul\":16958:16959   */\n      dup3\n        /* \"#utility.yul\":16940:16960   */\n      tag_250\n      jump\t// in\n    tag_451:\n        /* \"#utility.yul\":16935:16960   */\n      swap2\n      pop\n        /* \"#utility.yul\":16974:16994   */\n      tag_452\n        /* \"#utility.yul\":16992:16993   */\n      dup4\n        /* \"#utility.yul\":16974:16994   */\n      tag_250\n      jump\t// in\n    tag_452:\n        /* \"#utility.yul\":16969:16994   */\n      swap3\n      pop\n        /* \"#utility.yul\":17018:17019   */\n      dup3\n        /* \"#utility.yul\":17015:17016   */\n      dup3\n        /* \"#utility.yul\":17011:17020   */\n      sub\n        /* \"#utility.yul\":17003:17020   */\n      swap1\n      pop\n        /* \"#utility.yul\":17042:17043   */\n      dup2\n        /* \"#utility.yul\":17036:17040   */\n      dup2\n        /* \"#utility.yul\":17033:17044   */\n      gt\n        /* \"#utility.yul\":17030:17067   */\n      iszero\n      tag_453\n      jumpi\n        /* \"#utility.yul\":17047:17065   */\n      tag_454\n      tag_274\n      jump\t// in\n    tag_454:\n        /* \"#utility.yul\":17030:17067   */\n    tag_453:\n        /* \"#utility.yul\":16880:17074   */\n      swap3\n      swap2\n      pop\n      pop\n      jump\t// out\n        /* \"#utility.yul\":17080:17260   */\n    tag_90:\n        /* \"#utility.yul\":17128:17205   */\n      0x4e487b7100000000000000000000000000000000000000000000000000000000\n        /* \"#utility.yul\":17125:17126   */\n      0x00\n        /* \"#utility.yul\":17118:17206   */\n      mstore\n        /* \"#utility.yul\":17225:17229   */\n      0x41\n        /* \"#utility.yul\":17222:17223   */\n      0x04\n        /* \"#utility.yul\":17215:17230   */\n      mstore\n        /* \"#utility.yul\":17249:17253   */\n      0x24\n        /* \"#utility.yul\":17246:17247   */\n      0x00\n        /* \"#utility.yul\":17239:17254   */\n      revert\n        /* \"#utility.yul\":17266:17384   */\n    tag_281:\n        /* \"#utility.yul\":17353:17377   */\n      tag_457\n        /* \"#utility.yul\":17371:17376   */\n      dup2\n        /* \"#utility.yul\":17353:17377   */\n      tag_259\n      jump\t// in\n    tag_457:\n        /* \"#utility.yul\":17348:17351   */\n      dup3\n        /* \"#utility.yul\":17341:17378   */\n      mstore\n        /* \"#utility.yul\":17266:17384   */\n      pop\n      pop\n      jump\t// out\n        /* \"#utility.yul\":17390:17943   */\n    tag_101:\n        /* \"#utility.yul\":17567:17571   */\n      0x00\n        /* \"#utility.yul\":17605:17608   */\n      0x80\n        /* \"#utility.yul\":17594:17603   */\n      dup3\n        /* \"#utility.yul\":17590:17609   */\n      add\n        /* \"#utility.yul\":17582:17609   */\n      swap1\n      pop\n        /* \"#utility.yul\":17619:17690   */\n      tag_459\n        /* \"#utility.yul\":17687:17688   */\n      0x00\n        /* \"#utility.yul\":17676:17685   */\n      dup4\n        /* \"#utility.yul\":17672:17689   */\n      add\n        /* \"#utility.yul\":17663:17669   */\n      dup8\n        /* \"#utility.yul\":17619:17690   */\n      tag_281\n      jump\t// in\n    tag_459:\n        /* \"#utility.yul\":17700:17772   */\n      tag_460\n        /* \"#utility.yul\":17768:17770   */\n      0x20\n        /* \"#utility.yul\":17757:17766   */\n      dup4\n        /* \"#utility.yul\":17753:17771   */\n      add\n        /* \"#utility.yul\":17744:17750   */\n      dup7\n        /* \"#utility.yul\":17700:17772   */\n      tag_281\n      jump\t// in\n    tag_460:\n        /* \"#utility.yul\":17782:17854   */\n      tag_461\n        /* \"#utility.yul\":17850:17852   */\n      0x40\n        /* \"#utility.yul\":17839:17848   */\n      dup4\n        /* \"#utility.yul\":17835:17853   */\n      add\n        /* \"#utility.yul\":17826:17832   */\n      dup6\n        /* \"#utility.yul\":17782:17854   */\n      tag_253\n      jump\t// in\n    tag_461:\n        /* \"#utility.yul\":17864:17936   */\n      tag_462\n        /* \"#utility.yul\":17932:17934   */\n      0x60\n        /* \"#utility.yul\":17921:17930   */\n      dup4\n        /* \"#utility.yul\":17917:17935   */\n      add\n        /* \"#utility.yul\":17908:17914   */\n      dup5\n        /* \"#utility.yul\":17864:17936   */\n      tag_253\n      jump\t// in\n    tag_462:\n        /* \"#utility.yul\":17390:17943   */\n      swap6\n      swap5\n      pop\n      pop\n      pop\n      pop\n      pop\n      jump\t// out\n        /* \"#utility.yul\":17949:18110   */\n    tag_282:\n        /* \"#utility.yul\":18089:18102   */\n      0x4e6f207265736572766573000000000000000000000000000000000000000000\n        /* \"#utility.yul\":18085:18086   */\n      0x00\n        /* \"#utility.yul\":18077:18083   */\n      dup3\n        /* \"#utility.yul\":18073:18087   */\n      add\n        /* \"#utility.yul\":18066:18103   */\n      mstore\n        /* \"#utility.yul\":17949:18110   */\n      pop\n      jump\t// out\n        /* \"#utility.yul\":18116:18482   */\n    tag_283:\n        /* \"#utility.yul\":18258:18261   */\n      0x00\n        /* \"#utility.yul\":18279:18346   */\n      tag_465\n        /* \"#utility.yul\":18343:18345   */\n      0x0b\n        /* \"#utility.yul\":18338:18341   */\n      dup4\n        /* \"#utility.yul\":18279:18346   */\n      tag_269\n      jump\t// in\n    tag_465:\n        /* \"#utility.yul\":18272:18346   */\n      swap2\n      pop\n        /* \"#utility.yul\":18355:18448   */\n      tag_466\n        /* \"#utility.yul\":18444:18447   */\n      dup3\n        /* \"#utility.yul\":18355:18448   */\n      tag_282\n      jump\t// in\n    tag_466:\n        /* \"#utility.yul\":18473:18475   */\n      0x20\n        /* \"#utility.yul\":18468:18471   */\n      dup3\n        /* \"#utility.yul\":18464:18476   */\n      add\n        /* \"#utility.yul\":18457:18476   */\n      swap1\n      pop\n        /* \"#utility.yul\":18116:18482   */\n      swap2\n      swap1\n      pop\n      jump\t// out\n        /* \"#utility.yul\":18488:18907   */\n    tag_109:\n        /* \"#utility.yul\":18654:18658   */\n      0x00\n        /* \"#utility.yul\":18692:18694   */\n      0x20\n        /* \"#utility.yul\":18681:18690   */\n      dup3\n        /* \"#utility.yul\":18677:18695   */\n      add\n        /* \"#utility.yul\":18669:18695   */\n      swap1\n      pop\n        /* \"#utility.yul\":18741:18750   */\n      dup2\n        /* \"#utility.yul\":18735:18739   */\n      dup2\n        /* \"#utility.yul\":18731:18751   */\n      sub\n        /* \"#utility.yul\":18727:18728   */\n      0x00\n        /* \"#utility.yul\":18716:18725   */\n      dup4\n        /* \"#utility.yul\":18712:18729   */\n      add\n        /* \"#utility.yul\":18705:18752   */\n      mstore\n        /* \"#utility.yul\":18769:18900   */\n      tag_468\n        /* \"#utility.yul\":18895:18899   */\n      dup2\n        /* \"#utility.yul\":18769:18900   */\n      tag_283\n      jump\t// in\n    tag_468:\n        /* \"#utility.yul\":18761:18900   */\n      swap1\n      pop\n        /* \"#utility.yul\":18488:18907   */\n      swap2\n      swap1\n      pop\n      jump\t// out\n        /* \"#utility.yul\":18913:19084   */\n    tag_284:\n        /* \"#utility.yul\":19053:19076   */\n      0x496e73756666696369656e74204120616d6f756e740000000000000000000000\n        /* \"#utility.yul\":19049:19050   */\n      0x00\n        /* \"#utility.yul\":19041:19047   */\n      dup3\n        /* \"#utility.yul\":19037:19051   */\n      add\n        /* \"#utility.yul\":19030:19077   */\n      mstore\n        /* \"#utility.yul\":18913:19084   */\n      pop\n      jump\t// out\n        /* \"#utility.yul\":19090:19456   */\n    tag_285:\n        /* \"#utility.yul\":19232:19235   */\n      0x00\n        /* \"#utility.yul\":19253:19320   */\n      tag_471\n        /* \"#utility.yul\":19317:19319   */\n      0x15\n        /* \"#utility.yul\":19312:19315   */\n      dup4\n        /* \"#utility.yul\":19253:19320   */\n      tag_269\n      jump\t// in\n    tag_471:\n        /* \"#utility.yul\":19246:19320   */\n      swap2\n      pop\n        /* \"#utility.yul\":19329:19422   */\n      tag_472\n        /* \"#utility.yul\":19418:19421   */\n      dup3\n        /* \"#utility.yul\":19329:19422   */\n      tag_284\n      jump\t// in\n    tag_472:\n        /* \"#utility.yul\":19447:19449   */\n      0x20\n        /* \"#utility.yul\":19442:19445   */\n      dup3\n        /* \"#utility.yul\":19438:19450   */\n      add\n        /* \"#utility.yul\":19431:19450   */\n      swap1\n      pop\n        /* \"#utility.yul\":19090:19456   */\n      swap2\n      swap1\n      pop\n      jump\t// out\n        /* \"#utility.yul\":19462:19881   */\n    tag_125:\n        /* \"#utility.yul\":19628:19632   */\n      0x00\n        /* \"#utility.yul\":19666:19668   */\n      0x20\n        /* \"#utility.yul\":19655:19664   */\n      dup3\n        /* \"#utility.yul\":19651:19669   */\n      add\n        /* \"#utility.yul\":19643:19669   */\n      swap1\n      pop\n        /* \"#utility.yul\":19715:19724   */\n      dup2\n        /* \"#utility.yul\":19709:19713   */\n      dup2\n        /* \"#utility.yul\":19705:19725   */\n      sub\n        /* \"#utility.yul\":19701:19702   */\n      0x00\n        /* \"#utility.yul\":19690:19699   */\n      dup4\n        /* \"#utility.yul\":19686:19703   */\n      add\n        /* \"#utility.yul\":19679:19726   */\n      mstore\n        /* \"#utility.yul\":19743:19874   */\n      tag_474\n        /* \"#utility.yul\":19869:19873   */\n      dup2\n        /* \"#utility.yul\":19743:19874   */\n      tag_285\n      jump\t// in\n    tag_474:\n        /* \"#utility.yul\":19735:19874   */\n      swap1\n      pop\n        /* \"#utility.yul\":19462:19881   */\n      swap2\n      swap1\n      pop\n      jump\t// out\n        /* \"#utility.yul\":19887:20058   */\n    tag_286:\n        /* \"#utility.yul\":20027:20050   */\n      0x496e73756666696369656e74204220616d6f756e740000000000000000000000\n        /* \"#utility.yul\":20023:20024   */\n      0x00\n        /* \"#utility.yul\":20015:20021   */\n      dup3\n        /* \"#utility.yul\":20011:20025   */\n      add\n        /* \"#utility.yul\":20004:20051   */\n      mstore\n        /* \"#utility.yul\":19887:20058   */\n      pop\n      jump\t// out\n        /* \"#utility.yul\":20064:20430   */\n    tag_287:\n        /* \"#utility.yul\":20206:20209   */\n      0x00\n        /* \"#utility.yul\":20227:20294   */\n      tag_477\n        /* \"#utility.yul\":20291:20293   */\n      0x15\n        /* \"#utility.yul\":20286:20289   */\n      dup4\n        /* \"#utility.yul\":20227:20294   */\n      tag_269\n      jump\t// in\n    tag_477:\n        /* \"#utility.yul\":20220:20294   */\n      swap2\n      pop\n        /* \"#utility.yul\":20303:20396   */\n      tag_478\n        /* \"#utility.yul\":20392:20395   */\n      dup3\n        /* \"#utility.yul\":20303:20396   */\n      tag_286\n      jump\t// in\n    tag_478:\n        /* \"#utility.yul\":20421:20423   */\n      0x20\n        /* \"#utility.yul\":20416:20419   */\n      dup3\n        /* \"#utility.yul\":20412:20424   */\n      add\n        /* \"#utility.yul\":20405:20424   */\n      swap1\n      pop\n        /* \"#utility.yul\":20064:20430   */\n      swap2\n      swap1\n      pop\n      jump\t// out\n        /* \"#utility.yul\":20436:20855   */\n    tag_128:\n        /* \"#utility.yul\":20602:20606   */\n      0x00\n        /* \"#utility.yul\":20640:20642   */\n      0x20\n        /* \"#utility.yul\":20629:20638   */\n      dup3\n        /* \"#utility.yul\":20625:20643   */\n      add\n        /* \"#utility.yul\":20617:20643   */\n      swap1\n      pop\n        /* \"#utility.yul\":20689:20698   */\n      dup2\n        /* \"#utility.yul\":20683:20687   */\n      dup2\n        /* \"#utility.yul\":20679:20699   */\n      sub\n        /* \"#utility.yul\":20675:20676   */\n      0x00\n        /* \"#utility.yul\":20664:20673   */\n      dup4\n        /* \"#utility.yul\":20660:20677   */\n      add\n        /* \"#utility.yul\":20653:20700   */\n      mstore\n        /* \"#utility.yul\":20717:20848   */\n      tag_480\n        /* \"#utility.yul\":20843:20847   */\n      dup2\n        /* \"#utility.yul\":20717:20848   */\n      tag_287\n      jump\t// in\n    tag_480:\n        /* \"#utility.yul\":20709:20848   */\n      swap1\n      pop\n        /* \"#utility.yul\":20436:20855   */\n      swap2\n      swap1\n      pop\n      jump\t// out\n        /* \"#utility.yul\":20861:21525   */\n    tag_136:\n        /* \"#utility.yul\":21066:21070   */\n      0x00\n        /* \"#utility.yul\":21104:21107   */\n      0xa0\n        /* \"#utility.yul\":21093:21102   */\n      dup3\n        /* \"#utility.yul\":21089:21108   */\n      add\n        /* \"#utility.yul\":21081:21108   */\n      swap1\n      pop\n        /* \"#utility.yul\":21118:21189   */\n      tag_482\n        /* \"#utility.yul\":21186:21187   */\n      0x00\n        /* \"#utility.yul\":21175:21184   */\n      dup4\n        /* \"#utility.yul\":21171:21188   */\n      add\n        /* \"#utility.yul\":21162:21168   */\n      dup9\n        /* \"#utility.yul\":21118:21189   */\n      tag_281\n      jump\t// in\n    tag_482:\n        /* \"#utility.yul\":21199:21271   */\n      tag_483\n        /* \"#utility.yul\":21267:21269   */\n      0x20\n        /* \"#utility.yul\":21256:21265   */\n      dup4\n        /* \"#utility.yul\":21252:21270   */\n      add\n        /* \"#utility.yul\":21243:21249   */\n      dup8\n        /* \"#utility.yul\":21199:21271   */\n      tag_281\n      jump\t// in\n    tag_483:\n        /* \"#utility.yul\":21281:21353   */\n      tag_484\n        /* \"#utility.yul\":21349:21351   */\n      0x40\n        /* \"#utility.yul\":21338:21347   */\n      dup4\n        /* \"#utility.yul\":21334:21352   */\n      add\n        /* \"#utility.yul\":21325:21331   */\n      dup7\n        /* \"#utility.yul\":21281:21353   */\n      tag_253\n      jump\t// in\n    tag_484:\n        /* \"#utility.yul\":21363:21435   */\n      tag_485\n        /* \"#utility.yul\":21431:21433   */\n      0x60\n        /* \"#utility.yul\":21420:21429   */\n      dup4\n        /* \"#utility.yul\":21416:21434   */\n      add\n        /* \"#utility.yul\":21407:21413   */\n      dup6\n        /* \"#utility.yul\":21363:21435   */\n      tag_253\n      jump\t// in\n    tag_485:\n        /* \"#utility.yul\":21445:21518   */\n      tag_486\n        /* \"#utility.yul\":21513:21516   */\n      0x80\n        /* \"#utility.yul\":21502:21511   */\n      dup4\n        /* \"#utility.yul\":21498:21517   */\n      add\n        /* \"#utility.yul\":21489:21495   */\n      dup5\n        /* \"#utility.yul\":21445:21518   */\n      tag_253\n      jump\t// in\n    tag_486:\n        /* \"#utility.yul\":20861:21525   */\n      swap7\n      swap6\n      pop\n      pop\n      pop\n      pop\n      pop\n      pop\n      jump\t// out\n        /* \"#utility.yul\":21531:21697   */\n    tag_288:\n        /* \"#utility.yul\":21671:21689   */\n      0x4964656e746963616c20746f6b656e7300000000000000000000000000000000\n        /* \"#utility.yul\":21667:21668   */\n      0x00\n        /* \"#utility.yul\":21659:21665   */\n      dup3\n        /* \"#utility.yul\":21655:21669   */\n      add\n        /* \"#utility.yul\":21648:21690   */\n      mstore\n        /* \"#utility.yul\":21531:21697   */\n      pop\n      jump\t// out\n        /* \"#utility.yul\":21703:22069   */\n    tag_289:\n        /* \"#utility.yul\":21845:21848   */\n      0x00\n        /* \"#utility.yul\":21866:21933   */\n      tag_489\n        /* \"#utility.yul\":21930:21932   */\n      0x10\n        /* \"#utility.yul\":21925:21928   */\n      dup4\n        /* \"#utility.yul\":21866:21933   */\n      tag_269\n      jump\t// in\n    tag_489:\n        /* \"#utility.yul\":21859:21933   */\n      swap2\n      pop\n        /* \"#utility.yul\":21942:22035   */\n      tag_490\n        /* \"#utility.yul\":22031:22034   */\n      dup3\n        /* \"#utility.yul\":21942:22035   */\n      tag_288\n      jump\t// in\n    tag_490:\n        /* \"#utility.yul\":22060:22062   */\n      0x20\n        /* \"#utility.yul\":22055:22058   */\n      dup3\n        /* \"#utility.yul\":22051:22063   */\n      add\n        /* \"#utility.yul\":22044:22063   */\n      swap1\n      pop\n        /* \"#utility.yul\":21703:22069   */\n      swap2\n      swap1\n      pop\n      jump\t// out\n        /* \"#utility.yul\":22075:22494   */\n    tag_143:\n        /* \"#utility.yul\":22241:22245   */\n      0x00\n        /* \"#utility.yul\":22279:22281   */\n      0x20\n        /* \"#utility.yul\":22268:22277   */\n      dup3\n        /* \"#utility.yul\":22264:22282   */\n      add\n        /* \"#utility.yul\":22256:22282   */\n      swap1\n      pop\n        /* \"#utility.yul\":22328:22337   */\n      dup2\n        /* \"#utility.yul\":22322:22326   */\n      dup2\n        /* \"#utility.yul\":22318:22338   */\n      sub\n        /* \"#utility.yul\":22314:22315   */\n      0x00\n        /* \"#utility.yul\":22303:22312   */\n      dup4\n        /* \"#utility.yul\":22299:22316   */\n      add\n        /* \"#utility.yul\":22292:22339   */\n      mstore\n        /* \"#utility.yul\":22356:22487   */\n      tag_492\n        /* \"#utility.yul\":22482:22486   */\n      dup2\n        /* \"#utility.yul\":22356:22487   */\n      tag_289\n      jump\t// in\n    tag_492:\n        /* \"#utility.yul\":22348:22487   */\n      swap1\n      pop\n        /* \"#utility.yul\":22075:22494   */\n      swap2\n      swap1\n      pop\n      jump\t// out\n        /* \"#utility.yul\":22500:22679   */\n    tag_290:\n        /* \"#utility.yul\":22640:22671   */\n      0x496e73756666696369656e74206c6971756964697479206d696e746564000000\n        /* \"#utility.yul\":22636:22637   */\n      0x00\n        /* \"#utility.yul\":22628:22634   */\n      dup3\n        /* \"#utility.yul\":22624:22638   */\n      add\n        /* \"#utility.yul\":22617:22672   */\n      mstore\n        /* \"#utility.yul\":22500:22679   */\n      pop\n      jump\t// out\n        /* \"#utility.yul\":22685:23051   */\n    tag_291:\n        /* \"#utility.yul\":22827:22830   */\n      0x00\n        /* \"#utility.yul\":22848:22915   */\n      tag_495\n        /* \"#utility.yul\":22912:22914   */\n      0x1d\n        /* \"#utility.yul\":22907:22910   */\n      dup4\n        /* \"#utility.yul\":22848:22915   */\n      tag_269\n      jump\t// in\n    tag_495:\n        /* \"#utility.yul\":22841:22915   */\n      swap2\n      pop\n        /* \"#utility.yul\":22924:23017   */\n      tag_496\n        /* \"#utility.yul\":23013:23016   */\n      dup3\n        /* \"#utility.yul\":22924:23017   */\n      tag_290\n      jump\t// in\n    tag_496:\n        /* \"#utility.yul\":23042:23044   */\n      0x20\n        /* \"#utility.yul\":23037:23040   */\n      dup3\n        /* \"#utility.yul\":23033:23045   */\n      add\n        /* \"#utility.yul\":23026:23045   */\n      swap1\n      pop\n        /* \"#utility.yul\":22685:23051   */\n      swap2\n      swap1\n      pop\n      jump\t// out\n        /* \"#utility.yul\":23057:23476   */\n    tag_153:\n        /* \"#utility.yul\":23223:23227   */\n      0x00\n        /* \"#utility.yul\":23261:23263   */\n      0x20\n        /* \"#utility.yul\":23250:23259   */\n      dup3\n        /* \"#utility.yul\":23246:23264   */\n      add\n        /* \"#utility.yul\":23238:23264   */\n      swap1\n      pop\n        /* \"#utility.yul\":23310:23319   */\n      dup2\n        /* \"#utility.yul\":23304:23308   */\n      dup2\n        /* \"#utility.yul\":23300:23320   */\n      sub\n        /* \"#utility.yul\":23296:23297   */\n      0x00\n        /* \"#utility.yul\":23285:23294   */\n      dup4\n        /* \"#utility.yul\":23281:23298   */\n      add\n        /* \"#utility.yul\":23274:23321   */\n      mstore\n        /* \"#utility.yul\":23338:23469   */\n      tag_498\n        /* \"#utility.yul\":23464:23468   */\n      dup2\n        /* \"#utility.yul\":23338:23469   */\n      tag_291\n      jump\t// in\n    tag_498:\n        /* \"#utility.yul\":23330:23469   */\n      swap1\n      pop\n        /* \"#utility.yul\":23057:23476   */\n      swap2\n      swap1\n      pop\n      jump\t// out\n        /* \"#utility.yul\":23482:23576   */\n    tag_292:\n        /* \"#utility.yul\":23515:23523   */\n      0x00\n        /* \"#utility.yul\":23563:23568   */\n      dup2\n        /* \"#utility.yul\":23559:23561   */\n      0x60\n        /* \"#utility.yul\":23555:23569   */\n      shl\n        /* \"#utility.yul\":23534:23569   */\n      swap1\n      pop\n        /* \"#utility.yul\":23482:23576   */\n      swap2\n      swap1\n      pop\n      jump\t// out\n        /* \"#utility.yul\":23582:23676   */\n    tag_293:\n        /* \"#utility.yul\":23621:23628   */\n      0x00\n        /* \"#utility.yul\":23650:23670   */\n      tag_501\n        /* \"#utility.yul\":23664:23669   */\n      dup3\n        /* \"#utility.yul\":23650:23670   */\n      tag_292\n      jump\t// in\n    tag_501:\n        /* \"#utility.yul\":23639:23670   */\n      swap1\n      pop\n        /* \"#utility.yul\":23582:23676   */\n      swap2\n      swap1\n      pop\n      jump\t// out\n        /* \"#utility.yul\":23682:23782   */\n    tag_294:\n        /* \"#utility.yul\":23721:23728   */\n      0x00\n        /* \"#utility.yul\":23750:23776   */\n      tag_503\n        /* \"#utility.yul\":23770:23775   */\n      dup3\n        /* \"#utility.yul\":23750:23776   */\n      tag_293\n      jump\t// in\n    tag_503:\n        /* \"#utility.yul\":23739:23776   */\n      swap1\n      pop\n        /* \"#utility.yul\":23682:23782   */\n      swap2\n      swap1\n      pop\n      jump\t// out\n        /* \"#utility.yul\":23788:23945   */\n    tag_295:\n        /* \"#utility.yul\":23893:23938   */\n      tag_505\n        /* \"#utility.yul\":23913:23937   */\n      tag_506\n        /* \"#utility.yul\":23931:23936   */\n      dup3\n        /* \"#utility.yul\":23913:23937   */\n      tag_259\n      jump\t// in\n    tag_506:\n        /* \"#utility.yul\":23893:23938   */\n      tag_294\n      jump\t// in\n    tag_505:\n        /* \"#utility.yul\":23888:23891   */\n      dup3\n        /* \"#utility.yul\":23881:23939   */\n      mstore\n        /* \"#utility.yul\":23788:23945   */\n      pop\n      pop\n      jump\t// out\n        /* \"#utility.yul\":23951:24348   */\n    tag_162:\n        /* \"#utility.yul\":24091:24094   */\n      0x00\n        /* \"#utility.yul\":24106:24181   */\n      tag_508\n        /* \"#utility.yul\":24177:24180   */\n      dup3\n        /* \"#utility.yul\":24168:24174   */\n      dup6\n        /* \"#utility.yul\":24106:24181   */\n      tag_295\n      jump\t// in\n    tag_508:\n        /* \"#utility.yul\":24206:24208   */\n      0x14\n        /* \"#utility.yul\":24201:24204   */\n      dup3\n        /* \"#utility.yul\":24197:24209   */\n      add\n        /* \"#utility.yul\":24190:24209   */\n      swap2\n      pop\n        /* \"#utility.yul\":24219:24294   */\n      tag_509\n        /* \"#utility.yul\":24290:24293   */\n      dup3\n        /* \"#utility.yul\":24281:24287   */\n      dup5\n        /* \"#utility.yul\":24219:24294   */\n      tag_295\n      jump\t// in\n    tag_509:\n        /* \"#utility.yul\":24319:24321   */\n      0x14\n        /* \"#utility.yul\":24314:24317   */\n      dup3\n        /* \"#utility.yul\":24310:24322   */\n      add\n        /* \"#utility.yul\":24303:24322   */\n      swap2\n      pop\n        /* \"#utility.yul\":24339:24342   */\n      dup2\n        /* \"#utility.yul\":24332:24342   */\n      swap1\n      pop\n        /* \"#utility.yul\":23951:24348   */\n      swap4\n      swap3\n      pop\n      pop\n      pop\n      jump\t// out\n        /* \"#utility.yul\":24354:24796   */\n    tag_168:\n        /* \"#utility.yul\":24503:24507   */\n      0x00\n        /* \"#utility.yul\":24541:24543   */\n      0x60\n        /* \"#utility.yul\":24530:24539   */\n      dup3\n        /* \"#utility.yul\":24526:24544   */\n      add\n        /* \"#utility.yul\":24518:24544   */\n      swap1\n      pop\n        /* \"#utility.yul\":24554:24625   */\n      tag_511\n        /* \"#utility.yul\":24622:24623   */\n      0x00\n        /* \"#utility.yul\":24611:24620   */\n      dup4\n        /* \"#utility.yul\":24607:24624   */\n      add\n        /* \"#utility.yul\":24598:24604   */\n      dup7\n        /* \"#utility.yul\":24554:24625   */\n      tag_281\n      jump\t// in\n    tag_511:\n        /* \"#utility.yul\":24635:24707   */\n      tag_512\n        /* \"#utility.yul\":24703:24705   */\n      0x20\n        /* \"#utility.yul\":24692:24701   */\n      dup4\n        /* \"#utility.yul\":24688:24706   */\n      add\n        /* \"#utility.yul\":24679:24685   */\n      dup6\n        /* \"#utility.yul\":24635:24707   */\n      tag_281\n      jump\t// in\n    tag_512:\n        /* \"#utility.yul\":24717:24789   */\n      tag_513\n        /* \"#utility.yul\":24785:24787   */\n      0x40\n        /* \"#utility.yul\":24774:24783   */\n      dup4\n        /* \"#utility.yul\":24770:24788   */\n      add\n        /* \"#utility.yul\":24761:24767   */\n      dup5\n        /* \"#utility.yul\":24717:24789   */\n      tag_253\n      jump\t// in\n    tag_513:\n        /* \"#utility.yul\":24354:24796   */\n      swap5\n      swap4\n      pop\n      pop\n      pop\n      pop\n      jump\t// out\n        /* \"#utility.yul\":24802:25134   */\n    tag_173:\n        /* \"#utility.yul\":24923:24927   */\n      0x00\n        /* \"#utility.yul\":24961:24963   */\n      0x40\n        /* \"#utility.yul\":24950:24959   */\n      dup3\n        /* \"#utility.yul\":24946:24964   */\n      add\n        /* \"#utility.yul\":24938:24964   */\n      swap1\n      pop\n        /* \"#utility.yul\":24974:25045   */\n      tag_515\n        /* \"#utility.yul\":25042:25043   */\n      0x00\n        /* \"#utility.yul\":25031:25040   */\n      dup4\n        /* \"#utility.yul\":25027:25044   */\n      add\n        /* \"#utility.yul\":25018:25024   */\n      dup6\n        /* \"#utility.yul\":24974:25045   */\n      tag_281\n      jump\t// in\n    tag_515:\n        /* \"#utility.yul\":25055:25127   */\n      tag_516\n        /* \"#utility.yul\":25123:25125   */\n      0x20\n        /* \"#utility.yul\":25112:25121   */\n      dup4\n        /* \"#utility.yul\":25108:25126   */\n      add\n        /* \"#utility.yul\":25099:25105   */\n      dup5\n        /* \"#utility.yul\":25055:25127   */\n      tag_253\n      jump\t// in\n    tag_516:\n        /* \"#utility.yul\":24802:25134   */\n      swap4\n      swap3\n      pop\n      pop\n      pop\n      jump\t// out\n        /* \"#utility.yul\":25140:25362   */\n    tag_211:\n        /* \"#utility.yul\":25233:25237   */\n      0x00\n        /* \"#utility.yul\":25271:25273   */\n      0x20\n        /* \"#utility.yul\":25260:25269   */\n      dup3\n        /* \"#utility.yul\":25256:25274   */\n      add\n        /* \"#utility.yul\":25248:25274   */\n      swap1\n      pop\n        /* \"#utility.yul\":25284:25355   */\n      tag_518\n        /* \"#utility.yul\":25352:25353   */\n      0x00\n        /* \"#utility.yul\":25341:25350   */\n      dup4\n        /* \"#utility.yul\":25337:25354   */\n      add\n        /* \"#utility.yul\":25328:25334   */\n      dup5\n        /* \"#utility.yul\":25284:25355   */\n      tag_281\n      jump\t// in\n    tag_518:\n        /* \"#utility.yul\":25140:25362   */\n      swap3\n      swap2\n      pop\n      pop\n      jump\t// out\n\n    auxdata: 0xa2646970667358221220a5029db895fc683cdb62b07797568113b60bc78a91ea20923f2da5c3a0b9c50764736f6c634300081e0033\n}\n",
				"bytecode": {
					"linkReferences": {},
					"object": "6080604052348015600e575f5ffd5b50611f0e8061001c5f395ff3fe608060405234801561000f575f5ffd5b5060043610610055575f3560e01c8063054d50d41461005957806338ed173914610089578063ac41865a146100b9578063baa2abde146100e9578063e8e337001461011a575b5f5ffd5b610073600480360381019061006e91906112f2565b61014c565b6040516100809190611351565b60405180910390f35b6100a3600480360381019061009e9190611425565b610230565b6040516100b09190611572565b60405180910390f35b6100d360048036038101906100ce9190611592565b6105f5565b6040516100e09190611351565b60405180910390f35b61010360048036038101906100fe91906115d0565b6106df565b60405161011192919061166d565b60405180910390f35b610134600480360381019061012f9190611694565b6109eb565b60405161014393929190611745565b60405180910390f35b5f5f841161018f576040517f08c379a0000000000000000000000000000000000000000000000000000000008152600401610186906117d4565b60405180910390fd5b5f8311801561019d57505f82115b6101dc576040517f08c379a00000000000000000000000000000000000000000000000000000000081526004016101d39061183c565b60405180910390fd5b5f6103e5856101eb9190611887565b90505f83826101fa9190611887565b90505f826103e88761020c9190611887565b61021691906118c8565b905080826102249190611928565b93505050509392505050565b60608180421115610276576040517f08c379a000000000000000000000000000000000000000000000000000000000815260040161026d906119a2565b60405180910390fd5b600286869050146102bc576040517f08c379a00000000000000000000000000000000000000000000000000000000081526004016102b390611a0a565b60405180910390fd5b5f86865f8181106102d0576102cf611a28565b5b90506020020160208101906102e59190611a55565b90505f878760018181106102fc576102fb611a28565b5b90506020020160208101906103119190611a55565b90505f61031e8383610c55565b90505f5f5f8381526020019081526020015f20905061036033308e8773ffffffffffffffffffffffffffffffffffffffff16610ce9909392919063ffffffff16565b5f5f8473ffffffffffffffffffffffffffffffffffffffff168673ffffffffffffffffffffffffffffffffffffffff16106103a3578260010154835f01546103ad565b825f015483600101545b915091505f6103bd8f848461014c565b90508d811015610402576040517f08c379a00000000000000000000000000000000000000000000000000000000081526004016103f990611aca565b60405180910390fd5b8573ffffffffffffffffffffffffffffffffffffffff168773ffffffffffffffffffffffffffffffffffffffff16101561046e578e845f015f82825461044891906118c8565b9250508190555080846001015f8282546104629190611ae8565b925050819055506104a2565b8e846001015f82825461048191906118c8565b9250508190555080845f015f82825461049a9190611ae8565b925050819055505b6104cd8b828873ffffffffffffffffffffffffffffffffffffffff16610d6b9092919063ffffffff16565b600267ffffffffffffffff8111156104e8576104e7611b1b565b5b6040519080825280602002602001820160405280156105165781602001602082028036833780820191505090505b5098508e895f8151811061052d5761052c611a28565b5b602002602001018181525050808960018151811061054e5761054d611a28565b5b6020026020010181815250503373ffffffffffffffffffffffffffffffffffffffff167fcd3829a3813dc3cdd188fd3d01dcf3268c16be2fdd2dd21d0665418816e4606288888c5f815181106105a7576105a6611a28565b5b60200260200101518d6001815181106105c3576105c2611a28565b5b60200260200101516040516105db9493929190611b57565b60405180910390a250505050505050509695505050505050565b5f5f6106018484610c55565b90505f5f5f8381526020019081526020015f2090505f5f8573ffffffffffffffffffffffffffffffffffffffff168773ffffffffffffffffffffffffffffffffffffffff1610610659578260010154835f0154610663565b825f015483600101545b915091505f8211801561067557505f81115b6106b4576040517f08c379a00000000000000000000000000000000000000000000000000000000081526004016106ab90611be4565b60405180910390fd5b81670de0b6b3a7640000826106c99190611887565b6106d39190611928565b94505050505092915050565b5f5f8280421115610725576040517f08c379a000000000000000000000000000000000000000000000000000000000815260040161071c906119a2565b60405180910390fd5b5f6107308b8b610c55565b90505f5f5f8381526020019081526020015f20905089816003015f3373ffffffffffffffffffffffffffffffffffffffff1673ffffffffffffffffffffffffffffffffffffffff1681526020019081526020015f205410156107c7576040517f08c379a00000000000000000000000000000000000000000000000000000000081526004016107be9061183c565b60405180910390fd5b8060020154815f01548b6107db9190611887565b6107e59190611928565b9450806002015481600101548b6107fc9190611887565b6108069190611928565b93508885101561084b576040517f08c379a000000000000000000000000000000000000000000000000000000000815260040161084290611c4c565b60405180910390fd5b8784101561088e576040517f08c379a000000000000000000000000000000000000000000000000000000000815260040161088590611cb4565b60405180910390fd5b84815f015f8282546108a09190611ae8565b9250508190555083816001015f8282546108ba9190611ae8565b9250508190555089816002015f8282546108d49190611ae8565b9250508190555089816003015f3373ffffffffffffffffffffffffffffffffffffffff1673ffffffffffffffffffffffffffffffffffffffff1681526020019081526020015f205f8282546109299190611ae8565b9250508190555061095b87868e73ffffffffffffffffffffffffffffffffffffffff16610d6b9092919063ffffffff16565b61098687858d73ffffffffffffffffffffffffffffffffffffffff16610d6b9092919063ffffffff16565b3373ffffffffffffffffffffffffffffffffffffffff167fd765e08eef31c0983ecca03ecd166297ac485ecd5dd69e291c848f0a020333c18d8d88888f6040516109d4959493929190611cd2565b60405180910390a250505097509795505050505050565b5f5f5f8380421115610a32576040517f08c379a0000000000000000000000000000000000000000000000000000000008152600401610a29906119a2565b60405180910390fd5b8a73ffffffffffffffffffffffffffffffffffffffff168c73ffffffffffffffffffffffffffffffffffffffff1603610aa0576040517f08c379a0000000000000000000000000000000000000000000000000000000008152600401610a9790611d6d565b60405180910390fd5b5f610aab8d8d610c55565b90505f5f5f8381526020019081526020015f209050610adc8e8e8e8e8e8e875f015488600101548960020154610dea565b8096508197505050610af08e8e8888610f39565b610b088686835f015484600101548560020154610f99565b93505f8411610b4c576040517f08c379a0000000000000000000000000000000000000000000000000000000008152600401610b4390611dd5565b60405180910390fd5b85815f015f828254610b5e91906118c8565b9250508190555084816001015f828254610b7891906118c8565b9250508190555083816002015f828254610b9291906118c8565b9250508190555083816003015f8a73ffffffffffffffffffffffffffffffffffffffff1673ffffffffffffffffffffffffffffffffffffffff1681526020019081526020015f205f828254610be791906118c8565b925050819055503373ffffffffffffffffffffffffffffffffffffffff167f43c967b388d3a4ccad3f7ab80167852e322e5a3fde9893f530252281b2ae8b708f8f898989604051610c3c959493929190611cd2565b60405180910390a2505050985098509895505050505050565b5f8173ffffffffffffffffffffffffffffffffffffffff168373ffffffffffffffffffffffffffffffffffffffff1610610cb7578183604051602001610c9c929190611e38565b60405160208183030381529060405280519060200120610ce1565b8282604051602001610cca929190611e38565b604051602081830303815290604052805190602001205b905092915050565b610d65848573ffffffffffffffffffffffffffffffffffffffff166323b872dd868686604051602401610d1e93929190611e63565b604051602081830303815290604052915060e01b6020820180517bffffffffffffffffffffffffffffffffffffffffffffffffffffffff8381831617835250505050610ffe565b50505050565b610de5838473ffffffffffffffffffffffffffffffffffffffff1663a9059cbb8585604051602401610d9e929190611e98565b604051602081830303815290604052915060e01b6020820180517bffffffffffffffffffffffffffffffffffffffffffffffffffffffff8381831617835250505050610ffe565b505050565b5f5f5f8303610dfe57888891509150610f2b565b5f610e098c8c611099565b5090505f5f8273ffffffffffffffffffffffffffffffffffffffff168e73ffffffffffffffffffffffffffffffffffffffff1614610e48578688610e4b565b87875b915091505f82828e610e5d9190611887565b610e679190611928565b90508b8111610ec25789811015610eb3576040517f08c379a0000000000000000000000000000000000000000000000000000000008152600401610eaa90611cb4565b60405180910390fd5b8c819550955050505050610f2b565b5f82848e610ed09190611887565b610eda9190611928565b90508b811015610f1f576040517f08c379a0000000000000000000000000000000000000000000000000000000008152600401610f1690611c4c565b60405180910390fd5b808d9650965050505050505b995099975050505050505050565b610f663330848773ffffffffffffffffffffffffffffffffffffffff16610ce9909392919063ffffffff16565b610f933330838673ffffffffffffffffffffffffffffffffffffffff16610ce9909392919063ffffffff16565b50505050565b5f5f8203610fbc57610fb58587610fb09190611887565b6110e3565b9050610ff5565b610ff2848388610fcc9190611887565b610fd69190611928565b848488610fe39190611887565b610fed9190611928565b61127d565b90505b95945050505050565b5f5f60205f8451602086015f885af18061101d576040513d5f823e3d81fd5b3d92505f519150505f8214611036576001811415611051565b5f8473ffffffffffffffffffffffffffffffffffffffff163b145b1561109357836040517f5274afe700000000000000000000000000000000000000000000000000000000815260040161108a9190611ebf565b60405180910390fd5b50505050565b5f5f8273ffffffffffffffffffffffffffffffffffffffff168473ffffffffffffffffffffffffffffffffffffffff16106110d55782846110d8565b83835b915091509250929050565b5f600182116110f457819050611278565b5f8290505f60019050700100000000000000000000000000000000821061112457608082901c9150604081901b90505b68010000000000000000821061114357604082901c9150602081901b90505b640100000000821061115e57602082901c9150601081901b90505b62010000821061117757601082901c9150600881901b90505b610100821061118f57600882901c9150600481901b90505b601082106111a657600482901c9150600281901b90505b600482106111b657600181901b90505b600181600302901c905060018185816111d2576111d16118fb565b5b048201901c905060018185816111eb576111ea6118fb565b5b048201901c90506001818581611204576112036118fb565b5b048201901c9050600181858161121d5761121c6118fb565b5b048201901c90506001818581611236576112356118fb565b5b048201901c9050600181858161124f5761124e6118fb565b5b048201901c9050611271818581611269576112686118fb565b5b048211611293565b8103925050505b919050565b5f61128b828410848461129e565b905092915050565b5f8115159050919050565b5f6112a884611293565b82841802821890509392505050565b5f5ffd5b5f5ffd5b5f819050919050565b6112d1816112bf565b81146112db575f5ffd5b50565b5f813590506112ec816112c8565b92915050565b5f5f5f60608486031215611309576113086112b7565b5b5f611316868287016112de565b9350506020611327868287016112de565b9250506040611338868287016112de565b9150509250925092565b61134b816112bf565b82525050565b5f6020820190506113645f830184611342565b92915050565b5f5ffd5b5f5ffd5b5f5ffd5b5f5f83601f84011261138b5761138a61136a565b5b8235905067ffffffffffffffff8111156113a8576113a761136e565b5b6020830191508360208202830111156113c4576113c3611372565b5b9250929050565b5f73ffffffffffffffffffffffffffffffffffffffff82169050919050565b5f6113f4826113cb565b9050919050565b611404816113ea565b811461140e575f5ffd5b50565b5f8135905061141f816113fb565b92915050565b5f5f5f5f5f5f60a0878903121561143f5761143e6112b7565b5b5f61144c89828a016112de565b965050602061145d89828a016112de565b955050604087013567ffffffffffffffff81111561147e5761147d6112bb565b5b61148a89828a01611376565b9450945050606061149d89828a01611411565b92505060806114ae89828a016112de565b9150509295509295509295565b5f81519050919050565b5f82825260208201905092915050565b5f819050602082019050919050565b6114ed816112bf565b82525050565b5f6114fe83836114e4565b60208301905092915050565b5f602082019050919050565b5f611520826114bb565b61152a81856114c5565b9350611535836114d5565b805f5b8381101561156557815161154c88826114f3565b97506115578361150a565b925050600181019050611538565b5085935050505092915050565b5f6020820190508181035f83015261158a8184611516565b905092915050565b5f5f604083850312156115a8576115a76112b7565b5b5f6115b585828601611411565b92505060206115c685828601611411565b9150509250929050565b5f5f5f5f5f5f5f60e0888a0312156115eb576115ea6112b7565b5b5f6115f88a828b01611411565b97505060206116098a828b01611411565b965050604061161a8a828b016112de565b955050606061162b8a828b016112de565b945050608061163c8a828b016112de565b93505060a061164d8a828b01611411565b92505060c061165e8a828b016112de565b91505092959891949750929550565b5f6040820190506116805f830185611342565b61168d6020830184611342565b9392505050565b5f5f5f5f5f5f5f5f610100898b0312156116b1576116b06112b7565b5b5f6116be8b828c01611411565b98505060206116cf8b828c01611411565b97505060406116e08b828c016112de565b96505060606116f18b828c016112de565b95505060806117028b828c016112de565b94505060a06117138b828c016112de565b93505060c06117248b828c01611411565b92505060e06117358b828c016112de565b9150509295985092959890939650565b5f6060820190506117585f830186611342565b6117656020830185611342565b6117726040830184611342565b949350505050565b5f82825260208201905092915050565b7f496e73756666696369656e7420696e70757420616d6f756e74000000000000005f82015250565b5f6117be60198361177a565b91506117c98261178a565b602082019050919050565b5f6020820190508181035f8301526117eb816117b2565b9050919050565b7f496e73756666696369656e74206c6971756964697479000000000000000000005f82015250565b5f61182660168361177a565b9150611831826117f2565b602082019050919050565b5f6020820190508181035f8301526118538161181a565b9050919050565b7f4e487b71000000000000000000000000000000000000000000000000000000005f52601160045260245ffd5b5f611891826112bf565b915061189c836112bf565b92508282026118aa816112bf565b915082820484148315176118c1576118c061185a565b5b5092915050565b5f6118d2826112bf565b91506118dd836112bf565b92508282019050808211156118f5576118f461185a565b5b92915050565b7f4e487b71000000000000000000000000000000000000000000000000000000005f52601260045260245ffd5b5f611932826112bf565b915061193d836112bf565b92508261194d5761194c6118fb565b5b828204905092915050565b7f5472616e73616374696f6e2065787069726564000000000000000000000000005f82015250565b5f61198c60138361177a565b915061199782611958565b602082019050919050565b5f6020820190508181035f8301526119b981611980565b9050919050565b7f4f6e6c7920322d746f6b656e207061746820737570706f7274656400000000005f82015250565b5f6119f4601b8361177a565b91506119ff826119c0565b602082019050919050565b5f6020820190508181035f830152611a21816119e8565b9050919050565b7f4e487b71000000000000000000000000000000000000000000000000000000005f52603260045260245ffd5b5f60208284031215611a6a57611a696112b7565b5b5f611a7784828501611411565b91505092915050565b7f496e73756666696369656e74206f757470757420616d6f756e740000000000005f82015250565b5f611ab4601a8361177a565b9150611abf82611a80565b602082019050919050565b5f6020820190508181035f830152611ae181611aa8565b9050919050565b5f611af2826112bf565b9150611afd836112bf565b9250828203905081811115611b1557611b1461185a565b5b92915050565b7f4e487b71000000000000000000000000000000000000000000000000000000005f52604160045260245ffd5b611b51816113ea565b82525050565b5f608082019050611b6a5f830187611b48565b611b776020830186611b48565b611b846040830185611342565b611b916060830184611342565b95945050505050565b7f4e6f2072657365727665730000000000000000000000000000000000000000005f82015250565b5f611bce600b8361177a565b9150611bd982611b9a565b602082019050919050565b5f6020820190508181035f830152611bfb81611bc2565b9050919050565b7f496e73756666696369656e74204120616d6f756e7400000000000000000000005f82015250565b5f611c3660158361177a565b9150611c4182611c02565b602082019050919050565b5f6020820190508181035f830152611c6381611c2a565b9050919050565b7f496e73756666696369656e74204220616d6f756e7400000000000000000000005f82015250565b5f611c9e60158361177a565b9150611ca982611c6a565b602082019050919050565b5f6020820190508181035f830152611ccb81611c92565b9050919050565b5f60a082019050611ce55f830188611b48565b611cf26020830187611b48565b611cff6040830186611342565b611d0c6060830185611342565b611d196080830184611342565b9695505050505050565b7f4964656e746963616c20746f6b656e73000000000000000000000000000000005f82015250565b5f611d5760108361177a565b9150611d6282611d23565b602082019050919050565b5f6020820190508181035f830152611d8481611d4b565b9050919050565b7f496e73756666696369656e74206c6971756964697479206d696e7465640000005f82015250565b5f611dbf601d8361177a565b9150611dca82611d8b565b602082019050919050565b5f6020820190508181035f830152611dec81611db3565b9050919050565b5f8160601b9050919050565b5f611e0982611df3565b9050919050565b5f611e1a82611dff565b9050919050565b611e32611e2d826113ea565b611e10565b82525050565b5f611e438285611e21565b601482019150611e538284611e21565b6014820191508190509392505050565b5f606082019050611e765f830186611b48565b611e836020830185611b48565b611e906040830184611342565b949350505050565b5f604082019050611eab5f830185611b48565b611eb86020830184611342565b9392505050565b5f602082019050611ed25f830184611b48565b9291505056fea2646970667358221220a5029db895fc683cdb62b07797568113b60bc78a91ea20923f2da5c3a0b9c50764736f6c634300081e0033",
					"opcodes": "PUSH1 0x80 PUSH1 0x40 MSTORE CALLVALUE DUP1 ISZERO PUSH1 0xE JUMPI PUSH0 PUSH0 REVERT JUMPDEST POP PUSH2 0x1F0E DUP1 PUSH2 0x1C PUSH0 CODECOPY PUSH0 RETURN INVALID PUSH1 0x80 PUSH1 0x40 MSTORE CALLVALUE DUP1 ISZERO PUSH2 0xF JUMPI PUSH0 PUSH0 REVERT JUMPDEST POP PUSH1 0x4 CALLDATASIZE LT PUSH2 0x55 JUMPI PUSH0 CALLDATALOAD PUSH1 0xE0 SHR DUP1 PUSH4 0x54D50D4 EQ PUSH2 0x59 JUMPI DUP1 PUSH4 0x38ED1739 EQ PUSH2 0x89 JUMPI DUP1 PUSH4 0xAC41865A EQ PUSH2 0xB9 JUMPI DUP1 PUSH4 0xBAA2ABDE EQ PUSH2 0xE9 JUMPI DUP1 PUSH4 0xE8E33700 EQ PUSH2 0x11A JUMPI JUMPDEST PUSH0 PUSH0 REVERT JUMPDEST PUSH2 0x73 PUSH1 0x4 DUP1 CALLDATASIZE SUB DUP2 ADD SWAP1 PUSH2 0x6E SWAP2 SWAP1 PUSH2 0x12F2 JUMP JUMPDEST PUSH2 0x14C JUMP JUMPDEST PUSH1 0x40 MLOAD PUSH2 0x80 SWAP2 SWAP1 PUSH2 0x1351 JUMP JUMPDEST PUSH1 0x40 MLOAD DUP1 SWAP2 SUB SWAP1 RETURN JUMPDEST PUSH2 0xA3 PUSH1 0x4 DUP1 CALLDATASIZE SUB DUP2 ADD SWAP1 PUSH2 0x9E SWAP2 SWAP1 PUSH2 0x1425 JUMP JUMPDEST PUSH2 0x230 JUMP JUMPDEST PUSH1 0x40 MLOAD PUSH2 0xB0 SWAP2 SWAP1 PUSH2 0x1572 JUMP JUMPDEST PUSH1 0x40 MLOAD DUP1 SWAP2 SUB SWAP1 RETURN JUMPDEST PUSH2 0xD3 PUSH1 0x4 DUP1 CALLDATASIZE SUB DUP2 ADD SWAP1 PUSH2 0xCE SWAP2 SWAP1 PUSH2 0x1592 JUMP JUMPDEST PUSH2 0x5F5 JUMP JUMPDEST PUSH1 0x40 MLOAD PUSH2 0xE0 SWAP2 SWAP1 PUSH2 0x1351 JUMP JUMPDEST PUSH1 0x40 MLOAD DUP1 SWAP2 SUB SWAP1 RETURN JUMPDEST PUSH2 0x103 PUSH1 0x4 DUP1 CALLDATASIZE SUB DUP2 ADD SWAP1 PUSH2 0xFE SWAP2 SWAP1 PUSH2 0x15D0 JUMP JUMPDEST PUSH2 0x6DF JUMP JUMPDEST PUSH1 0x40 MLOAD PUSH2 0x111 SWAP3 SWAP2 SWAP1 PUSH2 0x166D JUMP JUMPDEST PUSH1 0x40 MLOAD DUP1 SWAP2 SUB SWAP1 RETURN JUMPDEST PUSH2 0x134 PUSH1 0x4 DUP1 CALLDATASIZE SUB DUP2 ADD SWAP1 PUSH2 0x12F SWAP2 SWAP1 PUSH2 0x1694 JUMP JUMPDEST PUSH2 0x9EB JUMP JUMPDEST PUSH1 0x40 MLOAD PUSH2 0x143 SWAP4 SWAP3 SWAP2 SWAP1 PUSH2 0x1745 JUMP JUMPDEST PUSH1 0x40 MLOAD DUP1 SWAP2 SUB SWAP1 RETURN JUMPDEST PUSH0 PUSH0 DUP5 GT PUSH2 0x18F JUMPI PUSH1 0x40 MLOAD PUSH32 0x8C379A000000000000000000000000000000000000000000000000000000000 DUP2 MSTORE PUSH1 0x4 ADD PUSH2 0x186 SWAP1 PUSH2 0x17D4 JUMP JUMPDEST PUSH1 0x40 MLOAD DUP1 SWAP2 SUB SWAP1 REVERT JUMPDEST PUSH0 DUP4 GT DUP1 ISZERO PUSH2 0x19D JUMPI POP PUSH0 DUP3 GT JUMPDEST PUSH2 0x1DC JUMPI PUSH1 0x40 MLOAD PUSH32 0x8C379A000000000000000000000000000000000000000000000000000000000 DUP2 MSTORE PUSH1 0x4 ADD PUSH2 0x1D3 SWAP1 PUSH2 0x183C JUMP JUMPDEST PUSH1 0x40 MLOAD DUP1 SWAP2 SUB SWAP1 REVERT JUMPDEST PUSH0 PUSH2 0x3E5 DUP6 PUSH2 0x1EB SWAP2 SWAP1 PUSH2 0x1887 JUMP JUMPDEST SWAP1 POP PUSH0 DUP4 DUP3 PUSH2 0x1FA SWAP2 SWAP1 PUSH2 0x1887 JUMP JUMPDEST SWAP1 POP PUSH0 DUP3 PUSH2 0x3E8 DUP8 PUSH2 0x20C SWAP2 SWAP1 PUSH2 0x1887 JUMP JUMPDEST PUSH2 0x216 SWAP2 SWAP1 PUSH2 0x18C8 JUMP JUMPDEST SWAP1 POP DUP1 DUP3 PUSH2 0x224 SWAP2 SWAP1 PUSH2 0x1928 JUMP JUMPDEST SWAP4 POP POP POP POP SWAP4 SWAP3 POP POP POP JUMP JUMPDEST PUSH1 0x60 DUP2 DUP1 TIMESTAMP GT ISZERO PUSH2 0x276 JUMPI PUSH1 0x40 MLOAD PUSH32 0x8C379A000000000000000000000000000000000000000000000000000000000 DUP2 MSTORE PUSH1 0x4 ADD PUSH2 0x26D SWAP1 PUSH2 0x19A2 JUMP JUMPDEST PUSH1 0x40 MLOAD DUP1 SWAP2 SUB SWAP1 REVERT JUMPDEST PUSH1 0x2 DUP7 DUP7 SWAP1 POP EQ PUSH2 0x2BC JUMPI PUSH1 0x40 MLOAD PUSH32 0x8C379A000000000000000000000000000000000000000000000000000000000 DUP2 MSTORE PUSH1 0x4 ADD PUSH2 0x2B3 SWAP1 PUSH2 0x1A0A JUMP JUMPDEST PUSH1 0x40 MLOAD DUP1 SWAP2 SUB SWAP1 REVERT JUMPDEST PUSH0 DUP7 DUP7 PUSH0 DUP2 DUP2 LT PUSH2 0x2D0 JUMPI PUSH2 0x2CF PUSH2 0x1A28 JUMP JUMPDEST JUMPDEST SWAP1 POP PUSH1 0x20 MUL ADD PUSH1 0x20 DUP2 ADD SWAP1 PUSH2 0x2E5 SWAP2 SWAP1 PUSH2 0x1A55 JUMP JUMPDEST SWAP1 POP PUSH0 DUP8 DUP8 PUSH1 0x1 DUP2 DUP2 LT PUSH2 0x2FC JUMPI PUSH2 0x2FB PUSH2 0x1A28 JUMP JUMPDEST JUMPDEST SWAP1 POP PUSH1 0x20 MUL ADD PUSH1 0x20 DUP2 ADD SWAP1 PUSH2 0x311 SWAP2 SWAP1 PUSH2 0x1A55 JUMP JUMPDEST SWAP1 POP PUSH0 PUSH2 0x31E DUP4 DUP4 PUSH2 0xC55 JUMP JUMPDEST SWAP1 POP PUSH0 PUSH0 PUSH0 DUP4 DUP2 MSTORE PUSH1 0x20 ADD SWAP1 DUP2 MSTORE PUSH1 0x20 ADD PUSH0 KECCAK256 SWAP1 POP PUSH2 0x360 CALLER ADDRESS DUP15 DUP8 PUSH20 0xFFFFFFFFFFFFFFFFFFFFFFFFFFFFFFFFFFFFFFFF AND PUSH2 0xCE9 SWAP1 SWAP4 SWAP3 SWAP2 SWAP1 PUSH4 0xFFFFFFFF AND JUMP JUMPDEST PUSH0 PUSH0 DUP5 PUSH20 0xFFFFFFFFFFFFFFFFFFFFFFFFFFFFFFFFFFFFFFFF AND DUP7 PUSH20 0xFFFFFFFFFFFFFFFFFFFFFFFFFFFFFFFFFFFFFFFF AND LT PUSH2 0x3A3 JUMPI DUP3 PUSH1 0x1 ADD SLOAD DUP4 PUSH0 ADD SLOAD PUSH2 0x3AD JUMP JUMPDEST DUP3 PUSH0 ADD SLOAD DUP4 PUSH1 0x1 ADD SLOAD JUMPDEST SWAP2 POP SWAP2 POP PUSH0 PUSH2 0x3BD DUP16 DUP5 DUP5 PUSH2 0x14C JUMP JUMPDEST SWAP1 POP DUP14 DUP2 LT ISZERO PUSH2 0x402 JUMPI PUSH1 0x40 MLOAD PUSH32 0x8C379A000000000000000000000000000000000000000000000000000000000 DUP2 MSTORE PUSH1 0x4 ADD PUSH2 0x3F9 SWAP1 PUSH2 0x1ACA JUMP JUMPDEST PUSH1 0x40 MLOAD DUP1 SWAP2 SUB SWAP1 REVERT JUMPDEST DUP6 PUSH20 0xFFFFFFFFFFFFFFFFFFFFFFFFFFFFFFFFFFFFFFFF AND DUP8 PUSH20 0xFFFFFFFFFFFFFFFFFFFFFFFFFFFFFFFFFFFFFFFF AND LT ISZERO PUSH2 0x46E JUMPI DUP15 DUP5 PUSH0 ADD PUSH0 DUP3 DUP3 SLOAD PUSH2 0x448 SWAP2 SWAP1 PUSH2 0x18C8 JUMP JUMPDEST SWAP3 POP POP DUP2 SWAP1 SSTORE POP DUP1 DUP5 PUSH1 0x1 ADD PUSH0 DUP3 DUP3 SLOAD PUSH2 0x462 SWAP2 SWAP1 PUSH2 0x1AE8 JUMP JUMPDEST SWAP3 POP POP DUP2 SWAP1 SSTORE POP PUSH2 0x4A2 JUMP JUMPDEST DUP15 DUP5 PUSH1 0x1 ADD PUSH0 DUP3 DUP3 SLOAD PUSH2 0x481 SWAP2 SWAP1 PUSH2 0x18C8 JUMP JUMPDEST SWAP3 POP POP DUP2 SWAP1 SSTORE POP DUP1 DUP5 PUSH0 ADD PUSH0 DUP3 DUP3 SLOAD PUSH2 0x49A SWAP2 SWAP1 PUSH2 0x1AE8 JUMP JUMPDEST SWAP3 POP POP DUP2 SWAP1 SSTORE POP JUMPDEST PUSH2 0x4CD DUP12 DUP3 DUP9 PUSH20 0xFFFFFFFFFFFFFFFFFFFFFFFFFFFFFFFFFFFFFFFF AND PUSH2 0xD6B SWAP1 SWAP3 SWAP2 SWAP1 PUSH4 0xFFFFFFFF AND JUMP JUMPDEST PUSH1 0x2 PUSH8 0xFFFFFFFFFFFFFFFF DUP2 GT ISZERO PUSH2 0x4E8 JUMPI PUSH2 0x4E7 PUSH2 0x1B1B JUMP JUMPDEST JUMPDEST PUSH1 0x40 MLOAD SWAP1 DUP1 DUP3 MSTORE DUP1 PUSH1 0x20 MUL PUSH1 0x20 ADD DUP3 ADD PUSH1 0x40 MSTORE DUP1 ISZERO PUSH2 0x516 JUMPI DUP2 PUSH1 0x20 ADD PUSH1 0x20 DUP3 MUL DUP1 CALLDATASIZE DUP4 CALLDATACOPY DUP1 DUP3 ADD SWAP2 POP POP SWAP1 POP JUMPDEST POP SWAP9 POP DUP15 DUP10 PUSH0 DUP2 MLOAD DUP2 LT PUSH2 0x52D JUMPI PUSH2 0x52C PUSH2 0x1A28 JUMP JUMPDEST JUMPDEST PUSH1 0x20 MUL PUSH1 0x20 ADD ADD DUP2 DUP2 MSTORE POP POP DUP1 DUP10 PUSH1 0x1 DUP2 MLOAD DUP2 LT PUSH2 0x54E JUMPI PUSH2 0x54D PUSH2 0x1A28 JUMP JUMPDEST JUMPDEST PUSH1 0x20 MUL PUSH1 0x20 ADD ADD DUP2 DUP2 MSTORE POP POP CALLER PUSH20 0xFFFFFFFFFFFFFFFFFFFFFFFFFFFFFFFFFFFFFFFF AND PUSH32 0xCD3829A3813DC3CDD188FD3D01DCF3268C16BE2FDD2DD21D0665418816E46062 DUP9 DUP9 DUP13 PUSH0 DUP2 MLOAD DUP2 LT PUSH2 0x5A7 JUMPI PUSH2 0x5A6 PUSH2 0x1A28 JUMP JUMPDEST JUMPDEST PUSH1 0x20 MUL PUSH1 0x20 ADD ADD MLOAD DUP14 PUSH1 0x1 DUP2 MLOAD DUP2 LT PUSH2 0x5C3 JUMPI PUSH2 0x5C2 PUSH2 0x1A28 JUMP JUMPDEST JUMPDEST PUSH1 0x20 MUL PUSH1 0x20 ADD ADD MLOAD PUSH1 0x40 MLOAD PUSH2 0x5DB SWAP5 SWAP4 SWAP3 SWAP2 SWAP1 PUSH2 0x1B57 JUMP JUMPDEST PUSH1 0x40 MLOAD DUP1 SWAP2 SUB SWAP1 LOG2 POP POP POP POP POP POP POP POP SWAP7 SWAP6 POP POP POP POP POP POP JUMP JUMPDEST PUSH0 PUSH0 PUSH2 0x601 DUP5 DUP5 PUSH2 0xC55 JUMP JUMPDEST SWAP1 POP PUSH0 PUSH0 PUSH0 DUP4 DUP2 MSTORE PUSH1 0x20 ADD SWAP1 DUP2 MSTORE PUSH1 0x20 ADD PUSH0 KECCAK256 SWAP1 POP PUSH0 PUSH0 DUP6 PUSH20 0xFFFFFFFFFFFFFFFFFFFFFFFFFFFFFFFFFFFFFFFF AND DUP8 PUSH20 0xFFFFFFFFFFFFFFFFFFFFFFFFFFFFFFFFFFFFFFFF AND LT PUSH2 0x659 JUMPI DUP3 PUSH1 0x1 ADD SLOAD DUP4 PUSH0 ADD SLOAD PUSH2 0x663 JUMP JUMPDEST DUP3 PUSH0 ADD SLOAD DUP4 PUSH1 0x1 ADD SLOAD JUMPDEST SWAP2 POP SWAP2 POP PUSH0 DUP3 GT DUP1 ISZERO PUSH2 0x675 JUMPI POP PUSH0 DUP2 GT JUMPDEST PUSH2 0x6B4 JUMPI PUSH1 0x40 MLOAD PUSH32 0x8C379A000000000000000000000000000000000000000000000000000000000 DUP2 MSTORE PUSH1 0x4 ADD PUSH2 0x6AB SWAP1 PUSH2 0x1BE4 JUMP JUMPDEST PUSH1 0x40 MLOAD DUP1 SWAP2 SUB SWAP1 REVERT JUMPDEST DUP2 PUSH8 0xDE0B6B3A7640000 DUP3 PUSH2 0x6C9 SWAP2 SWAP1 PUSH2 0x1887 JUMP JUMPDEST PUSH2 0x6D3 SWAP2 SWAP1 PUSH2 0x1928 JUMP JUMPDEST SWAP5 POP POP POP POP POP SWAP3 SWAP2 POP POP JUMP JUMPDEST PUSH0 PUSH0 DUP3 DUP1 TIMESTAMP GT ISZERO PUSH2 0x725 JUMPI PUSH1 0x40 MLOAD PUSH32 0x8C379A000000000000000000000000000000000000000000000000000000000 DUP2 MSTORE PUSH1 0x4 ADD PUSH2 0x71C SWAP1 PUSH2 0x19A2 JUMP JUMPDEST PUSH1 0x40 MLOAD DUP1 SWAP2 SUB SWAP1 REVERT JUMPDEST PUSH0 PUSH2 0x730 DUP12 DUP12 PUSH2 0xC55 JUMP JUMPDEST SWAP1 POP PUSH0 PUSH0 PUSH0 DUP4 DUP2 MSTORE PUSH1 0x20 ADD SWAP1 DUP2 MSTORE PUSH1 0x20 ADD PUSH0 KECCAK256 SWAP1 POP DUP10 DUP2 PUSH1 0x3 ADD PUSH0 CALLER PUSH20 0xFFFFFFFFFFFFFFFFFFFFFFFFFFFFFFFFFFFFFFFF AND PUSH20 0xFFFFFFFFFFFFFFFFFFFFFFFFFFFFFFFFFFFFFFFF AND DUP2 MSTORE PUSH1 0x20 ADD SWAP1 DUP2 MSTORE PUSH1 0x20 ADD PUSH0 KECCAK256 SLOAD LT ISZERO PUSH2 0x7C7 JUMPI PUSH1 0x40 MLOAD PUSH32 0x8C379A000000000000000000000000000000000000000000000000000000000 DUP2 MSTORE PUSH1 0x4 ADD PUSH2 0x7BE SWAP1 PUSH2 0x183C JUMP JUMPDEST PUSH1 0x40 MLOAD DUP1 SWAP2 SUB SWAP1 REVERT JUMPDEST DUP1 PUSH1 0x2 ADD SLOAD DUP2 PUSH0 ADD SLOAD DUP12 PUSH2 0x7DB SWAP2 SWAP1 PUSH2 0x1887 JUMP JUMPDEST PUSH2 0x7E5 SWAP2 SWAP1 PUSH2 0x1928 JUMP JUMPDEST SWAP5 POP DUP1 PUSH1 0x2 ADD SLOAD DUP2 PUSH1 0x1 ADD SLOAD DUP12 PUSH2 0x7FC SWAP2 SWAP1 PUSH2 0x1887 JUMP JUMPDEST PUSH2 0x806 SWAP2 SWAP1 PUSH2 0x1928 JUMP JUMPDEST SWAP4 POP DUP9 DUP6 LT ISZERO PUSH2 0x84B JUMPI PUSH1 0x40 MLOAD PUSH32 0x8C379A000000000000000000000000000000000000000000000000000000000 DUP2 MSTORE PUSH1 0x4 ADD PUSH2 0x842 SWAP1 PUSH2 0x1C4C JUMP JUMPDEST PUSH1 0x40 MLOAD DUP1 SWAP2 SUB SWAP1 REVERT JUMPDEST DUP8 DUP5 LT ISZERO PUSH2 0x88E JUMPI PUSH1 0x40 MLOAD PUSH32 0x8C379A000000000000000000000000000000000000000000000000000000000 DUP2 MSTORE PUSH1 0x4 ADD PUSH2 0x885 SWAP1 PUSH2 0x1CB4 JUMP JUMPDEST PUSH1 0x40 MLOAD DUP1 SWAP2 SUB SWAP1 REVERT JUMPDEST DUP5 DUP2 PUSH0 ADD PUSH0 DUP3 DUP3 SLOAD PUSH2 0x8A0 SWAP2 SWAP1 PUSH2 0x1AE8 JUMP JUMPDEST SWAP3 POP POP DUP2 SWAP1 SSTORE POP DUP4 DUP2 PUSH1 0x1 ADD PUSH0 DUP3 DUP3 SLOAD PUSH2 0x8BA SWAP2 SWAP1 PUSH2 0x1AE8 JUMP JUMPDEST SWAP3 POP POP DUP2 SWAP1 SSTORE POP DUP10 DUP2 PUSH1 0x2 ADD PUSH0 DUP3 DUP3 SLOAD PUSH2 0x8D4 SWAP2 SWAP1 PUSH2 0x1AE8 JUMP JUMPDEST SWAP3 POP POP DUP2 SWAP1 SSTORE POP DUP10 DUP2 PUSH1 0x3 ADD PUSH0 CALLER PUSH20 0xFFFFFFFFFFFFFFFFFFFFFFFFFFFFFFFFFFFFFFFF AND PUSH20 0xFFFFFFFFFFFFFFFFFFFFFFFFFFFFFFFFFFFFFFFF AND DUP2 MSTORE PUSH1 0x20 ADD SWAP1 DUP2 MSTORE PUSH1 0x20 ADD PUSH0 KECCAK256 PUSH0 DUP3 DUP3 SLOAD PUSH2 0x929 SWAP2 SWAP1 PUSH2 0x1AE8 JUMP JUMPDEST SWAP3 POP POP DUP2 SWAP1 SSTORE POP PUSH2 0x95B DUP8 DUP7 DUP15 PUSH20 0xFFFFFFFFFFFFFFFFFFFFFFFFFFFFFFFFFFFFFFFF AND PUSH2 0xD6B SWAP1 SWAP3 SWAP2 SWAP1 PUSH4 0xFFFFFFFF AND JUMP JUMPDEST PUSH2 0x986 DUP8 DUP6 DUP14 PUSH20 0xFFFFFFFFFFFFFFFFFFFFFFFFFFFFFFFFFFFFFFFF AND PUSH2 0xD6B SWAP1 SWAP3 SWAP2 SWAP1 PUSH4 0xFFFFFFFF AND JUMP JUMPDEST CALLER PUSH20 0xFFFFFFFFFFFFFFFFFFFFFFFFFFFFFFFFFFFFFFFF AND PUSH32 0xD765E08EEF31C0983ECCA03ECD166297AC485ECD5DD69E291C848F0A020333C1 DUP14 DUP14 DUP9 DUP9 DUP16 PUSH1 0x40 MLOAD PUSH2 0x9D4 SWAP6 SWAP5 SWAP4 SWAP3 SWAP2 SWAP1 PUSH2 0x1CD2 JUMP JUMPDEST PUSH1 0x40 MLOAD DUP1 SWAP2 SUB SWAP1 LOG2 POP POP POP SWAP8 POP SWAP8 SWAP6 POP POP POP POP POP POP JUMP JUMPDEST PUSH0 PUSH0 PUSH0 DUP4 DUP1 TIMESTAMP GT ISZERO PUSH2 0xA32 JUMPI PUSH1 0x40 MLOAD PUSH32 0x8C379A000000000000000000000000000000000000000000000000000000000 DUP2 MSTORE PUSH1 0x4 ADD PUSH2 0xA29 SWAP1 PUSH2 0x19A2 JUMP JUMPDEST PUSH1 0x40 MLOAD DUP1 SWAP2 SUB SWAP1 REVERT JUMPDEST DUP11 PUSH20 0xFFFFFFFFFFFFFFFFFFFFFFFFFFFFFFFFFFFFFFFF AND DUP13 PUSH20 0xFFFFFFFFFFFFFFFFFFFFFFFFFFFFFFFFFFFFFFFF AND SUB PUSH2 0xAA0 JUMPI PUSH1 0x40 MLOAD PUSH32 0x8C379A000000000000000000000000000000000000000000000000000000000 DUP2 MSTORE PUSH1 0x4 ADD PUSH2 0xA97 SWAP1 PUSH2 0x1D6D JUMP JUMPDEST PUSH1 0x40 MLOAD DUP1 SWAP2 SUB SWAP1 REVERT JUMPDEST PUSH0 PUSH2 0xAAB DUP14 DUP14 PUSH2 0xC55 JUMP JUMPDEST SWAP1 POP PUSH0 PUSH0 PUSH0 DUP4 DUP2 MSTORE PUSH1 0x20 ADD SWAP1 DUP2 MSTORE PUSH1 0x20 ADD PUSH0 KECCAK256 SWAP1 POP PUSH2 0xADC DUP15 DUP15 DUP15 DUP15 DUP15 DUP15 DUP8 PUSH0 ADD SLOAD DUP9 PUSH1 0x1 ADD SLOAD DUP10 PUSH1 0x2 ADD SLOAD PUSH2 0xDEA JUMP JUMPDEST DUP1 SWAP7 POP DUP2 SWAP8 POP POP POP PUSH2 0xAF0 DUP15 DUP15 DUP9 DUP9 PUSH2 0xF39 JUMP JUMPDEST PUSH2 0xB08 DUP7 DUP7 DUP4 PUSH0 ADD SLOAD DUP5 PUSH1 0x1 ADD SLOAD DUP6 PUSH1 0x2 ADD SLOAD PUSH2 0xF99 JUMP JUMPDEST SWAP4 POP PUSH0 DUP5 GT PUSH2 0xB4C JUMPI PUSH1 0x40 MLOAD PUSH32 0x8C379A000000000000000000000000000000000000000000000000000000000 DUP2 MSTORE PUSH1 0x4 ADD PUSH2 0xB43 SWAP1 PUSH2 0x1DD5 JUMP JUMPDEST PUSH1 0x40 MLOAD DUP1 SWAP2 SUB SWAP1 REVERT JUMPDEST DUP6 DUP2 PUSH0 ADD PUSH0 DUP3 DUP3 SLOAD PUSH2 0xB5E SWAP2 SWAP1 PUSH2 0x18C8 JUMP JUMPDEST SWAP3 POP POP DUP2 SWAP1 SSTORE POP DUP5 DUP2 PUSH1 0x1 ADD PUSH0 DUP3 DUP3 SLOAD PUSH2 0xB78 SWAP2 SWAP1 PUSH2 0x18C8 JUMP JUMPDEST SWAP3 POP POP DUP2 SWAP1 SSTORE POP DUP4 DUP2 PUSH1 0x2 ADD PUSH0 DUP3 DUP3 SLOAD PUSH2 0xB92 SWAP2 SWAP1 PUSH2 0x18C8 JUMP JUMPDEST SWAP3 POP POP DUP2 SWAP1 SSTORE POP DUP4 DUP2 PUSH1 0x3 ADD PUSH0 DUP11 PUSH20 0xFFFFFFFFFFFFFFFFFFFFFFFFFFFFFFFFFFFFFFFF AND PUSH20 0xFFFFFFFFFFFFFFFFFFFFFFFFFFFFFFFFFFFFFFFF AND DUP2 MSTORE PUSH1 0x20 ADD SWAP1 DUP2 MSTORE PUSH1 0x20 ADD PUSH0 KECCAK256 PUSH0 DUP3 DUP3 SLOAD PUSH2 0xBE7 SWAP2 SWAP1 PUSH2 0x18C8 JUMP JUMPDEST SWAP3 POP POP DUP2 SWAP1 SSTORE POP CALLER PUSH20 0xFFFFFFFFFFFFFFFFFFFFFFFFFFFFFFFFFFFFFFFF AND PUSH32 0x43C967B388D3A4CCAD3F7AB80167852E322E5A3FDE9893F530252281B2AE8B70 DUP16 DUP16 DUP10 DUP10 DUP10 PUSH1 0x40 MLOAD PUSH2 0xC3C SWAP6 SWAP5 SWAP4 SWAP3 SWAP2 SWAP1 PUSH2 0x1CD2 JUMP JUMPDEST PUSH1 0x40 MLOAD DUP1 SWAP2 SUB SWAP1 LOG2 POP POP POP SWAP9 POP SWAP9 POP SWAP9 SWAP6 POP POP POP POP POP POP JUMP JUMPDEST PUSH0 DUP2 PUSH20 0xFFFFFFFFFFFFFFFFFFFFFFFFFFFFFFFFFFFFFFFF AND DUP4 PUSH20 0xFFFFFFFFFFFFFFFFFFFFFFFFFFFFFFFFFFFFFFFF AND LT PUSH2 0xCB7 JUMPI DUP2 DUP4 PUSH1 0x40 MLOAD PUSH1 0x20 ADD PUSH2 0xC9C SWAP3 SWAP2 SWAP1 PUSH2 0x1E38 JUMP JUMPDEST PUSH1 0x40 MLOAD PUSH1 0x20 DUP2 DUP4 SUB SUB DUP2 MSTORE SWAP1 PUSH1 0x40 MSTORE DUP1 MLOAD SWAP1 PUSH1 0x20 ADD KECCAK256 PUSH2 0xCE1 JUMP JUMPDEST DUP3 DUP3 PUSH1 0x40 MLOAD PUSH1 0x20 ADD PUSH2 0xCCA SWAP3 SWAP2 SWAP1 PUSH2 0x1E38 JUMP JUMPDEST PUSH1 0x40 MLOAD PUSH1 0x20 DUP2 DUP4 SUB SUB DUP2 MSTORE SWAP1 PUSH1 0x40 MSTORE DUP1 MLOAD SWAP1 PUSH1 0x20 ADD KECCAK256 JUMPDEST SWAP1 POP SWAP3 SWAP2 POP POP JUMP JUMPDEST PUSH2 0xD65 DUP5 DUP6 PUSH20 0xFFFFFFFFFFFFFFFFFFFFFFFFFFFFFFFFFFFFFFFF AND PUSH4 0x23B872DD DUP7 DUP7 DUP7 PUSH1 0x40 MLOAD PUSH1 0x24 ADD PUSH2 0xD1E SWAP4 SWAP3 SWAP2 SWAP1 PUSH2 0x1E63 JUMP JUMPDEST PUSH1 0x40 MLOAD PUSH1 0x20 DUP2 DUP4 SUB SUB DUP2 MSTORE SWAP1 PUSH1 0x40 MSTORE SWAP2 POP PUSH1 0xE0 SHL PUSH1 0x20 DUP3 ADD DUP1 MLOAD PUSH28 0xFFFFFFFFFFFFFFFFFFFFFFFFFFFFFFFFFFFFFFFFFFFFFFFFFFFFFFFF DUP4 DUP2 DUP4 AND OR DUP4 MSTORE POP POP POP POP PUSH2 0xFFE JUMP JUMPDEST POP POP POP POP JUMP JUMPDEST PUSH2 0xDE5 DUP4 DUP5 PUSH20 0xFFFFFFFFFFFFFFFFFFFFFFFFFFFFFFFFFFFFFFFF AND PUSH4 0xA9059CBB DUP6 DUP6 PUSH1 0x40 MLOAD PUSH1 0x24 ADD PUSH2 0xD9E SWAP3 SWAP2 SWAP1 PUSH2 0x1E98 JUMP JUMPDEST PUSH1 0x40 MLOAD PUSH1 0x20 DUP2 DUP4 SUB SUB DUP2 MSTORE SWAP1 PUSH1 0x40 MSTORE SWAP2 POP PUSH1 0xE0 SHL PUSH1 0x20 DUP3 ADD DUP1 MLOAD PUSH28 0xFFFFFFFFFFFFFFFFFFFFFFFFFFFFFFFFFFFFFFFFFFFFFFFFFFFFFFFF DUP4 DUP2 DUP4 AND OR DUP4 MSTORE POP POP POP POP PUSH2 0xFFE JUMP JUMPDEST POP POP POP JUMP JUMPDEST PUSH0 PUSH0 PUSH0 DUP4 SUB PUSH2 0xDFE JUMPI DUP9 DUP9 SWAP2 POP SWAP2 POP PUSH2 0xF2B JUMP JUMPDEST PUSH0 PUSH2 0xE09 DUP13 DUP13 PUSH2 0x1099 JUMP JUMPDEST POP SWAP1 POP PUSH0 PUSH0 DUP3 PUSH20 0xFFFFFFFFFFFFFFFFFFFFFFFFFFFFFFFFFFFFFFFF AND DUP15 PUSH20 0xFFFFFFFFFFFFFFFFFFFFFFFFFFFFFFFFFFFFFFFF AND EQ PUSH2 0xE48 JUMPI DUP7 DUP9 PUSH2 0xE4B JUMP JUMPDEST DUP8 DUP8 JUMPDEST SWAP2 POP SWAP2 POP PUSH0 DUP3 DUP3 DUP15 PUSH2 0xE5D SWAP2 SWAP1 PUSH2 0x1887 JUMP JUMPDEST PUSH2 0xE67 SWAP2 SWAP1 PUSH2 0x1928 JUMP JUMPDEST SWAP1 POP DUP12 DUP2 GT PUSH2 0xEC2 JUMPI DUP10 DUP2 LT ISZERO PUSH2 0xEB3 JUMPI PUSH1 0x40 MLOAD PUSH32 0x8C379A000000000000000000000000000000000000000000000000000000000 DUP2 MSTORE PUSH1 0x4 ADD PUSH2 0xEAA SWAP1 PUSH2 0x1CB4 JUMP JUMPDEST PUSH1 0x40 MLOAD DUP1 SWAP2 SUB SWAP1 REVERT JUMPDEST DUP13 DUP2 SWAP6 POP SWAP6 POP POP POP POP POP PUSH2 0xF2B JUMP JUMPDEST PUSH0 DUP3 DUP5 DUP15 PUSH2 0xED0 SWAP2 SWAP1 PUSH2 0x1887 JUMP JUMPDEST PUSH2 0xEDA SWAP2 SWAP1 PUSH2 0x1928 JUMP JUMPDEST SWAP1 POP DUP12 DUP2 LT ISZERO PUSH2 0xF1F JUMPI PUSH1 0x40 MLOAD PUSH32 0x8C379A000000000000000000000000000000000000000000000000000000000 DUP2 MSTORE PUSH1 0x4 ADD PUSH2 0xF16 SWAP1 PUSH2 0x1C4C JUMP JUMPDEST PUSH1 0x40 MLOAD DUP1 SWAP2 SUB SWAP1 REVERT JUMPDEST DUP1 DUP14 SWAP7 POP SWAP7 POP POP POP POP POP POP JUMPDEST SWAP10 POP SWAP10 SWAP8 POP POP POP POP POP POP POP POP JUMP JUMPDEST PUSH2 0xF66 CALLER ADDRESS DUP5 DUP8 PUSH20 0xFFFFFFFFFFFFFFFFFFFFFFFFFFFFFFFFFFFFFFFF AND PUSH2 0xCE9 SWAP1 SWAP4 SWAP3 SWAP2 SWAP1 PUSH4 0xFFFFFFFF AND JUMP JUMPDEST PUSH2 0xF93 CALLER ADDRESS DUP4 DUP7 PUSH20 0xFFFFFFFFFFFFFFFFFFFFFFFFFFFFFFFFFFFFFFFF AND PUSH2 0xCE9 SWAP1 SWAP4 SWAP3 SWAP2 SWAP1 PUSH4 0xFFFFFFFF AND JUMP JUMPDEST POP POP POP POP JUMP JUMPDEST PUSH0 PUSH0 DUP3 SUB PUSH2 0xFBC JUMPI PUSH2 0xFB5 DUP6 DUP8 PUSH2 0xFB0 SWAP2 SWAP1 PUSH2 0x1887 JUMP JUMPDEST PUSH2 0x10E3 JUMP JUMPDEST SWAP1 POP PUSH2 0xFF5 JUMP JUMPDEST PUSH2 0xFF2 DUP5 DUP4 DUP9 PUSH2 0xFCC SWAP2 SWAP1 PUSH2 0x1887 JUMP JUMPDEST PUSH2 0xFD6 SWAP2 SWAP1 PUSH2 0x1928 JUMP JUMPDEST DUP5 DUP5 DUP9 PUSH2 0xFE3 SWAP2 SWAP1 PUSH2 0x1887 JUMP JUMPDEST PUSH2 0xFED SWAP2 SWAP1 PUSH2 0x1928 JUMP JUMPDEST PUSH2 0x127D JUMP JUMPDEST SWAP1 POP JUMPDEST SWAP6 SWAP5 POP POP POP POP POP JUMP JUMPDEST PUSH0 PUSH0 PUSH1 0x20 PUSH0 DUP5 MLOAD PUSH1 0x20 DUP7 ADD PUSH0 DUP9 GAS CALL DUP1 PUSH2 0x101D JUMPI PUSH1 0x40 MLOAD RETURNDATASIZE PUSH0 DUP3 RETURNDATACOPY RETURNDATASIZE DUP2 REVERT JUMPDEST RETURNDATASIZE SWAP3 POP PUSH0 MLOAD SWAP2 POP POP PUSH0 DUP3 EQ PUSH2 0x1036 JUMPI PUSH1 0x1 DUP2 EQ ISZERO PUSH2 0x1051 JUMP JUMPDEST PUSH0 DUP5 PUSH20 0xFFFFFFFFFFFFFFFFFFFFFFFFFFFFFFFFFFFFFFFF AND EXTCODESIZE EQ JUMPDEST ISZERO PUSH2 0x1093 JUMPI DUP4 PUSH1 0x40 MLOAD PUSH32 0x5274AFE700000000000000000000000000000000000000000000000000000000 DUP2 MSTORE PUSH1 0x4 ADD PUSH2 0x108A SWAP2 SWAP1 PUSH2 0x1EBF JUMP JUMPDEST PUSH1 0x40 MLOAD DUP1 SWAP2 SUB SWAP1 REVERT JUMPDEST POP POP POP POP JUMP JUMPDEST PUSH0 PUSH0 DUP3 PUSH20 0xFFFFFFFFFFFFFFFFFFFFFFFFFFFFFFFFFFFFFFFF AND DUP5 PUSH20 0xFFFFFFFFFFFFFFFFFFFFFFFFFFFFFFFFFFFFFFFF AND LT PUSH2 0x10D5 JUMPI DUP3 DUP5 PUSH2 0x10D8 JUMP JUMPDEST DUP4 DUP4 JUMPDEST SWAP2 POP SWAP2 POP SWAP3 POP SWAP3 SWAP1 POP JUMP JUMPDEST PUSH0 PUSH1 0x1 DUP3 GT PUSH2 0x10F4 JUMPI DUP2 SWAP1 POP PUSH2 0x1278 JUMP JUMPDEST PUSH0 DUP3 SWAP1 POP PUSH0 PUSH1 0x1 SWAP1 POP PUSH17 0x100000000000000000000000000000000 DUP3 LT PUSH2 0x1124 JUMPI PUSH1 0x80 DUP3 SWAP1 SHR SWAP2 POP PUSH1 0x40 DUP2 SWAP1 SHL SWAP1 POP JUMPDEST PUSH9 0x10000000000000000 DUP3 LT PUSH2 0x1143 JUMPI PUSH1 0x40 DUP3 SWAP1 SHR SWAP2 POP PUSH1 0x20 DUP2 SWAP1 SHL SWAP1 POP JUMPDEST PUSH5 0x100000000 DUP3 LT PUSH2 0x115E JUMPI PUSH1 0x20 DUP3 SWAP1 SHR SWAP2 POP PUSH1 0x10 DUP2 SWAP1 SHL SWAP1 POP JUMPDEST PUSH3 0x10000 DUP3 LT PUSH2 0x1177 JUMPI PUSH1 0x10 DUP3 SWAP1 SHR SWAP2 POP PUSH1 0x8 DUP2 SWAP1 SHL SWAP1 POP JUMPDEST PUSH2 0x100 DUP3 LT PUSH2 0x118F JUMPI PUSH1 0x8 DUP3 SWAP1 SHR SWAP2 POP PUSH1 0x4 DUP2 SWAP1 SHL SWAP1 POP JUMPDEST PUSH1 0x10 DUP3 LT PUSH2 0x11A6 JUMPI PUSH1 0x4 DUP3 SWAP1 SHR SWAP2 POP PUSH1 0x2 DUP2 SWAP1 SHL SWAP1 POP JUMPDEST PUSH1 0x4 DUP3 LT PUSH2 0x11B6 JUMPI PUSH1 0x1 DUP2 SWAP1 SHL SWAP1 POP JUMPDEST PUSH1 0x1 DUP2 PUSH1 0x3 MUL SWAP1 SHR SWAP1 POP PUSH1 0x1 DUP2 DUP6 DUP2 PUSH2 0x11D2 JUMPI PUSH2 0x11D1 PUSH2 0x18FB JUMP JUMPDEST JUMPDEST DIV DUP3 ADD SWAP1 SHR SWAP1 POP PUSH1 0x1 DUP2 DUP6 DUP2 PUSH2 0x11EB JUMPI PUSH2 0x11EA PUSH2 0x18FB JUMP JUMPDEST JUMPDEST DIV DUP3 ADD SWAP1 SHR SWAP1 POP PUSH1 0x1 DUP2 DUP6 DUP2 PUSH2 0x1204 JUMPI PUSH2 0x1203 PUSH2 0x18FB JUMP JUMPDEST JUMPDEST DIV DUP3 ADD SWAP1 SHR SWAP1 POP PUSH1 0x1 DUP2 DUP6 DUP2 PUSH2 0x121D JUMPI PUSH2 0x121C PUSH2 0x18FB JUMP JUMPDEST JUMPDEST DIV DUP3 ADD SWAP1 SHR SWAP1 POP PUSH1 0x1 DUP2 DUP6 DUP2 PUSH2 0x1236 JUMPI PUSH2 0x1235 PUSH2 0x18FB JUMP JUMPDEST JUMPDEST DIV DUP3 ADD SWAP1 SHR SWAP1 POP PUSH1 0x1 DUP2 DUP6 DUP2 PUSH2 0x124F JUMPI PUSH2 0x124E PUSH2 0x18FB JUMP JUMPDEST JUMPDEST DIV DUP3 ADD SWAP1 SHR SWAP1 POP PUSH2 0x1271 DUP2 DUP6 DUP2 PUSH2 0x1269 JUMPI PUSH2 0x1268 PUSH2 0x18FB JUMP JUMPDEST JUMPDEST DIV DUP3 GT PUSH2 0x1293 JUMP JUMPDEST DUP2 SUB SWAP3 POP POP POP JUMPDEST SWAP2 SWAP1 POP JUMP JUMPDEST PUSH0 PUSH2 0x128B DUP3 DUP5 LT DUP5 DUP5 PUSH2 0x129E JUMP JUMPDEST SWAP1 POP SWAP3 SWAP2 POP POP JUMP JUMPDEST PUSH0 DUP2 ISZERO ISZERO SWAP1 POP SWAP2 SWAP1 POP JUMP JUMPDEST PUSH0 PUSH2 0x12A8 DUP5 PUSH2 0x1293 JUMP JUMPDEST DUP3 DUP5 XOR MUL DUP3 XOR SWAP1 POP SWAP4 SWAP3 POP POP POP JUMP JUMPDEST PUSH0 PUSH0 REVERT JUMPDEST PUSH0 PUSH0 REVERT JUMPDEST PUSH0 DUP2 SWAP1 POP SWAP2 SWAP1 POP JUMP JUMPDEST PUSH2 0x12D1 DUP2 PUSH2 0x12BF JUMP JUMPDEST DUP2 EQ PUSH2 0x12DB JUMPI PUSH0 PUSH0 REVERT JUMPDEST POP JUMP JUMPDEST PUSH0 DUP2 CALLDATALOAD SWAP1 POP PUSH2 0x12EC DUP2 PUSH2 0x12C8 JUMP JUMPDEST SWAP3 SWAP2 POP POP JUMP JUMPDEST PUSH0 PUSH0 PUSH0 PUSH1 0x60 DUP5 DUP7 SUB SLT ISZERO PUSH2 0x1309 JUMPI PUSH2 0x1308 PUSH2 0x12B7 JUMP JUMPDEST JUMPDEST PUSH0 PUSH2 0x1316 DUP7 DUP3 DUP8 ADD PUSH2 0x12DE JUMP JUMPDEST SWAP4 POP POP PUSH1 0x20 PUSH2 0x1327 DUP7 DUP3 DUP8 ADD PUSH2 0x12DE JUMP JUMPDEST SWAP3 POP POP PUSH1 0x40 PUSH2 0x1338 DUP7 DUP3 DUP8 ADD PUSH2 0x12DE JUMP JUMPDEST SWAP2 POP POP SWAP3 POP SWAP3 POP SWAP3 JUMP JUMPDEST PUSH2 0x134B DUP2 PUSH2 0x12BF JUMP JUMPDEST DUP3 MSTORE POP POP JUMP JUMPDEST PUSH0 PUSH1 0x20 DUP3 ADD SWAP1 POP PUSH2 0x1364 PUSH0 DUP4 ADD DUP5 PUSH2 0x1342 JUMP JUMPDEST SWAP3 SWAP2 POP POP JUMP JUMPDEST PUSH0 PUSH0 REVERT JUMPDEST PUSH0 PUSH0 REVERT JUMPDEST PUSH0 PUSH0 REVERT JUMPDEST PUSH0 PUSH0 DUP4 PUSH1 0x1F DUP5 ADD SLT PUSH2 0x138B JUMPI PUSH2 0x138A PUSH2 0x136A JUMP JUMPDEST JUMPDEST DUP3 CALLDATALOAD SWAP1 POP PUSH8 0xFFFFFFFFFFFFFFFF DUP2 GT ISZERO PUSH2 0x13A8 JUMPI PUSH2 0x13A7 PUSH2 0x136E JUMP JUMPDEST JUMPDEST PUSH1 0x20 DUP4 ADD SWAP2 POP DUP4 PUSH1 0x20 DUP3 MUL DUP4 ADD GT ISZERO PUSH2 0x13C4 JUMPI PUSH2 0x13C3 PUSH2 0x1372 JUMP JUMPDEST JUMPDEST SWAP3 POP SWAP3 SWAP1 POP JUMP JUMPDEST PUSH0 PUSH20 0xFFFFFFFFFFFFFFFFFFFFFFFFFFFFFFFFFFFFFFFF DUP3 AND SWAP1 POP SWAP2 SWAP1 POP JUMP JUMPDEST PUSH0 PUSH2 0x13F4 DUP3 PUSH2 0x13CB JUMP JUMPDEST SWAP1 POP SWAP2 SWAP1 POP JUMP JUMPDEST PUSH2 0x1404 DUP2 PUSH2 0x13EA JUMP JUMPDEST DUP2 EQ PUSH2 0x140E JUMPI PUSH0 PUSH0 REVERT JUMPDEST POP JUMP JUMPDEST PUSH0 DUP2 CALLDATALOAD SWAP1 POP PUSH2 0x141F DUP2 PUSH2 0x13FB JUMP JUMPDEST SWAP3 SWAP2 POP POP JUMP JUMPDEST PUSH0 PUSH0 PUSH0 PUSH0 PUSH0 PUSH0 PUSH1 0xA0 DUP8 DUP10 SUB SLT ISZERO PUSH2 0x143F JUMPI PUSH2 0x143E PUSH2 0x12B7 JUMP JUMPDEST JUMPDEST PUSH0 PUSH2 0x144C DUP10 DUP3 DUP11 ADD PUSH2 0x12DE JUMP JUMPDEST SWAP7 POP POP PUSH1 0x20 PUSH2 0x145D DUP10 DUP3 DUP11 ADD PUSH2 0x12DE JUMP JUMPDEST SWAP6 POP POP PUSH1 0x40 DUP8 ADD CALLDATALOAD PUSH8 0xFFFFFFFFFFFFFFFF DUP2 GT ISZERO PUSH2 0x147E JUMPI PUSH2 0x147D PUSH2 0x12BB JUMP JUMPDEST JUMPDEST PUSH2 0x148A DUP10 DUP3 DUP11 ADD PUSH2 0x1376 JUMP JUMPDEST SWAP5 POP SWAP5 POP POP PUSH1 0x60 PUSH2 0x149D DUP10 DUP3 DUP11 ADD PUSH2 0x1411 JUMP JUMPDEST SWAP3 POP POP PUSH1 0x80 PUSH2 0x14AE DUP10 DUP3 DUP11 ADD PUSH2 0x12DE JUMP JUMPDEST SWAP2 POP POP SWAP3 SWAP6 POP SWAP3 SWAP6 POP SWAP3 SWAP6 JUMP JUMPDEST PUSH0 DUP2 MLOAD SWAP1 POP SWAP2 SWAP1 POP JUMP JUMPDEST PUSH0 DUP3 DUP3 MSTORE PUSH1 0x20 DUP3 ADD SWAP1 POP SWAP3 SWAP2 POP POP JUMP JUMPDEST PUSH0 DUP2 SWAP1 POP PUSH1 0x20 DUP3 ADD SWAP1 POP SWAP2 SWAP1 POP JUMP JUMPDEST PUSH2 0x14ED DUP2 PUSH2 0x12BF JUMP JUMPDEST DUP3 MSTORE POP POP JUMP JUMPDEST PUSH0 PUSH2 0x14FE DUP4 DUP4 PUSH2 0x14E4 JUMP JUMPDEST PUSH1 0x20 DUP4 ADD SWAP1 POP SWAP3 SWAP2 POP POP JUMP JUMPDEST PUSH0 PUSH1 0x20 DUP3 ADD SWAP1 POP SWAP2 SWAP1 POP JUMP JUMPDEST PUSH0 PUSH2 0x1520 DUP3 PUSH2 0x14BB JUMP JUMPDEST PUSH2 0x152A DUP2 DUP6 PUSH2 0x14C5 JUMP JUMPDEST SWAP4 POP PUSH2 0x1535 DUP4 PUSH2 0x14D5 JUMP JUMPDEST DUP1 PUSH0 JUMPDEST DUP4 DUP2 LT ISZERO PUSH2 0x1565 JUMPI DUP2 MLOAD PUSH2 0x154C DUP9 DUP3 PUSH2 0x14F3 JUMP JUMPDEST SWAP8 POP PUSH2 0x1557 DUP4 PUSH2 0x150A JUMP JUMPDEST SWAP3 POP POP PUSH1 0x1 DUP2 ADD SWAP1 POP PUSH2 0x1538 JUMP JUMPDEST POP DUP6 SWAP4 POP POP POP POP SWAP3 SWAP2 POP POP JUMP JUMPDEST PUSH0 PUSH1 0x20 DUP3 ADD SWAP1 POP DUP2 DUP2 SUB PUSH0 DUP4 ADD MSTORE PUSH2 0x158A DUP2 DUP5 PUSH2 0x1516 JUMP JUMPDEST SWAP1 POP SWAP3 SWAP2 POP POP JUMP JUMPDEST PUSH0 PUSH0 PUSH1 0x40 DUP4 DUP6 SUB SLT ISZERO PUSH2 0x15A8 JUMPI PUSH2 0x15A7 PUSH2 0x12B7 JUMP JUMPDEST JUMPDEST PUSH0 PUSH2 0x15B5 DUP6 DUP3 DUP7 ADD PUSH2 0x1411 JUMP JUMPDEST SWAP3 POP POP PUSH1 0x20 PUSH2 0x15C6 DUP6 DUP3 DUP7 ADD PUSH2 0x1411 JUMP JUMPDEST SWAP2 POP POP SWAP3 POP SWAP3 SWAP1 POP JUMP JUMPDEST PUSH0 PUSH0 PUSH0 PUSH0 PUSH0 PUSH0 PUSH0 PUSH1 0xE0 DUP9 DUP11 SUB SLT ISZERO PUSH2 0x15EB JUMPI PUSH2 0x15EA PUSH2 0x12B7 JUMP JUMPDEST JUMPDEST PUSH0 PUSH2 0x15F8 DUP11 DUP3 DUP12 ADD PUSH2 0x1411 JUMP JUMPDEST SWAP8 POP POP PUSH1 0x20 PUSH2 0x1609 DUP11 DUP3 DUP12 ADD PUSH2 0x1411 JUMP JUMPDEST SWAP7 POP POP PUSH1 0x40 PUSH2 0x161A DUP11 DUP3 DUP12 ADD PUSH2 0x12DE JUMP JUMPDEST SWAP6 POP POP PUSH1 0x60 PUSH2 0x162B DUP11 DUP3 DUP12 ADD PUSH2 0x12DE JUMP JUMPDEST SWAP5 POP POP PUSH1 0x80 PUSH2 0x163C DUP11 DUP3 DUP12 ADD PUSH2 0x12DE JUMP JUMPDEST SWAP4 POP POP PUSH1 0xA0 PUSH2 0x164D DUP11 DUP3 DUP12 ADD PUSH2 0x1411 JUMP JUMPDEST SWAP3 POP POP PUSH1 0xC0 PUSH2 0x165E DUP11 DUP3 DUP12 ADD PUSH2 0x12DE JUMP JUMPDEST SWAP2 POP POP SWAP3 SWAP6 SWAP9 SWAP2 SWAP5 SWAP8 POP SWAP3 SWAP6 POP JUMP JUMPDEST PUSH0 PUSH1 0x40 DUP3 ADD SWAP1 POP PUSH2 0x1680 PUSH0 DUP4 ADD DUP6 PUSH2 0x1342 JUMP JUMPDEST PUSH2 0x168D PUSH1 0x20 DUP4 ADD DUP5 PUSH2 0x1342 JUMP JUMPDEST SWAP4 SWAP3 POP POP POP JUMP JUMPDEST PUSH0 PUSH0 PUSH0 PUSH0 PUSH0 PUSH0 PUSH0 PUSH0 PUSH2 0x100 DUP10 DUP12 SUB SLT ISZERO PUSH2 0x16B1 JUMPI PUSH2 0x16B0 PUSH2 0x12B7 JUMP JUMPDEST JUMPDEST PUSH0 PUSH2 0x16BE DUP12 DUP3 DUP13 ADD PUSH2 0x1411 JUMP JUMPDEST SWAP9 POP POP PUSH1 0x20 PUSH2 0x16CF DUP12 DUP3 DUP13 ADD PUSH2 0x1411 JUMP JUMPDEST SWAP8 POP POP PUSH1 0x40 PUSH2 0x16E0 DUP12 DUP3 DUP13 ADD PUSH2 0x12DE JUMP JUMPDEST SWAP7 POP POP PUSH1 0x60 PUSH2 0x16F1 DUP12 DUP3 DUP13 ADD PUSH2 0x12DE JUMP JUMPDEST SWAP6 POP POP PUSH1 0x80 PUSH2 0x1702 DUP12 DUP3 DUP13 ADD PUSH2 0x12DE JUMP JUMPDEST SWAP5 POP POP PUSH1 0xA0 PUSH2 0x1713 DUP12 DUP3 DUP13 ADD PUSH2 0x12DE JUMP JUMPDEST SWAP4 POP POP PUSH1 0xC0 PUSH2 0x1724 DUP12 DUP3 DUP13 ADD PUSH2 0x1411 JUMP JUMPDEST SWAP3 POP POP PUSH1 0xE0 PUSH2 0x1735 DUP12 DUP3 DUP13 ADD PUSH2 0x12DE JUMP JUMPDEST SWAP2 POP POP SWAP3 SWAP6 SWAP9 POP SWAP3 SWAP6 SWAP9 SWAP1 SWAP4 SWAP7 POP JUMP JUMPDEST PUSH0 PUSH1 0x60 DUP3 ADD SWAP1 POP PUSH2 0x1758 PUSH0 DUP4 ADD DUP7 PUSH2 0x1342 JUMP JUMPDEST PUSH2 0x1765 PUSH1 0x20 DUP4 ADD DUP6 PUSH2 0x1342 JUMP JUMPDEST PUSH2 0x1772 PUSH1 0x40 DUP4 ADD DUP5 PUSH2 0x1342 JUMP JUMPDEST SWAP5 SWAP4 POP POP POP POP JUMP JUMPDEST PUSH0 DUP3 DUP3 MSTORE PUSH1 0x20 DUP3 ADD SWAP1 POP SWAP3 SWAP2 POP POP JUMP JUMPDEST PUSH32 0x496E73756666696369656E7420696E70757420616D6F756E7400000000000000 PUSH0 DUP3 ADD MSTORE POP JUMP JUMPDEST PUSH0 PUSH2 0x17BE PUSH1 0x19 DUP4 PUSH2 0x177A JUMP JUMPDEST SWAP2 POP PUSH2 0x17C9 DUP3 PUSH2 0x178A JUMP JUMPDEST PUSH1 0x20 DUP3 ADD SWAP1 POP SWAP2 SWAP1 POP JUMP JUMPDEST PUSH0 PUSH1 0x20 DUP3 ADD SWAP1 POP DUP2 DUP2 SUB PUSH0 DUP4 ADD MSTORE PUSH2 0x17EB DUP2 PUSH2 0x17B2 JUMP JUMPDEST SWAP1 POP SWAP2 SWAP1 POP JUMP JUMPDEST PUSH32 0x496E73756666696369656E74206C697175696469747900000000000000000000 PUSH0 DUP3 ADD MSTORE POP JUMP JUMPDEST PUSH0 PUSH2 0x1826 PUSH1 0x16 DUP4 PUSH2 0x177A JUMP JUMPDEST SWAP2 POP PUSH2 0x1831 DUP3 PUSH2 0x17F2 JUMP JUMPDEST PUSH1 0x20 DUP3 ADD SWAP1 POP SWAP2 SWAP1 POP JUMP JUMPDEST PUSH0 PUSH1 0x20 DUP3 ADD SWAP1 POP DUP2 DUP2 SUB PUSH0 DUP4 ADD MSTORE PUSH2 0x1853 DUP2 PUSH2 0x181A JUMP JUMPDEST SWAP1 POP SWAP2 SWAP1 POP JUMP JUMPDEST PUSH32 0x4E487B7100000000000000000000000000000000000000000000000000000000 PUSH0 MSTORE PUSH1 0x11 PUSH1 0x4 MSTORE PUSH1 0x24 PUSH0 REVERT JUMPDEST PUSH0 PUSH2 0x1891 DUP3 PUSH2 0x12BF JUMP JUMPDEST SWAP2 POP PUSH2 0x189C DUP4 PUSH2 0x12BF JUMP JUMPDEST SWAP3 POP DUP3 DUP3 MUL PUSH2 0x18AA DUP2 PUSH2 0x12BF JUMP JUMPDEST SWAP2 POP DUP3 DUP3 DIV DUP5 EQ DUP4 ISZERO OR PUSH2 0x18C1 JUMPI PUSH2 0x18C0 PUSH2 0x185A JUMP JUMPDEST JUMPDEST POP SWAP3 SWAP2 POP POP JUMP JUMPDEST PUSH0 PUSH2 0x18D2 DUP3 PUSH2 0x12BF JUMP JUMPDEST SWAP2 POP PUSH2 0x18DD DUP4 PUSH2 0x12BF JUMP JUMPDEST SWAP3 POP DUP3 DUP3 ADD SWAP1 POP DUP1 DUP3 GT ISZERO PUSH2 0x18F5 JUMPI PUSH2 0x18F4 PUSH2 0x185A JUMP JUMPDEST JUMPDEST SWAP3 SWAP2 POP POP JUMP JUMPDEST PUSH32 0x4E487B7100000000000000000000000000000000000000000000000000000000 PUSH0 MSTORE PUSH1 0x12 PUSH1 0x4 MSTORE PUSH1 0x24 PUSH0 REVERT JUMPDEST PUSH0 PUSH2 0x1932 DUP3 PUSH2 0x12BF JUMP JUMPDEST SWAP2 POP PUSH2 0x193D DUP4 PUSH2 0x12BF JUMP JUMPDEST SWAP3 POP DUP3 PUSH2 0x194D JUMPI PUSH2 0x194C PUSH2 0x18FB JUMP JUMPDEST JUMPDEST DUP3 DUP3 DIV SWAP1 POP SWAP3 SWAP2 POP POP JUMP JUMPDEST PUSH32 0x5472616E73616374696F6E206578706972656400000000000000000000000000 PUSH0 DUP3 ADD MSTORE POP JUMP JUMPDEST PUSH0 PUSH2 0x198C PUSH1 0x13 DUP4 PUSH2 0x177A JUMP JUMPDEST SWAP2 POP PUSH2 0x1997 DUP3 PUSH2 0x1958 JUMP JUMPDEST PUSH1 0x20 DUP3 ADD SWAP1 POP SWAP2 SWAP1 POP JUMP JUMPDEST PUSH0 PUSH1 0x20 DUP3 ADD SWAP1 POP DUP2 DUP2 SUB PUSH0 DUP4 ADD MSTORE PUSH2 0x19B9 DUP2 PUSH2 0x1980 JUMP JUMPDEST SWAP1 POP SWAP2 SWAP1 POP JUMP JUMPDEST PUSH32 0x4F6E6C7920322D746F6B656E207061746820737570706F727465640000000000 PUSH0 DUP3 ADD MSTORE POP JUMP JUMPDEST PUSH0 PUSH2 0x19F4 PUSH1 0x1B DUP4 PUSH2 0x177A JUMP JUMPDEST SWAP2 POP PUSH2 0x19FF DUP3 PUSH2 0x19C0 JUMP JUMPDEST PUSH1 0x20 DUP3 ADD SWAP1 POP SWAP2 SWAP1 POP JUMP JUMPDEST PUSH0 PUSH1 0x20 DUP3 ADD SWAP1 POP DUP2 DUP2 SUB PUSH0 DUP4 ADD MSTORE PUSH2 0x1A21 DUP2 PUSH2 0x19E8 JUMP JUMPDEST SWAP1 POP SWAP2 SWAP1 POP JUMP JUMPDEST PUSH32 0x4E487B7100000000000000000000000000000000000000000000000000000000 PUSH0 MSTORE PUSH1 0x32 PUSH1 0x4 MSTORE PUSH1 0x24 PUSH0 REVERT JUMPDEST PUSH0 PUSH1 0x20 DUP3 DUP5 SUB SLT ISZERO PUSH2 0x1A6A JUMPI PUSH2 0x1A69 PUSH2 0x12B7 JUMP JUMPDEST JUMPDEST PUSH0 PUSH2 0x1A77 DUP5 DUP3 DUP6 ADD PUSH2 0x1411 JUMP JUMPDEST SWAP2 POP POP SWAP3 SWAP2 POP POP JUMP JUMPDEST PUSH32 0x496E73756666696369656E74206F757470757420616D6F756E74000000000000 PUSH0 DUP3 ADD MSTORE POP JUMP JUMPDEST PUSH0 PUSH2 0x1AB4 PUSH1 0x1A DUP4 PUSH2 0x177A JUMP JUMPDEST SWAP2 POP PUSH2 0x1ABF DUP3 PUSH2 0x1A80 JUMP JUMPDEST PUSH1 0x20 DUP3 ADD SWAP1 POP SWAP2 SWAP1 POP JUMP JUMPDEST PUSH0 PUSH1 0x20 DUP3 ADD SWAP1 POP DUP2 DUP2 SUB PUSH0 DUP4 ADD MSTORE PUSH2 0x1AE1 DUP2 PUSH2 0x1AA8 JUMP JUMPDEST SWAP1 POP SWAP2 SWAP1 POP JUMP JUMPDEST PUSH0 PUSH2 0x1AF2 DUP3 PUSH2 0x12BF JUMP JUMPDEST SWAP2 POP PUSH2 0x1AFD DUP4 PUSH2 0x12BF JUMP JUMPDEST SWAP3 POP DUP3 DUP3 SUB SWAP1 POP DUP2 DUP2 GT ISZERO PUSH2 0x1B15 JUMPI PUSH2 0x1B14 PUSH2 0x185A JUMP JUMPDEST JUMPDEST SWAP3 SWAP2 POP POP JUMP JUMPDEST PUSH32 0x4E487B7100000000000000000000000000000000000000000000000000000000 PUSH0 MSTORE PUSH1 0x41 PUSH1 0x4 MSTORE PUSH1 0x24 PUSH0 REVERT JUMPDEST PUSH2 0x1B51 DUP2 PUSH2 0x13EA JUMP JUMPDEST DUP3 MSTORE POP POP JUMP JUMPDEST PUSH0 PUSH1 0x80 DUP3 ADD SWAP1 POP PUSH2 0x1B6A PUSH0 DUP4 ADD DUP8 PUSH2 0x1B48 JUMP JUMPDEST PUSH2 0x1B77 PUSH1 0x20 DUP4 ADD DUP7 PUSH2 0x1B48 JUMP JUMPDEST PUSH2 0x1B84 PUSH1 0x40 DUP4 ADD DUP6 PUSH2 0x1342 JUMP JUMPDEST PUSH2 0x1B91 PUSH1 0x60 DUP4 ADD DUP5 PUSH2 0x1342 JUMP JUMPDEST SWAP6 SWAP5 POP POP POP POP POP JUMP JUMPDEST PUSH32 0x4E6F207265736572766573000000000000000000000000000000000000000000 PUSH0 DUP3 ADD MSTORE POP JUMP JUMPDEST PUSH0 PUSH2 0x1BCE PUSH1 0xB DUP4 PUSH2 0x177A JUMP JUMPDEST SWAP2 POP PUSH2 0x1BD9 DUP3 PUSH2 0x1B9A JUMP JUMPDEST PUSH1 0x20 DUP3 ADD SWAP1 POP SWAP2 SWAP1 POP JUMP JUMPDEST PUSH0 PUSH1 0x20 DUP3 ADD SWAP1 POP DUP2 DUP2 SUB PUSH0 DUP4 ADD MSTORE PUSH2 0x1BFB DUP2 PUSH2 0x1BC2 JUMP JUMPDEST SWAP1 POP SWAP2 SWAP1 POP JUMP JUMPDEST PUSH32 0x496E73756666696369656E74204120616D6F756E740000000000000000000000 PUSH0 DUP3 ADD MSTORE POP JUMP JUMPDEST PUSH0 PUSH2 0x1C36 PUSH1 0x15 DUP4 PUSH2 0x177A JUMP JUMPDEST SWAP2 POP PUSH2 0x1C41 DUP3 PUSH2 0x1C02 JUMP JUMPDEST PUSH1 0x20 DUP3 ADD SWAP1 POP SWAP2 SWAP1 POP JUMP JUMPDEST PUSH0 PUSH1 0x20 DUP3 ADD SWAP1 POP DUP2 DUP2 SUB PUSH0 DUP4 ADD MSTORE PUSH2 0x1C63 DUP2 PUSH2 0x1C2A JUMP JUMPDEST SWAP1 POP SWAP2 SWAP1 POP JUMP JUMPDEST PUSH32 0x496E73756666696369656E74204220616D6F756E740000000000000000000000 PUSH0 DUP3 ADD MSTORE POP JUMP JUMPDEST PUSH0 PUSH2 0x1C9E PUSH1 0x15 DUP4 PUSH2 0x177A JUMP JUMPDEST SWAP2 POP PUSH2 0x1CA9 DUP3 PUSH2 0x1C6A JUMP JUMPDEST PUSH1 0x20 DUP3 ADD SWAP1 POP SWAP2 SWAP1 POP JUMP JUMPDEST PUSH0 PUSH1 0x20 DUP3 ADD SWAP1 POP DUP2 DUP2 SUB PUSH0 DUP4 ADD MSTORE PUSH2 0x1CCB DUP2 PUSH2 0x1C92 JUMP JUMPDEST SWAP1 POP SWAP2 SWAP1 POP JUMP JUMPDEST PUSH0 PUSH1 0xA0 DUP3 ADD SWAP1 POP PUSH2 0x1CE5 PUSH0 DUP4 ADD DUP9 PUSH2 0x1B48 JUMP JUMPDEST PUSH2 0x1CF2 PUSH1 0x20 DUP4 ADD DUP8 PUSH2 0x1B48 JUMP JUMPDEST PUSH2 0x1CFF PUSH1 0x40 DUP4 ADD DUP7 PUSH2 0x1342 JUMP JUMPDEST PUSH2 0x1D0C PUSH1 0x60 DUP4 ADD DUP6 PUSH2 0x1342 JUMP JUMPDEST PUSH2 0x1D19 PUSH1 0x80 DUP4 ADD DUP5 PUSH2 0x1342 JUMP JUMPDEST SWAP7 SWAP6 POP POP POP POP POP POP JUMP JUMPDEST PUSH32 0x4964656E746963616C20746F6B656E7300000000000000000000000000000000 PUSH0 DUP3 ADD MSTORE POP JUMP JUMPDEST PUSH0 PUSH2 0x1D57 PUSH1 0x10 DUP4 PUSH2 0x177A JUMP JUMPDEST SWAP2 POP PUSH2 0x1D62 DUP3 PUSH2 0x1D23 JUMP JUMPDEST PUSH1 0x20 DUP3 ADD SWAP1 POP SWAP2 SWAP1 POP JUMP JUMPDEST PUSH0 PUSH1 0x20 DUP3 ADD SWAP1 POP DUP2 DUP2 SUB PUSH0 DUP4 ADD MSTORE PUSH2 0x1D84 DUP2 PUSH2 0x1D4B JUMP JUMPDEST SWAP1 POP SWAP2 SWAP1 POP JUMP JUMPDEST PUSH32 0x496E73756666696369656E74206C6971756964697479206D696E746564000000 PUSH0 DUP3 ADD MSTORE POP JUMP JUMPDEST PUSH0 PUSH2 0x1DBF PUSH1 0x1D DUP4 PUSH2 0x177A JUMP JUMPDEST SWAP2 POP PUSH2 0x1DCA DUP3 PUSH2 0x1D8B JUMP JUMPDEST PUSH1 0x20 DUP3 ADD SWAP1 POP SWAP2 SWAP1 POP JUMP JUMPDEST PUSH0 PUSH1 0x20 DUP3 ADD SWAP1 POP DUP2 DUP2 SUB PUSH0 DUP4 ADD MSTORE PUSH2 0x1DEC DUP2 PUSH2 0x1DB3 JUMP JUMPDEST SWAP1 POP SWAP2 SWAP1 POP JUMP JUMPDEST PUSH0 DUP2 PUSH1 0x60 SHL SWAP1 POP SWAP2 SWAP1 POP JUMP JUMPDEST PUSH0 PUSH2 0x1E09 DUP3 PUSH2 0x1DF3 JUMP JUMPDEST SWAP1 POP SWAP2 SWAP1 POP JUMP JUMPDEST PUSH0 PUSH2 0x1E1A DUP3 PUSH2 0x1DFF JUMP JUMPDEST SWAP1 POP SWAP2 SWAP1 POP JUMP JUMPDEST PUSH2 0x1E32 PUSH2 0x1E2D DUP3 PUSH2 0x13EA JUMP JUMPDEST PUSH2 0x1E10 JUMP JUMPDEST DUP3 MSTORE POP POP JUMP JUMPDEST PUSH0 PUSH2 0x1E43 DUP3 DUP6 PUSH2 0x1E21 JUMP JUMPDEST PUSH1 0x14 DUP3 ADD SWAP2 POP PUSH2 0x1E53 DUP3 DUP5 PUSH2 0x1E21 JUMP JUMPDEST PUSH1 0x14 DUP3 ADD SWAP2 POP DUP2 SWAP1 POP SWAP4 SWAP3 POP POP POP JUMP JUMPDEST PUSH0 PUSH1 0x60 DUP3 ADD SWAP1 POP PUSH2 0x1E76 PUSH0 DUP4 ADD DUP7 PUSH2 0x1B48 JUMP JUMPDEST PUSH2 0x1E83 PUSH1 0x20 DUP4 ADD DUP6 PUSH2 0x1B48 JUMP JUMPDEST PUSH2 0x1E90 PUSH1 0x40 DUP4 ADD DUP5 PUSH2 0x1342 JUMP JUMPDEST SWAP5 SWAP4 POP POP POP POP JUMP JUMPDEST PUSH0 PUSH1 0x40 DUP3 ADD SWAP1 POP PUSH2 0x1EAB PUSH0 DUP4 ADD DUP6 PUSH2 0x1B48 JUMP JUMPDEST PUSH2 0x1EB8 PUSH1 0x20 DUP4 ADD DUP5 PUSH2 0x1342 JUMP JUMPDEST SWAP4 SWAP3 POP POP POP JUMP JUMPDEST PUSH0 PUSH1 0x20 DUP3 ADD SWAP1 POP PUSH2 0x1ED2 PUSH0 DUP4 ADD DUP5 PUSH2 0x1B48 JUMP JUMPDEST SWAP3 SWAP2 POP POP JUMP INVALID LOG2 PUSH5 0x6970667358 0x22 SLT KECCAK256 0xA5 MUL SWAP14 0xB8 SWAP6 0xFC PUSH9 0x3CDB62B07797568113 0xB6 SIGNEXTEND 0xC7 DUP11 SWAP2 0xEA KECCAK256 SWAP3 EXTCODEHASH 0x2D 0xA5 0xC3 LOG0 0xB9 0xC5 SMOD PUSH5 0x736F6C6343 STOP ADDMOD 0x1E STOP CALLER "
				},
				"gasEstimates": {
					"creation": {
						"codeDepositCost": "1590000",
						"executionCost": "1664",
						"totalCost": "1591664"
					},
					"external": {
						"addLiquidity(address,address,uint256,uint256,uint256,uint256,address,uint256)": "infinite",
						"getAmountOut(uint256,uint256,uint256)": "infinite",
						"getPrice(address,address)": "infinite",
						"removeLiquidity(address,address,uint256,uint256,uint256,address,uint256)": "infinite",
						"swapExactTokensForTokens(uint256,uint256,address[],address,uint256)": "infinite"
					},
					"internal": {
						"_calculateAmounts(address,address,uint256,uint256,uint256,uint256,uint256,uint256,uint256)": "infinite",
						"_calculateLiquidity(uint256,uint256,uint256,uint256,uint256)": "infinite",
						"_getPairKey(address,address)": "infinite",
						"_quoteAddLiquidity(address,address,uint256,uint256,uint256,uint256,uint256,uint256,uint256)": "infinite",
						"_sortTokens(address,address)": "88",
						"_transferTokens(address,address,uint256,uint256)": "infinite"
					}
				},
				"methodIdentifiers": {
					"addLiquidity(address,address,uint256,uint256,uint256,uint256,address,uint256)": "e8e33700",
					"getAmountOut(uint256,uint256,uint256)": "054d50d4",
					"getPrice(address,address)": "ac41865a",
					"removeLiquidity(address,address,uint256,uint256,uint256,address,uint256)": "baa2abde",
					"swapExactTokensForTokens(uint256,uint256,address[],address,uint256)": "38ed1739"
				}
			},
			"storageLayout": {
				"storage": [
					{
						"astId": 4107,
						"contract": "SimpleSwap.sol:SimpleSwap",
						"label": "reserves",
						"offset": 0,
						"slot": "0",
						"type": "t_mapping(t_bytes32,t_struct(Reserve)4102_storage)"
					}
				],
				"types": {
					"t_address": {
						"encoding": "inplace",
						"label": "address",
						"numberOfBytes": "20"
					},
					"t_bytes32": {
						"encoding": "inplace",
						"label": "bytes32",
						"numberOfBytes": "32"
					},
					"t_mapping(t_address,t_uint256)": {
						"encoding": "mapping",
						"key": "t_address",
						"label": "mapping(address => uint256)",
						"numberOfBytes": "32",
						"value": "t_uint256"
					},
					"t_mapping(t_bytes32,t_struct(Reserve)4102_storage)": {
						"encoding": "mapping",
						"key": "t_bytes32",
						"label": "mapping(bytes32 => struct SimpleSwap.Reserve)",
						"numberOfBytes": "32",
						"value": "t_struct(Reserve)4102_storage"
					},
					"t_struct(Reserve)4102_storage": {
						"encoding": "inplace",
						"label": "struct SimpleSwap.Reserve",
						"members": [
							{
								"astId": 4093,
								"contract": "SimpleSwap.sol:SimpleSwap",
								"label": "reserveA",
								"offset": 0,
								"slot": "0",
								"type": "t_uint256"
							},
							{
								"astId": 4095,
								"contract": "SimpleSwap.sol:SimpleSwap",
								"label": "reserveB",
								"offset": 0,
								"slot": "1",
								"type": "t_uint256"
							},
							{
								"astId": 4097,
								"contract": "SimpleSwap.sol:SimpleSwap",
								"label": "totalLiquidity",
								"offset": 0,
								"slot": "2",
								"type": "t_uint256"
							},
							{
								"astId": 4101,
								"contract": "SimpleSwap.sol:SimpleSwap",
								"label": "liquidity",
								"offset": 0,
								"slot": "3",
								"type": "t_mapping(t_address,t_uint256)"
							}
						],
						"numberOfBytes": "128"
					},
					"t_uint256": {
						"encoding": "inplace",
						"label": "uint256",
						"numberOfBytes": "32"
					}
				}
			},
			"userdoc": {
				"kind": "user",
				"methods": {
					"addLiquidity(address,address,uint256,uint256,uint256,uint256,address,uint256)": {
						"notice": "Add liquidity to a pool"
					},
					"getAmountOut(uint256,uint256,uint256)": {
						"notice": "Get output amount given input and reserves"
					},
					"getPrice(address,address)": {
						"notice": "Get price of tokenA in terms of tokenB"
					},
					"removeLiquidity(address,address,uint256,uint256,uint256,address,uint256)": {
						"notice": "Remove liquidity from a pool"
					},
					"swapExactTokensForTokens(uint256,uint256,address[],address,uint256)": {
						"notice": "Swap exact tokens for tokens"
					}
				},
				"notice": "Allows adding/removing liquidity and swapping between two ERC-20 tokens",
				"version": 1
			}
		}
	}
}