{
	"data": {
		"bytecode": {
			"linkReferences": {},
			"object": "608060405234801561000f575f5ffd5b506040518060400160405280600981526020017f4c495155494449545900000000000000000000000000000000000000000000008152506040518060400160405280600281526020017f4c50000000000000000000000000000000000000000000000000000000000000815250816003908161008b91906102e0565b50806004908161009b91906102e0565b5050506103af565b5f81519050919050565b7f4e487b71000000000000000000000000000000000000000000000000000000005f52604160045260245ffd5b7f4e487b71000000000000000000000000000000000000000000000000000000005f52602260045260245ffd5b5f600282049050600182168061011e57607f821691505b602082108103610131576101306100da565b5b50919050565b5f819050815f5260205f209050919050565b5f6020601f8301049050919050565b5f82821b905092915050565b5f600883026101937fffffffffffffffffffffffffffffffffffffffffffffffffffffffffffffffff82610158565b61019d8683610158565b95508019841693508086168417925050509392505050565b5f819050919050565b5f819050919050565b5f6101e16101dc6101d7846101b5565b6101be565b6101b5565b9050919050565b5f819050919050565b6101fa836101c7565b61020e610206826101e8565b848454610164565b825550505050565b5f5f905090565b610225610216565b6102308184846101f1565b505050565b5b81811015610253576102485f8261021d565b600181019050610236565b5050565b601f8211156102985761026981610137565b61027284610149565b81016020851015610281578190505b61029561028d85610149565b830182610235565b50505b505050565b5f82821c905092915050565b5f6102b85f198460080261029d565b1980831691505092915050565b5f6102d083836102a9565b9150826002028217905092915050565b6102e9826100a3565b67ffffffffffffffff811115610302576103016100ad565b5b61030c8254610107565b610317828285610257565b5f60209050601f831160018114610348575f8415610336578287015190505b61034085826102c5565b8655506103a7565b601f19841661035686610137565b5f5b8281101561037d57848901518255600182019150602085019450602081019050610358565b8683101561039a5784890151610396601f8916826102a9565b8355505b6001600288020188555050505b505050505050565b612f31806103bc5f395ff3fe608060405234801561000f575f5ffd5b5060043610610114575f3560e01c806370a08231116100a0578063baa2abde1161006f578063baa2abde14610308578063dc5fa6c514610339578063dd62ed3e14610357578063e8e3370014610387578063eed86c96146103b957610114565b806370a082311461025a57806395d89b411461028a578063a9059cbb146102a8578063ac41865a146102d857610114565b806319e36f3b116100e757806319e36f3b146101b457806323b872dd146101d2578063313ce5671461020257806338ed17391461022057806350430ce41461023c57610114565b8063054d50d41461011857806306fdde0314610148578063095ea7b31461016657806318160ddd14610196575b5f5ffd5b610132600480360381019061012d9190612176565b6103d7565b60405161013f91906121d5565b60405180910390f35b610150610492565b60405161015d919061225e565b60405180910390f35b610180600480360381019061017b91906122d8565b610522565b60405161018d9190612330565b60405180910390f35b61019e610544565b6040516101ab91906121d5565b60405180910390f35b6101bc61054d565b6040516101c991906121d5565b60405180910390f35b6101ec60048036038101906101e79190612349565b610553565b6040516101f99190612330565b60405180910390f35b61020a610581565b60405161021791906123b4565b60405180910390f35b61023a6004803603810190610235919061242e565b610589565b005b6102446109f2565b60405161025191906124d3565b60405180910390f35b610274600480360381019061026f91906124ec565b610a17565b60405161028191906121d5565b60405180910390f35b610292610a5c565b60405161029f919061225e565b60405180910390f35b6102c260048036038101906102bd91906122d8565b610aec565b6040516102cf9190612330565b60405180910390f35b6102f260048036038101906102ed9190612517565b610b0e565b6040516102ff91906121d5565b60405180910390f35b610322600480360381019061031d9190612555565b610d21565b6040516103309291906125f2565b60405180910390f35b6103416110ed565b60405161034e91906121d5565b60405180910390f35b610371600480360381019061036c9190612517565b6110f3565b60405161037e91906121d5565b60405180910390f35b6103a1600480360381019061039c9190612619565b611175565b6040516103b0939291906126ca565b60405180910390f35b6103c1611753565b6040516103ce91906124d3565b60405180910390f35b5f5f841161041a576040517f08c379a000000000000000000000000000000000000000000000000000000000815260040161041190612749565b60405180910390fd5b5f8311801561042857505f82115b610467576040517f08c379a000000000000000000000000000000000000000000000000000000000815260040161045e906127b1565b60405180910390fd5b838361047391906127fc565b828561047f919061282f565b610489919061289d565b90509392505050565b6060600380546104a1906128fa565b80601f01602080910402602001604051908101604052809291908181526020018280546104cd906128fa565b80156105185780601f106104ef57610100808354040283529160200191610518565b820191905f5260205f20905b8154815290600101906020018083116104fb57829003601f168201915b5050505050905090565b5f5f61052c611778565b905061053981858561177f565b600191505092915050565b5f600254905090565b60085481565b5f5f61055d611778565b905061056a858285611791565b610575858585611824565b60019150509392505050565b5f6012905090565b804211156105cc576040517f08c379a00000000000000000000000000000000000000000000000000000000081526004016105c390612974565b60405180910390fd5b60028484905014610612576040517f08c379a0000000000000000000000000000000000000000000000000000000008152600401610609906129dc565b60405180910390fd5b5f84845f818110610626576106256129fa565b5b905060200201602081019061063b91906124ec565b90505f85856001818110610652576106516129fa565b5b905060200201602081019061066791906124ec565b905060055f9054906101000a900473ffffffffffffffffffffffffffffffffffffffff1673ffffffffffffffffffffffffffffffffffffffff168273ffffffffffffffffffffffffffffffffffffffff16148015610711575060065f9054906101000a900473ffffffffffffffffffffffffffffffffffffffff1673ffffffffffffffffffffffffffffffffffffffff168173ffffffffffffffffffffffffffffffffffffffff16145b806107c0575060065f9054906101000a900473ffffffffffffffffffffffffffffffffffffffff1673ffffffffffffffffffffffffffffffffffffffff168273ffffffffffffffffffffffffffffffffffffffff161480156107bf575060055f9054906101000a900473ffffffffffffffffffffffffffffffffffffffff1673ffffffffffffffffffffffffffffffffffffffff168173ffffffffffffffffffffffffffffffffffffffff16145b5b6107ff576040517f08c379a00000000000000000000000000000000000000000000000000000000081526004016107f690612a71565b60405180910390fd5b5f5f60055f9054906101000a900473ffffffffffffffffffffffffffffffffffffffff1673ffffffffffffffffffffffffffffffffffffffff168473ffffffffffffffffffffffffffffffffffffffff161461086057600854600754610867565b6007546008545b9150915061089833308c8773ffffffffffffffffffffffffffffffffffffffff16611914909392919063ffffffff16565b5f8a836108a591906127fc565b828c6108b1919061282f565b6108bb919061289d565b905089811015610900576040517f08c379a00000000000000000000000000000000000000000000000000000000081526004016108f790612ad9565b60405180910390fd5b60055f9054906101000a900473ffffffffffffffffffffffffffffffffffffffff1673ffffffffffffffffffffffffffffffffffffffff168573ffffffffffffffffffffffffffffffffffffffff1603610989578a60075f82825461096591906127fc565b925050819055508060085f82825461097d9190612af7565b925050819055506109ba565b8a60085f82825461099a91906127fc565b925050819055508060075f8282546109b29190612af7565b925050819055505b6109e587828673ffffffffffffffffffffffffffffffffffffffff166119969092919063ffffffff16565b5050505050505050505050565b60055f9054906101000a900473ffffffffffffffffffffffffffffffffffffffff1681565b5f5f5f8373ffffffffffffffffffffffffffffffffffffffff1673ffffffffffffffffffffffffffffffffffffffff1681526020019081526020015f20549050919050565b606060048054610a6b906128fa565b80601f0160208091040260200160405190810160405280929190818152602001828054610a97906128fa565b8015610ae25780601f10610ab957610100808354040283529160200191610ae2565b820191905f5260205f20905b815481529060010190602001808311610ac557829003601f168201915b5050505050905090565b5f5f610af6611778565b9050610b03818585611824565b600191505092915050565b5f60055f9054906101000a900473ffffffffffffffffffffffffffffffffffffffff1673ffffffffffffffffffffffffffffffffffffffff168373ffffffffffffffffffffffffffffffffffffffff16148015610bb7575060065f9054906101000a900473ffffffffffffffffffffffffffffffffffffffff1673ffffffffffffffffffffffffffffffffffffffff168273ffffffffffffffffffffffffffffffffffffffff16145b80610c66575060065f9054906101000a900473ffffffffffffffffffffffffffffffffffffffff1673ffffffffffffffffffffffffffffffffffffffff168373ffffffffffffffffffffffffffffffffffffffff16148015610c65575060055f9054906101000a900473ffffffffffffffffffffffffffffffffffffffff1673ffffffffffffffffffffffffffffffffffffffff168273ffffffffffffffffffffffffffffffffffffffff16145b5b610ca5576040517f08c379a0000000000000000000000000000000000000000000000000000000008152600401610c9c90612b74565b60405180910390fd5b5f600754118015610cb757505f600854115b610cf6576040517f08c379a0000000000000000000000000000000000000000000000000000000008152600401610ced90612bdc565b60405180910390fd5b600754670de0b6b3a7640000600854610d0f919061282f565b610d19919061289d565b905092915050565b5f5f82421115610d66576040517f08c379a0000000000000000000000000000000000000000000000000000000008152600401610d5d90612974565b60405180910390fd5b60055f9054906101000a900473ffffffffffffffffffffffffffffffffffffffff1673ffffffffffffffffffffffffffffffffffffffff168973ffffffffffffffffffffffffffffffffffffffff16148015610e0e575060065f9054906101000a900473ffffffffffffffffffffffffffffffffffffffff1673ffffffffffffffffffffffffffffffffffffffff168873ffffffffffffffffffffffffffffffffffffffff16145b80610ebd575060065f9054906101000a900473ffffffffffffffffffffffffffffffffffffffff1673ffffffffffffffffffffffffffffffffffffffff168973ffffffffffffffffffffffffffffffffffffffff16148015610ebc575060055f9054906101000a900473ffffffffffffffffffffffffffffffffffffffff1673ffffffffffffffffffffffffffffffffffffffff168873ffffffffffffffffffffffffffffffffffffffff16145b5b610efc576040517f08c379a0000000000000000000000000000000000000000000000000000000008152600401610ef390612b74565b60405180910390fd5b5f610f05610544565b905087610f1133610a17565b1015610f52576040517f08c379a0000000000000000000000000000000000000000000000000000000008152600401610f4990612c44565b60405180910390fd5b8060075489610f61919061282f565b610f6b919061289d565b92508060085489610f7c919061282f565b610f86919061289d565b915086831015610fcb576040517f08c379a0000000000000000000000000000000000000000000000000000000008152600401610fc290612cac565b60405180910390fd5b8582101561100e576040517f08c379a000000000000000000000000000000000000000000000000000000000815260040161100590612d14565b60405180910390fd5b6110183389611a15565b8260075f8282546110299190612af7565b925050819055508160085f8282546110419190612af7565b92505081905550611094858460055f9054906101000a900473ffffffffffffffffffffffffffffffffffffffff1673ffffffffffffffffffffffffffffffffffffffff166119969092919063ffffffff16565b6110e0858360065f9054906101000a900473ffffffffffffffffffffffffffffffffffffffff1673ffffffffffffffffffffffffffffffffffffffff166119969092919063ffffffff16565b5097509795505050505050565b60075481565b5f60015f8473ffffffffffffffffffffffffffffffffffffffff1673ffffffffffffffffffffffffffffffffffffffff1681526020019081526020015f205f8373ffffffffffffffffffffffffffffffffffffffff1673ffffffffffffffffffffffffffffffffffffffff1681526020019081526020015f2054905092915050565b5f5f5f834211156111bb576040517f08c379a00000000000000000000000000000000000000000000000000000000081526004016111b290612974565b60405180910390fd5b5f73ffffffffffffffffffffffffffffffffffffffff1660055f9054906101000a900473ffffffffffffffffffffffffffffffffffffffff1673ffffffffffffffffffffffffffffffffffffffff1614801561126357505f73ffffffffffffffffffffffffffffffffffffffff1660065f9054906101000a900473ffffffffffffffffffffffffffffffffffffffff1673ffffffffffffffffffffffffffffffffffffffff16145b1561135b578973ffffffffffffffffffffffffffffffffffffffff168b73ffffffffffffffffffffffffffffffffffffffff16036112d6576040517f08c379a00000000000000000000000000000000000000000000000000000000081526004016112cd90612d7c565b60405180910390fd5b8a60055f6101000a81548173ffffffffffffffffffffffffffffffffffffffff021916908373ffffffffffffffffffffffffffffffffffffffff1602179055508960065f6101000a81548173ffffffffffffffffffffffffffffffffffffffff021916908373ffffffffffffffffffffffffffffffffffffffff1602179055506114f2565b60055f9054906101000a900473ffffffffffffffffffffffffffffffffffffffff1673ffffffffffffffffffffffffffffffffffffffff168b73ffffffffffffffffffffffffffffffffffffffff16148015611403575060065f9054906101000a900473ffffffffffffffffffffffffffffffffffffffff1673ffffffffffffffffffffffffffffffffffffffff168a73ffffffffffffffffffffffffffffffffffffffff16145b806114b2575060065f9054906101000a900473ffffffffffffffffffffffffffffffffffffffff1673ffffffffffffffffffffffffffffffffffffffff168b73ffffffffffffffffffffffffffffffffffffffff161480156114b1575060055f9054906101000a900473ffffffffffffffffffffffffffffffffffffffff1673ffffffffffffffffffffffffffffffffffffffff168a73ffffffffffffffffffffffffffffffffffffffff16145b5b6114f1576040517f08c379a00000000000000000000000000000000000000000000000000000000081526004016114e890612b74565b60405180910390fd5b5b5f6114fb610544565b036115215788925087915061151a8284611515919061282f565b611a94565b90506115a7565b88925060075460085484611535919061282f565b61153f919061289d565b915087821115611584576040517f08c379a000000000000000000000000000000000000000000000000000000000815260040161157b90612de4565b60405180910390fd5b60075461158f610544565b8461159a919061282f565b6115a4919061289d565b90505b868310156115ea576040517f08c379a00000000000000000000000000000000000000000000000000000000081526004016115e190612cac565b60405180910390fd5b8582101561162d576040517f08c379a000000000000000000000000000000000000000000000000000000000815260040161162490612d14565b60405180910390fd5b5f811161166f576040517f08c379a000000000000000000000000000000000000000000000000000000000815260040161166690612e4c565b60405180910390fd5b6116bd33308560055f9054906101000a900473ffffffffffffffffffffffffffffffffffffffff1673ffffffffffffffffffffffffffffffffffffffff16611914909392919063ffffffff16565b61170b33308460065f9054906101000a900473ffffffffffffffffffffffffffffffffffffffff1673ffffffffffffffffffffffffffffffffffffffff16611914909392919063ffffffff16565b8260075f82825461171c91906127fc565b925050819055508160085f82825461173491906127fc565b925050819055506117458582611c2e565b985098509895505050505050565b60065f9054906101000a900473ffffffffffffffffffffffffffffffffffffffff1681565b5f33905090565b61178c8383836001611cad565b505050565b5f61179c84846110f3565b90507fffffffffffffffffffffffffffffffffffffffffffffffffffffffffffffffff81101561181e578181101561180f578281836040517ffb8f41b200000000000000000000000000000000000000000000000000000000815260040161180693929190612e6a565b60405180910390fd5b61181d84848484035f611cad565b5b50505050565b5f73ffffffffffffffffffffffffffffffffffffffff168373ffffffffffffffffffffffffffffffffffffffff1603611894575f6040517f96c6fd1e00000000000000000000000000000000000000000000000000000000815260040161188b91906124d3565b60405180910390fd5b5f73ffffffffffffffffffffffffffffffffffffffff168273ffffffffffffffffffffffffffffffffffffffff1603611904575f6040517fec442f050000000000000000000000000000000000000000000000000000000081526004016118fb91906124d3565b60405180910390fd5b61190f838383611e7c565b505050565b611990848573ffffffffffffffffffffffffffffffffffffffff166323b872dd86868660405160240161194993929190612e9f565b604051602081830303815290604052915060e01b6020820180517bffffffffffffffffffffffffffffffffffffffffffffffffffffffff8381831617835250505050612095565b50505050565b611a10838473ffffffffffffffffffffffffffffffffffffffff1663a9059cbb85856040516024016119c9929190612ed4565b604051602081830303815290604052915060e01b6020820180517bffffffffffffffffffffffffffffffffffffffffffffffffffffffff8381831617835250505050612095565b505050565b5f73ffffffffffffffffffffffffffffffffffffffff168273ffffffffffffffffffffffffffffffffffffffff1603611a85575f6040517f96c6fd1e000000000000000000000000000000000000000000000000000000008152600401611a7c91906124d3565b60405180910390fd5b611a90825f83611e7c565b5050565b5f60018211611aa557819050611c29565b5f8290505f600190507001000000000000000000000000000000008210611ad557608082901c9150604081901b90505b680100000000000000008210611af457604082901c9150602081901b90505b6401000000008210611b0f57602082901c9150601081901b90505b620100008210611b2857601082901c9150600881901b90505b6101008210611b4057600882901c9150600481901b90505b60108210611b5757600482901c9150600281901b90505b60048210611b6757600181901b90505b600181600302901c90506001818581611b8357611b82612870565b5b048201901c90506001818581611b9c57611b9b612870565b5b048201901c90506001818581611bb557611bb4612870565b5b048201901c90506001818581611bce57611bcd612870565b5b048201901c90506001818581611be757611be6612870565b5b048201901c90506001818581611c0057611bff612870565b5b048201901c9050611c22818581611c1a57611c19612870565b5b048211612130565b8103925050505b919050565b5f73ffffffffffffffffffffffffffffffffffffffff168273ffffffffffffffffffffffffffffffffffffffff1603611c9e575f6040517fec442f05000000000000000000000000000000000000000000000000000000008152600401611c9591906124d3565b60405180910390fd5b611ca95f8383611e7c565b5050565b5f73ffffffffffffffffffffffffffffffffffffffff168473ffffffffffffffffffffffffffffffffffffffff1603611d1d575f6040517fe602df05000000000000000000000000000000000000000000000000000000008152600401611d1491906124d3565b60405180910390fd5b5f73ffffffffffffffffffffffffffffffffffffffff168373ffffffffffffffffffffffffffffffffffffffff1603611d8d575f6040517f94280d62000000000000000000000000000000000000000000000000000000008152600401611d8491906124d3565b60405180910390fd5b8160015f8673ffffffffffffffffffffffffffffffffffffffff1673ffffffffffffffffffffffffffffffffffffffff1681526020019081526020015f205f8573ffffffffffffffffffffffffffffffffffffffff1673ffffffffffffffffffffffffffffffffffffffff1681526020019081526020015f20819055508015611e76578273ffffffffffffffffffffffffffffffffffffffff168473ffffffffffffffffffffffffffffffffffffffff167f8c5be1e5ebec7d5bd14f71427d1e84f3dd0314c0f7b2291e5b200ac8c7c3b92584604051611e6d91906121d5565b60405180910390a35b50505050565b5f73ffffffffffffffffffffffffffffffffffffffff168373ffffffffffffffffffffffffffffffffffffffff1603611ecc578060025f828254611ec091906127fc565b92505081905550611f9a565b5f5f5f8573ffffffffffffffffffffffffffffffffffffffff1673ffffffffffffffffffffffffffffffffffffffff1681526020019081526020015f2054905081811015611f55578381836040517fe450d38c000000000000000000000000000000000000000000000000000000008152600401611f4c93929190612e6a565b60405180910390fd5b8181035f5f8673ffffffffffffffffffffffffffffffffffffffff1673ffffffffffffffffffffffffffffffffffffffff1681526020019081526020015f2081905550505b5f73ffffffffffffffffffffffffffffffffffffffff168273ffffffffffffffffffffffffffffffffffffffff1603611fe1578060025f828254039250508190555061202b565b805f5f8473ffffffffffffffffffffffffffffffffffffffff1673ffffffffffffffffffffffffffffffffffffffff1681526020019081526020015f205f82825401925050819055505b8173ffffffffffffffffffffffffffffffffffffffff168373ffffffffffffffffffffffffffffffffffffffff167fddf252ad1be2c89b69c2b068fc378daa952ba7f163c4a11628f55a4df523b3ef8360405161208891906121d5565b60405180910390a3505050565b5f5f60205f8451602086015f885af1806120b4576040513d5f823e3d81fd5b3d92505f519150505f82146120cd5760018114156120e8565b5f8473ffffffffffffffffffffffffffffffffffffffff163b145b1561212a57836040517f5274afe700000000000000000000000000000000000000000000000000000000815260040161212191906124d3565b60405180910390fd5b50505050565b5f8115159050919050565b5f5ffd5b5f5ffd5b5f819050919050565b61215581612143565b811461215f575f5ffd5b50565b5f813590506121708161214c565b92915050565b5f5f5f6060848603121561218d5761218c61213b565b5b5f61219a86828701612162565b93505060206121ab86828701612162565b92505060406121bc86828701612162565b9150509250925092565b6121cf81612143565b82525050565b5f6020820190506121e85f8301846121c6565b92915050565b5f81519050919050565b5f82825260208201905092915050565b8281835e5f83830152505050565b5f601f19601f8301169050919050565b5f612230826121ee565b61223a81856121f8565b935061224a818560208601612208565b61225381612216565b840191505092915050565b5f6020820190508181035f8301526122768184612226565b905092915050565b5f73ffffffffffffffffffffffffffffffffffffffff82169050919050565b5f6122a78261227e565b9050919050565b6122b78161229d565b81146122c1575f5ffd5b50565b5f813590506122d2816122ae565b92915050565b5f5f604083850312156122ee576122ed61213b565b5b5f6122fb858286016122c4565b925050602061230c85828601612162565b9150509250929050565b5f8115159050919050565b61232a81612316565b82525050565b5f6020820190506123435f830184612321565b92915050565b5f5f5f606084860312156123605761235f61213b565b5b5f61236d868287016122c4565b935050602061237e868287016122c4565b925050604061238f86828701612162565b9150509250925092565b5f60ff82169050919050565b6123ae81612399565b82525050565b5f6020820190506123c75f8301846123a5565b92915050565b5f5ffd5b5f5ffd5b5f5ffd5b5f5f83601f8401126123ee576123ed6123cd565b5b8235905067ffffffffffffffff81111561240b5761240a6123d1565b5b602083019150836020820283011115612427576124266123d5565b5b9250929050565b5f5f5f5f5f5f60a087890312156124485761244761213b565b5b5f61245589828a01612162565b965050602061246689828a01612162565b955050604087013567ffffffffffffffff8111156124875761248661213f565b5b61249389828a016123d9565b945094505060606124a689828a016122c4565b92505060806124b789828a01612162565b9150509295509295509295565b6124cd8161229d565b82525050565b5f6020820190506124e65f8301846124c4565b92915050565b5f602082840312156125015761250061213b565b5b5f61250e848285016122c4565b91505092915050565b5f5f6040838503121561252d5761252c61213b565b5b5f61253a858286016122c4565b925050602061254b858286016122c4565b9150509250929050565b5f5f5f5f5f5f5f60e0888a0312156125705761256f61213b565b5b5f61257d8a828b016122c4565b975050602061258e8a828b016122c4565b965050604061259f8a828b01612162565b95505060606125b08a828b01612162565b94505060806125c18a828b01612162565b93505060a06125d28a828b016122c4565b92505060c06125e38a828b01612162565b91505092959891949750929550565b5f6040820190506126055f8301856121c6565b61261260208301846121c6565b9392505050565b5f5f5f5f5f5f5f5f610100898b0312156126365761263561213b565b5b5f6126438b828c016122c4565b98505060206126548b828c016122c4565b97505060406126658b828c01612162565b96505060606126768b828c01612162565b95505060806126878b828c01612162565b94505060a06126988b828c01612162565b93505060c06126a98b828c016122c4565b92505060e06126ba8b828c01612162565b9150509295985092959890939650565b5f6060820190506126dd5f8301866121c6565b6126ea60208301856121c6565b6126f760408301846121c6565b949350505050565b7f5a65726f20696e707574000000000000000000000000000000000000000000005f82015250565b5f612733600a836121f8565b915061273e826126ff565b602082019050919050565b5f6020820190508181035f83015261276081612727565b9050919050565b7f456d7074792072657365727665730000000000000000000000000000000000005f82015250565b5f61279b600e836121f8565b91506127a682612767565b602082019050919050565b5f6020820190508181035f8301526127c88161278f565b9050919050565b7f4e487b71000000000000000000000000000000000000000000000000000000005f52601160045260245ffd5b5f61280682612143565b915061281183612143565b9250828201905080821115612829576128286127cf565b5b92915050565b5f61283982612143565b915061284483612143565b925082820261285281612143565b91508282048414831517612869576128686127cf565b5b5092915050565b7f4e487b71000000000000000000000000000000000000000000000000000000005f52601260045260245ffd5b5f6128a782612143565b91506128b283612143565b9250826128c2576128c1612870565b5b828204905092915050565b7f4e487b71000000000000000000000000000000000000000000000000000000005f52602260045260245ffd5b5f600282049050600182168061291157607f821691505b602082108103612924576129236128cd565b5b50919050565b7f45787069726564000000000000000000000000000000000000000000000000005f82015250565b5f61295e6007836121f8565b91506129698261292a565b602082019050919050565b5f6020820190508181035f83015261298b81612952565b9050919050565b7f4f6e6c7920322d746f6b656e20737761707300000000000000000000000000005f82015250565b5f6129c66012836121f8565b91506129d182612992565b602082019050919050565b5f6020820190508181035f8301526129f3816129ba565b9050919050565b7f4e487b71000000000000000000000000000000000000000000000000000000005f52603260045260245ffd5b7f496e76616c6964207377617020706174680000000000000000000000000000005f82015250565b5f612a5b6011836121f8565b9150612a6682612a27565b602082019050919050565b5f6020820190508181035f830152612a8881612a4f565b9050919050565b7f536c6970706167650000000000000000000000000000000000000000000000005f82015250565b5f612ac36008836121f8565b9150612ace82612a8f565b602082019050919050565b5f6020820190508181035f830152612af081612ab7565b9050919050565b5f612b0182612143565b9150612b0c83612143565b9250828203905081811115612b2457612b236127cf565b5b92915050565b7f496e76616c696420746f6b656e207061697200000000000000000000000000005f82015250565b5f612b5e6012836121f8565b9150612b6982612b2a565b602082019050919050565b5f6020820190508181035f830152612b8b81612b52565b9050919050565b7f4e6f2072657365727665730000000000000000000000000000000000000000005f82015250565b5f612bc6600b836121f8565b9150612bd182612b92565b602082019050919050565b5f6020820190508181035f830152612bf381612bba565b9050919050565b7f4e6f7420656e6f756768204c50000000000000000000000000000000000000005f82015250565b5f612c2e600d836121f8565b9150612c3982612bfa565b602082019050919050565b5f6020820190508181035f830152612c5b81612c22565b9050919050565b7f4c6f7720410000000000000000000000000000000000000000000000000000005f82015250565b5f612c966005836121f8565b9150612ca182612c62565b602082019050919050565b5f6020820190508181035f830152612cc381612c8a565b9050919050565b7f4c6f7720420000000000000000000000000000000000000000000000000000005f82015250565b5f612cfe6005836121f8565b9150612d0982612cca565b602082019050919050565b5f6020820190508181035f830152612d2b81612cf2565b9050919050565b7f546f6b656e73206d7573742064696666657200000000000000000000000000005f82015250565b5f612d666012836121f8565b9150612d7182612d32565b602082019050919050565b5f6020820190508181035f830152612d9381612d5a565b9050919050565b7f546f6f206d7563682042000000000000000000000000000000000000000000005f82015250565b5f612dce600a836121f8565b9150612dd982612d9a565b602082019050919050565b5f6020820190508181035f830152612dfb81612dc2565b9050919050565b7f5a65726f206c69717569646974790000000000000000000000000000000000005f82015250565b5f612e36600e836121f8565b9150612e4182612e02565b602082019050919050565b5f6020820190508181035f830152612e6381612e2a565b9050919050565b5f606082019050612e7d5f8301866124c4565b612e8a60208301856121c6565b612e9760408301846121c6565b949350505050565b5f606082019050612eb25f8301866124c4565b612ebf60208301856124c4565b612ecc60408301846121c6565b949350505050565b5f604082019050612ee75f8301856124c4565b612ef460208301846121c6565b939250505056fea264697066735822122055ec5cb15301e780f9377e5c9003466c5ec616da5cca2ad59ce88d00efbf6c4364736f6c634300081e0033",
			"opcodes": "PUSH1 0x80 PUSH1 0x40 MSTORE CALLVALUE DUP1 ISZERO PUSH2 0xF JUMPI PUSH0 PUSH0 REVERT JUMPDEST POP PUSH1 0x40 MLOAD DUP1 PUSH1 0x40 ADD PUSH1 0x40 MSTORE DUP1 PUSH1 0x9 DUP2 MSTORE PUSH1 0x20 ADD PUSH32 0x4C49515549444954590000000000000000000000000000000000000000000000 DUP2 MSTORE POP PUSH1 0x40 MLOAD DUP1 PUSH1 0x40 ADD PUSH1 0x40 MSTORE DUP1 PUSH1 0x2 DUP2 MSTORE PUSH1 0x20 ADD PUSH32 0x4C50000000000000000000000000000000000000000000000000000000000000 DUP2 MSTORE POP DUP2 PUSH1 0x3 SWAP1 DUP2 PUSH2 0x8B SWAP2 SWAP1 PUSH2 0x2E0 JUMP JUMPDEST POP DUP1 PUSH1 0x4 SWAP1 DUP2 PUSH2 0x9B SWAP2 SWAP1 PUSH2 0x2E0 JUMP JUMPDEST POP POP POP PUSH2 0x3AF JUMP JUMPDEST PUSH0 DUP2 MLOAD SWAP1 POP SWAP2 SWAP1 POP JUMP JUMPDEST PUSH32 0x4E487B7100000000000000000000000000000000000000000000000000000000 PUSH0 MSTORE PUSH1 0x41 PUSH1 0x4 MSTORE PUSH1 0x24 PUSH0 REVERT JUMPDEST PUSH32 0x4E487B7100000000000000000000000000000000000000000000000000000000 PUSH0 MSTORE PUSH1 0x22 PUSH1 0x4 MSTORE PUSH1 0x24 PUSH0 REVERT JUMPDEST PUSH0 PUSH1 0x2 DUP3 DIV SWAP1 POP PUSH1 0x1 DUP3 AND DUP1 PUSH2 0x11E JUMPI PUSH1 0x7F DUP3 AND SWAP2 POP JUMPDEST PUSH1 0x20 DUP3 LT DUP2 SUB PUSH2 0x131 JUMPI PUSH2 0x130 PUSH2 0xDA JUMP JUMPDEST JUMPDEST POP SWAP2 SWAP1 POP JUMP JUMPDEST PUSH0 DUP2 SWAP1 POP DUP2 PUSH0 MSTORE PUSH1 0x20 PUSH0 KECCAK256 SWAP1 POP SWAP2 SWAP1 POP JUMP JUMPDEST PUSH0 PUSH1 0x20 PUSH1 0x1F DUP4 ADD DIV SWAP1 POP SWAP2 SWAP1 POP JUMP JUMPDEST PUSH0 DUP3 DUP3 SHL SWAP1 POP SWAP3 SWAP2 POP POP JUMP JUMPDEST PUSH0 PUSH1 0x8 DUP4 MUL PUSH2 0x193 PUSH32 0xFFFFFFFFFFFFFFFFFFFFFFFFFFFFFFFFFFFFFFFFFFFFFFFFFFFFFFFFFFFFFFFF DUP3 PUSH2 0x158 JUMP JUMPDEST PUSH2 0x19D DUP7 DUP4 PUSH2 0x158 JUMP JUMPDEST SWAP6 POP DUP1 NOT DUP5 AND SWAP4 POP DUP1 DUP7 AND DUP5 OR SWAP3 POP POP POP SWAP4 SWAP3 POP POP POP JUMP JUMPDEST PUSH0 DUP2 SWAP1 POP SWAP2 SWAP1 POP JUMP JUMPDEST PUSH0 DUP2 SWAP1 POP SWAP2 SWAP1 POP JUMP JUMPDEST PUSH0 PUSH2 0x1E1 PUSH2 0x1DC PUSH2 0x1D7 DUP5 PUSH2 0x1B5 JUMP JUMPDEST PUSH2 0x1BE JUMP JUMPDEST PUSH2 0x1B5 JUMP JUMPDEST SWAP1 POP SWAP2 SWAP1 POP JUMP JUMPDEST PUSH0 DUP2 SWAP1 POP SWAP2 SWAP1 POP JUMP JUMPDEST PUSH2 0x1FA DUP4 PUSH2 0x1C7 JUMP JUMPDEST PUSH2 0x20E PUSH2 0x206 DUP3 PUSH2 0x1E8 JUMP JUMPDEST DUP5 DUP5 SLOAD PUSH2 0x164 JUMP JUMPDEST DUP3 SSTORE POP POP POP POP JUMP JUMPDEST PUSH0 PUSH0 SWAP1 POP SWAP1 JUMP JUMPDEST PUSH2 0x225 PUSH2 0x216 JUMP JUMPDEST PUSH2 0x230 DUP2 DUP5 DUP5 PUSH2 0x1F1 JUMP JUMPDEST POP POP POP JUMP JUMPDEST JUMPDEST DUP2 DUP2 LT ISZERO PUSH2 0x253 JUMPI PUSH2 0x248 PUSH0 DUP3 PUSH2 0x21D JUMP JUMPDEST PUSH1 0x1 DUP2 ADD SWAP1 POP PUSH2 0x236 JUMP JUMPDEST POP POP JUMP JUMPDEST PUSH1 0x1F DUP3 GT ISZERO PUSH2 0x298 JUMPI PUSH2 0x269 DUP2 PUSH2 0x137 JUMP JUMPDEST PUSH2 0x272 DUP5 PUSH2 0x149 JUMP JUMPDEST DUP2 ADD PUSH1 0x20 DUP6 LT ISZERO PUSH2 0x281 JUMPI DUP2 SWAP1 POP JUMPDEST PUSH2 0x295 PUSH2 0x28D DUP6 PUSH2 0x149 JUMP JUMPDEST DUP4 ADD DUP3 PUSH2 0x235 JUMP JUMPDEST POP POP JUMPDEST POP POP POP JUMP JUMPDEST PUSH0 DUP3 DUP3 SHR SWAP1 POP SWAP3 SWAP2 POP POP JUMP JUMPDEST PUSH0 PUSH2 0x2B8 PUSH0 NOT DUP5 PUSH1 0x8 MUL PUSH2 0x29D JUMP JUMPDEST NOT DUP1 DUP4 AND SWAP2 POP POP SWAP3 SWAP2 POP POP JUMP JUMPDEST PUSH0 PUSH2 0x2D0 DUP4 DUP4 PUSH2 0x2A9 JUMP JUMPDEST SWAP2 POP DUP3 PUSH1 0x2 MUL DUP3 OR SWAP1 POP SWAP3 SWAP2 POP POP JUMP JUMPDEST PUSH2 0x2E9 DUP3 PUSH2 0xA3 JUMP JUMPDEST PUSH8 0xFFFFFFFFFFFFFFFF DUP2 GT ISZERO PUSH2 0x302 JUMPI PUSH2 0x301 PUSH2 0xAD JUMP JUMPDEST JUMPDEST PUSH2 0x30C DUP3 SLOAD PUSH2 0x107 JUMP JUMPDEST PUSH2 0x317 DUP3 DUP3 DUP6 PUSH2 0x257 JUMP JUMPDEST PUSH0 PUSH1 0x20 SWAP1 POP PUSH1 0x1F DUP4 GT PUSH1 0x1 DUP2 EQ PUSH2 0x348 JUMPI PUSH0 DUP5 ISZERO PUSH2 0x336 JUMPI DUP3 DUP8 ADD MLOAD SWAP1 POP JUMPDEST PUSH2 0x340 DUP6 DUP3 PUSH2 0x2C5 JUMP JUMPDEST DUP7 SSTORE POP PUSH2 0x3A7 JUMP JUMPDEST PUSH1 0x1F NOT DUP5 AND PUSH2 0x356 DUP7 PUSH2 0x137 JUMP JUMPDEST PUSH0 JUMPDEST DUP3 DUP2 LT ISZERO PUSH2 0x37D JUMPI DUP5 DUP10 ADD MLOAD DUP3 SSTORE PUSH1 0x1 DUP3 ADD SWAP2 POP PUSH1 0x20 DUP6 ADD SWAP5 POP PUSH1 0x20 DUP2 ADD SWAP1 POP PUSH2 0x358 JUMP JUMPDEST DUP7 DUP4 LT ISZERO PUSH2 0x39A JUMPI DUP5 DUP10 ADD MLOAD PUSH2 0x396 PUSH1 0x1F DUP10 AND DUP3 PUSH2 0x2A9 JUMP JUMPDEST DUP4 SSTORE POP JUMPDEST PUSH1 0x1 PUSH1 0x2 DUP9 MUL ADD DUP9 SSTORE POP POP POP JUMPDEST POP POP POP POP POP POP JUMP JUMPDEST PUSH2 0x2F31 DUP1 PUSH2 0x3BC PUSH0 CODECOPY PUSH0 RETURN INVALID PUSH1 0x80 PUSH1 0x40 MSTORE CALLVALUE DUP1 ISZERO PUSH2 0xF JUMPI PUSH0 PUSH0 REVERT JUMPDEST POP PUSH1 0x4 CALLDATASIZE LT PUSH2 0x114 JUMPI PUSH0 CALLDATALOAD PUSH1 0xE0 SHR DUP1 PUSH4 0x70A08231 GT PUSH2 0xA0 JUMPI DUP1 PUSH4 0xBAA2ABDE GT PUSH2 0x6F JUMPI DUP1 PUSH4 0xBAA2ABDE EQ PUSH2 0x308 JUMPI DUP1 PUSH4 0xDC5FA6C5 EQ PUSH2 0x339 JUMPI DUP1 PUSH4 0xDD62ED3E EQ PUSH2 0x357 JUMPI DUP1 PUSH4 0xE8E33700 EQ PUSH2 0x387 JUMPI DUP1 PUSH4 0xEED86C96 EQ PUSH2 0x3B9 JUMPI PUSH2 0x114 JUMP JUMPDEST DUP1 PUSH4 0x70A08231 EQ PUSH2 0x25A JUMPI DUP1 PUSH4 0x95D89B41 EQ PUSH2 0x28A JUMPI DUP1 PUSH4 0xA9059CBB EQ PUSH2 0x2A8 JUMPI DUP1 PUSH4 0xAC41865A EQ PUSH2 0x2D8 JUMPI PUSH2 0x114 JUMP JUMPDEST DUP1 PUSH4 0x19E36F3B GT PUSH2 0xE7 JUMPI DUP1 PUSH4 0x19E36F3B EQ PUSH2 0x1B4 JUMPI DUP1 PUSH4 0x23B872DD EQ PUSH2 0x1D2 JUMPI DUP1 PUSH4 0x313CE567 EQ PUSH2 0x202 JUMPI DUP1 PUSH4 0x38ED1739 EQ PUSH2 0x220 JUMPI DUP1 PUSH4 0x50430CE4 EQ PUSH2 0x23C JUMPI PUSH2 0x114 JUMP JUMPDEST DUP1 PUSH4 0x54D50D4 EQ PUSH2 0x118 JUMPI DUP1 PUSH4 0x6FDDE03 EQ PUSH2 0x148 JUMPI DUP1 PUSH4 0x95EA7B3 EQ PUSH2 0x166 JUMPI DUP1 PUSH4 0x18160DDD EQ PUSH2 0x196 JUMPI JUMPDEST PUSH0 PUSH0 REVERT JUMPDEST PUSH2 0x132 PUSH1 0x4 DUP1 CALLDATASIZE SUB DUP2 ADD SWAP1 PUSH2 0x12D SWAP2 SWAP1 PUSH2 0x2176 JUMP JUMPDEST PUSH2 0x3D7 JUMP JUMPDEST PUSH1 0x40 MLOAD PUSH2 0x13F SWAP2 SWAP1 PUSH2 0x21D5 JUMP JUMPDEST PUSH1 0x40 MLOAD DUP1 SWAP2 SUB SWAP1 RETURN JUMPDEST PUSH2 0x150 PUSH2 0x492 JUMP JUMPDEST PUSH1 0x40 MLOAD PUSH2 0x15D SWAP2 SWAP1 PUSH2 0x225E JUMP JUMPDEST PUSH1 0x40 MLOAD DUP1 SWAP2 SUB SWAP1 RETURN JUMPDEST PUSH2 0x180 PUSH1 0x4 DUP1 CALLDATASIZE SUB DUP2 ADD SWAP1 PUSH2 0x17B SWAP2 SWAP1 PUSH2 0x22D8 JUMP JUMPDEST PUSH2 0x522 JUMP JUMPDEST PUSH1 0x40 MLOAD PUSH2 0x18D SWAP2 SWAP1 PUSH2 0x2330 JUMP JUMPDEST PUSH1 0x40 MLOAD DUP1 SWAP2 SUB SWAP1 RETURN JUMPDEST PUSH2 0x19E PUSH2 0x544 JUMP JUMPDEST PUSH1 0x40 MLOAD PUSH2 0x1AB SWAP2 SWAP1 PUSH2 0x21D5 JUMP JUMPDEST PUSH1 0x40 MLOAD DUP1 SWAP2 SUB SWAP1 RETURN JUMPDEST PUSH2 0x1BC PUSH2 0x54D JUMP JUMPDEST PUSH1 0x40 MLOAD PUSH2 0x1C9 SWAP2 SWAP1 PUSH2 0x21D5 JUMP JUMPDEST PUSH1 0x40 MLOAD DUP1 SWAP2 SUB SWAP1 RETURN JUMPDEST PUSH2 0x1EC PUSH1 0x4 DUP1 CALLDATASIZE SUB DUP2 ADD SWAP1 PUSH2 0x1E7 SWAP2 SWAP1 PUSH2 0x2349 JUMP JUMPDEST PUSH2 0x553 JUMP JUMPDEST PUSH1 0x40 MLOAD PUSH2 0x1F9 SWAP2 SWAP1 PUSH2 0x2330 JUMP JUMPDEST PUSH1 0x40 MLOAD DUP1 SWAP2 SUB SWAP1 RETURN JUMPDEST PUSH2 0x20A PUSH2 0x581 JUMP JUMPDEST PUSH1 0x40 MLOAD PUSH2 0x217 SWAP2 SWAP1 PUSH2 0x23B4 JUMP JUMPDEST PUSH1 0x40 MLOAD DUP1 SWAP2 SUB SWAP1 RETURN JUMPDEST PUSH2 0x23A PUSH1 0x4 DUP1 CALLDATASIZE SUB DUP2 ADD SWAP1 PUSH2 0x235 SWAP2 SWAP1 PUSH2 0x242E JUMP JUMPDEST PUSH2 0x589 JUMP JUMPDEST STOP JUMPDEST PUSH2 0x244 PUSH2 0x9F2 JUMP JUMPDEST PUSH1 0x40 MLOAD PUSH2 0x251 SWAP2 SWAP1 PUSH2 0x24D3 JUMP JUMPDEST PUSH1 0x40 MLOAD DUP1 SWAP2 SUB SWAP1 RETURN JUMPDEST PUSH2 0x274 PUSH1 0x4 DUP1 CALLDATASIZE SUB DUP2 ADD SWAP1 PUSH2 0x26F SWAP2 SWAP1 PUSH2 0x24EC JUMP JUMPDEST PUSH2 0xA17 JUMP JUMPDEST PUSH1 0x40 MLOAD PUSH2 0x281 SWAP2 SWAP1 PUSH2 0x21D5 JUMP JUMPDEST PUSH1 0x40 MLOAD DUP1 SWAP2 SUB SWAP1 RETURN JUMPDEST PUSH2 0x292 PUSH2 0xA5C JUMP JUMPDEST PUSH1 0x40 MLOAD PUSH2 0x29F SWAP2 SWAP1 PUSH2 0x225E JUMP JUMPDEST PUSH1 0x40 MLOAD DUP1 SWAP2 SUB SWAP1 RETURN JUMPDEST PUSH2 0x2C2 PUSH1 0x4 DUP1 CALLDATASIZE SUB DUP2 ADD SWAP1 PUSH2 0x2BD SWAP2 SWAP1 PUSH2 0x22D8 JUMP JUMPDEST PUSH2 0xAEC JUMP JUMPDEST PUSH1 0x40 MLOAD PUSH2 0x2CF SWAP2 SWAP1 PUSH2 0x2330 JUMP JUMPDEST PUSH1 0x40 MLOAD DUP1 SWAP2 SUB SWAP1 RETURN JUMPDEST PUSH2 0x2F2 PUSH1 0x4 DUP1 CALLDATASIZE SUB DUP2 ADD SWAP1 PUSH2 0x2ED SWAP2 SWAP1 PUSH2 0x2517 JUMP JUMPDEST PUSH2 0xB0E JUMP JUMPDEST PUSH1 0x40 MLOAD PUSH2 0x2FF SWAP2 SWAP1 PUSH2 0x21D5 JUMP JUMPDEST PUSH1 0x40 MLOAD DUP1 SWAP2 SUB SWAP1 RETURN JUMPDEST PUSH2 0x322 PUSH1 0x4 DUP1 CALLDATASIZE SUB DUP2 ADD SWAP1 PUSH2 0x31D SWAP2 SWAP1 PUSH2 0x2555 JUMP JUMPDEST PUSH2 0xD21 JUMP JUMPDEST PUSH1 0x40 MLOAD PUSH2 0x330 SWAP3 SWAP2 SWAP1 PUSH2 0x25F2 JUMP JUMPDEST PUSH1 0x40 MLOAD DUP1 SWAP2 SUB SWAP1 RETURN JUMPDEST PUSH2 0x341 PUSH2 0x10ED JUMP JUMPDEST PUSH1 0x40 MLOAD PUSH2 0x34E SWAP2 SWAP1 PUSH2 0x21D5 JUMP JUMPDEST PUSH1 0x40 MLOAD DUP1 SWAP2 SUB SWAP1 RETURN JUMPDEST PUSH2 0x371 PUSH1 0x4 DUP1 CALLDATASIZE SUB DUP2 ADD SWAP1 PUSH2 0x36C SWAP2 SWAP1 PUSH2 0x2517 JUMP JUMPDEST PUSH2 0x10F3 JUMP JUMPDEST PUSH1 0x40 MLOAD PUSH2 0x37E SWAP2 SWAP1 PUSH2 0x21D5 JUMP JUMPDEST PUSH1 0x40 MLOAD DUP1 SWAP2 SUB SWAP1 RETURN JUMPDEST PUSH2 0x3A1 PUSH1 0x4 DUP1 CALLDATASIZE SUB DUP2 ADD SWAP1 PUSH2 0x39C SWAP2 SWAP1 PUSH2 0x2619 JUMP JUMPDEST PUSH2 0x1175 JUMP JUMPDEST PUSH1 0x40 MLOAD PUSH2 0x3B0 SWAP4 SWAP3 SWAP2 SWAP1 PUSH2 0x26CA JUMP JUMPDEST PUSH1 0x40 MLOAD DUP1 SWAP2 SUB SWAP1 RETURN JUMPDEST PUSH2 0x3C1 PUSH2 0x1753 JUMP JUMPDEST PUSH1 0x40 MLOAD PUSH2 0x3CE SWAP2 SWAP1 PUSH2 0x24D3 JUMP JUMPDEST PUSH1 0x40 MLOAD DUP1 SWAP2 SUB SWAP1 RETURN JUMPDEST PUSH0 PUSH0 DUP5 GT PUSH2 0x41A JUMPI PUSH1 0x40 MLOAD PUSH32 0x8C379A000000000000000000000000000000000000000000000000000000000 DUP2 MSTORE PUSH1 0x4 ADD PUSH2 0x411 SWAP1 PUSH2 0x2749 JUMP JUMPDEST PUSH1 0x40 MLOAD DUP1 SWAP2 SUB SWAP1 REVERT JUMPDEST PUSH0 DUP4 GT DUP1 ISZERO PUSH2 0x428 JUMPI POP PUSH0 DUP3 GT JUMPDEST PUSH2 0x467 JUMPI PUSH1 0x40 MLOAD PUSH32 0x8C379A000000000000000000000000000000000000000000000000000000000 DUP2 MSTORE PUSH1 0x4 ADD PUSH2 0x45E SWAP1 PUSH2 0x27B1 JUMP JUMPDEST PUSH1 0x40 MLOAD DUP1 SWAP2 SUB SWAP1 REVERT JUMPDEST DUP4 DUP4 PUSH2 0x473 SWAP2 SWAP1 PUSH2 0x27FC JUMP JUMPDEST DUP3 DUP6 PUSH2 0x47F SWAP2 SWAP1 PUSH2 0x282F JUMP JUMPDEST PUSH2 0x489 SWAP2 SWAP1 PUSH2 0x289D JUMP JUMPDEST SWAP1 POP SWAP4 SWAP3 POP POP POP JUMP JUMPDEST PUSH1 0x60 PUSH1 0x3 DUP1 SLOAD PUSH2 0x4A1 SWAP1 PUSH2 0x28FA JUMP JUMPDEST DUP1 PUSH1 0x1F ADD PUSH1 0x20 DUP1 SWAP2 DIV MUL PUSH1 0x20 ADD PUSH1 0x40 MLOAD SWAP1 DUP2 ADD PUSH1 0x40 MSTORE DUP1 SWAP3 SWAP2 SWAP1 DUP2 DUP2 MSTORE PUSH1 0x20 ADD DUP3 DUP1 SLOAD PUSH2 0x4CD SWAP1 PUSH2 0x28FA JUMP JUMPDEST DUP1 ISZERO PUSH2 0x518 JUMPI DUP1 PUSH1 0x1F LT PUSH2 0x4EF JUMPI PUSH2 0x100 DUP1 DUP4 SLOAD DIV MUL DUP4 MSTORE SWAP2 PUSH1 0x20 ADD SWAP2 PUSH2 0x518 JUMP JUMPDEST DUP3 ADD SWAP2 SWAP1 PUSH0 MSTORE PUSH1 0x20 PUSH0 KECCAK256 SWAP1 JUMPDEST DUP2 SLOAD DUP2 MSTORE SWAP1 PUSH1 0x1 ADD SWAP1 PUSH1 0x20 ADD DUP1 DUP4 GT PUSH2 0x4FB JUMPI DUP3 SWAP1 SUB PUSH1 0x1F AND DUP3 ADD SWAP2 JUMPDEST POP POP POP POP POP SWAP1 POP SWAP1 JUMP JUMPDEST PUSH0 PUSH0 PUSH2 0x52C PUSH2 0x1778 JUMP JUMPDEST SWAP1 POP PUSH2 0x539 DUP2 DUP6 DUP6 PUSH2 0x177F JUMP JUMPDEST PUSH1 0x1 SWAP2 POP POP SWAP3 SWAP2 POP POP JUMP JUMPDEST PUSH0 PUSH1 0x2 SLOAD SWAP1 POP SWAP1 JUMP JUMPDEST PUSH1 0x8 SLOAD DUP2 JUMP JUMPDEST PUSH0 PUSH0 PUSH2 0x55D PUSH2 0x1778 JUMP JUMPDEST SWAP1 POP PUSH2 0x56A DUP6 DUP3 DUP6 PUSH2 0x1791 JUMP JUMPDEST PUSH2 0x575 DUP6 DUP6 DUP6 PUSH2 0x1824 JUMP JUMPDEST PUSH1 0x1 SWAP2 POP POP SWAP4 SWAP3 POP POP POP JUMP JUMPDEST PUSH0 PUSH1 0x12 SWAP1 POP SWAP1 JUMP JUMPDEST DUP1 TIMESTAMP GT ISZERO PUSH2 0x5CC JUMPI PUSH1 0x40 MLOAD PUSH32 0x8C379A000000000000000000000000000000000000000000000000000000000 DUP2 MSTORE PUSH1 0x4 ADD PUSH2 0x5C3 SWAP1 PUSH2 0x2974 JUMP JUMPDEST PUSH1 0x40 MLOAD DUP1 SWAP2 SUB SWAP1 REVERT JUMPDEST PUSH1 0x2 DUP5 DUP5 SWAP1 POP EQ PUSH2 0x612 JUMPI PUSH1 0x40 MLOAD PUSH32 0x8C379A000000000000000000000000000000000000000000000000000000000 DUP2 MSTORE PUSH1 0x4 ADD PUSH2 0x609 SWAP1 PUSH2 0x29DC JUMP JUMPDEST PUSH1 0x40 MLOAD DUP1 SWAP2 SUB SWAP1 REVERT JUMPDEST PUSH0 DUP5 DUP5 PUSH0 DUP2 DUP2 LT PUSH2 0x626 JUMPI PUSH2 0x625 PUSH2 0x29FA JUMP JUMPDEST JUMPDEST SWAP1 POP PUSH1 0x20 MUL ADD PUSH1 0x20 DUP2 ADD SWAP1 PUSH2 0x63B SWAP2 SWAP1 PUSH2 0x24EC JUMP JUMPDEST SWAP1 POP PUSH0 DUP6 DUP6 PUSH1 0x1 DUP2 DUP2 LT PUSH2 0x652 JUMPI PUSH2 0x651 PUSH2 0x29FA JUMP JUMPDEST JUMPDEST SWAP1 POP PUSH1 0x20 MUL ADD PUSH1 0x20 DUP2 ADD SWAP1 PUSH2 0x667 SWAP2 SWAP1 PUSH2 0x24EC JUMP JUMPDEST SWAP1 POP PUSH1 0x5 PUSH0 SWAP1 SLOAD SWAP1 PUSH2 0x100 EXP SWAP1 DIV PUSH20 0xFFFFFFFFFFFFFFFFFFFFFFFFFFFFFFFFFFFFFFFF AND PUSH20 0xFFFFFFFFFFFFFFFFFFFFFFFFFFFFFFFFFFFFFFFF AND DUP3 PUSH20 0xFFFFFFFFFFFFFFFFFFFFFFFFFFFFFFFFFFFFFFFF AND EQ DUP1 ISZERO PUSH2 0x711 JUMPI POP PUSH1 0x6 PUSH0 SWAP1 SLOAD SWAP1 PUSH2 0x100 EXP SWAP1 DIV PUSH20 0xFFFFFFFFFFFFFFFFFFFFFFFFFFFFFFFFFFFFFFFF AND PUSH20 0xFFFFFFFFFFFFFFFFFFFFFFFFFFFFFFFFFFFFFFFF AND DUP2 PUSH20 0xFFFFFFFFFFFFFFFFFFFFFFFFFFFFFFFFFFFFFFFF AND EQ JUMPDEST DUP1 PUSH2 0x7C0 JUMPI POP PUSH1 0x6 PUSH0 SWAP1 SLOAD SWAP1 PUSH2 0x100 EXP SWAP1 DIV PUSH20 0xFFFFFFFFFFFFFFFFFFFFFFFFFFFFFFFFFFFFFFFF AND PUSH20 0xFFFFFFFFFFFFFFFFFFFFFFFFFFFFFFFFFFFFFFFF AND DUP3 PUSH20 0xFFFFFFFFFFFFFFFFFFFFFFFFFFFFFFFFFFFFFFFF AND EQ DUP1 ISZERO PUSH2 0x7BF JUMPI POP PUSH1 0x5 PUSH0 SWAP1 SLOAD SWAP1 PUSH2 0x100 EXP SWAP1 DIV PUSH20 0xFFFFFFFFFFFFFFFFFFFFFFFFFFFFFFFFFFFFFFFF AND PUSH20 0xFFFFFFFFFFFFFFFFFFFFFFFFFFFFFFFFFFFFFFFF AND DUP2 PUSH20 0xFFFFFFFFFFFFFFFFFFFFFFFFFFFFFFFFFFFFFFFF AND EQ JUMPDEST JUMPDEST PUSH2 0x7FF JUMPI PUSH1 0x40 MLOAD PUSH32 0x8C379A000000000000000000000000000000000000000000000000000000000 DUP2 MSTORE PUSH1 0x4 ADD PUSH2 0x7F6 SWAP1 PUSH2 0x2A71 JUMP JUMPDEST PUSH1 0x40 MLOAD DUP1 SWAP2 SUB SWAP1 REVERT JUMPDEST PUSH0 PUSH0 PUSH1 0x5 PUSH0 SWAP1 SLOAD SWAP1 PUSH2 0x100 EXP SWAP1 DIV PUSH20 0xFFFFFFFFFFFFFFFFFFFFFFFFFFFFFFFFFFFFFFFF AND PUSH20 0xFFFFFFFFFFFFFFFFFFFFFFFFFFFFFFFFFFFFFFFF AND DUP5 PUSH20 0xFFFFFFFFFFFFFFFFFFFFFFFFFFFFFFFFFFFFFFFF AND EQ PUSH2 0x860 JUMPI PUSH1 0x8 SLOAD PUSH1 0x7 SLOAD PUSH2 0x867 JUMP JUMPDEST PUSH1 0x7 SLOAD PUSH1 0x8 SLOAD JUMPDEST SWAP2 POP SWAP2 POP PUSH2 0x898 CALLER ADDRESS DUP13 DUP8 PUSH20 0xFFFFFFFFFFFFFFFFFFFFFFFFFFFFFFFFFFFFFFFF AND PUSH2 0x1914 SWAP1 SWAP4 SWAP3 SWAP2 SWAP1 PUSH4 0xFFFFFFFF AND JUMP JUMPDEST PUSH0 DUP11 DUP4 PUSH2 0x8A5 SWAP2 SWAP1 PUSH2 0x27FC JUMP JUMPDEST DUP3 DUP13 PUSH2 0x8B1 SWAP2 SWAP1 PUSH2 0x282F JUMP JUMPDEST PUSH2 0x8BB SWAP2 SWAP1 PUSH2 0x289D JUMP JUMPDEST SWAP1 POP DUP10 DUP2 LT ISZERO PUSH2 0x900 JUMPI PUSH1 0x40 MLOAD PUSH32 0x8C379A000000000000000000000000000000000000000000000000000000000 DUP2 MSTORE PUSH1 0x4 ADD PUSH2 0x8F7 SWAP1 PUSH2 0x2AD9 JUMP JUMPDEST PUSH1 0x40 MLOAD DUP1 SWAP2 SUB SWAP1 REVERT JUMPDEST PUSH1 0x5 PUSH0 SWAP1 SLOAD SWAP1 PUSH2 0x100 EXP SWAP1 DIV PUSH20 0xFFFFFFFFFFFFFFFFFFFFFFFFFFFFFFFFFFFFFFFF AND PUSH20 0xFFFFFFFFFFFFFFFFFFFFFFFFFFFFFFFFFFFFFFFF AND DUP6 PUSH20 0xFFFFFFFFFFFFFFFFFFFFFFFFFFFFFFFFFFFFFFFF AND SUB PUSH2 0x989 JUMPI DUP11 PUSH1 0x7 PUSH0 DUP3 DUP3 SLOAD PUSH2 0x965 SWAP2 SWAP1 PUSH2 0x27FC JUMP JUMPDEST SWAP3 POP POP DUP2 SWAP1 SSTORE POP DUP1 PUSH1 0x8 PUSH0 DUP3 DUP3 SLOAD PUSH2 0x97D SWAP2 SWAP1 PUSH2 0x2AF7 JUMP JUMPDEST SWAP3 POP POP DUP2 SWAP1 SSTORE POP PUSH2 0x9BA JUMP JUMPDEST DUP11 PUSH1 0x8 PUSH0 DUP3 DUP3 SLOAD PUSH2 0x99A SWAP2 SWAP1 PUSH2 0x27FC JUMP JUMPDEST SWAP3 POP POP DUP2 SWAP1 SSTORE POP DUP1 PUSH1 0x7 PUSH0 DUP3 DUP3 SLOAD PUSH2 0x9B2 SWAP2 SWAP1 PUSH2 0x2AF7 JUMP JUMPDEST SWAP3 POP POP DUP2 SWAP1 SSTORE POP JUMPDEST PUSH2 0x9E5 DUP8 DUP3 DUP7 PUSH20 0xFFFFFFFFFFFFFFFFFFFFFFFFFFFFFFFFFFFFFFFF AND PUSH2 0x1996 SWAP1 SWAP3 SWAP2 SWAP1 PUSH4 0xFFFFFFFF AND JUMP JUMPDEST POP POP POP POP POP POP POP POP POP POP POP JUMP JUMPDEST PUSH1 0x5 PUSH0 SWAP1 SLOAD SWAP1 PUSH2 0x100 EXP SWAP1 DIV PUSH20 0xFFFFFFFFFFFFFFFFFFFFFFFFFFFFFFFFFFFFFFFF AND DUP2 JUMP JUMPDEST PUSH0 PUSH0 PUSH0 DUP4 PUSH20 0xFFFFFFFFFFFFFFFFFFFFFFFFFFFFFFFFFFFFFFFF AND PUSH20 0xFFFFFFFFFFFFFFFFFFFFFFFFFFFFFFFFFFFFFFFF AND DUP2 MSTORE PUSH1 0x20 ADD SWAP1 DUP2 MSTORE PUSH1 0x20 ADD PUSH0 KECCAK256 SLOAD SWAP1 POP SWAP2 SWAP1 POP JUMP JUMPDEST PUSH1 0x60 PUSH1 0x4 DUP1 SLOAD PUSH2 0xA6B SWAP1 PUSH2 0x28FA JUMP JUMPDEST DUP1 PUSH1 0x1F ADD PUSH1 0x20 DUP1 SWAP2 DIV MUL PUSH1 0x20 ADD PUSH1 0x40 MLOAD SWAP1 DUP2 ADD PUSH1 0x40 MSTORE DUP1 SWAP3 SWAP2 SWAP1 DUP2 DUP2 MSTORE PUSH1 0x20 ADD DUP3 DUP1 SLOAD PUSH2 0xA97 SWAP1 PUSH2 0x28FA JUMP JUMPDEST DUP1 ISZERO PUSH2 0xAE2 JUMPI DUP1 PUSH1 0x1F LT PUSH2 0xAB9 JUMPI PUSH2 0x100 DUP1 DUP4 SLOAD DIV MUL DUP4 MSTORE SWAP2 PUSH1 0x20 ADD SWAP2 PUSH2 0xAE2 JUMP JUMPDEST DUP3 ADD SWAP2 SWAP1 PUSH0 MSTORE PUSH1 0x20 PUSH0 KECCAK256 SWAP1 JUMPDEST DUP2 SLOAD DUP2 MSTORE SWAP1 PUSH1 0x1 ADD SWAP1 PUSH1 0x20 ADD DUP1 DUP4 GT PUSH2 0xAC5 JUMPI DUP3 SWAP1 SUB PUSH1 0x1F AND DUP3 ADD SWAP2 JUMPDEST POP POP POP POP POP SWAP1 POP SWAP1 JUMP JUMPDEST PUSH0 PUSH0 PUSH2 0xAF6 PUSH2 0x1778 JUMP JUMPDEST SWAP1 POP PUSH2 0xB03 DUP2 DUP6 DUP6 PUSH2 0x1824 JUMP JUMPDEST PUSH1 0x1 SWAP2 POP POP SWAP3 SWAP2 POP POP JUMP JUMPDEST PUSH0 PUSH1 0x5 PUSH0 SWAP1 SLOAD SWAP1 PUSH2 0x100 EXP SWAP1 DIV PUSH20 0xFFFFFFFFFFFFFFFFFFFFFFFFFFFFFFFFFFFFFFFF AND PUSH20 0xFFFFFFFFFFFFFFFFFFFFFFFFFFFFFFFFFFFFFFFF AND DUP4 PUSH20 0xFFFFFFFFFFFFFFFFFFFFFFFFFFFFFFFFFFFFFFFF AND EQ DUP1 ISZERO PUSH2 0xBB7 JUMPI POP PUSH1 0x6 PUSH0 SWAP1 SLOAD SWAP1 PUSH2 0x100 EXP SWAP1 DIV PUSH20 0xFFFFFFFFFFFFFFFFFFFFFFFFFFFFFFFFFFFFFFFF AND PUSH20 0xFFFFFFFFFFFFFFFFFFFFFFFFFFFFFFFFFFFFFFFF AND DUP3 PUSH20 0xFFFFFFFFFFFFFFFFFFFFFFFFFFFFFFFFFFFFFFFF AND EQ JUMPDEST DUP1 PUSH2 0xC66 JUMPI POP PUSH1 0x6 PUSH0 SWAP1 SLOAD SWAP1 PUSH2 0x100 EXP SWAP1 DIV PUSH20 0xFFFFFFFFFFFFFFFFFFFFFFFFFFFFFFFFFFFFFFFF AND PUSH20 0xFFFFFFFFFFFFFFFFFFFFFFFFFFFFFFFFFFFFFFFF AND DUP4 PUSH20 0xFFFFFFFFFFFFFFFFFFFFFFFFFFFFFFFFFFFFFFFF AND EQ DUP1 ISZERO PUSH2 0xC65 JUMPI POP PUSH1 0x5 PUSH0 SWAP1 SLOAD SWAP1 PUSH2 0x100 EXP SWAP1 DIV PUSH20 0xFFFFFFFFFFFFFFFFFFFFFFFFFFFFFFFFFFFFFFFF AND PUSH20 0xFFFFFFFFFFFFFFFFFFFFFFFFFFFFFFFFFFFFFFFF AND DUP3 PUSH20 0xFFFFFFFFFFFFFFFFFFFFFFFFFFFFFFFFFFFFFFFF AND EQ JUMPDEST JUMPDEST PUSH2 0xCA5 JUMPI PUSH1 0x40 MLOAD PUSH32 0x8C379A000000000000000000000000000000000000000000000000000000000 DUP2 MSTORE PUSH1 0x4 ADD PUSH2 0xC9C SWAP1 PUSH2 0x2B74 JUMP JUMPDEST PUSH1 0x40 MLOAD DUP1 SWAP2 SUB SWAP1 REVERT JUMPDEST PUSH0 PUSH1 0x7 SLOAD GT DUP1 ISZERO PUSH2 0xCB7 JUMPI POP PUSH0 PUSH1 0x8 SLOAD GT JUMPDEST PUSH2 0xCF6 JUMPI PUSH1 0x40 MLOAD PUSH32 0x8C379A000000000000000000000000000000000000000000000000000000000 DUP2 MSTORE PUSH1 0x4 ADD PUSH2 0xCED SWAP1 PUSH2 0x2BDC JUMP JUMPDEST PUSH1 0x40 MLOAD DUP1 SWAP2 SUB SWAP1 REVERT JUMPDEST PUSH1 0x7 SLOAD PUSH8 0xDE0B6B3A7640000 PUSH1 0x8 SLOAD PUSH2 0xD0F SWAP2 SWAP1 PUSH2 0x282F JUMP JUMPDEST PUSH2 0xD19 SWAP2 SWAP1 PUSH2 0x289D JUMP JUMPDEST SWAP1 POP SWAP3 SWAP2 POP POP JUMP JUMPDEST PUSH0 PUSH0 DUP3 TIMESTAMP GT ISZERO PUSH2 0xD66 JUMPI PUSH1 0x40 MLOAD PUSH32 0x8C379A000000000000000000000000000000000000000000000000000000000 DUP2 MSTORE PUSH1 0x4 ADD PUSH2 0xD5D SWAP1 PUSH2 0x2974 JUMP JUMPDEST PUSH1 0x40 MLOAD DUP1 SWAP2 SUB SWAP1 REVERT JUMPDEST PUSH1 0x5 PUSH0 SWAP1 SLOAD SWAP1 PUSH2 0x100 EXP SWAP1 DIV PUSH20 0xFFFFFFFFFFFFFFFFFFFFFFFFFFFFFFFFFFFFFFFF AND PUSH20 0xFFFFFFFFFFFFFFFFFFFFFFFFFFFFFFFFFFFFFFFF AND DUP10 PUSH20 0xFFFFFFFFFFFFFFFFFFFFFFFFFFFFFFFFFFFFFFFF AND EQ DUP1 ISZERO PUSH2 0xE0E JUMPI POP PUSH1 0x6 PUSH0 SWAP1 SLOAD SWAP1 PUSH2 0x100 EXP SWAP1 DIV PUSH20 0xFFFFFFFFFFFFFFFFFFFFFFFFFFFFFFFFFFFFFFFF AND PUSH20 0xFFFFFFFFFFFFFFFFFFFFFFFFFFFFFFFFFFFFFFFF AND DUP9 PUSH20 0xFFFFFFFFFFFFFFFFFFFFFFFFFFFFFFFFFFFFFFFF AND EQ JUMPDEST DUP1 PUSH2 0xEBD JUMPI POP PUSH1 0x6 PUSH0 SWAP1 SLOAD SWAP1 PUSH2 0x100 EXP SWAP1 DIV PUSH20 0xFFFFFFFFFFFFFFFFFFFFFFFFFFFFFFFFFFFFFFFF AND PUSH20 0xFFFFFFFFFFFFFFFFFFFFFFFFFFFFFFFFFFFFFFFF AND DUP10 PUSH20 0xFFFFFFFFFFFFFFFFFFFFFFFFFFFFFFFFFFFFFFFF AND EQ DUP1 ISZERO PUSH2 0xEBC JUMPI POP PUSH1 0x5 PUSH0 SWAP1 SLOAD SWAP1 PUSH2 0x100 EXP SWAP1 DIV PUSH20 0xFFFFFFFFFFFFFFFFFFFFFFFFFFFFFFFFFFFFFFFF AND PUSH20 0xFFFFFFFFFFFFFFFFFFFFFFFFFFFFFFFFFFFFFFFF AND DUP9 PUSH20 0xFFFFFFFFFFFFFFFFFFFFFFFFFFFFFFFFFFFFFFFF AND EQ JUMPDEST JUMPDEST PUSH2 0xEFC JUMPI PUSH1 0x40 MLOAD PUSH32 0x8C379A000000000000000000000000000000000000000000000000000000000 DUP2 MSTORE PUSH1 0x4 ADD PUSH2 0xEF3 SWAP1 PUSH2 0x2B74 JUMP JUMPDEST PUSH1 0x40 MLOAD DUP1 SWAP2 SUB SWAP1 REVERT JUMPDEST PUSH0 PUSH2 0xF05 PUSH2 0x544 JUMP JUMPDEST SWAP1 POP DUP8 PUSH2 0xF11 CALLER PUSH2 0xA17 JUMP JUMPDEST LT ISZERO PUSH2 0xF52 JUMPI PUSH1 0x40 MLOAD PUSH32 0x8C379A000000000000000000000000000000000000000000000000000000000 DUP2 MSTORE PUSH1 0x4 ADD PUSH2 0xF49 SWAP1 PUSH2 0x2C44 JUMP JUMPDEST PUSH1 0x40 MLOAD DUP1 SWAP2 SUB SWAP1 REVERT JUMPDEST DUP1 PUSH1 0x7 SLOAD DUP10 PUSH2 0xF61 SWAP2 SWAP1 PUSH2 0x282F JUMP JUMPDEST PUSH2 0xF6B SWAP2 SWAP1 PUSH2 0x289D JUMP JUMPDEST SWAP3 POP DUP1 PUSH1 0x8 SLOAD DUP10 PUSH2 0xF7C SWAP2 SWAP1 PUSH2 0x282F JUMP JUMPDEST PUSH2 0xF86 SWAP2 SWAP1 PUSH2 0x289D JUMP JUMPDEST SWAP2 POP DUP7 DUP4 LT ISZERO PUSH2 0xFCB JUMPI PUSH1 0x40 MLOAD PUSH32 0x8C379A000000000000000000000000000000000000000000000000000000000 DUP2 MSTORE PUSH1 0x4 ADD PUSH2 0xFC2 SWAP1 PUSH2 0x2CAC JUMP JUMPDEST PUSH1 0x40 MLOAD DUP1 SWAP2 SUB SWAP1 REVERT JUMPDEST DUP6 DUP3 LT ISZERO PUSH2 0x100E JUMPI PUSH1 0x40 MLOAD PUSH32 0x8C379A000000000000000000000000000000000000000000000000000000000 DUP2 MSTORE PUSH1 0x4 ADD PUSH2 0x1005 SWAP1 PUSH2 0x2D14 JUMP JUMPDEST PUSH1 0x40 MLOAD DUP1 SWAP2 SUB SWAP1 REVERT JUMPDEST PUSH2 0x1018 CALLER DUP10 PUSH2 0x1A15 JUMP JUMPDEST DUP3 PUSH1 0x7 PUSH0 DUP3 DUP3 SLOAD PUSH2 0x1029 SWAP2 SWAP1 PUSH2 0x2AF7 JUMP JUMPDEST SWAP3 POP POP DUP2 SWAP1 SSTORE POP DUP2 PUSH1 0x8 PUSH0 DUP3 DUP3 SLOAD PUSH2 0x1041 SWAP2 SWAP1 PUSH2 0x2AF7 JUMP JUMPDEST SWAP3 POP POP DUP2 SWAP1 SSTORE POP PUSH2 0x1094 DUP6 DUP5 PUSH1 0x5 PUSH0 SWAP1 SLOAD SWAP1 PUSH2 0x100 EXP SWAP1 DIV PUSH20 0xFFFFFFFFFFFFFFFFFFFFFFFFFFFFFFFFFFFFFFFF AND PUSH20 0xFFFFFFFFFFFFFFFFFFFFFFFFFFFFFFFFFFFFFFFF AND PUSH2 0x1996 SWAP1 SWAP3 SWAP2 SWAP1 PUSH4 0xFFFFFFFF AND JUMP JUMPDEST PUSH2 0x10E0 DUP6 DUP4 PUSH1 0x6 PUSH0 SWAP1 SLOAD SWAP1 PUSH2 0x100 EXP SWAP1 DIV PUSH20 0xFFFFFFFFFFFFFFFFFFFFFFFFFFFFFFFFFFFFFFFF AND PUSH20 0xFFFFFFFFFFFFFFFFFFFFFFFFFFFFFFFFFFFFFFFF AND PUSH2 0x1996 SWAP1 SWAP3 SWAP2 SWAP1 PUSH4 0xFFFFFFFF AND JUMP JUMPDEST POP SWAP8 POP SWAP8 SWAP6 POP POP POP POP POP POP JUMP JUMPDEST PUSH1 0x7 SLOAD DUP2 JUMP JUMPDEST PUSH0 PUSH1 0x1 PUSH0 DUP5 PUSH20 0xFFFFFFFFFFFFFFFFFFFFFFFFFFFFFFFFFFFFFFFF AND PUSH20 0xFFFFFFFFFFFFFFFFFFFFFFFFFFFFFFFFFFFFFFFF AND DUP2 MSTORE PUSH1 0x20 ADD SWAP1 DUP2 MSTORE PUSH1 0x20 ADD PUSH0 KECCAK256 PUSH0 DUP4 PUSH20 0xFFFFFFFFFFFFFFFFFFFFFFFFFFFFFFFFFFFFFFFF AND PUSH20 0xFFFFFFFFFFFFFFFFFFFFFFFFFFFFFFFFFFFFFFFF AND DUP2 MSTORE PUSH1 0x20 ADD SWAP1 DUP2 MSTORE PUSH1 0x20 ADD PUSH0 KECCAK256 SLOAD SWAP1 POP SWAP3 SWAP2 POP POP JUMP JUMPDEST PUSH0 PUSH0 PUSH0 DUP4 TIMESTAMP GT ISZERO PUSH2 0x11BB JUMPI PUSH1 0x40 MLOAD PUSH32 0x8C379A000000000000000000000000000000000000000000000000000000000 DUP2 MSTORE PUSH1 0x4 ADD PUSH2 0x11B2 SWAP1 PUSH2 0x2974 JUMP JUMPDEST PUSH1 0x40 MLOAD DUP1 SWAP2 SUB SWAP1 REVERT JUMPDEST PUSH0 PUSH20 0xFFFFFFFFFFFFFFFFFFFFFFFFFFFFFFFFFFFFFFFF AND PUSH1 0x5 PUSH0 SWAP1 SLOAD SWAP1 PUSH2 0x100 EXP SWAP1 DIV PUSH20 0xFFFFFFFFFFFFFFFFFFFFFFFFFFFFFFFFFFFFFFFF AND PUSH20 0xFFFFFFFFFFFFFFFFFFFFFFFFFFFFFFFFFFFFFFFF AND EQ DUP1 ISZERO PUSH2 0x1263 JUMPI POP PUSH0 PUSH20 0xFFFFFFFFFFFFFFFFFFFFFFFFFFFFFFFFFFFFFFFF AND PUSH1 0x6 PUSH0 SWAP1 SLOAD SWAP1 PUSH2 0x100 EXP SWAP1 DIV PUSH20 0xFFFFFFFFFFFFFFFFFFFFFFFFFFFFFFFFFFFFFFFF AND PUSH20 0xFFFFFFFFFFFFFFFFFFFFFFFFFFFFFFFFFFFFFFFF AND EQ JUMPDEST ISZERO PUSH2 0x135B JUMPI DUP10 PUSH20 0xFFFFFFFFFFFFFFFFFFFFFFFFFFFFFFFFFFFFFFFF AND DUP12 PUSH20 0xFFFFFFFFFFFFFFFFFFFFFFFFFFFFFFFFFFFFFFFF AND SUB PUSH2 0x12D6 JUMPI PUSH1 0x40 MLOAD PUSH32 0x8C379A000000000000000000000000000000000000000000000000000000000 DUP2 MSTORE PUSH1 0x4 ADD PUSH2 0x12CD SWAP1 PUSH2 0x2D7C JUMP JUMPDEST PUSH1 0x40 MLOAD DUP1 SWAP2 SUB SWAP1 REVERT JUMPDEST DUP11 PUSH1 0x5 PUSH0 PUSH2 0x100 EXP DUP2 SLOAD DUP2 PUSH20 0xFFFFFFFFFFFFFFFFFFFFFFFFFFFFFFFFFFFFFFFF MUL NOT AND SWAP1 DUP4 PUSH20 0xFFFFFFFFFFFFFFFFFFFFFFFFFFFFFFFFFFFFFFFF AND MUL OR SWAP1 SSTORE POP DUP10 PUSH1 0x6 PUSH0 PUSH2 0x100 EXP DUP2 SLOAD DUP2 PUSH20 0xFFFFFFFFFFFFFFFFFFFFFFFFFFFFFFFFFFFFFFFF MUL NOT AND SWAP1 DUP4 PUSH20 0xFFFFFFFFFFFFFFFFFFFFFFFFFFFFFFFFFFFFFFFF AND MUL OR SWAP1 SSTORE POP PUSH2 0x14F2 JUMP JUMPDEST PUSH1 0x5 PUSH0 SWAP1 SLOAD SWAP1 PUSH2 0x100 EXP SWAP1 DIV PUSH20 0xFFFFFFFFFFFFFFFFFFFFFFFFFFFFFFFFFFFFFFFF AND PUSH20 0xFFFFFFFFFFFFFFFFFFFFFFFFFFFFFFFFFFFFFFFF AND DUP12 PUSH20 0xFFFFFFFFFFFFFFFFFFFFFFFFFFFFFFFFFFFFFFFF AND EQ DUP1 ISZERO PUSH2 0x1403 JUMPI POP PUSH1 0x6 PUSH0 SWAP1 SLOAD SWAP1 PUSH2 0x100 EXP SWAP1 DIV PUSH20 0xFFFFFFFFFFFFFFFFFFFFFFFFFFFFFFFFFFFFFFFF AND PUSH20 0xFFFFFFFFFFFFFFFFFFFFFFFFFFFFFFFFFFFFFFFF AND DUP11 PUSH20 0xFFFFFFFFFFFFFFFFFFFFFFFFFFFFFFFFFFFFFFFF AND EQ JUMPDEST DUP1 PUSH2 0x14B2 JUMPI POP PUSH1 0x6 PUSH0 SWAP1 SLOAD SWAP1 PUSH2 0x100 EXP SWAP1 DIV PUSH20 0xFFFFFFFFFFFFFFFFFFFFFFFFFFFFFFFFFFFFFFFF AND PUSH20 0xFFFFFFFFFFFFFFFFFFFFFFFFFFFFFFFFFFFFFFFF AND DUP12 PUSH20 0xFFFFFFFFFFFFFFFFFFFFFFFFFFFFFFFFFFFFFFFF AND EQ DUP1 ISZERO PUSH2 0x14B1 JUMPI POP PUSH1 0x5 PUSH0 SWAP1 SLOAD SWAP1 PUSH2 0x100 EXP SWAP1 DIV PUSH20 0xFFFFFFFFFFFFFFFFFFFFFFFFFFFFFFFFFFFFFFFF AND PUSH20 0xFFFFFFFFFFFFFFFFFFFFFFFFFFFFFFFFFFFFFFFF AND DUP11 PUSH20 0xFFFFFFFFFFFFFFFFFFFFFFFFFFFFFFFFFFFFFFFF AND EQ JUMPDEST JUMPDEST PUSH2 0x14F1 JUMPI PUSH1 0x40 MLOAD PUSH32 0x8C379A000000000000000000000000000000000000000000000000000000000 DUP2 MSTORE PUSH1 0x4 ADD PUSH2 0x14E8 SWAP1 PUSH2 0x2B74 JUMP JUMPDEST PUSH1 0x40 MLOAD DUP1 SWAP2 SUB SWAP1 REVERT JUMPDEST JUMPDEST PUSH0 PUSH2 0x14FB PUSH2 0x544 JUMP JUMPDEST SUB PUSH2 0x1521 JUMPI DUP9 SWAP3 POP DUP8 SWAP2 POP PUSH2 0x151A DUP3 DUP5 PUSH2 0x1515 SWAP2 SWAP1 PUSH2 0x282F JUMP JUMPDEST PUSH2 0x1A94 JUMP JUMPDEST SWAP1 POP PUSH2 0x15A7 JUMP JUMPDEST DUP9 SWAP3 POP PUSH1 0x7 SLOAD PUSH1 0x8 SLOAD DUP5 PUSH2 0x1535 SWAP2 SWAP1 PUSH2 0x282F JUMP JUMPDEST PUSH2 0x153F SWAP2 SWAP1 PUSH2 0x289D JUMP JUMPDEST SWAP2 POP DUP8 DUP3 GT ISZERO PUSH2 0x1584 JUMPI PUSH1 0x40 MLOAD PUSH32 0x8C379A000000000000000000000000000000000000000000000000000000000 DUP2 MSTORE PUSH1 0x4 ADD PUSH2 0x157B SWAP1 PUSH2 0x2DE4 JUMP JUMPDEST PUSH1 0x40 MLOAD DUP1 SWAP2 SUB SWAP1 REVERT JUMPDEST PUSH1 0x7 SLOAD PUSH2 0x158F PUSH2 0x544 JUMP JUMPDEST DUP5 PUSH2 0x159A SWAP2 SWAP1 PUSH2 0x282F JUMP JUMPDEST PUSH2 0x15A4 SWAP2 SWAP1 PUSH2 0x289D JUMP JUMPDEST SWAP1 POP JUMPDEST DUP7 DUP4 LT ISZERO PUSH2 0x15EA JUMPI PUSH1 0x40 MLOAD PUSH32 0x8C379A000000000000000000000000000000000000000000000000000000000 DUP2 MSTORE PUSH1 0x4 ADD PUSH2 0x15E1 SWAP1 PUSH2 0x2CAC JUMP JUMPDEST PUSH1 0x40 MLOAD DUP1 SWAP2 SUB SWAP1 REVERT JUMPDEST DUP6 DUP3 LT ISZERO PUSH2 0x162D JUMPI PUSH1 0x40 MLOAD PUSH32 0x8C379A000000000000000000000000000000000000000000000000000000000 DUP2 MSTORE PUSH1 0x4 ADD PUSH2 0x1624 SWAP1 PUSH2 0x2D14 JUMP JUMPDEST PUSH1 0x40 MLOAD DUP1 SWAP2 SUB SWAP1 REVERT JUMPDEST PUSH0 DUP2 GT PUSH2 0x166F JUMPI PUSH1 0x40 MLOAD PUSH32 0x8C379A000000000000000000000000000000000000000000000000000000000 DUP2 MSTORE PUSH1 0x4 ADD PUSH2 0x1666 SWAP1 PUSH2 0x2E4C JUMP JUMPDEST PUSH1 0x40 MLOAD DUP1 SWAP2 SUB SWAP1 REVERT JUMPDEST PUSH2 0x16BD CALLER ADDRESS DUP6 PUSH1 0x5 PUSH0 SWAP1 SLOAD SWAP1 PUSH2 0x100 EXP SWAP1 DIV PUSH20 0xFFFFFFFFFFFFFFFFFFFFFFFFFFFFFFFFFFFFFFFF AND PUSH20 0xFFFFFFFFFFFFFFFFFFFFFFFFFFFFFFFFFFFFFFFF AND PUSH2 0x1914 SWAP1 SWAP4 SWAP3 SWAP2 SWAP1 PUSH4 0xFFFFFFFF AND JUMP JUMPDEST PUSH2 0x170B CALLER ADDRESS DUP5 PUSH1 0x6 PUSH0 SWAP1 SLOAD SWAP1 PUSH2 0x100 EXP SWAP1 DIV PUSH20 0xFFFFFFFFFFFFFFFFFFFFFFFFFFFFFFFFFFFFFFFF AND PUSH20 0xFFFFFFFFFFFFFFFFFFFFFFFFFFFFFFFFFFFFFFFF AND PUSH2 0x1914 SWAP1 SWAP4 SWAP3 SWAP2 SWAP1 PUSH4 0xFFFFFFFF AND JUMP JUMPDEST DUP3 PUSH1 0x7 PUSH0 DUP3 DUP3 SLOAD PUSH2 0x171C SWAP2 SWAP1 PUSH2 0x27FC JUMP JUMPDEST SWAP3 POP POP DUP2 SWAP1 SSTORE POP DUP2 PUSH1 0x8 PUSH0 DUP3 DUP3 SLOAD PUSH2 0x1734 SWAP2 SWAP1 PUSH2 0x27FC JUMP JUMPDEST SWAP3 POP POP DUP2 SWAP1 SSTORE POP PUSH2 0x1745 DUP6 DUP3 PUSH2 0x1C2E JUMP JUMPDEST SWAP9 POP SWAP9 POP SWAP9 SWAP6 POP POP POP POP POP POP JUMP JUMPDEST PUSH1 0x6 PUSH0 SWAP1 SLOAD SWAP1 PUSH2 0x100 EXP SWAP1 DIV PUSH20 0xFFFFFFFFFFFFFFFFFFFFFFFFFFFFFFFFFFFFFFFF AND DUP2 JUMP JUMPDEST PUSH0 CALLER SWAP1 POP SWAP1 JUMP JUMPDEST PUSH2 0x178C DUP4 DUP4 DUP4 PUSH1 0x1 PUSH2 0x1CAD JUMP JUMPDEST POP POP POP JUMP JUMPDEST PUSH0 PUSH2 0x179C DUP5 DUP5 PUSH2 0x10F3 JUMP JUMPDEST SWAP1 POP PUSH32 0xFFFFFFFFFFFFFFFFFFFFFFFFFFFFFFFFFFFFFFFFFFFFFFFFFFFFFFFFFFFFFFFF DUP2 LT ISZERO PUSH2 0x181E JUMPI DUP2 DUP2 LT ISZERO PUSH2 0x180F JUMPI DUP3 DUP2 DUP4 PUSH1 0x40 MLOAD PUSH32 0xFB8F41B200000000000000000000000000000000000000000000000000000000 DUP2 MSTORE PUSH1 0x4 ADD PUSH2 0x1806 SWAP4 SWAP3 SWAP2 SWAP1 PUSH2 0x2E6A JUMP JUMPDEST PUSH1 0x40 MLOAD DUP1 SWAP2 SUB SWAP1 REVERT JUMPDEST PUSH2 0x181D DUP5 DUP5 DUP5 DUP5 SUB PUSH0 PUSH2 0x1CAD JUMP JUMPDEST JUMPDEST POP POP POP POP JUMP JUMPDEST PUSH0 PUSH20 0xFFFFFFFFFFFFFFFFFFFFFFFFFFFFFFFFFFFFFFFF AND DUP4 PUSH20 0xFFFFFFFFFFFFFFFFFFFFFFFFFFFFFFFFFFFFFFFF AND SUB PUSH2 0x1894 JUMPI PUSH0 PUSH1 0x40 MLOAD PUSH32 0x96C6FD1E00000000000000000000000000000000000000000000000000000000 DUP2 MSTORE PUSH1 0x4 ADD PUSH2 0x188B SWAP2 SWAP1 PUSH2 0x24D3 JUMP JUMPDEST PUSH1 0x40 MLOAD DUP1 SWAP2 SUB SWAP1 REVERT JUMPDEST PUSH0 PUSH20 0xFFFFFFFFFFFFFFFFFFFFFFFFFFFFFFFFFFFFFFFF AND DUP3 PUSH20 0xFFFFFFFFFFFFFFFFFFFFFFFFFFFFFFFFFFFFFFFF AND SUB PUSH2 0x1904 JUMPI PUSH0 PUSH1 0x40 MLOAD PUSH32 0xEC442F0500000000000000000000000000000000000000000000000000000000 DUP2 MSTORE PUSH1 0x4 ADD PUSH2 0x18FB SWAP2 SWAP1 PUSH2 0x24D3 JUMP JUMPDEST PUSH1 0x40 MLOAD DUP1 SWAP2 SUB SWAP1 REVERT JUMPDEST PUSH2 0x190F DUP4 DUP4 DUP4 PUSH2 0x1E7C JUMP JUMPDEST POP POP POP JUMP JUMPDEST PUSH2 0x1990 DUP5 DUP6 PUSH20 0xFFFFFFFFFFFFFFFFFFFFFFFFFFFFFFFFFFFFFFFF AND PUSH4 0x23B872DD DUP7 DUP7 DUP7 PUSH1 0x40 MLOAD PUSH1 0x24 ADD PUSH2 0x1949 SWAP4 SWAP3 SWAP2 SWAP1 PUSH2 0x2E9F JUMP JUMPDEST PUSH1 0x40 MLOAD PUSH1 0x20 DUP2 DUP4 SUB SUB DUP2 MSTORE SWAP1 PUSH1 0x40 MSTORE SWAP2 POP PUSH1 0xE0 SHL PUSH1 0x20 DUP3 ADD DUP1 MLOAD PUSH28 0xFFFFFFFFFFFFFFFFFFFFFFFFFFFFFFFFFFFFFFFFFFFFFFFFFFFFFFFF DUP4 DUP2 DUP4 AND OR DUP4 MSTORE POP POP POP POP PUSH2 0x2095 JUMP JUMPDEST POP POP POP POP JUMP JUMPDEST PUSH2 0x1A10 DUP4 DUP5 PUSH20 0xFFFFFFFFFFFFFFFFFFFFFFFFFFFFFFFFFFFFFFFF AND PUSH4 0xA9059CBB DUP6 DUP6 PUSH1 0x40 MLOAD PUSH1 0x24 ADD PUSH2 0x19C9 SWAP3 SWAP2 SWAP1 PUSH2 0x2ED4 JUMP JUMPDEST PUSH1 0x40 MLOAD PUSH1 0x20 DUP2 DUP4 SUB SUB DUP2 MSTORE SWAP1 PUSH1 0x40 MSTORE SWAP2 POP PUSH1 0xE0 SHL PUSH1 0x20 DUP3 ADD DUP1 MLOAD PUSH28 0xFFFFFFFFFFFFFFFFFFFFFFFFFFFFFFFFFFFFFFFFFFFFFFFFFFFFFFFF DUP4 DUP2 DUP4 AND OR DUP4 MSTORE POP POP POP POP PUSH2 0x2095 JUMP JUMPDEST POP POP POP JUMP JUMPDEST PUSH0 PUSH20 0xFFFFFFFFFFFFFFFFFFFFFFFFFFFFFFFFFFFFFFFF AND DUP3 PUSH20 0xFFFFFFFFFFFFFFFFFFFFFFFFFFFFFFFFFFFFFFFF AND SUB PUSH2 0x1A85 JUMPI PUSH0 PUSH1 0x40 MLOAD PUSH32 0x96C6FD1E00000000000000000000000000000000000000000000000000000000 DUP2 MSTORE PUSH1 0x4 ADD PUSH2 0x1A7C SWAP2 SWAP1 PUSH2 0x24D3 JUMP JUMPDEST PUSH1 0x40 MLOAD DUP1 SWAP2 SUB SWAP1 REVERT JUMPDEST PUSH2 0x1A90 DUP3 PUSH0 DUP4 PUSH2 0x1E7C JUMP JUMPDEST POP POP JUMP JUMPDEST PUSH0 PUSH1 0x1 DUP3 GT PUSH2 0x1AA5 JUMPI DUP2 SWAP1 POP PUSH2 0x1C29 JUMP JUMPDEST PUSH0 DUP3 SWAP1 POP PUSH0 PUSH1 0x1 SWAP1 POP PUSH17 0x100000000000000000000000000000000 DUP3 LT PUSH2 0x1AD5 JUMPI PUSH1 0x80 DUP3 SWAP1 SHR SWAP2 POP PUSH1 0x40 DUP2 SWAP1 SHL SWAP1 POP JUMPDEST PUSH9 0x10000000000000000 DUP3 LT PUSH2 0x1AF4 JUMPI PUSH1 0x40 DUP3 SWAP1 SHR SWAP2 POP PUSH1 0x20 DUP2 SWAP1 SHL SWAP1 POP JUMPDEST PUSH5 0x100000000 DUP3 LT PUSH2 0x1B0F JUMPI PUSH1 0x20 DUP3 SWAP1 SHR SWAP2 POP PUSH1 0x10 DUP2 SWAP1 SHL SWAP1 POP JUMPDEST PUSH3 0x10000 DUP3 LT PUSH2 0x1B28 JUMPI PUSH1 0x10 DUP3 SWAP1 SHR SWAP2 POP PUSH1 0x8 DUP2 SWAP1 SHL SWAP1 POP JUMPDEST PUSH2 0x100 DUP3 LT PUSH2 0x1B40 JUMPI PUSH1 0x8 DUP3 SWAP1 SHR SWAP2 POP PUSH1 0x4 DUP2 SWAP1 SHL SWAP1 POP JUMPDEST PUSH1 0x10 DUP3 LT PUSH2 0x1B57 JUMPI PUSH1 0x4 DUP3 SWAP1 SHR SWAP2 POP PUSH1 0x2 DUP2 SWAP1 SHL SWAP1 POP JUMPDEST PUSH1 0x4 DUP3 LT PUSH2 0x1B67 JUMPI PUSH1 0x1 DUP2 SWAP1 SHL SWAP1 POP JUMPDEST PUSH1 0x1 DUP2 PUSH1 0x3 MUL SWAP1 SHR SWAP1 POP PUSH1 0x1 DUP2 DUP6 DUP2 PUSH2 0x1B83 JUMPI PUSH2 0x1B82 PUSH2 0x2870 JUMP JUMPDEST JUMPDEST DIV DUP3 ADD SWAP1 SHR SWAP1 POP PUSH1 0x1 DUP2 DUP6 DUP2 PUSH2 0x1B9C JUMPI PUSH2 0x1B9B PUSH2 0x2870 JUMP JUMPDEST JUMPDEST DIV DUP3 ADD SWAP1 SHR SWAP1 POP PUSH1 0x1 DUP2 DUP6 DUP2 PUSH2 0x1BB5 JUMPI PUSH2 0x1BB4 PUSH2 0x2870 JUMP JUMPDEST JUMPDEST DIV DUP3 ADD SWAP1 SHR SWAP1 POP PUSH1 0x1 DUP2 DUP6 DUP2 PUSH2 0x1BCE JUMPI PUSH2 0x1BCD PUSH2 0x2870 JUMP JUMPDEST JUMPDEST DIV DUP3 ADD SWAP1 SHR SWAP1 POP PUSH1 0x1 DUP2 DUP6 DUP2 PUSH2 0x1BE7 JUMPI PUSH2 0x1BE6 PUSH2 0x2870 JUMP JUMPDEST JUMPDEST DIV DUP3 ADD SWAP1 SHR SWAP1 POP PUSH1 0x1 DUP2 DUP6 DUP2 PUSH2 0x1C00 JUMPI PUSH2 0x1BFF PUSH2 0x2870 JUMP JUMPDEST JUMPDEST DIV DUP3 ADD SWAP1 SHR SWAP1 POP PUSH2 0x1C22 DUP2 DUP6 DUP2 PUSH2 0x1C1A JUMPI PUSH2 0x1C19 PUSH2 0x2870 JUMP JUMPDEST JUMPDEST DIV DUP3 GT PUSH2 0x2130 JUMP JUMPDEST DUP2 SUB SWAP3 POP POP POP JUMPDEST SWAP2 SWAP1 POP JUMP JUMPDEST PUSH0 PUSH20 0xFFFFFFFFFFFFFFFFFFFFFFFFFFFFFFFFFFFFFFFF AND DUP3 PUSH20 0xFFFFFFFFFFFFFFFFFFFFFFFFFFFFFFFFFFFFFFFF AND SUB PUSH2 0x1C9E JUMPI PUSH0 PUSH1 0x40 MLOAD PUSH32 0xEC442F0500000000000000000000000000000000000000000000000000000000 DUP2 MSTORE PUSH1 0x4 ADD PUSH2 0x1C95 SWAP2 SWAP1 PUSH2 0x24D3 JUMP JUMPDEST PUSH1 0x40 MLOAD DUP1 SWAP2 SUB SWAP1 REVERT JUMPDEST PUSH2 0x1CA9 PUSH0 DUP4 DUP4 PUSH2 0x1E7C JUMP JUMPDEST POP POP JUMP JUMPDEST PUSH0 PUSH20 0xFFFFFFFFFFFFFFFFFFFFFFFFFFFFFFFFFFFFFFFF AND DUP5 PUSH20 0xFFFFFFFFFFFFFFFFFFFFFFFFFFFFFFFFFFFFFFFF AND SUB PUSH2 0x1D1D JUMPI PUSH0 PUSH1 0x40 MLOAD PUSH32 0xE602DF0500000000000000000000000000000000000000000000000000000000 DUP2 MSTORE PUSH1 0x4 ADD PUSH2 0x1D14 SWAP2 SWAP1 PUSH2 0x24D3 JUMP JUMPDEST PUSH1 0x40 MLOAD DUP1 SWAP2 SUB SWAP1 REVERT JUMPDEST PUSH0 PUSH20 0xFFFFFFFFFFFFFFFFFFFFFFFFFFFFFFFFFFFFFFFF AND DUP4 PUSH20 0xFFFFFFFFFFFFFFFFFFFFFFFFFFFFFFFFFFFFFFFF AND SUB PUSH2 0x1D8D JUMPI PUSH0 PUSH1 0x40 MLOAD PUSH32 0x94280D6200000000000000000000000000000000000000000000000000000000 DUP2 MSTORE PUSH1 0x4 ADD PUSH2 0x1D84 SWAP2 SWAP1 PUSH2 0x24D3 JUMP JUMPDEST PUSH1 0x40 MLOAD DUP1 SWAP2 SUB SWAP1 REVERT JUMPDEST DUP2 PUSH1 0x1 PUSH0 DUP7 PUSH20 0xFFFFFFFFFFFFFFFFFFFFFFFFFFFFFFFFFFFFFFFF AND PUSH20 0xFFFFFFFFFFFFFFFFFFFFFFFFFFFFFFFFFFFFFFFF AND DUP2 MSTORE PUSH1 0x20 ADD SWAP1 DUP2 MSTORE PUSH1 0x20 ADD PUSH0 KECCAK256 PUSH0 DUP6 PUSH20 0xFFFFFFFFFFFFFFFFFFFFFFFFFFFFFFFFFFFFFFFF AND PUSH20 0xFFFFFFFFFFFFFFFFFFFFFFFFFFFFFFFFFFFFFFFF AND DUP2 MSTORE PUSH1 0x20 ADD SWAP1 DUP2 MSTORE PUSH1 0x20 ADD PUSH0 KECCAK256 DUP2 SWAP1 SSTORE POP DUP1 ISZERO PUSH2 0x1E76 JUMPI DUP3 PUSH20 0xFFFFFFFFFFFFFFFFFFFFFFFFFFFFFFFFFFFFFFFF AND DUP5 PUSH20 0xFFFFFFFFFFFFFFFFFFFFFFFFFFFFFFFFFFFFFFFF AND PUSH32 0x8C5BE1E5EBEC7D5BD14F71427D1E84F3DD0314C0F7B2291E5B200AC8C7C3B925 DUP5 PUSH1 0x40 MLOAD PUSH2 0x1E6D SWAP2 SWAP1 PUSH2 0x21D5 JUMP JUMPDEST PUSH1 0x40 MLOAD DUP1 SWAP2 SUB SWAP1 LOG3 JUMPDEST POP POP POP POP JUMP JUMPDEST PUSH0 PUSH20 0xFFFFFFFFFFFFFFFFFFFFFFFFFFFFFFFFFFFFFFFF AND DUP4 PUSH20 0xFFFFFFFFFFFFFFFFFFFFFFFFFFFFFFFFFFFFFFFF AND SUB PUSH2 0x1ECC JUMPI DUP1 PUSH1 0x2 PUSH0 DUP3 DUP3 SLOAD PUSH2 0x1EC0 SWAP2 SWAP1 PUSH2 0x27FC JUMP JUMPDEST SWAP3 POP POP DUP2 SWAP1 SSTORE POP PUSH2 0x1F9A JUMP JUMPDEST PUSH0 PUSH0 PUSH0 DUP6 PUSH20 0xFFFFFFFFFFFFFFFFFFFFFFFFFFFFFFFFFFFFFFFF AND PUSH20 0xFFFFFFFFFFFFFFFFFFFFFFFFFFFFFFFFFFFFFFFF AND DUP2 MSTORE PUSH1 0x20 ADD SWAP1 DUP2 MSTORE PUSH1 0x20 ADD PUSH0 KECCAK256 SLOAD SWAP1 POP DUP2 DUP2 LT ISZERO PUSH2 0x1F55 JUMPI DUP4 DUP2 DUP4 PUSH1 0x40 MLOAD PUSH32 0xE450D38C00000000000000000000000000000000000000000000000000000000 DUP2 MSTORE PUSH1 0x4 ADD PUSH2 0x1F4C SWAP4 SWAP3 SWAP2 SWAP1 PUSH2 0x2E6A JUMP JUMPDEST PUSH1 0x40 MLOAD DUP1 SWAP2 SUB SWAP1 REVERT JUMPDEST DUP2 DUP2 SUB PUSH0 PUSH0 DUP7 PUSH20 0xFFFFFFFFFFFFFFFFFFFFFFFFFFFFFFFFFFFFFFFF AND PUSH20 0xFFFFFFFFFFFFFFFFFFFFFFFFFFFFFFFFFFFFFFFF AND DUP2 MSTORE PUSH1 0x20 ADD SWAP1 DUP2 MSTORE PUSH1 0x20 ADD PUSH0 KECCAK256 DUP2 SWAP1 SSTORE POP POP JUMPDEST PUSH0 PUSH20 0xFFFFFFFFFFFFFFFFFFFFFFFFFFFFFFFFFFFFFFFF AND DUP3 PUSH20 0xFFFFFFFFFFFFFFFFFFFFFFFFFFFFFFFFFFFFFFFF AND SUB PUSH2 0x1FE1 JUMPI DUP1 PUSH1 0x2 PUSH0 DUP3 DUP3 SLOAD SUB SWAP3 POP POP DUP2 SWAP1 SSTORE POP PUSH2 0x202B JUMP JUMPDEST DUP1 PUSH0 PUSH0 DUP5 PUSH20 0xFFFFFFFFFFFFFFFFFFFFFFFFFFFFFFFFFFFFFFFF AND PUSH20 0xFFFFFFFFFFFFFFFFFFFFFFFFFFFFFFFFFFFFFFFF AND DUP2 MSTORE PUSH1 0x20 ADD SWAP1 DUP2 MSTORE PUSH1 0x20 ADD PUSH0 KECCAK256 PUSH0 DUP3 DUP3 SLOAD ADD SWAP3 POP POP DUP2 SWAP1 SSTORE POP JUMPDEST DUP2 PUSH20 0xFFFFFFFFFFFFFFFFFFFFFFFFFFFFFFFFFFFFFFFF AND DUP4 PUSH20 0xFFFFFFFFFFFFFFFFFFFFFFFFFFFFFFFFFFFFFFFF AND PUSH32 0xDDF252AD1BE2C89B69C2B068FC378DAA952BA7F163C4A11628F55A4DF523B3EF DUP4 PUSH1 0x40 MLOAD PUSH2 0x2088 SWAP2 SWAP1 PUSH2 0x21D5 JUMP JUMPDEST PUSH1 0x40 MLOAD DUP1 SWAP2 SUB SWAP1 LOG3 POP POP POP JUMP JUMPDEST PUSH0 PUSH0 PUSH1 0x20 PUSH0 DUP5 MLOAD PUSH1 0x20 DUP7 ADD PUSH0 DUP9 GAS CALL DUP1 PUSH2 0x20B4 JUMPI PUSH1 0x40 MLOAD RETURNDATASIZE PUSH0 DUP3 RETURNDATACOPY RETURNDATASIZE DUP2 REVERT JUMPDEST RETURNDATASIZE SWAP3 POP PUSH0 MLOAD SWAP2 POP POP PUSH0 DUP3 EQ PUSH2 0x20CD JUMPI PUSH1 0x1 DUP2 EQ ISZERO PUSH2 0x20E8 JUMP JUMPDEST PUSH0 DUP5 PUSH20 0xFFFFFFFFFFFFFFFFFFFFFFFFFFFFFFFFFFFFFFFF AND EXTCODESIZE EQ JUMPDEST ISZERO PUSH2 0x212A JUMPI DUP4 PUSH1 0x40 MLOAD PUSH32 0x5274AFE700000000000000000000000000000000000000000000000000000000 DUP2 MSTORE PUSH1 0x4 ADD PUSH2 0x2121 SWAP2 SWAP1 PUSH2 0x24D3 JUMP JUMPDEST PUSH1 0x40 MLOAD DUP1 SWAP2 SUB SWAP1 REVERT JUMPDEST POP POP POP POP JUMP JUMPDEST PUSH0 DUP2 ISZERO ISZERO SWAP1 POP SWAP2 SWAP1 POP JUMP JUMPDEST PUSH0 PUSH0 REVERT JUMPDEST PUSH0 PUSH0 REVERT JUMPDEST PUSH0 DUP2 SWAP1 POP SWAP2 SWAP1 POP JUMP JUMPDEST PUSH2 0x2155 DUP2 PUSH2 0x2143 JUMP JUMPDEST DUP2 EQ PUSH2 0x215F JUMPI PUSH0 PUSH0 REVERT JUMPDEST POP JUMP JUMPDEST PUSH0 DUP2 CALLDATALOAD SWAP1 POP PUSH2 0x2170 DUP2 PUSH2 0x214C JUMP JUMPDEST SWAP3 SWAP2 POP POP JUMP JUMPDEST PUSH0 PUSH0 PUSH0 PUSH1 0x60 DUP5 DUP7 SUB SLT ISZERO PUSH2 0x218D JUMPI PUSH2 0x218C PUSH2 0x213B JUMP JUMPDEST JUMPDEST PUSH0 PUSH2 0x219A DUP7 DUP3 DUP8 ADD PUSH2 0x2162 JUMP JUMPDEST SWAP4 POP POP PUSH1 0x20 PUSH2 0x21AB DUP7 DUP3 DUP8 ADD PUSH2 0x2162 JUMP JUMPDEST SWAP3 POP POP PUSH1 0x40 PUSH2 0x21BC DUP7 DUP3 DUP8 ADD PUSH2 0x2162 JUMP JUMPDEST SWAP2 POP POP SWAP3 POP SWAP3 POP SWAP3 JUMP JUMPDEST PUSH2 0x21CF DUP2 PUSH2 0x2143 JUMP JUMPDEST DUP3 MSTORE POP POP JUMP JUMPDEST PUSH0 PUSH1 0x20 DUP3 ADD SWAP1 POP PUSH2 0x21E8 PUSH0 DUP4 ADD DUP5 PUSH2 0x21C6 JUMP JUMPDEST SWAP3 SWAP2 POP POP JUMP JUMPDEST PUSH0 DUP2 MLOAD SWAP1 POP SWAP2 SWAP1 POP JUMP JUMPDEST PUSH0 DUP3 DUP3 MSTORE PUSH1 0x20 DUP3 ADD SWAP1 POP SWAP3 SWAP2 POP POP JUMP JUMPDEST DUP3 DUP2 DUP4 MCOPY PUSH0 DUP4 DUP4 ADD MSTORE POP POP POP JUMP JUMPDEST PUSH0 PUSH1 0x1F NOT PUSH1 0x1F DUP4 ADD AND SWAP1 POP SWAP2 SWAP1 POP JUMP JUMPDEST PUSH0 PUSH2 0x2230 DUP3 PUSH2 0x21EE JUMP JUMPDEST PUSH2 0x223A DUP2 DUP6 PUSH2 0x21F8 JUMP JUMPDEST SWAP4 POP PUSH2 0x224A DUP2 DUP6 PUSH1 0x20 DUP7 ADD PUSH2 0x2208 JUMP JUMPDEST PUSH2 0x2253 DUP2 PUSH2 0x2216 JUMP JUMPDEST DUP5 ADD SWAP2 POP POP SWAP3 SWAP2 POP POP JUMP JUMPDEST PUSH0 PUSH1 0x20 DUP3 ADD SWAP1 POP DUP2 DUP2 SUB PUSH0 DUP4 ADD MSTORE PUSH2 0x2276 DUP2 DUP5 PUSH2 0x2226 JUMP JUMPDEST SWAP1 POP SWAP3 SWAP2 POP POP JUMP JUMPDEST PUSH0 PUSH20 0xFFFFFFFFFFFFFFFFFFFFFFFFFFFFFFFFFFFFFFFF DUP3 AND SWAP1 POP SWAP2 SWAP1 POP JUMP JUMPDEST PUSH0 PUSH2 0x22A7 DUP3 PUSH2 0x227E JUMP JUMPDEST SWAP1 POP SWAP2 SWAP1 POP JUMP JUMPDEST PUSH2 0x22B7 DUP2 PUSH2 0x229D JUMP JUMPDEST DUP2 EQ PUSH2 0x22C1 JUMPI PUSH0 PUSH0 REVERT JUMPDEST POP JUMP JUMPDEST PUSH0 DUP2 CALLDATALOAD SWAP1 POP PUSH2 0x22D2 DUP2 PUSH2 0x22AE JUMP JUMPDEST SWAP3 SWAP2 POP POP JUMP JUMPDEST PUSH0 PUSH0 PUSH1 0x40 DUP4 DUP6 SUB SLT ISZERO PUSH2 0x22EE JUMPI PUSH2 0x22ED PUSH2 0x213B JUMP JUMPDEST JUMPDEST PUSH0 PUSH2 0x22FB DUP6 DUP3 DUP7 ADD PUSH2 0x22C4 JUMP JUMPDEST SWAP3 POP POP PUSH1 0x20 PUSH2 0x230C DUP6 DUP3 DUP7 ADD PUSH2 0x2162 JUMP JUMPDEST SWAP2 POP POP SWAP3 POP SWAP3 SWAP1 POP JUMP JUMPDEST PUSH0 DUP2 ISZERO ISZERO SWAP1 POP SWAP2 SWAP1 POP JUMP JUMPDEST PUSH2 0x232A DUP2 PUSH2 0x2316 JUMP JUMPDEST DUP3 MSTORE POP POP JUMP JUMPDEST PUSH0 PUSH1 0x20 DUP3 ADD SWAP1 POP PUSH2 0x2343 PUSH0 DUP4 ADD DUP5 PUSH2 0x2321 JUMP JUMPDEST SWAP3 SWAP2 POP POP JUMP JUMPDEST PUSH0 PUSH0 PUSH0 PUSH1 0x60 DUP5 DUP7 SUB SLT ISZERO PUSH2 0x2360 JUMPI PUSH2 0x235F PUSH2 0x213B JUMP JUMPDEST JUMPDEST PUSH0 PUSH2 0x236D DUP7 DUP3 DUP8 ADD PUSH2 0x22C4 JUMP JUMPDEST SWAP4 POP POP PUSH1 0x20 PUSH2 0x237E DUP7 DUP3 DUP8 ADD PUSH2 0x22C4 JUMP JUMPDEST SWAP3 POP POP PUSH1 0x40 PUSH2 0x238F DUP7 DUP3 DUP8 ADD PUSH2 0x2162 JUMP JUMPDEST SWAP2 POP POP SWAP3 POP SWAP3 POP SWAP3 JUMP JUMPDEST PUSH0 PUSH1 0xFF DUP3 AND SWAP1 POP SWAP2 SWAP1 POP JUMP JUMPDEST PUSH2 0x23AE DUP2 PUSH2 0x2399 JUMP JUMPDEST DUP3 MSTORE POP POP JUMP JUMPDEST PUSH0 PUSH1 0x20 DUP3 ADD SWAP1 POP PUSH2 0x23C7 PUSH0 DUP4 ADD DUP5 PUSH2 0x23A5 JUMP JUMPDEST SWAP3 SWAP2 POP POP JUMP JUMPDEST PUSH0 PUSH0 REVERT JUMPDEST PUSH0 PUSH0 REVERT JUMPDEST PUSH0 PUSH0 REVERT JUMPDEST PUSH0 PUSH0 DUP4 PUSH1 0x1F DUP5 ADD SLT PUSH2 0x23EE JUMPI PUSH2 0x23ED PUSH2 0x23CD JUMP JUMPDEST JUMPDEST DUP3 CALLDATALOAD SWAP1 POP PUSH8 0xFFFFFFFFFFFFFFFF DUP2 GT ISZERO PUSH2 0x240B JUMPI PUSH2 0x240A PUSH2 0x23D1 JUMP JUMPDEST JUMPDEST PUSH1 0x20 DUP4 ADD SWAP2 POP DUP4 PUSH1 0x20 DUP3 MUL DUP4 ADD GT ISZERO PUSH2 0x2427 JUMPI PUSH2 0x2426 PUSH2 0x23D5 JUMP JUMPDEST JUMPDEST SWAP3 POP SWAP3 SWAP1 POP JUMP JUMPDEST PUSH0 PUSH0 PUSH0 PUSH0 PUSH0 PUSH0 PUSH1 0xA0 DUP8 DUP10 SUB SLT ISZERO PUSH2 0x2448 JUMPI PUSH2 0x2447 PUSH2 0x213B JUMP JUMPDEST JUMPDEST PUSH0 PUSH2 0x2455 DUP10 DUP3 DUP11 ADD PUSH2 0x2162 JUMP JUMPDEST SWAP7 POP POP PUSH1 0x20 PUSH2 0x2466 DUP10 DUP3 DUP11 ADD PUSH2 0x2162 JUMP JUMPDEST SWAP6 POP POP PUSH1 0x40 DUP8 ADD CALLDATALOAD PUSH8 0xFFFFFFFFFFFFFFFF DUP2 GT ISZERO PUSH2 0x2487 JUMPI PUSH2 0x2486 PUSH2 0x213F JUMP JUMPDEST JUMPDEST PUSH2 0x2493 DUP10 DUP3 DUP11 ADD PUSH2 0x23D9 JUMP JUMPDEST SWAP5 POP SWAP5 POP POP PUSH1 0x60 PUSH2 0x24A6 DUP10 DUP3 DUP11 ADD PUSH2 0x22C4 JUMP JUMPDEST SWAP3 POP POP PUSH1 0x80 PUSH2 0x24B7 DUP10 DUP3 DUP11 ADD PUSH2 0x2162 JUMP JUMPDEST SWAP2 POP POP SWAP3 SWAP6 POP SWAP3 SWAP6 POP SWAP3 SWAP6 JUMP JUMPDEST PUSH2 0x24CD DUP2 PUSH2 0x229D JUMP JUMPDEST DUP3 MSTORE POP POP JUMP JUMPDEST PUSH0 PUSH1 0x20 DUP3 ADD SWAP1 POP PUSH2 0x24E6 PUSH0 DUP4 ADD DUP5 PUSH2 0x24C4 JUMP JUMPDEST SWAP3 SWAP2 POP POP JUMP JUMPDEST PUSH0 PUSH1 0x20 DUP3 DUP5 SUB SLT ISZERO PUSH2 0x2501 JUMPI PUSH2 0x2500 PUSH2 0x213B JUMP JUMPDEST JUMPDEST PUSH0 PUSH2 0x250E DUP5 DUP3 DUP6 ADD PUSH2 0x22C4 JUMP JUMPDEST SWAP2 POP POP SWAP3 SWAP2 POP POP JUMP JUMPDEST PUSH0 PUSH0 PUSH1 0x40 DUP4 DUP6 SUB SLT ISZERO PUSH2 0x252D JUMPI PUSH2 0x252C PUSH2 0x213B JUMP JUMPDEST JUMPDEST PUSH0 PUSH2 0x253A DUP6 DUP3 DUP7 ADD PUSH2 0x22C4 JUMP JUMPDEST SWAP3 POP POP PUSH1 0x20 PUSH2 0x254B DUP6 DUP3 DUP7 ADD PUSH2 0x22C4 JUMP JUMPDEST SWAP2 POP POP SWAP3 POP SWAP3 SWAP1 POP JUMP JUMPDEST PUSH0 PUSH0 PUSH0 PUSH0 PUSH0 PUSH0 PUSH0 PUSH1 0xE0 DUP9 DUP11 SUB SLT ISZERO PUSH2 0x2570 JUMPI PUSH2 0x256F PUSH2 0x213B JUMP JUMPDEST JUMPDEST PUSH0 PUSH2 0x257D DUP11 DUP3 DUP12 ADD PUSH2 0x22C4 JUMP JUMPDEST SWAP8 POP POP PUSH1 0x20 PUSH2 0x258E DUP11 DUP3 DUP12 ADD PUSH2 0x22C4 JUMP JUMPDEST SWAP7 POP POP PUSH1 0x40 PUSH2 0x259F DUP11 DUP3 DUP12 ADD PUSH2 0x2162 JUMP JUMPDEST SWAP6 POP POP PUSH1 0x60 PUSH2 0x25B0 DUP11 DUP3 DUP12 ADD PUSH2 0x2162 JUMP JUMPDEST SWAP5 POP POP PUSH1 0x80 PUSH2 0x25C1 DUP11 DUP3 DUP12 ADD PUSH2 0x2162 JUMP JUMPDEST SWAP4 POP POP PUSH1 0xA0 PUSH2 0x25D2 DUP11 DUP3 DUP12 ADD PUSH2 0x22C4 JUMP JUMPDEST SWAP3 POP POP PUSH1 0xC0 PUSH2 0x25E3 DUP11 DUP3 DUP12 ADD PUSH2 0x2162 JUMP JUMPDEST SWAP2 POP POP SWAP3 SWAP6 SWAP9 SWAP2 SWAP5 SWAP8 POP SWAP3 SWAP6 POP JUMP JUMPDEST PUSH0 PUSH1 0x40 DUP3 ADD SWAP1 POP PUSH2 0x2605 PUSH0 DUP4 ADD DUP6 PUSH2 0x21C6 JUMP JUMPDEST PUSH2 0x2612 PUSH1 0x20 DUP4 ADD DUP5 PUSH2 0x21C6 JUMP JUMPDEST SWAP4 SWAP3 POP POP POP JUMP JUMPDEST PUSH0 PUSH0 PUSH0 PUSH0 PUSH0 PUSH0 PUSH0 PUSH0 PUSH2 0x100 DUP10 DUP12 SUB SLT ISZERO PUSH2 0x2636 JUMPI PUSH2 0x2635 PUSH2 0x213B JUMP JUMPDEST JUMPDEST PUSH0 PUSH2 0x2643 DUP12 DUP3 DUP13 ADD PUSH2 0x22C4 JUMP JUMPDEST SWAP9 POP POP PUSH1 0x20 PUSH2 0x2654 DUP12 DUP3 DUP13 ADD PUSH2 0x22C4 JUMP JUMPDEST SWAP8 POP POP PUSH1 0x40 PUSH2 0x2665 DUP12 DUP3 DUP13 ADD PUSH2 0x2162 JUMP JUMPDEST SWAP7 POP POP PUSH1 0x60 PUSH2 0x2676 DUP12 DUP3 DUP13 ADD PUSH2 0x2162 JUMP JUMPDEST SWAP6 POP POP PUSH1 0x80 PUSH2 0x2687 DUP12 DUP3 DUP13 ADD PUSH2 0x2162 JUMP JUMPDEST SWAP5 POP POP PUSH1 0xA0 PUSH2 0x2698 DUP12 DUP3 DUP13 ADD PUSH2 0x2162 JUMP JUMPDEST SWAP4 POP POP PUSH1 0xC0 PUSH2 0x26A9 DUP12 DUP3 DUP13 ADD PUSH2 0x22C4 JUMP JUMPDEST SWAP3 POP POP PUSH1 0xE0 PUSH2 0x26BA DUP12 DUP3 DUP13 ADD PUSH2 0x2162 JUMP JUMPDEST SWAP2 POP POP SWAP3 SWAP6 SWAP9 POP SWAP3 SWAP6 SWAP9 SWAP1 SWAP4 SWAP7 POP JUMP JUMPDEST PUSH0 PUSH1 0x60 DUP3 ADD SWAP1 POP PUSH2 0x26DD PUSH0 DUP4 ADD DUP7 PUSH2 0x21C6 JUMP JUMPDEST PUSH2 0x26EA PUSH1 0x20 DUP4 ADD DUP6 PUSH2 0x21C6 JUMP JUMPDEST PUSH2 0x26F7 PUSH1 0x40 DUP4 ADD DUP5 PUSH2 0x21C6 JUMP JUMPDEST SWAP5 SWAP4 POP POP POP POP JUMP JUMPDEST PUSH32 0x5A65726F20696E70757400000000000000000000000000000000000000000000 PUSH0 DUP3 ADD MSTORE POP JUMP JUMPDEST PUSH0 PUSH2 0x2733 PUSH1 0xA DUP4 PUSH2 0x21F8 JUMP JUMPDEST SWAP2 POP PUSH2 0x273E DUP3 PUSH2 0x26FF JUMP JUMPDEST PUSH1 0x20 DUP3 ADD SWAP1 POP SWAP2 SWAP1 POP JUMP JUMPDEST PUSH0 PUSH1 0x20 DUP3 ADD SWAP1 POP DUP2 DUP2 SUB PUSH0 DUP4 ADD MSTORE PUSH2 0x2760 DUP2 PUSH2 0x2727 JUMP JUMPDEST SWAP1 POP SWAP2 SWAP1 POP JUMP JUMPDEST PUSH32 0x456D707479207265736572766573000000000000000000000000000000000000 PUSH0 DUP3 ADD MSTORE POP JUMP JUMPDEST PUSH0 PUSH2 0x279B PUSH1 0xE DUP4 PUSH2 0x21F8 JUMP JUMPDEST SWAP2 POP PUSH2 0x27A6 DUP3 PUSH2 0x2767 JUMP JUMPDEST PUSH1 0x20 DUP3 ADD SWAP1 POP SWAP2 SWAP1 POP JUMP JUMPDEST PUSH0 PUSH1 0x20 DUP3 ADD SWAP1 POP DUP2 DUP2 SUB PUSH0 DUP4 ADD MSTORE PUSH2 0x27C8 DUP2 PUSH2 0x278F JUMP JUMPDEST SWAP1 POP SWAP2 SWAP1 POP JUMP JUMPDEST PUSH32 0x4E487B7100000000000000000000000000000000000000000000000000000000 PUSH0 MSTORE PUSH1 0x11 PUSH1 0x4 MSTORE PUSH1 0x24 PUSH0 REVERT JUMPDEST PUSH0 PUSH2 0x2806 DUP3 PUSH2 0x2143 JUMP JUMPDEST SWAP2 POP PUSH2 0x2811 DUP4 PUSH2 0x2143 JUMP JUMPDEST SWAP3 POP DUP3 DUP3 ADD SWAP1 POP DUP1 DUP3 GT ISZERO PUSH2 0x2829 JUMPI PUSH2 0x2828 PUSH2 0x27CF JUMP JUMPDEST JUMPDEST SWAP3 SWAP2 POP POP JUMP JUMPDEST PUSH0 PUSH2 0x2839 DUP3 PUSH2 0x2143 JUMP JUMPDEST SWAP2 POP PUSH2 0x2844 DUP4 PUSH2 0x2143 JUMP JUMPDEST SWAP3 POP DUP3 DUP3 MUL PUSH2 0x2852 DUP2 PUSH2 0x2143 JUMP JUMPDEST SWAP2 POP DUP3 DUP3 DIV DUP5 EQ DUP4 ISZERO OR PUSH2 0x2869 JUMPI PUSH2 0x2868 PUSH2 0x27CF JUMP JUMPDEST JUMPDEST POP SWAP3 SWAP2 POP POP JUMP JUMPDEST PUSH32 0x4E487B7100000000000000000000000000000000000000000000000000000000 PUSH0 MSTORE PUSH1 0x12 PUSH1 0x4 MSTORE PUSH1 0x24 PUSH0 REVERT JUMPDEST PUSH0 PUSH2 0x28A7 DUP3 PUSH2 0x2143 JUMP JUMPDEST SWAP2 POP PUSH2 0x28B2 DUP4 PUSH2 0x2143 JUMP JUMPDEST SWAP3 POP DUP3 PUSH2 0x28C2 JUMPI PUSH2 0x28C1 PUSH2 0x2870 JUMP JUMPDEST JUMPDEST DUP3 DUP3 DIV SWAP1 POP SWAP3 SWAP2 POP POP JUMP JUMPDEST PUSH32 0x4E487B7100000000000000000000000000000000000000000000000000000000 PUSH0 MSTORE PUSH1 0x22 PUSH1 0x4 MSTORE PUSH1 0x24 PUSH0 REVERT JUMPDEST PUSH0 PUSH1 0x2 DUP3 DIV SWAP1 POP PUSH1 0x1 DUP3 AND DUP1 PUSH2 0x2911 JUMPI PUSH1 0x7F DUP3 AND SWAP2 POP JUMPDEST PUSH1 0x20 DUP3 LT DUP2 SUB PUSH2 0x2924 JUMPI PUSH2 0x2923 PUSH2 0x28CD JUMP JUMPDEST JUMPDEST POP SWAP2 SWAP1 POP JUMP JUMPDEST PUSH32 0x4578706972656400000000000000000000000000000000000000000000000000 PUSH0 DUP3 ADD MSTORE POP JUMP JUMPDEST PUSH0 PUSH2 0x295E PUSH1 0x7 DUP4 PUSH2 0x21F8 JUMP JUMPDEST SWAP2 POP PUSH2 0x2969 DUP3 PUSH2 0x292A JUMP JUMPDEST PUSH1 0x20 DUP3 ADD SWAP1 POP SWAP2 SWAP1 POP JUMP JUMPDEST PUSH0 PUSH1 0x20 DUP3 ADD SWAP1 POP DUP2 DUP2 SUB PUSH0 DUP4 ADD MSTORE PUSH2 0x298B DUP2 PUSH2 0x2952 JUMP JUMPDEST SWAP1 POP SWAP2 SWAP1 POP JUMP JUMPDEST PUSH32 0x4F6E6C7920322D746F6B656E2073776170730000000000000000000000000000 PUSH0 DUP3 ADD MSTORE POP JUMP JUMPDEST PUSH0 PUSH2 0x29C6 PUSH1 0x12 DUP4 PUSH2 0x21F8 JUMP JUMPDEST SWAP2 POP PUSH2 0x29D1 DUP3 PUSH2 0x2992 JUMP JUMPDEST PUSH1 0x20 DUP3 ADD SWAP1 POP SWAP2 SWAP1 POP JUMP JUMPDEST PUSH0 PUSH1 0x20 DUP3 ADD SWAP1 POP DUP2 DUP2 SUB PUSH0 DUP4 ADD MSTORE PUSH2 0x29F3 DUP2 PUSH2 0x29BA JUMP JUMPDEST SWAP1 POP SWAP2 SWAP1 POP JUMP JUMPDEST PUSH32 0x4E487B7100000000000000000000000000000000000000000000000000000000 PUSH0 MSTORE PUSH1 0x32 PUSH1 0x4 MSTORE PUSH1 0x24 PUSH0 REVERT JUMPDEST PUSH32 0x496E76616C696420737761702070617468000000000000000000000000000000 PUSH0 DUP3 ADD MSTORE POP JUMP JUMPDEST PUSH0 PUSH2 0x2A5B PUSH1 0x11 DUP4 PUSH2 0x21F8 JUMP JUMPDEST SWAP2 POP PUSH2 0x2A66 DUP3 PUSH2 0x2A27 JUMP JUMPDEST PUSH1 0x20 DUP3 ADD SWAP1 POP SWAP2 SWAP1 POP JUMP JUMPDEST PUSH0 PUSH1 0x20 DUP3 ADD SWAP1 POP DUP2 DUP2 SUB PUSH0 DUP4 ADD MSTORE PUSH2 0x2A88 DUP2 PUSH2 0x2A4F JUMP JUMPDEST SWAP1 POP SWAP2 SWAP1 POP JUMP JUMPDEST PUSH32 0x536C697070616765000000000000000000000000000000000000000000000000 PUSH0 DUP3 ADD MSTORE POP JUMP JUMPDEST PUSH0 PUSH2 0x2AC3 PUSH1 0x8 DUP4 PUSH2 0x21F8 JUMP JUMPDEST SWAP2 POP PUSH2 0x2ACE DUP3 PUSH2 0x2A8F JUMP JUMPDEST PUSH1 0x20 DUP3 ADD SWAP1 POP SWAP2 SWAP1 POP JUMP JUMPDEST PUSH0 PUSH1 0x20 DUP3 ADD SWAP1 POP DUP2 DUP2 SUB PUSH0 DUP4 ADD MSTORE PUSH2 0x2AF0 DUP2 PUSH2 0x2AB7 JUMP JUMPDEST SWAP1 POP SWAP2 SWAP1 POP JUMP JUMPDEST PUSH0 PUSH2 0x2B01 DUP3 PUSH2 0x2143 JUMP JUMPDEST SWAP2 POP PUSH2 0x2B0C DUP4 PUSH2 0x2143 JUMP JUMPDEST SWAP3 POP DUP3 DUP3 SUB SWAP1 POP DUP2 DUP2 GT ISZERO PUSH2 0x2B24 JUMPI PUSH2 0x2B23 PUSH2 0x27CF JUMP JUMPDEST JUMPDEST SWAP3 SWAP2 POP POP JUMP JUMPDEST PUSH32 0x496E76616C696420746F6B656E20706169720000000000000000000000000000 PUSH0 DUP3 ADD MSTORE POP JUMP JUMPDEST PUSH0 PUSH2 0x2B5E PUSH1 0x12 DUP4 PUSH2 0x21F8 JUMP JUMPDEST SWAP2 POP PUSH2 0x2B69 DUP3 PUSH2 0x2B2A JUMP JUMPDEST PUSH1 0x20 DUP3 ADD SWAP1 POP SWAP2 SWAP1 POP JUMP JUMPDEST PUSH0 PUSH1 0x20 DUP3 ADD SWAP1 POP DUP2 DUP2 SUB PUSH0 DUP4 ADD MSTORE PUSH2 0x2B8B DUP2 PUSH2 0x2B52 JUMP JUMPDEST SWAP1 POP SWAP2 SWAP1 POP JUMP JUMPDEST PUSH32 0x4E6F207265736572766573000000000000000000000000000000000000000000 PUSH0 DUP3 ADD MSTORE POP JUMP JUMPDEST PUSH0 PUSH2 0x2BC6 PUSH1 0xB DUP4 PUSH2 0x21F8 JUMP JUMPDEST SWAP2 POP PUSH2 0x2BD1 DUP3 PUSH2 0x2B92 JUMP JUMPDEST PUSH1 0x20 DUP3 ADD SWAP1 POP SWAP2 SWAP1 POP JUMP JUMPDEST PUSH0 PUSH1 0x20 DUP3 ADD SWAP1 POP DUP2 DUP2 SUB PUSH0 DUP4 ADD MSTORE PUSH2 0x2BF3 DUP2 PUSH2 0x2BBA JUMP JUMPDEST SWAP1 POP SWAP2 SWAP1 POP JUMP JUMPDEST PUSH32 0x4E6F7420656E6F756768204C5000000000000000000000000000000000000000 PUSH0 DUP3 ADD MSTORE POP JUMP JUMPDEST PUSH0 PUSH2 0x2C2E PUSH1 0xD DUP4 PUSH2 0x21F8 JUMP JUMPDEST SWAP2 POP PUSH2 0x2C39 DUP3 PUSH2 0x2BFA JUMP JUMPDEST PUSH1 0x20 DUP3 ADD SWAP1 POP SWAP2 SWAP1 POP JUMP JUMPDEST PUSH0 PUSH1 0x20 DUP3 ADD SWAP1 POP DUP2 DUP2 SUB PUSH0 DUP4 ADD MSTORE PUSH2 0x2C5B DUP2 PUSH2 0x2C22 JUMP JUMPDEST SWAP1 POP SWAP2 SWAP1 POP JUMP JUMPDEST PUSH32 0x4C6F772041000000000000000000000000000000000000000000000000000000 PUSH0 DUP3 ADD MSTORE POP JUMP JUMPDEST PUSH0 PUSH2 0x2C96 PUSH1 0x5 DUP4 PUSH2 0x21F8 JUMP JUMPDEST SWAP2 POP PUSH2 0x2CA1 DUP3 PUSH2 0x2C62 JUMP JUMPDEST PUSH1 0x20 DUP3 ADD SWAP1 POP SWAP2 SWAP1 POP JUMP JUMPDEST PUSH0 PUSH1 0x20 DUP3 ADD SWAP1 POP DUP2 DUP2 SUB PUSH0 DUP4 ADD MSTORE PUSH2 0x2CC3 DUP2 PUSH2 0x2C8A JUMP JUMPDEST SWAP1 POP SWAP2 SWAP1 POP JUMP JUMPDEST PUSH32 0x4C6F772042000000000000000000000000000000000000000000000000000000 PUSH0 DUP3 ADD MSTORE POP JUMP JUMPDEST PUSH0 PUSH2 0x2CFE PUSH1 0x5 DUP4 PUSH2 0x21F8 JUMP JUMPDEST SWAP2 POP PUSH2 0x2D09 DUP3 PUSH2 0x2CCA JUMP JUMPDEST PUSH1 0x20 DUP3 ADD SWAP1 POP SWAP2 SWAP1 POP JUMP JUMPDEST PUSH0 PUSH1 0x20 DUP3 ADD SWAP1 POP DUP2 DUP2 SUB PUSH0 DUP4 ADD MSTORE PUSH2 0x2D2B DUP2 PUSH2 0x2CF2 JUMP JUMPDEST SWAP1 POP SWAP2 SWAP1 POP JUMP JUMPDEST PUSH32 0x546F6B656E73206D757374206469666665720000000000000000000000000000 PUSH0 DUP3 ADD MSTORE POP JUMP JUMPDEST PUSH0 PUSH2 0x2D66 PUSH1 0x12 DUP4 PUSH2 0x21F8 JUMP JUMPDEST SWAP2 POP PUSH2 0x2D71 DUP3 PUSH2 0x2D32 JUMP JUMPDEST PUSH1 0x20 DUP3 ADD SWAP1 POP SWAP2 SWAP1 POP JUMP JUMPDEST PUSH0 PUSH1 0x20 DUP3 ADD SWAP1 POP DUP2 DUP2 SUB PUSH0 DUP4 ADD MSTORE PUSH2 0x2D93 DUP2 PUSH2 0x2D5A JUMP JUMPDEST SWAP1 POP SWAP2 SWAP1 POP JUMP JUMPDEST PUSH32 0x546F6F206D756368204200000000000000000000000000000000000000000000 PUSH0 DUP3 ADD MSTORE POP JUMP JUMPDEST PUSH0 PUSH2 0x2DCE PUSH1 0xA DUP4 PUSH2 0x21F8 JUMP JUMPDEST SWAP2 POP PUSH2 0x2DD9 DUP3 PUSH2 0x2D9A JUMP JUMPDEST PUSH1 0x20 DUP3 ADD SWAP1 POP SWAP2 SWAP1 POP JUMP JUMPDEST PUSH0 PUSH1 0x20 DUP3 ADD SWAP1 POP DUP2 DUP2 SUB PUSH0 DUP4 ADD MSTORE PUSH2 0x2DFB DUP2 PUSH2 0x2DC2 JUMP JUMPDEST SWAP1 POP SWAP2 SWAP1 POP JUMP JUMPDEST PUSH32 0x5A65726F206C6971756964697479000000000000000000000000000000000000 PUSH0 DUP3 ADD MSTORE POP JUMP JUMPDEST PUSH0 PUSH2 0x2E36 PUSH1 0xE DUP4 PUSH2 0x21F8 JUMP JUMPDEST SWAP2 POP PUSH2 0x2E41 DUP3 PUSH2 0x2E02 JUMP JUMPDEST PUSH1 0x20 DUP3 ADD SWAP1 POP SWAP2 SWAP1 POP JUMP JUMPDEST PUSH0 PUSH1 0x20 DUP3 ADD SWAP1 POP DUP2 DUP2 SUB PUSH0 DUP4 ADD MSTORE PUSH2 0x2E63 DUP2 PUSH2 0x2E2A JUMP JUMPDEST SWAP1 POP SWAP2 SWAP1 POP JUMP JUMPDEST PUSH0 PUSH1 0x60 DUP3 ADD SWAP1 POP PUSH2 0x2E7D PUSH0 DUP4 ADD DUP7 PUSH2 0x24C4 JUMP JUMPDEST PUSH2 0x2E8A PUSH1 0x20 DUP4 ADD DUP6 PUSH2 0x21C6 JUMP JUMPDEST PUSH2 0x2E97 PUSH1 0x40 DUP4 ADD DUP5 PUSH2 0x21C6 JUMP JUMPDEST SWAP5 SWAP4 POP POP POP POP JUMP JUMPDEST PUSH0 PUSH1 0x60 DUP3 ADD SWAP1 POP PUSH2 0x2EB2 PUSH0 DUP4 ADD DUP7 PUSH2 0x24C4 JUMP JUMPDEST PUSH2 0x2EBF PUSH1 0x20 DUP4 ADD DUP6 PUSH2 0x24C4 JUMP JUMPDEST PUSH2 0x2ECC PUSH1 0x40 DUP4 ADD DUP5 PUSH2 0x21C6 JUMP JUMPDEST SWAP5 SWAP4 POP POP POP POP JUMP JUMPDEST PUSH0 PUSH1 0x40 DUP3 ADD SWAP1 POP PUSH2 0x2EE7 PUSH0 DUP4 ADD DUP6 PUSH2 0x24C4 JUMP JUMPDEST PUSH2 0x2EF4 PUSH1 0x20 DUP4 ADD DUP5 PUSH2 0x21C6 JUMP JUMPDEST SWAP4 SWAP3 POP POP POP JUMP INVALID LOG2 PUSH5 0x6970667358 0x22 SLT KECCAK256 SSTORE EOFCREATE 0x5C 0xB1 MSTORE8 ADD SWAPN 0x80 EXTDELEGATECALL CALLDATACOPY PUSH31 0x5C9003466C5EC616DA5CCA2AD59CE88D00EFBF6C4364736F6C634300081E00 CALLER "
		},
		"gasEstimates": {
			"creation": {
				"codeDepositCost": "2416200",
				"executionCost": "infinite",
				"totalCost": "infinite"
			},
			"external": {
				"addLiquidity(address,address,uint256,uint256,uint256,uint256,address,uint256)": "infinite",
				"allowance(address,address)": "infinite",
				"approve(address,uint256)": "infinite",
				"balanceOf(address)": "2851",
				"decimals()": "405",
				"getAmountOut(uint256,uint256,uint256)": "infinite",
				"getPrice(address,address)": "infinite",
				"name()": "infinite",
				"removeLiquidity(address,address,uint256,uint256,uint256,address,uint256)": "infinite",
				"reserveA()": "2469",
				"reserveB()": "2448",
				"swapExactTokensForTokens(uint256,uint256,address[],address,uint256)": "infinite",
				"symbol()": "infinite",
				"tokenAAddres()": "2619",
				"tokenBAddres()": "2618",
				"totalSupply()": "2522",
				"transfer(address,uint256)": "infinite",
				"transferFrom(address,address,uint256)": "infinite"
			}
		},
		"methodIdentifiers": {
			"addLiquidity(address,address,uint256,uint256,uint256,uint256,address,uint256)": "e8e33700",
			"allowance(address,address)": "dd62ed3e",
			"approve(address,uint256)": "095ea7b3",
			"balanceOf(address)": "70a08231",
			"decimals()": "313ce567",
			"getAmountOut(uint256,uint256,uint256)": "054d50d4",
			"getPrice(address,address)": "ac41865a",
			"name()": "06fdde03",
			"removeLiquidity(address,address,uint256,uint256,uint256,address,uint256)": "baa2abde",
			"reserveA()": "dc5fa6c5",
			"reserveB()": "19e36f3b",
			"swapExactTokensForTokens(uint256,uint256,address[],address,uint256)": "38ed1739",
			"symbol()": "95d89b41",
			"tokenAAddres()": "50430ce4",
			"tokenBAddres()": "eed86c96",
			"totalSupply()": "18160ddd",
			"transfer(address,uint256)": "a9059cbb",
			"transferFrom(address,address,uint256)": "23b872dd"
		}
	},
	"abi": [
		{
			"inputs": [],
			"stateMutability": "nonpayable",
			"type": "constructor"
		},
		{
			"inputs": [
				{
					"internalType": "address",
					"name": "spender",
					"type": "address"
				},
				{
					"internalType": "uint256",
					"name": "allowance",
					"type": "uint256"
				},
				{
					"internalType": "uint256",
					"name": "needed",
					"type": "uint256"
				}
			],
			"name": "ERC20InsufficientAllowance",
			"type": "error"
		},
		{
			"inputs": [
				{
					"internalType": "address",
					"name": "sender",
					"type": "address"
				},
				{
					"internalType": "uint256",
					"name": "balance",
					"type": "uint256"
				},
				{
					"internalType": "uint256",
					"name": "needed",
					"type": "uint256"
				}
			],
			"name": "ERC20InsufficientBalance",
			"type": "error"
		},
		{
			"inputs": [
				{
					"internalType": "address",
					"name": "approver",
					"type": "address"
				}
			],
			"name": "ERC20InvalidApprover",
			"type": "error"
		},
		{
			"inputs": [
				{
					"internalType": "address",
					"name": "receiver",
					"type": "address"
				}
			],
			"name": "ERC20InvalidReceiver",
			"type": "error"
		},
		{
			"inputs": [
				{
					"internalType": "address",
					"name": "sender",
					"type": "address"
				}
			],
			"name": "ERC20InvalidSender",
			"type": "error"
		},
		{
			"inputs": [
				{
					"internalType": "address",
					"name": "spender",
					"type": "address"
				}
			],
			"name": "ERC20InvalidSpender",
			"type": "error"
		},
		{
			"inputs": [
				{
					"internalType": "address",
					"name": "token",
					"type": "address"
				}
			],
			"name": "SafeERC20FailedOperation",
			"type": "error"
		},
		{
			"anonymous": false,
			"inputs": [
				{
					"indexed": true,
					"internalType": "address",
					"name": "owner",
					"type": "address"
				},
				{
					"indexed": true,
					"internalType": "address",
					"name": "spender",
					"type": "address"
				},
				{
					"indexed": false,
					"internalType": "uint256",
					"name": "value",
					"type": "uint256"
				}
			],
			"name": "Approval",
			"type": "event"
		},
		{
			"anonymous": false,
			"inputs": [
				{
					"indexed": true,
					"internalType": "address",
					"name": "from",
					"type": "address"
				},
				{
					"indexed": true,
					"internalType": "address",
					"name": "to",
					"type": "address"
				},
				{
					"indexed": false,
					"internalType": "uint256",
					"name": "value",
					"type": "uint256"
				}
			],
			"name": "Transfer",
			"type": "event"
		},
		{
			"inputs": [
				{
					"internalType": "address",
					"name": "tokenA",
					"type": "address"
				},
				{
					"internalType": "address",
					"name": "tokenB",
					"type": "address"
				},
				{
					"internalType": "uint256",
					"name": "amountADesired",
					"type": "uint256"
				},
				{
					"internalType": "uint256",
					"name": "amountBDesired",
					"type": "uint256"
				},
				{
					"internalType": "uint256",
					"name": "amountAMin",
					"type": "uint256"
				},
				{
					"internalType": "uint256",
					"name": "amountBMin",
					"type": "uint256"
				},
				{
					"internalType": "address",
					"name": "to",
					"type": "address"
				},
				{
					"internalType": "uint256",
					"name": "deadline",
					"type": "uint256"
				}
			],
			"name": "addLiquidity",
			"outputs": [
				{
					"internalType": "uint256",
					"name": "amountA",
					"type": "uint256"
				},
				{
					"internalType": "uint256",
					"name": "amountB",
					"type": "uint256"
				},
				{
					"internalType": "uint256",
					"name": "liquidity",
					"type": "uint256"
				}
			],
			"stateMutability": "nonpayable",
			"type": "function"
		},
		{
			"inputs": [
				{
					"internalType": "address",
					"name": "owner",
					"type": "address"
				},
				{
					"internalType": "address",
					"name": "spender",
					"type": "address"
				}
			],
			"name": "allowance",
			"outputs": [
				{
					"internalType": "uint256",
					"name": "",
					"type": "uint256"
				}
			],
			"stateMutability": "view",
			"type": "function"
		},
		{
			"inputs": [
				{
					"internalType": "address",
					"name": "spender",
					"type": "address"
				},
				{
					"internalType": "uint256",
					"name": "value",
					"type": "uint256"
				}
			],
			"name": "approve",
			"outputs": [
				{
					"internalType": "bool",
					"name": "",
					"type": "bool"
				}
			],
			"stateMutability": "nonpayable",
			"type": "function"
		},
		{
			"inputs": [
				{
					"internalType": "address",
					"name": "account",
					"type": "address"
				}
			],
			"name": "balanceOf",
			"outputs": [
				{
					"internalType": "uint256",
					"name": "",
					"type": "uint256"
				}
			],
			"stateMutability": "view",
			"type": "function"
		},
		{
			"inputs": [],
			"name": "decimals",
			"outputs": [
				{
					"internalType": "uint8",
					"name": "",
					"type": "uint8"
				}
			],
			"stateMutability": "view",
			"type": "function"
		},
		{
			"inputs": [
				{
					"internalType": "uint256",
					"name": "amountIn",
					"type": "uint256"
				},
				{
					"internalType": "uint256",
					"name": "reserveIn",
					"type": "uint256"
				},
				{
					"internalType": "uint256",
					"name": "reserveOut",
					"type": "uint256"
				}
			],
			"name": "getAmountOut",
			"outputs": [
				{
					"internalType": "uint256",
					"name": "",
					"type": "uint256"
				}
			],
			"stateMutability": "pure",
			"type": "function"
		},
		{
			"inputs": [
				{
					"internalType": "address",
					"name": "_tokenA",
					"type": "address"
				},
				{
					"internalType": "address",
					"name": "_tokenB",
					"type": "address"
				}
			],
			"name": "getPrice",
			"outputs": [
				{
					"internalType": "uint256",
					"name": "price",
					"type": "uint256"
				}
			],
			"stateMutability": "view",
			"type": "function"
		},
		{
			"inputs": [],
			"name": "name",
			"outputs": [
				{
					"internalType": "string",
					"name": "",
					"type": "string"
				}
			],
			"stateMutability": "view",
			"type": "function"
		},
		{
			"inputs": [
				{
					"internalType": "address",
					"name": "tokenA",
					"type": "address"
				},
				{
					"internalType": "address",
					"name": "tokenB",
					"type": "address"
				},
				{
					"internalType": "uint256",
					"name": "liquidity",
					"type": "uint256"
				},
				{
					"internalType": "uint256",
					"name": "amountAMin",
					"type": "uint256"
				},
				{
					"internalType": "uint256",
					"name": "amountBMin",
					"type": "uint256"
				},
				{
					"internalType": "address",
					"name": "to",
					"type": "address"
				},
				{
					"internalType": "uint256",
					"name": "deadline",
					"type": "uint256"
				}
			],
			"name": "removeLiquidity",
			"outputs": [
				{
					"internalType": "uint256",
					"name": "amountA",
					"type": "uint256"
				},
				{
					"internalType": "uint256",
					"name": "amountB",
					"type": "uint256"
				}
			],
			"stateMutability": "nonpayable",
			"type": "function"
		},
		{
			"inputs": [],
			"name": "reserveA",
			"outputs": [
				{
					"internalType": "uint256",
					"name": "",
					"type": "uint256"
				}
			],
			"stateMutability": "view",
			"type": "function"
		},
		{
			"inputs": [],
			"name": "reserveB",
			"outputs": [
				{
					"internalType": "uint256",
					"name": "",
					"type": "uint256"
				}
			],
			"stateMutability": "view",
			"type": "function"
		},
		{
			"inputs": [
				{
					"internalType": "uint256",
					"name": "amountIn",
					"type": "uint256"
				},
				{
					"internalType": "uint256",
					"name": "amountOutMin",
					"type": "uint256"
				},
				{
					"internalType": "address[]",
					"name": "path",
					"type": "address[]"
				},
				{
					"internalType": "address",
					"name": "to",
					"type": "address"
				},
				{
					"internalType": "uint256",
					"name": "deadline",
					"type": "uint256"
				}
			],
			"name": "swapExactTokensForTokens",
			"outputs": [],
			"stateMutability": "nonpayable",
			"type": "function"
		},
		{
			"inputs": [],
			"name": "symbol",
			"outputs": [
				{
					"internalType": "string",
					"name": "",
					"type": "string"
				}
			],
			"stateMutability": "view",
			"type": "function"
		},
		{
			"inputs": [],
			"name": "tokenAAddres",
			"outputs": [
				{
					"internalType": "address",
					"name": "",
					"type": "address"
				}
			],
			"stateMutability": "view",
			"type": "function"
		},
		{
			"inputs": [],
			"name": "tokenBAddres",
			"outputs": [
				{
					"internalType": "address",
					"name": "",
					"type": "address"
				}
			],
			"stateMutability": "view",
			"type": "function"
		},
		{
			"inputs": [],
			"name": "totalSupply",
			"outputs": [
				{
					"internalType": "uint256",
					"name": "",
					"type": "uint256"
				}
			],
			"stateMutability": "view",
			"type": "function"
		},
		{
			"inputs": [
				{
					"internalType": "address",
					"name": "to",
					"type": "address"
				},
				{
					"internalType": "uint256",
					"name": "value",
					"type": "uint256"
				}
			],
			"name": "transfer",
			"outputs": [
				{
					"internalType": "bool",
					"name": "",
					"type": "bool"
				}
			],
			"stateMutability": "nonpayable",
			"type": "function"
		},
		{
			"inputs": [
				{
					"internalType": "address",
					"name": "from",
					"type": "address"
				},
				{
					"internalType": "address",
					"name": "to",
					"type": "address"
				},
				{
					"internalType": "uint256",
					"name": "value",
					"type": "uint256"
				}
			],
			"name": "transferFrom",
			"outputs": [
				{
					"internalType": "bool",
					"name": "",
					"type": "bool"
				}
			],
			"stateMutability": "nonpayable",
			"type": "function"
		}
	]
}